{
  "contractName": "DocumentReg",
  "abi": [
    {
      "constant": true,
      "inputs": [],
      "name": "createTime",
      "outputs": [
        {
          "name": "",
          "type": "uint256"
        }
      ],
      "payable": false,
      "stateMutability": "view",
      "type": "function"
    },
    {
      "constant": false,
      "inputs": [],
      "name": "renounceOwnership",
      "outputs": [],
      "payable": false,
      "stateMutability": "nonpayable",
      "type": "function"
    },
    {
      "constant": true,
      "inputs": [],
      "name": "owner",
      "outputs": [
        {
          "name": "",
          "type": "address"
        }
      ],
      "payable": false,
      "stateMutability": "view",
      "type": "function"
    },
    {
      "constant": false,
      "inputs": [
        {
          "name": "_newOwner",
          "type": "address"
        }
      ],
      "name": "transferOwnership",
      "outputs": [],
      "payable": false,
      "stateMutability": "nonpayable",
      "type": "function"
    },
    {
      "anonymous": false,
      "inputs": [
        {
          "indexed": false,
          "name": "timestamp",
          "type": "uint256"
        },
        {
          "indexed": false,
          "name": "token",
          "type": "address"
        }
      ],
      "name": "_InitializeDocumentReg",
      "type": "event"
    },
    {
      "anonymous": false,
      "inputs": [
        {
          "indexed": true,
          "name": "docId",
          "type": "bytes32"
        },
        {
          "indexed": false,
          "name": "timestamp",
          "type": "uint256"
        },
        {
          "indexed": true,
          "name": "applicant",
          "type": "address"
        },
        {
          "indexed": false,
          "name": "count",
          "type": "uint256"
        }
      ],
      "name": "_RegisterNewDocument",
      "type": "event"
    },
    {
      "anonymous": false,
      "inputs": [
        {
          "indexed": true,
          "name": "docId",
          "type": "bytes32"
        },
        {
          "indexed": false,
          "name": "timestamp",
          "type": "uint256"
        },
        {
          "indexed": true,
          "name": "applicant",
          "type": "address"
        }
      ],
      "name": "_UpdateDocument",
      "type": "event"
    },
    {
      "anonymous": false,
      "inputs": [
        {
          "indexed": true,
          "name": "docId",
          "type": "bytes32"
        },
        {
          "indexed": false,
          "name": "timestamp",
          "type": "uint256"
        },
        {
          "indexed": false,
          "name": "pageView",
          "type": "uint256"
        }
      ],
      "name": "_ConfirmPageView",
      "type": "event"
    },
    {
      "anonymous": false,
      "inputs": [
        {
          "indexed": false,
          "name": "timestamp",
          "type": "uint256"
        },
        {
          "indexed": false,
          "name": "pageView",
          "type": "uint256"
        },
        {
          "indexed": false,
          "name": "pageViewSquare",
          "type": "uint256"
        }
      ],
      "name": "_ConfirmTotalPageView",
      "type": "event"
    },
    {
      "anonymous": false,
      "inputs": [
        {
          "indexed": true,
          "name": "docId",
          "type": "bytes32"
        },
        {
          "indexed": false,
          "name": "deposit",
          "type": "uint256"
        },
        {
          "indexed": true,
          "name": "applicant",
          "type": "address"
        }
      ],
      "name": "_VoteOnDocument",
      "type": "event"
    },
    {
      "anonymous": false,
      "inputs": [
        {
          "indexed": true,
          "name": "docId",
          "type": "bytes32"
        },
        {
          "indexed": false,
          "name": "deposit",
          "type": "uint256"
        },
        {
          "indexed": true,
          "name": "applicant",
          "type": "address"
        },
        {
          "indexed": false,
          "name": "timestamp",
          "type": "uint256"
        }
      ],
      "name": "_UpdateVoteOnDocument",
      "type": "event"
    },
    {
      "anonymous": false,
      "inputs": [
        {
          "indexed": true,
          "name": "docId",
          "type": "bytes32"
        },
        {
          "indexed": false,
          "name": "reward",
          "type": "uint256"
        },
        {
          "indexed": true,
          "name": "applicant",
          "type": "address"
        }
      ],
      "name": "_ClaimAuthorReward",
      "type": "event"
    },
    {
      "anonymous": false,
      "inputs": [
        {
          "indexed": true,
          "name": "docId",
          "type": "bytes32"
        },
        {
          "indexed": false,
          "name": "reward",
          "type": "uint256"
        },
        {
          "indexed": true,
          "name": "applicant",
          "type": "address"
        }
      ],
      "name": "_ClaimCuratorReward",
      "type": "event"
    },
    {
      "anonymous": false,
      "inputs": [
        {
          "indexed": true,
          "name": "previousOwner",
          "type": "address"
        }
      ],
      "name": "OwnershipRenounced",
      "type": "event"
    },
    {
      "anonymous": false,
      "inputs": [
        {
          "indexed": true,
          "name": "previousOwner",
          "type": "address"
        },
        {
          "indexed": true,
          "name": "newOwner",
          "type": "address"
        }
      ],
      "name": "OwnershipTransferred",
      "type": "event"
    },
    {
      "constant": false,
      "inputs": [
        {
          "name": "_token",
          "type": "address"
        },
        {
          "name": "_author",
          "type": "address"
        },
        {
          "name": "_curator",
          "type": "address"
        },
        {
          "name": "_utility",
          "type": "address"
        }
      ],
      "name": "init",
      "outputs": [],
      "payable": false,
      "stateMutability": "nonpayable",
      "type": "function"
    },
    {
      "constant": false,
      "inputs": [
        {
          "name": "_docId",
          "type": "bytes32"
        }
      ],
      "name": "register",
      "outputs": [],
      "payable": false,
      "stateMutability": "nonpayable",
      "type": "function"
    },
    {
      "constant": false,
      "inputs": [
        {
          "name": "_addr",
          "type": "address"
        },
        {
          "name": "_docId",
          "type": "bytes32"
        },
        {
          "name": "_timestamp",
          "type": "uint256"
        }
      ],
      "name": "update",
      "outputs": [],
      "payable": false,
      "stateMutability": "nonpayable",
      "type": "function"
    },
    {
      "constant": true,
      "inputs": [
        {
          "name": "_docId",
          "type": "bytes32"
        }
      ],
      "name": "contains",
      "outputs": [
        {
          "name": "",
          "type": "bool"
        }
      ],
      "payable": false,
      "stateMutability": "view",
      "type": "function"
    },
    {
      "constant": true,
      "inputs": [
        {
          "name": "_docId",
          "type": "bytes32"
        }
      ],
      "name": "getAuthorByKey",
      "outputs": [
        {
          "name": "",
          "type": "address"
        }
      ],
      "payable": false,
      "stateMutability": "view",
      "type": "function"
    },
    {
      "constant": true,
      "inputs": [
        {
          "name": "_docId",
          "type": "bytes32"
        }
      ],
      "name": "getCreateTimeByKey",
      "outputs": [
        {
          "name": "",
          "type": "uint256"
        }
      ],
      "payable": false,
      "stateMutability": "view",
      "type": "function"
    },
    {
      "constant": true,
      "inputs": [],
      "name": "count",
      "outputs": [
        {
          "name": "",
          "type": "uint256"
        }
      ],
      "payable": false,
      "stateMutability": "view",
      "type": "function"
    },
    {
      "constant": true,
      "inputs": [],
      "name": "getDocuments",
      "outputs": [
        {
          "name": "",
          "type": "bytes32[]"
        }
      ],
      "payable": false,
      "stateMutability": "view",
      "type": "function"
    },
    {
      "constant": false,
      "inputs": [
        {
          "name": "_date",
          "type": "uint256"
        },
        {
          "name": "_totalPageView",
          "type": "uint256"
        },
        {
          "name": "_totalPageViewSquare",
          "type": "uint256"
        }
      ],
      "name": "confirmTotalPageView",
      "outputs": [],
      "payable": false,
      "stateMutability": "nonpayable",
      "type": "function"
    },
    {
      "constant": true,
      "inputs": [
        {
          "name": "_date",
          "type": "uint256"
        }
      ],
      "name": "getTotalPageView",
      "outputs": [
        {
          "name": "",
          "type": "uint256"
        }
      ],
      "payable": false,
      "stateMutability": "view",
      "type": "function"
    },
    {
      "constant": true,
      "inputs": [
        {
          "name": "_date",
          "type": "uint256"
        }
      ],
      "name": "getTotalPageViewSquare",
      "outputs": [
        {
          "name": "",
          "type": "uint256"
        }
      ],
      "payable": false,
      "stateMutability": "view",
      "type": "function"
    },
    {
      "constant": false,
      "inputs": [
        {
          "name": "_docId",
          "type": "bytes32"
        },
        {
          "name": "_date",
          "type": "uint256"
        },
        {
          "name": "_pageView",
          "type": "uint256"
        }
      ],
      "name": "confirmPageView",
      "outputs": [],
      "payable": false,
      "stateMutability": "nonpayable",
      "type": "function"
    },
    {
      "constant": true,
      "inputs": [
        {
          "name": "_docId",
          "type": "bytes32"
        },
        {
          "name": "_date",
          "type": "uint256"
        }
      ],
      "name": "getPageView",
      "outputs": [
        {
          "name": "",
          "type": "uint256"
        }
      ],
      "payable": false,
      "stateMutability": "view",
      "type": "function"
    },
    {
      "constant": true,
      "inputs": [
        {
          "name": "_addr",
          "type": "address"
        },
        {
          "name": "_docId",
          "type": "bytes32"
        }
      ],
      "name": "determineAuthorReward",
      "outputs": [
        {
          "name": "",
          "type": "uint256"
        }
      ],
      "payable": false,
      "stateMutability": "view",
      "type": "function"
    },
    {
      "constant": false,
      "inputs": [
        {
          "name": "_docId",
          "type": "bytes32"
        }
      ],
      "name": "claimAuthorReward",
      "outputs": [],
      "payable": false,
      "stateMutability": "nonpayable",
      "type": "function"
    },
    {
      "constant": true,
      "inputs": [
        {
          "name": "_addr",
          "type": "address"
        },
        {
          "name": "_docId",
          "type": "bytes32"
        }
      ],
      "name": "estimateCuratorReward",
      "outputs": [
        {
          "name": "",
          "type": "uint256"
        }
      ],
      "payable": false,
      "stateMutability": "view",
      "type": "function"
    },
    {
      "constant": true,
      "inputs": [
        {
          "name": "_docId",
          "type": "bytes32"
        }
      ],
      "name": "determineCuratorReward",
      "outputs": [
        {
          "name": "",
          "type": "uint256"
        }
      ],
      "payable": false,
      "stateMutability": "view",
      "type": "function"
    },
    {
      "constant": false,
      "inputs": [
        {
          "name": "_docId",
          "type": "bytes32"
        }
      ],
      "name": "claimCuratorReward",
      "outputs": [],
      "payable": false,
      "stateMutability": "nonpayable",
      "type": "function"
    },
    {
      "constant": false,
      "inputs": [
        {
          "name": "_docId",
          "type": "bytes32"
        },
        {
          "name": "_deposit",
          "type": "uint256"
        }
      ],
      "name": "voteOnDocument",
      "outputs": [],
      "payable": false,
      "stateMutability": "nonpayable",
      "type": "function"
    },
    {
      "constant": false,
      "inputs": [
        {
          "name": "_addr",
          "type": "address"
        },
        {
          "name": "_docId",
          "type": "bytes32"
        },
        {
          "name": "_deposit",
          "type": "uint256"
        },
        {
          "name": "_timestamp",
          "type": "uint256"
        }
      ],
      "name": "updateVoteOnDocument",
      "outputs": [],
      "payable": false,
      "stateMutability": "nonpayable",
      "type": "function"
    }
  ],
  "bytecode": "0x6080604052336000806101000a81548173ffffffffffffffffffffffffffffffffffffffff021916908373ffffffffffffffffffffffffffffffffffffffff160217905550614c99806100536000396000f30060806040526004361061013e576000357c0100000000000000000000000000000000000000000000000000000000900463ffffffff16806306552ff31461014357806306661abd146101e657806309547eec14610211578063147661281461026c5780631d1a696d146102a75780631dd5bca3146102f05780633a7247c6146103555780634c9d31ca146103ba57806357835e011461040957806361dcd7ab1461043a5780636bb0584714610465578063715018a6146104965780637ca36b94146104ad5780638da5cb5b146104ee57806393cbcec314610545578063999d6bf41461058a578063aa55a67e146105cf578063caac83e414610634578063e1fa8e8414610679578063ef2d8700146106aa578063f26b448214610716578063f2cf475414610757578063f2fde38b146107c8578063f93eab331461080b575b600080fd5b34801561014f57600080fd5b506101e4600480360381019080803573ffffffffffffffffffffffffffffffffffffffff169060200190929190803573ffffffffffffffffffffffffffffffffffffffff169060200190929190803573ffffffffffffffffffffffffffffffffffffffff169060200190929190803573ffffffffffffffffffffffffffffffffffffffff16906020019092919050505061084c565b005b3480156101f257600080fd5b506101fb610f27565b6040518082815260200191505060405180910390f35b34801561021d57600080fd5b5061026a600480360381019080803573ffffffffffffffffffffffffffffffffffffffff169060200190929190803560001916906020019092919080359060200190929190505050610f34565b005b34801561027857600080fd5b506102a56004803603810190808035600019169060200190929190803590602001909291905050506111c8565b005b3480156102b357600080fd5b506102d66004803603810190808035600019169060200190929190505050611520565b604051808215151515815260200191505060405180910390f35b3480156102fc57600080fd5b5061033f600480360381019080803573ffffffffffffffffffffffffffffffffffffffff169060200190929190803560001916906020019092919050505061154b565b6040518082815260200191505060405180910390f35b34801561036157600080fd5b506103a4600480360381019080803573ffffffffffffffffffffffffffffffffffffffff1690602001909291908035600019169060200190929190505050611d74565b6040518082815260200191505060405180910390f35b3480156103c657600080fd5b506103f3600480360381019080803560001916906020019092919080359060200190929190505050612442565b6040518082815260200191505060405180910390f35b34801561041557600080fd5b5061043860048036038101908080356000191690602001909291905050506124a9565b005b34801561044657600080fd5b5061044f61316d565b6040518082815260200191505060405180910390f35b34801561047157600080fd5b506104946004803603810190808035600019169060200190929190505050613173565b005b3480156104a257600080fd5b506104ab613729565b005b3480156104b957600080fd5b506104d86004803603810190808035906020019092919050505061382b565b6040518082815260200191505060405180910390f35b3480156104fa57600080fd5b50610503613857565b604051808273ffffffffffffffffffffffffffffffffffffffff1673ffffffffffffffffffffffffffffffffffffffff16815260200191505060405180910390f35b34801561055157600080fd5b50610574600480360381019080803560001916906020019092919050505061387c565b6040518082815260200191505060405180910390f35b34801561059657600080fd5b506105b96004803603810190808035600019169060200190929190505050614102565b6040518082815260200191505060405180910390f35b3480156105db57600080fd5b50610632600480360381019080803573ffffffffffffffffffffffffffffffffffffffff16906020019092919080356000191690602001909291908035906020019092919080359060200190929190505050614157565b005b34801561064057600080fd5b50610677600480360381019080803560001916906020019092919080359060200190929190803590602001909291905050506143e7565b005b34801561068557600080fd5b506106a860048036038101908080356000191690602001909291905050506144f3565b005b3480156106b657600080fd5b506106bf614908565b6040518080602001828103825283818151815260200191508051906020019060200280838360005b838110156107025780820151818401526020810190506106e7565b505050509050019250505060405180910390f35b34801561072257600080fd5b5061074160048036038101908080359060200190929190505050614964565b6040518082815260200191505060405180910390f35b34801561076357600080fd5b506107866004803603810190808035600019169060200190929190505050614990565b604051808273ffffffffffffffffffffffffffffffffffffffff1673ffffffffffffffffffffffffffffffffffffffff16815260200191505060405180910390f35b3480156107d457600080fd5b50610809600480360381019080803573ffffffffffffffffffffffffffffffffffffffff169060200190929190505050614a05565b005b34801561081757600080fd5b5061084a600480360381019080803590602001909291908035906020019092919080359060200190929190505050614a6c565b005b6000809054906101000a900473ffffffffffffffffffffffffffffffffffffffff1673ffffffffffffffffffffffffffffffffffffffff163373ffffffffffffffffffffffffffffffffffffffff161415156108a757600080fd5b60008473ffffffffffffffffffffffffffffffffffffffff161415801561090657506000600560009054906101000a900473ffffffffffffffffffffffffffffffffffffffff1673ffffffffffffffffffffffffffffffffffffffff16145b151561091157600080fd5b60008373ffffffffffffffffffffffffffffffffffffffff161415801561097057506000600760009054906101000a900473ffffffffffffffffffffffffffffffffffffffff1673ffffffffffffffffffffffffffffffffffffffff16145b151561097b57600080fd5b60008273ffffffffffffffffffffffffffffffffffffffff16141580156109da57506000600860009054906101000a900473ffffffffffffffffffffffffffffffffffffffff1673ffffffffffffffffffffffffffffffffffffffff16145b15156109e557600080fd5b60008173ffffffffffffffffffffffffffffffffffffffff1614158015610a4457506000600660009054906101000a900473ffffffffffffffffffffffffffffffffffffffff1673ffffffffffffffffffffffffffffffffffffffff16145b1515610a4f57600080fd5b83600560006101000a81548173ffffffffffffffffffffffffffffffffffffffff021916908373ffffffffffffffffffffffffffffffffffffffff16021790555080600660006101000a81548173ffffffffffffffffffffffffffffffffffffffff021916908373ffffffffffffffffffffffffffffffffffffffff16021790555082600760006101000a81548173ffffffffffffffffffffffffffffffffffffffff021916908373ffffffffffffffffffffffffffffffffffffffff160217905550600760009054906101000a900473ffffffffffffffffffffffffffffffffffffffff1673ffffffffffffffffffffffffffffffffffffffff1663f09a4016600560009054906101000a900473ffffffffffffffffffffffffffffffffffffffff16600660009054906101000a900473ffffffffffffffffffffffffffffffffffffffff166040518363ffffffff167c0100000000000000000000000000000000000000000000000000000000028152600401808373ffffffffffffffffffffffffffffffffffffffff1673ffffffffffffffffffffffffffffffffffffffff1681526020018273ffffffffffffffffffffffffffffffffffffffff1673ffffffffffffffffffffffffffffffffffffffff16815260200192505050600060405180830381600087803b158015610c4757600080fd5b505af1158015610c5b573d6000803e3d6000fd5b5050505081600860006101000a81548173ffffffffffffffffffffffffffffffffffffffff021916908373ffffffffffffffffffffffffffffffffffffffff160217905550600860009054906101000a900473ffffffffffffffffffffffffffffffffffffffff1673ffffffffffffffffffffffffffffffffffffffff1663f09a4016600560009054906101000a900473ffffffffffffffffffffffffffffffffffffffff16600660009054906101000a900473ffffffffffffffffffffffffffffffffffffffff166040518363ffffffff167c0100000000000000000000000000000000000000000000000000000000028152600401808373ffffffffffffffffffffffffffffffffffffffff1673ffffffffffffffffffffffffffffffffffffffff1681526020018273ffffffffffffffffffffffffffffffffffffffff1673ffffffffffffffffffffffffffffffffffffffff16815260200192505050600060405180830381600087803b158015610dd557600080fd5b505af1158015610de9573d6000803e3d6000fd5b50505050600660009054906101000a900473ffffffffffffffffffffffffffffffffffffffff1673ffffffffffffffffffffffffffffffffffffffff1663c03812226040518163ffffffff167c0100000000000000000000000000000000000000000000000000000000028152600401602060405180830381600087803b158015610e7357600080fd5b505af1158015610e87573d6000803e3d6000fd5b505050506040513d6020811015610e9d57600080fd5b81019080805190602001909291905050506009819055507f8742e3e96e789a57b576070034c2cdb8980c6be1567aabcac37dbe7130db927960095485604051808381526020018273ffffffffffffffffffffffffffffffffffffffff1673ffffffffffffffffffffffffffffffffffffffff1681526020019250505060405180910390a150505050565b6000600280549050905090565b6000809054906101000a900473ffffffffffffffffffffffffffffffffffffffff1673ffffffffffffffffffffffffffffffffffffffff163373ffffffffffffffffffffffffffffffffffffffff16141515610f8f57600080fd5b6000600160008460001916600019168152602001908152602001600020600101541415610fe95760028290806001815401808255809150509060018203906000526020600020016000909192909190915090600019169055505b60408051908101604052808473ffffffffffffffffffffffffffffffffffffffff1681526020018281525060016000846000191660001916815260200190815260200160002060008201518160000160006101000a81548173ffffffffffffffffffffffffffffffffffffffff021916908373ffffffffffffffffffffffffffffffffffffffff16021790555060208201518160010155905050600760009054906101000a900473ffffffffffffffffffffffffffffffffffffffff1673ffffffffffffffffffffffffffffffffffffffff1663fc2ce2af8385846040518463ffffffff167c01000000000000000000000000000000000000000000000000000000000281526004018084600019166000191681526020018373ffffffffffffffffffffffffffffffffffffffff1673ffffffffffffffffffffffffffffffffffffffff1681526020018281526020019350505050600060405180830381600087803b15801561115857600080fd5b505af115801561116c573d6000803e3d6000fd5b505050508273ffffffffffffffffffffffffffffffffffffffff1682600019167f0b94e4ec34698b1da6ae21b109ae0c268dfd3436981a7e949de44a8df4a112f5836040518082815260200191505060405180910390a3505050565b6000811115156111d757600080fd5b6000600860009054906101000a900473ffffffffffffffffffffffffffffffffffffffff1673ffffffffffffffffffffffffffffffffffffffff166361dcd7ab6040518163ffffffff167c0100000000000000000000000000000000000000000000000000000000028152600401602060405180830381600087803b15801561125f57600080fd5b505af1158015611273573d6000803e3d6000fd5b505050506040513d602081101561128957600080fd5b8101908080519060200190929190505050141515156112a757600080fd5b600560009054906101000a900473ffffffffffffffffffffffffffffffffffffffff1673ffffffffffffffffffffffffffffffffffffffff166323b872dd3330846040518463ffffffff167c0100000000000000000000000000000000000000000000000000000000028152600401808473ffffffffffffffffffffffffffffffffffffffff1673ffffffffffffffffffffffffffffffffffffffff1681526020018373ffffffffffffffffffffffffffffffffffffffff1673ffffffffffffffffffffffffffffffffffffffff1681526020018281526020019350505050602060405180830381600087803b1580156113a057600080fd5b505af11580156113b4573d6000803e3d6000fd5b505050506040513d60208110156113ca57600080fd5b810190808051906020019092919050505050600860009054906101000a900473ffffffffffffffffffffffffffffffffffffffff1673ffffffffffffffffffffffffffffffffffffffff166302096d833384846040518463ffffffff167c0100000000000000000000000000000000000000000000000000000000028152600401808473ffffffffffffffffffffffffffffffffffffffff1673ffffffffffffffffffffffffffffffffffffffff16815260200183600019166000191681526020018281526020019350505050600060405180830381600087803b1580156114b157600080fd5b505af11580156114c5573d6000803e3d6000fd5b505050503373ffffffffffffffffffffffffffffffffffffffff1682600019167f0c75c6a0cc6b6403ea7acee71d8aa1556e09a34e8560c6f9ab5b6152bfcd8ef1836040518082815260200191505060405180910390a35050565b6000806001600084600019166000191681526020019081526020016000206001015414159050919050565b6000806000806000806000806000808b73ffffffffffffffffffffffffffffffffffffffff161415151561157e57600080fd5b6000600860009054906101000a900473ffffffffffffffffffffffffffffffffffffffff1673ffffffffffffffffffffffffffffffffffffffff166361dcd7ab6040518163ffffffff167c0100000000000000000000000000000000000000000000000000000000028152600401602060405180830381600087803b15801561160657600080fd5b505af115801561161a573d6000803e3d6000fd5b505050506040513d602081101561163057600080fd5b81019080805190602001909291905050501415151561164e57600080fd5b600660009054906101000a900473ffffffffffffffffffffffffffffffffffffffff1673ffffffffffffffffffffffffffffffffffffffff16637ff8b20e6040518163ffffffff167c0100000000000000000000000000000000000000000000000000000000028152600401602060405180830381600087803b1580156116d457600080fd5b505af11580156116e8573d6000803e3d6000fd5b505050506040513d60208110156116fe57600080fd5b81019080805190602001909291905050509750600860009054906101000a900473ffffffffffffffffffffffffffffffffffffffff1673ffffffffffffffffffffffffffffffffffffffff1663e652f4cc8c6040518263ffffffff167c0100000000000000000000000000000000000000000000000000000000028152600401808273ffffffffffffffffffffffffffffffffffffffff1673ffffffffffffffffffffffffffffffffffffffff168152602001915050602060405180830381600087803b1580156117ce57600080fd5b505af11580156117e2573d6000803e3d6000fd5b505050506040513d60208110156117f857600080fd5b81019080805190602001909291905050509650600087141561181d5760009850611d66565b60009550600094505b86851015611d6257600860009054906101000a900473ffffffffffffffffffffffffffffffffffffffff1673ffffffffffffffffffffffffffffffffffffffff16636a34a4cb8c876040518363ffffffff167c0100000000000000000000000000000000000000000000000000000000028152600401808373ffffffffffffffffffffffffffffffffffffffff1673ffffffffffffffffffffffffffffffffffffffff16815260200182815260200192505050602060405180830381600087803b1580156118f357600080fd5b505af1158015611907573d6000803e3d6000fd5b505050506040513d602081101561191d57600080fd5b810190808051906020019092919050505093508960001916600860009054906101000a900473ffffffffffffffffffffffffffffffffffffffff1673ffffffffffffffffffffffffffffffffffffffff166332c658b18d886040518363ffffffff167c0100000000000000000000000000000000000000000000000000000000028152600401808373ffffffffffffffffffffffffffffffffffffffff1673ffffffffffffffffffffffffffffffffffffffff16815260200182815260200192505050602060405180830381600087803b1580156119fa57600080fd5b505af1158015611a0e573d6000803e3d6000fd5b505050506040513d6020811015611a2457600080fd5b810190808051906020019092919050505060001916148015611b4557506000600860009054906101000a900473ffffffffffffffffffffffffffffffffffffffff1673ffffffffffffffffffffffffffffffffffffffff1663da3605418d886040518363ffffffff167c0100000000000000000000000000000000000000000000000000000000028152600401808373ffffffffffffffffffffffffffffffffffffffff1673ffffffffffffffffffffffffffffffffffffffff16815260200182815260200192505050602060405180830381600087803b158015611b0857600080fd5b505af1158015611b1c573d6000803e3d6000fd5b505050506040513d6020811015611b3257600080fd5b8101908080519060200190929190505050145b15611d55578392505b8783111515611d5457611b618a84612442565b9150611b6c8361382b565b9050600860009054906101000a900473ffffffffffffffffffffffffffffffffffffffff1673ffffffffffffffffffffffffffffffffffffffff16633c8740d88c878686866040518663ffffffff167c0100000000000000000000000000000000000000000000000000000000028152600401808673ffffffffffffffffffffffffffffffffffffffff1673ffffffffffffffffffffffffffffffffffffffff16815260200185815260200184815260200183815260200182815260200195505050505050602060405180830381600087803b158015611c4b57600080fd5b505af1158015611c5f573d6000803e3d6000fd5b505050506040513d6020811015611c7557600080fd5b810190808051906020019092919050505086019550600660009054906101000a900473ffffffffffffffffffffffffffffffffffffffff1673ffffffffffffffffffffffffffffffffffffffff1663f733ad956040518163ffffffff167c0100000000000000000000000000000000000000000000000000000000028152600401602060405180830381600087803b158015611d1057600080fd5b505af1158015611d24573d6000803e3d6000fd5b505050506040513d6020811015611d3a57600080fd5b810190808051906020019092919050505083019250611b4e565b5b8480600101955050611826565b8598505b505050505050505092915050565b6000806000806000806000808973ffffffffffffffffffffffffffffffffffffffff1614151515611da457600080fd5b6000600760009054906101000a900473ffffffffffffffffffffffffffffffffffffffff1673ffffffffffffffffffffffffffffffffffffffff166361dcd7ab6040518163ffffffff167c0100000000000000000000000000000000000000000000000000000000028152600401602060405180830381600087803b158015611e2c57600080fd5b505af1158015611e40573d6000803e3d6000fd5b505050506040513d6020811015611e5657600080fd5b810190808051906020019092919050505014151515611e7457600080fd5b600760009054906101000a900473ffffffffffffffffffffffffffffffffffffffff1673ffffffffffffffffffffffffffffffffffffffff1663bfb2290d8a8a6040518363ffffffff167c0100000000000000000000000000000000000000000000000000000000028152600401808373ffffffffffffffffffffffffffffffffffffffff1673ffffffffffffffffffffffffffffffffffffffff168152602001826000191660001916815260200192505050602060405180830381600087803b158015611f4157600080fd5b505af1158015611f55573d6000803e3d6000fd5b505050506040513d6020811015611f6b57600080fd5b810190808051906020019092919050505095506000861215611f905760009650612436565b60009450600760009054906101000a900473ffffffffffffffffffffffffffffffffffffffff1673ffffffffffffffffffffffffffffffffffffffff16638938dfc68a886040518363ffffffff167c0100000000000000000000000000000000000000000000000000000000028152600401808373ffffffffffffffffffffffffffffffffffffffff1673ffffffffffffffffffffffffffffffffffffffff16815260200182815260200192505050602060405180830381600087803b15801561205957600080fd5b505af115801561206d573d6000803e3d6000fd5b505050506040513d602081101561208357600080fd5b810190808051906020019092919050505093505b600660009054906101000a900473ffffffffffffffffffffffffffffffffffffffff1673ffffffffffffffffffffffffffffffffffffffff16637ff8b20e6040518163ffffffff167c0100000000000000000000000000000000000000000000000000000000028152600401602060405180830381600087803b15801561211d57600080fd5b505af1158015612131573d6000803e3d6000fd5b505050506040513d602081101561214757600080fd5b810190808051906020019092919050505084101561243257600084141561226b57600760009054906101000a900473ffffffffffffffffffffffffffffffffffffffff1673ffffffffffffffffffffffffffffffffffffffff1663ddb358ef8a886040518363ffffffff167c0100000000000000000000000000000000000000000000000000000000028152600401808373ffffffffffffffffffffffffffffffffffffffff1673ffffffffffffffffffffffffffffffffffffffff16815260200182815260200192505050602060405180830381600087803b15801561222d57600080fd5b505af1158015612241573d6000803e3d6000fd5b505050506040513d602081101561225757600080fd5b810190808051906020019092919050505093505b61227484614964565b92506122808885612442565b9150600760009054906101000a900473ffffffffffffffffffffffffffffffffffffffff1673ffffffffffffffffffffffffffffffffffffffff1663c5b5f0a983856040518363ffffffff167c01000000000000000000000000000000000000000000000000000000000281526004018083815260200182815260200192505050602060405180830381600087803b15801561231b57600080fd5b505af115801561232f573d6000803e3d6000fd5b505050506040513d602081101561234557600080fd5b810190808051906020019092919050505085019450600660009054906101000a900473ffffffffffffffffffffffffffffffffffffffff1673ffffffffffffffffffffffffffffffffffffffff1663f733ad956040518163ffffffff167c0100000000000000000000000000000000000000000000000000000000028152600401602060405180830381600087803b1580156123e057600080fd5b505af11580156123f4573d6000803e3d6000fd5b505050506040513d602081101561240a57600080fd5b810190808051906020019092919050505084019050808410151561242a57fe5b809350612097565b8496505b50505050505092915050565b600080600160008560001916600019168152602001908152602001600020600101541415151561247157600080fd5b600160008460001916600019168152602001908152602001600020600201600083815260200190815260200160002054905092915050565b60008060006060806000806000806000806000600860009054906101000a900473ffffffffffffffffffffffffffffffffffffffff1673ffffffffffffffffffffffffffffffffffffffff166361dcd7ab6040518163ffffffff167c0100000000000000000000000000000000000000000000000000000000028152600401602060405180830381600087803b15801561254257600080fd5b505af1158015612556573d6000803e3d6000fd5b505050506040513d602081101561256c57600080fd5b81019080805190602001909291905050501415151561258a57600080fd5b60009a50600860009054906101000a900473ffffffffffffffffffffffffffffffffffffffff1673ffffffffffffffffffffffffffffffffffffffff16633b7aecf7338e60006040518463ffffffff167c0100000000000000000000000000000000000000000000000000000000028152600401808473ffffffffffffffffffffffffffffffffffffffff1673ffffffffffffffffffffffffffffffffffffffff16815260200183600019166000191681526020018281526020019350505050602060405180830381600087803b15801561266457600080fd5b505af1158015612678573d6000803e3d6000fd5b505050506040513d602081101561268e57600080fd5b810190808051906020019092919050505099505b60008a1215156127cb578a806001019b5050600860009054906101000a900473ffffffffffffffffffffffffffffffffffffffff1673ffffffffffffffffffffffffffffffffffffffff16633b7aecf7338e8d6040518463ffffffff167c0100000000000000000000000000000000000000000000000000000000028152600401808473ffffffffffffffffffffffffffffffffffffffff1673ffffffffffffffffffffffffffffffffffffffff16815260200183600019166000191681526020018281526020019350505050602060405180830381600087803b15801561278957600080fd5b505af115801561279d573d6000803e3d6000fd5b505050506040513d60208110156127b357600080fd5b810190808051906020019092919050505099506126a2565b60008b14156127d95761315f565b600098508a60405190808252806020026020018201604052801561280c5781602001602082028038833980820191505090505b5097508a60405190808252806020026020018201604052801561283e5781602001602082028038833980820191505090505b509650600860009054906101000a900473ffffffffffffffffffffffffffffffffffffffff1673ffffffffffffffffffffffffffffffffffffffff16633b7aecf7338e60006040518463ffffffff167c0100000000000000000000000000000000000000000000000000000000028152600401808473ffffffffffffffffffffffffffffffffffffffff1673ffffffffffffffffffffffffffffffffffffffff16815260200183600019166000191681526020018281526020019350505050602060405180830381600087803b15801561291757600080fd5b505af115801561292b573d6000803e3d6000fd5b505050506040513d602081101561294157600080fd5b81019080805190602001909291905050509950600095505b8a861015612edc5760009450600860009054906101000a900473ffffffffffffffffffffffffffffffffffffffff1673ffffffffffffffffffffffffffffffffffffffff16636a34a4cb338c6040518363ffffffff167c0100000000000000000000000000000000000000000000000000000000028152600401808373ffffffffffffffffffffffffffffffffffffffff1673ffffffffffffffffffffffffffffffffffffffff16815260200182815260200192505050602060405180830381600087803b158015612a2a57600080fd5b505af1158015612a3e573d6000803e3d6000fd5b505050506040513d6020811015612a5457600080fd5b81019080805190602001909291905050509350600092505b601e831015612c7a57612a7f8c85612442565b9150612a8a8461382b565b9050600860009054906101000a900473ffffffffffffffffffffffffffffffffffffffff1673ffffffffffffffffffffffffffffffffffffffff16633c8740d833888786866040518663ffffffff167c0100000000000000000000000000000000000000000000000000000000028152600401808673ffffffffffffffffffffffffffffffffffffffff1673ffffffffffffffffffffffffffffffffffffffff16815260200185815260200184815260200183815260200182815260200195505050505050602060405180830381600087803b158015612b6957600080fd5b505af1158015612b7d573d6000803e3d6000fd5b505050506040513d6020811015612b9357600080fd5b810190808051906020019092919050505085019450600660009054906101000a900473ffffffffffffffffffffffffffffffffffffffff1673ffffffffffffffffffffffffffffffffffffffff1663f733ad956040518163ffffffff167c0100000000000000000000000000000000000000000000000000000000028152600401602060405180830381600087803b158015612c2e57600080fd5b505af1158015612c42573d6000803e3d6000fd5b505050506040513d6020811015612c5857600080fd5b8101908080519060200190929190505050840193508280600101935050612a6c565b8489019850600860009054906101000a900473ffffffffffffffffffffffffffffffffffffffff1673ffffffffffffffffffffffffffffffffffffffff16632726b506338c6040518363ffffffff167c0100000000000000000000000000000000000000000000000000000000028152600401808373ffffffffffffffffffffffffffffffffffffffff1673ffffffffffffffffffffffffffffffffffffffff16815260200182815260200192505050602060405180830381600087803b158015612d4457600080fd5b505af1158015612d58573d6000803e3d6000fd5b505050506040513d6020811015612d6e57600080fd5b810190808051906020019092919050505089019850898887815181101515612d9257fe5b9060200190602002018181525050848787815181101515612daf57fe5b9060200190602002018181525050600860009054906101000a900473ffffffffffffffffffffffffffffffffffffffff1673ffffffffffffffffffffffffffffffffffffffff16633b7aecf7338e8d6040518463ffffffff167c0100000000000000000000000000000000000000000000000000000000028152600401808473ffffffffffffffffffffffffffffffffffffffff1673ffffffffffffffffffffffffffffffffffffffff16815260200183600019166000191681526020018281526020019350505050602060405180830381600087803b158015612e9257600080fd5b505af1158015612ea6573d6000803e3d6000fd5b505050506040513d6020811015612ebc57600080fd5b810190808051906020019092919050505099508580600101965050612959565b600560009054906101000a900473ffffffffffffffffffffffffffffffffffffffff1673ffffffffffffffffffffffffffffffffffffffff1663a9059cbb338b6040518363ffffffff167c0100000000000000000000000000000000000000000000000000000000028152600401808373ffffffffffffffffffffffffffffffffffffffff1673ffffffffffffffffffffffffffffffffffffffff16815260200182815260200192505050602060405180830381600087803b158015612fa157600080fd5b505af1158015612fb5573d6000803e3d6000fd5b505050506040513d6020811015612fcb57600080fd5b810190808051906020019092919050505050600095505b875186101561310b57600860009054906101000a900473ffffffffffffffffffffffffffffffffffffffff1673ffffffffffffffffffffffffffffffffffffffff1663b5c5f672338a8981518110151561303857fe5b906020019060200201518a8a81518110151561305057fe5b906020019060200201516040518463ffffffff167c0100000000000000000000000000000000000000000000000000000000028152600401808473ffffffffffffffffffffffffffffffffffffffff1673ffffffffffffffffffffffffffffffffffffffff1681526020018381526020018281526020019350505050600060405180830381600087803b1580156130e657600080fd5b505af11580156130fa573d6000803e3d6000fd5b505050508580600101965050612fe2565b3373ffffffffffffffffffffffffffffffffffffffff168c600019167ff52a79cb351c7f71a9cb184d7e1a0c68127f783b1db70273ad6085cf4800ab688b6040518082815260200191505060405180910390a35b505050505050505050505050565b60095481565b6000806000806000803373ffffffffffffffffffffffffffffffffffffffff16141515156131a057600080fd5b6000600760009054906101000a900473ffffffffffffffffffffffffffffffffffffffff1673ffffffffffffffffffffffffffffffffffffffff166361dcd7ab6040518163ffffffff167c0100000000000000000000000000000000000000000000000000000000028152600401602060405180830381600087803b15801561322857600080fd5b505af115801561323c573d6000803e3d6000fd5b505050506040513d602081101561325257600080fd5b81019080805190602001909291905050501415151561327057600080fd5b600760009054906101000a900473ffffffffffffffffffffffffffffffffffffffff1673ffffffffffffffffffffffffffffffffffffffff1663bfb2290d33886040518363ffffffff167c0100000000000000000000000000000000000000000000000000000000028152600401808373ffffffffffffffffffffffffffffffffffffffff1673ffffffffffffffffffffffffffffffffffffffff168152602001826000191660001916815260200192505050602060405180830381600087803b15801561333d57600080fd5b505af1158015613351573d6000803e3d6000fd5b505050506040513d602081101561336757600080fd5b81019080805190602001909291905050509450600085121561338857613721565b3373ffffffffffffffffffffffffffffffffffffffff1686600019167f4c392ff5289c397ab3c803ffe08711686c2cc0ebf2fc6f49a409ebc3a7d992d4876040518082815260200191505060405180910390a3600760009054906101000a900473ffffffffffffffffffffffffffffffffffffffff1673ffffffffffffffffffffffffffffffffffffffff16638938dfc633876040518363ffffffff167c0100000000000000000000000000000000000000000000000000000000028152600401808373ffffffffffffffffffffffffffffffffffffffff1673ffffffffffffffffffffffffffffffffffffffff16815260200182815260200192505050602060405180830381600087803b1580156134a057600080fd5b505af11580156134b4573d6000803e3d6000fd5b505050506040513d60208110156134ca57600080fd5b810190808051906020019092919050505093503373ffffffffffffffffffffffffffffffffffffffff1686600019167f4c392ff5289c397ab3c803ffe08711686c2cc0ebf2fc6f49a409ebc3a7d992d4866040518082815260200191505060405180910390a3600660009054906101000a900473ffffffffffffffffffffffffffffffffffffffff1673ffffffffffffffffffffffffffffffffffffffff16637ff8b20e6040518163ffffffff167c0100000000000000000000000000000000000000000000000000000000028152600401602060405180830381600087803b1580156135b657600080fd5b505af11580156135ca573d6000803e3d6000fd5b505050506040513d60208110156135e057600080fd5b81019080805190602001909291905050509250600091505b828410156136cd57600660009054906101000a900473ffffffffffffffffffffffffffffffffffffffff1673ffffffffffffffffffffffffffffffffffffffff1663f733ad956040518163ffffffff167c0100000000000000000000000000000000000000000000000000000000028152600401602060405180830381600087803b15801561368657600080fd5b505af115801561369a573d6000803e3d6000fd5b505050506040513d60208110156136b057600080fd5b8101908080519060200190929190505050840190508093506135f8565b3373ffffffffffffffffffffffffffffffffffffffff1686600019167f4c392ff5289c397ab3c803ffe08711686c2cc0ebf2fc6f49a409ebc3a7d992d4846040518082815260200191505060405180910390a35b505050505050565b6000809054906101000a900473ffffffffffffffffffffffffffffffffffffffff1673ffffffffffffffffffffffffffffffffffffffff163373ffffffffffffffffffffffffffffffffffffffff1614151561378457600080fd5b6000809054906101000a900473ffffffffffffffffffffffffffffffffffffffff1673ffffffffffffffffffffffffffffffffffffffff167ff8df31144d9c2f0f6b59d69b8b98abd5459d07f2742c4df920b25aae33c6482060405160405180910390a260008060006101000a81548173ffffffffffffffffffffffffffffffffffffffff021916908373ffffffffffffffffffffffffffffffffffffffff160217905550565b600080821415151561383c57600080fd5b60046000838152602001908152602001600020549050919050565b6000809054906101000a900473ffffffffffffffffffffffffffffffffffffffff1681565b600080600080600080600080600080600860009054906101000a900473ffffffffffffffffffffffffffffffffffffffff1673ffffffffffffffffffffffffffffffffffffffff166361dcd7ab6040518163ffffffff167c0100000000000000000000000000000000000000000000000000000000028152600401602060405180830381600087803b15801561391157600080fd5b505af1158015613925573d6000803e3d6000fd5b505050506040513d602081101561393b57600080fd5b81019080805190602001909291905050501415151561395957600080fd5b60009750600860009054906101000a900473ffffffffffffffffffffffffffffffffffffffff1673ffffffffffffffffffffffffffffffffffffffff16633b7aecf7338c60006040518463ffffffff167c0100000000000000000000000000000000000000000000000000000000028152600401808473ffffffffffffffffffffffffffffffffffffffff1673ffffffffffffffffffffffffffffffffffffffff16815260200183600019166000191681526020018281526020019350505050602060405180830381600087803b158015613a3357600080fd5b505af1158015613a47573d6000803e3d6000fd5b505050506040513d6020811015613a5d57600080fd5b810190808051906020019092919050505096505b600087121515613b9a578780600101985050600860009054906101000a900473ffffffffffffffffffffffffffffffffffffffff1673ffffffffffffffffffffffffffffffffffffffff16633b7aecf7338c8a6040518463ffffffff167c0100000000000000000000000000000000000000000000000000000000028152600401808473ffffffffffffffffffffffffffffffffffffffff1673ffffffffffffffffffffffffffffffffffffffff16815260200183600019166000191681526020018281526020019350505050602060405180830381600087803b158015613b5857600080fd5b505af1158015613b6c573d6000803e3d6000fd5b505050506040513d6020811015613b8257600080fd5b81019080805190602001909291905050509650613a71565b60009550600860009054906101000a900473ffffffffffffffffffffffffffffffffffffffff1673ffffffffffffffffffffffffffffffffffffffff16633b7aecf7338c60006040518463ffffffff167c0100000000000000000000000000000000000000000000000000000000028152600401808473ffffffffffffffffffffffffffffffffffffffff1673ffffffffffffffffffffffffffffffffffffffff16815260200183600019166000191681526020018281526020019350505050602060405180830381600087803b158015613c7457600080fd5b505af1158015613c88573d6000803e3d6000fd5b505050506040513d6020811015613c9e57600080fd5b81019080805190602001909291905050509650600094505b878510156140f257600860009054906101000a900473ffffffffffffffffffffffffffffffffffffffff1673ffffffffffffffffffffffffffffffffffffffff16636a34a4cb33896040518363ffffffff167c0100000000000000000000000000000000000000000000000000000000028152600401808373ffffffffffffffffffffffffffffffffffffffff1673ffffffffffffffffffffffffffffffffffffffff16815260200182815260200192505050602060405180830381600087803b158015613d8357600080fd5b505af1158015613d97573d6000803e3d6000fd5b505050506040513d6020811015613dad57600080fd5b81019080805190602001909291905050509350600092505b601e831015613fd357613dd88a85612442565b9150613de38461382b565b9050600860009054906101000a900473ffffffffffffffffffffffffffffffffffffffff1673ffffffffffffffffffffffffffffffffffffffff16633c8740d833878786866040518663ffffffff167c0100000000000000000000000000000000000000000000000000000000028152600401808673ffffffffffffffffffffffffffffffffffffffff1673ffffffffffffffffffffffffffffffffffffffff16815260200185815260200184815260200183815260200182815260200195505050505050602060405180830381600087803b158015613ec257600080fd5b505af1158015613ed6573d6000803e3d6000fd5b505050506040513d6020811015613eec57600080fd5b810190808051906020019092919050505086019550600660009054906101000a900473ffffffffffffffffffffffffffffffffffffffff1673ffffffffffffffffffffffffffffffffffffffff1663f733ad956040518163ffffffff167c0100000000000000000000000000000000000000000000000000000000028152600401602060405180830381600087803b158015613f8757600080fd5b505af1158015613f9b573d6000803e3d6000fd5b505050506040513d6020811015613fb157600080fd5b8101908080519060200190929190505050840193508280600101935050613dc5565b600860009054906101000a900473ffffffffffffffffffffffffffffffffffffffff1673ffffffffffffffffffffffffffffffffffffffff16633b7aecf7338c8a6040518463ffffffff167c0100000000000000000000000000000000000000000000000000000000028152600401808473ffffffffffffffffffffffffffffffffffffffff1673ffffffffffffffffffffffffffffffffffffffff16815260200183600019166000191681526020018281526020019350505050602060405180830381600087803b1580156140a857600080fd5b505af11580156140bc573d6000803e3d6000fd5b505050506040513d60208110156140d257600080fd5b810190808051906020019092919050505096508480600101955050613cb6565b8598505050505050505050919050565b600080600160008460001916600019168152602001908152602001600020600101541415151561413157600080fd5b600160008360001916600019168152602001908152602001600020600101549050919050565b6000809054906101000a900473ffffffffffffffffffffffffffffffffffffffff1673ffffffffffffffffffffffffffffffffffffffff163373ffffffffffffffffffffffffffffffffffffffff161415156141b257600080fd5b6000821115156141c157600080fd5b6000600860009054906101000a900473ffffffffffffffffffffffffffffffffffffffff1673ffffffffffffffffffffffffffffffffffffffff166361dcd7ab6040518163ffffffff167c0100000000000000000000000000000000000000000000000000000000028152600401602060405180830381600087803b15801561424957600080fd5b505af115801561425d573d6000803e3d6000fd5b505050506040513d602081101561427357600080fd5b81019080805190602001909291905050501415151561429157600080fd5b600860009054906101000a900473ffffffffffffffffffffffffffffffffffffffff1673ffffffffffffffffffffffffffffffffffffffff1663b8122eac858585856040518563ffffffff167c0100000000000000000000000000000000000000000000000000000000028152600401808573ffffffffffffffffffffffffffffffffffffffff1673ffffffffffffffffffffffffffffffffffffffff1681526020018460001916600019168152602001838152602001828152602001945050505050600060405180830381600087803b15801561436e57600080fd5b505af1158015614382573d6000803e3d6000fd5b505050508373ffffffffffffffffffffffffffffffffffffffff1683600019167f73f9ddafe55f8b3fd3b932ed16d0c08f9a6406edb112b7e4c29620073b9957b78484604051808381526020018281526020019250505060405180910390a350505050565b60008060009054906101000a900473ffffffffffffffffffffffffffffffffffffffff1673ffffffffffffffffffffffffffffffffffffffff163373ffffffffffffffffffffffffffffffffffffffff1614151561444457600080fd5b6000600160008660001916600019168152602001908152602001600020600101541415151561447257600080fd5b6001600085600019166000191681526020019081526020016000209050818160020160008581526020019081526020016000208190555083600019167f591abb51ea6c697839be33fbd705609f83fa02d3112a5cc20595ca3b4592d6758484604051808381526020018281526020019250505060405180910390a250505050565b60008060006001600085600019166000191681526020019081526020016000206001015414151561452357600080fd5b600660009054906101000a900473ffffffffffffffffffffffffffffffffffffffff1673ffffffffffffffffffffffffffffffffffffffff16637ff8b20e6040518163ffffffff167c0100000000000000000000000000000000000000000000000000000000028152600401602060405180830381600087803b1580156145a957600080fd5b505af11580156145bd573d6000803e3d6000fd5b505050506040513d60208110156145d357600080fd5b8101908080519060200190929190505050915060408051908101604052803373ffffffffffffffffffffffffffffffffffffffff1681526020018381525060016000856000191660001916815260200190815260200160002060008201518160000160006101000a81548173ffffffffffffffffffffffffffffffffffffffff021916908373ffffffffffffffffffffffffffffffffffffffff16021790555060208201518160010155905050600283908060018154018082558091505090600182039060005260206000200160009091929091909150906000191690559050600760009054906101000a900473ffffffffffffffffffffffffffffffffffffffff1673ffffffffffffffffffffffffffffffffffffffff1663be44d6f984336040518363ffffffff167c01000000000000000000000000000000000000000000000000000000000281526004018083600019166000191681526020018273ffffffffffffffffffffffffffffffffffffffff1673ffffffffffffffffffffffffffffffffffffffff16815260200192505050600060405180830381600087803b15801561478057600080fd5b505af1158015614794573d6000803e3d6000fd5b50505050600760009054906101000a900473ffffffffffffffffffffffffffffffffffffffff1673ffffffffffffffffffffffffffffffffffffffff166394e6f5b933856040518363ffffffff167c0100000000000000000000000000000000000000000000000000000000028152600401808373ffffffffffffffffffffffffffffffffffffffff1673ffffffffffffffffffffffffffffffffffffffff168152602001826000191660001916815260200192505050602060405180830381600087803b15801561486557600080fd5b505af1158015614879573d6000803e3d6000fd5b505050506040513d602081101561488f57600080fd5b810190808051906020019092919050505015156148a857fe5b3373ffffffffffffffffffffffffffffffffffffffff1683600019167f6bffea36ac098b5dc12e6277eb4ebcc6aa8baa9c1f4534aa3594ab56844a1acb8484604051808381526020018281526020019250505060405180910390a3505050565b6060600280548060200260200160405190810160405280929190818152602001828054801561495a57602002820191906000526020600020905b81546000191681526020019060010190808311614942575b5050505050905090565b600080821415151561497557600080fd5b60036000838152602001908152602001600020549050919050565b60008060016000846000191660001916815260200190815260200160002060010154141515156149bf57600080fd5b60016000836000191660001916815260200190815260200160002060000160009054906101000a900473ffffffffffffffffffffffffffffffffffffffff169050919050565b6000809054906101000a900473ffffffffffffffffffffffffffffffffffffffff1673ffffffffffffffffffffffffffffffffffffffff163373ffffffffffffffffffffffffffffffffffffffff16141515614a6057600080fd5b614a6981614b73565b50565b6000809054906101000a900473ffffffffffffffffffffffffffffffffffffffff1673ffffffffffffffffffffffffffffffffffffffff163373ffffffffffffffffffffffffffffffffffffffff16141515614ac757600080fd5b60008314151515614ad757600080fd5b60008214151515614ae757600080fd5b60008114151515614af757600080fd5b8160036000858152602001908152602001600020819055508060046000858152602001908152602001600020819055507f01e21700b429ba33287c59ef71ead1370b1049e0f9137ed26b930e45590cf8b383838360405180848152602001838152602001828152602001935050505060405180910390a1505050565b600073ffffffffffffffffffffffffffffffffffffffff168173ffffffffffffffffffffffffffffffffffffffff1614151515614baf57600080fd5b8073ffffffffffffffffffffffffffffffffffffffff166000809054906101000a900473ffffffffffffffffffffffffffffffffffffffff1673ffffffffffffffffffffffffffffffffffffffff167f8be0079c531659141344cd1fd0a4f28419497f9722a3daafe3b4186f6b6457e060405160405180910390a3806000806101000a81548173ffffffffffffffffffffffffffffffffffffffff021916908373ffffffffffffffffffffffffffffffffffffffff160217905550505600a165627a7a72305820e2097eb8634610897be16036062b51e5ad6d9888ed91c27de2b642cd09833dfa0029",
  "source": "pragma solidity ^0.4.24;\n\nimport \"./Deck.sol\";\nimport \"./Utility.sol\";\nimport \"./AuthorPool.sol\";\nimport \"./CuratorPool.sol\";\nimport \"openzeppelin-solidity/contracts/ownership/Ownable.sol\";\n\ncontract DocumentReg is Ownable {\n\n  event _InitializeDocumentReg(uint timestamp, address token);\n  event _RegisterNewDocument(bytes32 indexed docId, uint timestamp, address indexed applicant, uint count);\n  event _UpdateDocument(bytes32 indexed docId, uint timestamp, address indexed applicant);\n  event _ConfirmPageView(bytes32 indexed docId, uint timestamp, uint pageView);\n  event _ConfirmTotalPageView(uint timestamp, uint pageView, uint pageViewSquare);\n  event _VoteOnDocument(bytes32 indexed docId, uint deposit, address indexed applicant);\n  event _UpdateVoteOnDocument(bytes32 indexed docId, uint deposit, address indexed applicant, uint timestamp);\n  event _ClaimAuthorReward(bytes32 indexed docId, uint reward, address indexed applicant);\n  event _ClaimCuratorReward(bytes32 indexed docId, uint reward, address indexed applicant);\n  //event _DetermineReward(bytes32 indexed docId, uint timestamp, uint pageView, uint totalPageView, uint dailyReward);\n\n  struct Document {\n    address author;\n    uint createTime;\n    mapping (uint => uint) pageViews; // date => page views\n  }\n\n  // maps document id to associated document data\n  mapping (bytes32 => Document) internal map;\n\n  // key list for iteration\n  bytes32[] private docList;\n\n  // store total page view square for reward calculation\n  //  : timestamp(yyyy-mm-dd) => daily total page view square\n  mapping (uint => uint) private totalPageView;\n  mapping (uint => uint) private totalPageViewSquare;\n\n  // private variables\n  Deck private token;\n  Utility private util;\n  AuthorPool private authorPool;\n  CuratorPool private curatorPool;\n\n  // public variables\n  uint public createTime;\n\n  function init(address _token, address _author, address _curator, address _utility) public\n    onlyOwner()\n  {\n\n    require(_token != 0 && address(token) == 0);\n    require(_author != 0 && address(authorPool) == 0);\n    require(_curator != 0 && address(curatorPool) == 0);\n    require(_utility != 0 && address(util) == 0);\n\n    token = Deck(_token);\n    util = Utility(_utility);\n\n    // init author pool\n    authorPool = AuthorPool(_author);\n    authorPool.init(token, util);\n\n    // init curator pool\n    curatorPool = CuratorPool(_curator);\n    curatorPool.init(token, util);\n\n    createTime = util.getTimeMillis();\n    emit _InitializeDocumentReg(createTime, _token);\n  }\n\n  // -------------------------------\n  // Document Registry Functions\n  // -------------------------------\n\n  // register a new document\n  function register(bytes32 _docId) public {\n\n    require(map[_docId].createTime == 0); // register once\n\n    uint tMillis = util.getDateMillis();\n\n    // adding to document registry\n    map[_docId] = Document(msg.sender, tMillis);\n    uint index = docList.push(_docId);\n\n    // creating user document mapping\n    authorPool.registerUserDocument(_docId, msg.sender);\n    assert(authorPool.containsUserDocument(msg.sender, _docId));\n\n    emit _RegisterNewDocument(_docId, tMillis, msg.sender, index);\n  }\n\n  function update(address _addr, bytes32 _docId, uint _timestamp) public\n    onlyOwner()\n  {\n    // updating to document registry\n    if (map[_docId].createTime == 0) {\n      docList.push(_docId);\n    }\n    map[_docId] = Document(_addr, _timestamp);\n\n    // creating user document mapping\n    authorPool.updateUserDocument(_docId, _addr, _timestamp);\n\n    emit _UpdateDocument(_docId, _timestamp, _addr);\n  }\n\n  function contains(bytes32 _docId) public view returns (bool) {\n    return map[_docId].createTime != 0;\n  }\n\n  function getAuthorByKey(bytes32 _docId) public view returns (address) {\n    require(map[_docId].createTime != 0);\n    return map[_docId].author;\n  }\n\n  function getCreateTimeByKey(bytes32 _docId) public view returns (uint) {\n    require(map[_docId].createTime != 0);\n    return map[_docId].createTime;\n  }\n\n  function count() public view returns (uint) {\n    return uint(docList.length);\n  }\n\n  // document list for iteration\n  function getDocuments() public view returns (bytes32[]) {\n    return docList;\n  }\n\n  // -------------------------------\n  // Total Page View Square Functions\n  // -------------------------------\n\n  function confirmTotalPageView(uint _date, uint _totalPageView, uint _totalPageViewSquare) public\n    onlyOwner()\n  {\n    require(_date != 0);\n    require(_totalPageView != 0);\n    require(_totalPageViewSquare != 0);\n    totalPageView[_date] = _totalPageView;\n    totalPageViewSquare[_date] = _totalPageViewSquare;\n    emit _ConfirmTotalPageView(_date, _totalPageView, _totalPageViewSquare);\n  }\n\n  function getTotalPageView(uint _date) public view returns (uint) {\n    require(_date != 0);\n    return totalPageView[_date];\n  }\n\n  function getTotalPageViewSquare(uint _date) public view returns (uint) {\n    require(_date != 0);\n    return totalPageViewSquare[_date];\n  }\n\n  // -------------------------------\n  // Daily Page View Functions\n  // -------------------------------\n\n  function confirmPageView(bytes32 _docId, uint _date, uint _pageView) public\n    onlyOwner()\n  {\n    require(map[_docId].createTime != 0);\n    Document storage doc = map[_docId];\n    doc.pageViews[_date] = _pageView;\n    emit _ConfirmPageView(_docId, _date, _pageView);\n  }\n\n  function getPageView(bytes32 _docId, uint _date) public view returns (uint) {\n    require(map[_docId].createTime != 0);\n    return map[_docId].pageViews[_date];\n  }\n\n  // -------------------------------\n  // Determine author reward after last claim\n  // -------------------------------\n\n  function determineAuthorReward(address _addr, bytes32 _docId) public view returns (uint) {\n\n    require(_addr != 0);\n    require(authorPool.createTime() != 0);\n    int idx = authorPool.getUserDocumentIndex(_addr, _docId);\n    if (idx < 0) {\n      return uint(0);\n    }\n\n    uint sumReward = 0;\n    uint claimDate = authorPool.getUserDocumentLastClaimedDate(_addr, idx);\n    while (claimDate < util.getDateMillis()) {\n      if (claimDate == 0) {\n        claimDate = authorPool.getUserDocumentListedDate(_addr, idx);\n      }\n      //assert(claimDate <= util.getDateMillis());\n      uint tpv = getTotalPageView(claimDate);\n      uint pv = getPageView(_docId, claimDate);\n      sumReward += authorPool.determineReward(pv, tpv);\n\n      uint nextDate = claimDate + util.getOneDayMillis();\n      assert(claimDate < nextDate);\n      claimDate = nextDate;\n      //emit _DetermineReward(_docId, lastClaimedDate, pv, tpv, dailyRewardPool);\n    }\n    return sumReward;\n  }\n\n  function claimAuthorReward(bytes32 _docId) public {\n    require(msg.sender != 0);\n    require(authorPool.createTime() != 0);\n    int idx = authorPool.getUserDocumentIndex(msg.sender, _docId);\n    if (idx < 0) {\n      return;\n    }\n\n    emit _ClaimAuthorReward(_docId, uint(idx), msg.sender);\n    uint claimDate = authorPool.getUserDocumentLastClaimedDate(msg.sender, idx);\n    emit _ClaimAuthorReward(_docId, claimDate, msg.sender);\n    uint dateMillis = util.getDateMillis();\n\n    uint sumReward = 0;\n    while (claimDate < dateMillis) {\n//      if (claimDate == 0) {\n//        claimDate = authorPool.getUserDocumentListedDate(msg.sender, idx);\n//      }\n//      assert(claimDate <= dateMillis);\n\n//      uint tpv = getTotalPageView(claimDate);\n//      uint pv = getPageView(_docId, claimDate);\n//      sumReward += authorPool.determineReward(pv, tpv);\n\n      uint nextDate = claimDate + util.getOneDayMillis();\n//      assert(claimDate < nextDate);\n      claimDate = nextDate;\n    }\n\n//    token.transfer(msg.sender, sumReward);\n    emit _ClaimAuthorReward(_docId, sumReward, msg.sender);\n  }\n\n  // -------------------------------\n  // Estimate curator reward after last claim\n  // -------------------------------\n\n  function estimateCuratorReward(address _addr, bytes32 _docId) public view returns (uint) {\n    require(_addr != 0);\n    require(curatorPool.createTime() != 0);\n\n    uint dateMillis = util.getDateMillis();\n    uint numVotes = curatorPool.getVoteCount(_addr);\n    if (numVotes == 0) {\n      return uint(0);\n    }\n\n    uint reward = 0;\n    for (uint i=0; i<numVotes; i++) {\n      uint startDate = curatorPool.getStartDate(_addr, i);\n      if (curatorPool.getDocId(_addr, i) == _docId\n       && curatorPool.getWithdraw(_addr, i) == 0) {\n        for (uint dt=startDate; dt<=dateMillis; dt+=util.getOneDayMillis()) {\n          uint pv = getPageView(_docId, dt);\n          uint tpvs = getTotalPageViewSquare(dt);\n          reward += curatorPool.determineReward(_addr, i, dt, pv, tpvs);\n        }\n      }\n    }\n    return reward;\n  }\n\n  // -------------------------------\n  // Determine curator reward after last claim\n  // -------------------------------\n  function determineCuratorReward(bytes32 _docId) public view returns (uint) {\n\n    // validation check\n    require(curatorPool.createTime() != 0);\n\n    uint numVotes = 0;\n    int idx = curatorPool.indexOfNextVoteForClaim(msg.sender, _docId, uint(0));\n    while(idx >= 0)\n    {\n      numVotes++;\n      idx = curatorPool.indexOfNextVoteForClaim(msg.sender, _docId, uint(idx));\n    }\n\n    uint reward = 0;\n    idx = curatorPool.indexOfNextVoteForClaim(msg.sender, _docId, uint(0));\n    for(uint i=0; i<numVotes; i++)\n    {\n      uint dt = curatorPool.getStartDate(msg.sender, uint(idx));\n      for (uint j=0; j<30; j++) {\n        uint pv = getPageView(_docId, dt);\n        uint tpvs = getTotalPageViewSquare(dt);\n        reward += curatorPool.determineReward(msg.sender, i, dt, pv, tpvs);\n        dt += util.getOneDayMillis();\n      }\n      idx = curatorPool.indexOfNextVoteForClaim(msg.sender, _docId, uint(idx));\n    }\n\n    return reward;\n  }\n\n  function claimCuratorReward(bytes32 _docId) public {\n\n    // validation check\n    require(curatorPool.createTime() != 0);\n\n    //       vote    \n    // 1.    vote  \n    //  a.  docuemnt  vote \n    //  b.   Vote  \n    //  c.  30   ( )\n    uint numVotes = 0;\n    int idx = curatorPool.indexOfNextVoteForClaim(msg.sender, _docId, uint(0));\n    while(idx >= 0)\n    {\n      numVotes++;\n      idx = curatorPool.indexOfNextVoteForClaim(msg.sender, _docId, uint(idx));\n    }\n    if (numVotes == 0) {\n      return;\n    }\n\n    // 2. 1      \n    //  a.    18 decimals \n    //  b.  30 page view     \n    //  c.   deposit    \n    uint reward = 0;\n    uint[] memory voteList = new uint[](numVotes);\n    uint[] memory deltaList = new uint[](numVotes);\n    idx = curatorPool.indexOfNextVoteForClaim(msg.sender, _docId, uint(0));\n    for(uint i=0; i<numVotes; i++)\n    {\n      uint delta = 0;\n      uint dt = curatorPool.getStartDate(msg.sender, uint(idx));\n      for (uint j=0; j<30; j++) {\n        uint pv = getPageView(_docId, dt);\n        uint tpvs = getTotalPageViewSquare(dt);\n        delta += curatorPool.determineReward(msg.sender, i, dt, pv, tpvs);\n        dt += util.getOneDayMillis();\n      }\n      reward += delta;\n      reward += curatorPool.getDeposit(msg.sender, uint(idx));\n      voteList[i] = uint(idx);\n      deltaList[i] = delta;\n      idx = curatorPool.indexOfNextVoteForClaim(msg.sender, _docId, uint(idx));\n    }\n\n    // 3.   document registry contract   \n    token.transfer(msg.sender, reward);\n\n    // 4.   vote withdraw  \n    for (i=0; i<voteList.length; i++) {\n      curatorPool.withdraw(msg.sender, voteList[i], deltaList[i]);\n    }\n\n    emit _ClaimCuratorReward(_docId, reward, msg.sender);\n  }\n\n  function voteOnDocument(bytes32 _docId, uint _deposit) public {\n\n    require(_deposit > 0);\n    require(curatorPool.createTime() != 0);\n\n    token.transferFrom(msg.sender, address(this), _deposit);\n    curatorPool.addVote(msg.sender, _docId, _deposit);\n\n    emit _VoteOnDocument(_docId, _deposit, msg.sender);\n  }\n\n  function updateVoteOnDocument(address _addr, bytes32 _docId, uint _deposit, uint _timestamp) public\n    onlyOwner()\n  {\n    require(_deposit > 0);\n    require(curatorPool.createTime() != 0);\n\n    curatorPool.updateVote(_addr, _docId, _deposit, _timestamp);\n    emit _UpdateVoteOnDocument(_docId, _deposit, _addr, _timestamp);\n  }\n\n}\n",
  "sourcePath": "/Users/centroine/Documents/github/bluebottle/contracts/DocumentReg.sol",
  "compiler": {
    "name": "solc",
    "version": "0.4.24+commit.e67f0147.Emscripten.clang"
  },
  "schemaVersion": "2.0.1",
  "updatedAt": "2018-10-17T12:02:53.788Z"
}