{
  "contractName": "AuthorPool",
  "abi": [
    {
      "constant": true,
      "inputs": [],
      "name": "createTime",
      "outputs": [
        {
          "name": "",
          "type": "uint256"
        }
      ],
      "payable": false,
      "stateMutability": "view",
      "type": "function"
    },
    {
      "constant": false,
      "inputs": [],
      "name": "renounceOwnership",
      "outputs": [],
      "payable": false,
      "stateMutability": "nonpayable",
      "type": "function"
    },
    {
      "constant": true,
      "inputs": [],
      "name": "owner",
      "outputs": [
        {
          "name": "",
          "type": "address"
        }
      ],
      "payable": false,
      "stateMutability": "view",
      "type": "function"
    },
    {
      "constant": false,
      "inputs": [
        {
          "name": "_newOwner",
          "type": "address"
        }
      ],
      "name": "transferOwnership",
      "outputs": [],
      "payable": false,
      "stateMutability": "nonpayable",
      "type": "function"
    },
    {
      "anonymous": false,
      "inputs": [
        {
          "indexed": false,
          "name": "timestamp",
          "type": "uint256"
        },
        {
          "indexed": false,
          "name": "token",
          "type": "address"
        }
      ],
      "name": "_InitializeAuthorPool",
      "type": "event"
    },
    {
      "anonymous": false,
      "inputs": [
        {
          "indexed": true,
          "name": "docId",
          "type": "bytes32"
        },
        {
          "indexed": false,
          "name": "timestamp",
          "type": "uint256"
        },
        {
          "indexed": true,
          "name": "applicant",
          "type": "address"
        },
        {
          "indexed": false,
          "name": "count",
          "type": "uint256"
        }
      ],
      "name": "_RegisterNewUserDocument",
      "type": "event"
    },
    {
      "anonymous": false,
      "inputs": [
        {
          "indexed": true,
          "name": "previousOwner",
          "type": "address"
        }
      ],
      "name": "OwnershipRenounced",
      "type": "event"
    },
    {
      "anonymous": false,
      "inputs": [
        {
          "indexed": true,
          "name": "previousOwner",
          "type": "address"
        },
        {
          "indexed": true,
          "name": "newOwner",
          "type": "address"
        }
      ],
      "name": "OwnershipTransferred",
      "type": "event"
    },
    {
      "constant": false,
      "inputs": [
        {
          "name": "_token",
          "type": "address"
        },
        {
          "name": "_utility",
          "type": "address"
        }
      ],
      "name": "init",
      "outputs": [],
      "payable": false,
      "stateMutability": "nonpayable",
      "type": "function"
    },
    {
      "constant": true,
      "inputs": [],
      "name": "getAuthors",
      "outputs": [
        {
          "name": "",
          "type": "address[]"
        }
      ],
      "payable": false,
      "stateMutability": "view",
      "type": "function"
    },
    {
      "constant": false,
      "inputs": [
        {
          "name": "_docId",
          "type": "bytes32"
        },
        {
          "name": "_author",
          "type": "address"
        }
      ],
      "name": "registerUserDocument",
      "outputs": [],
      "payable": false,
      "stateMutability": "nonpayable",
      "type": "function"
    },
    {
      "constant": true,
      "inputs": [
        {
          "name": "_addr",
          "type": "address"
        },
        {
          "name": "_docId",
          "type": "bytes32"
        }
      ],
      "name": "containsUserDocument",
      "outputs": [
        {
          "name": "",
          "type": "bool"
        }
      ],
      "payable": false,
      "stateMutability": "view",
      "type": "function"
    },
    {
      "constant": true,
      "inputs": [
        {
          "name": "_addr",
          "type": "address"
        },
        {
          "name": "_docId",
          "type": "bytes32"
        }
      ],
      "name": "getUserDocumentIndex",
      "outputs": [
        {
          "name": "",
          "type": "int256"
        }
      ],
      "payable": false,
      "stateMutability": "view",
      "type": "function"
    },
    {
      "constant": true,
      "inputs": [
        {
          "name": "_addr",
          "type": "address"
        },
        {
          "name": "_idx",
          "type": "int256"
        }
      ],
      "name": "getUserDocumentListedDate",
      "outputs": [
        {
          "name": "",
          "type": "uint256"
        }
      ],
      "payable": false,
      "stateMutability": "view",
      "type": "function"
    },
    {
      "constant": true,
      "inputs": [
        {
          "name": "_addr",
          "type": "address"
        },
        {
          "name": "_idx",
          "type": "int256"
        }
      ],
      "name": "getUserDocumentLastClaimedDate",
      "outputs": [
        {
          "name": "",
          "type": "uint256"
        }
      ],
      "payable": false,
      "stateMutability": "view",
      "type": "function"
    },
    {
      "constant": true,
      "inputs": [
        {
          "name": "_pv",
          "type": "uint256"
        },
        {
          "name": "_tpv",
          "type": "uint256"
        }
      ],
      "name": "determineReward",
      "outputs": [
        {
          "name": "",
          "type": "uint256"
        }
      ],
      "payable": false,
      "stateMutability": "view",
      "type": "function"
    }
  ],
  "bytecode": "0x6080604052336000806101000a81548173ffffffffffffffffffffffffffffffffffffffff021916908373ffffffffffffffffffffffffffffffffffffffff1602179055506110a7806100536000396000f3006080604052600436106100ba576000357c0100000000000000000000000000000000000000000000000000000000900463ffffffff16806361dcd7ab146100bf578063715018a6146100ea5780637fc622f4146101015780638938dfc61461016d5780638da5cb5b146101ce57806394e6f5b914610225578063be44d6f91461028e578063bfb2290d146102df578063c5b5f0a914610344578063ddb358ef1461038f578063f09a4016146103f0578063f2fde38b14610453575b600080fd5b3480156100cb57600080fd5b506100d4610496565b6040518082815260200191505060405180910390f35b3480156100f657600080fd5b506100ff61049c565b005b34801561010d57600080fd5b5061011661059e565b6040518080602001828103825283818151815260200191508051906020019060200280838360005b8381101561015957808201518184015260208101905061013e565b505050509050019250505060405180910390f35b34801561017957600080fd5b506101b8600480360381019080803573ffffffffffffffffffffffffffffffffffffffff1690602001909291908035906020019092919050505061062c565b6040518082815260200191505060405180910390f35b3480156101da57600080fd5b506101e3610694565b604051808273ffffffffffffffffffffffffffffffffffffffff1673ffffffffffffffffffffffffffffffffffffffff16815260200191505060405180910390f35b34801561023157600080fd5b50610274600480360381019080803573ffffffffffffffffffffffffffffffffffffffff16906020019092919080356000191690602001909291905050506106b9565b604051808215151515815260200191505060405180910390f35b34801561029a57600080fd5b506102dd6004803603810190808035600019169060200190929190803573ffffffffffffffffffffffffffffffffffffffff1690602001909291905050506106d0565b005b3480156102eb57600080fd5b5061032e600480360381019080803573ffffffffffffffffffffffffffffffffffffffff16906020019092919080356000191690602001909291905050506109cf565b6040518082815260200191505060405180910390f35b34801561035057600080fd5b5061037960048036038101908080359060200190929190803590602001909291905050506109e3565b6040518082815260200191505060405180910390f35b34801561039b57600080fd5b506103da600480360381019080803573ffffffffffffffffffffffffffffffffffffffff16906020019092919080359060200190929190505050610af4565b6040518082815260200191505060405180910390f35b3480156103fc57600080fd5b50610451600480360381019080803573ffffffffffffffffffffffffffffffffffffffff169060200190929190803573ffffffffffffffffffffffffffffffffffffffff169060200190929190505050610b5c565b005b34801561045f57600080fd5b50610494600480360381019080803573ffffffffffffffffffffffffffffffffffffffff169060200190929190505050610e45565b005b60055481565b6000809054906101000a900473ffffffffffffffffffffffffffffffffffffffff1673ffffffffffffffffffffffffffffffffffffffff163373ffffffffffffffffffffffffffffffffffffffff161415156104f757600080fd5b6000809054906101000a900473ffffffffffffffffffffffffffffffffffffffff1673ffffffffffffffffffffffffffffffffffffffff167ff8df31144d9c2f0f6b59d69b8b98abd5459d07f2742c4df920b25aae33c6482060405160405180910390a260008060006101000a81548173ffffffffffffffffffffffffffffffffffffffff021916908373ffffffffffffffffffffffffffffffffffffffff160217905550565b6060600280548060200260200160405190810160405280929190818152602001828054801561062257602002820191906000526020600020905b8160009054906101000a900473ffffffffffffffffffffffffffffffffffffffff1673ffffffffffffffffffffffffffffffffffffffff16815260200190600101908083116105d8575b5050505050905090565b6000600160008473ffffffffffffffffffffffffffffffffffffffff1673ffffffffffffffffffffffffffffffffffffffff1681526020019081526020016000208281548110151561067a57fe5b906000526020600020906003020160020154905092915050565b6000809054906101000a900473ffffffffffffffffffffffffffffffffffffffff1681565b6000806106c68385610eac565b1215905092915050565b6000806000809054906101000a900473ffffffffffffffffffffffffffffffffffffffff1673ffffffffffffffffffffffffffffffffffffffff163373ffffffffffffffffffffffffffffffffffffffff1614151561072e57600080fd5b600061073a8585610eac565b12151561074657600080fd5b600360009054906101000a900473ffffffffffffffffffffffffffffffffffffffff1673ffffffffffffffffffffffffffffffffffffffff16637ff8b20e6040518163ffffffff167c0100000000000000000000000000000000000000000000000000000000028152600401602060405180830381600087803b1580156107cc57600080fd5b505af11580156107e0573d6000803e3d6000fd5b505050506040513d60208110156107f657600080fd5b810190808051906020019092919050505091506000600160008573ffffffffffffffffffffffffffffffffffffffff1673ffffffffffffffffffffffffffffffffffffffff1681526020019081526020016000208054905014156108bb5760028390806001815401808255809150509060018203906000526020600020016000909192909190916101000a81548173ffffffffffffffffffffffffffffffffffffffff021916908373ffffffffffffffffffffffffffffffffffffffff160217905550505b600160008473ffffffffffffffffffffffffffffffffffffffff1673ffffffffffffffffffffffffffffffffffffffff16815260200190815260200160002060606040519081016040528086600019168152602001848152602001600081525090806001815401808255809150509060018203906000526020600020906003020160009091929091909150600082015181600001906000191690556020820151816001015560408201518160020155505090508273ffffffffffffffffffffffffffffffffffffffff1684600019167f314acf3bcc521b16f4ef5e9f84f5b543c65c96e1149dd279da6c5ba2cf6168658484604051808381526020018281526020019250505060405180910390a350505050565b60006109db8284610eac565b905092915050565b60008060008314806109f55750600084145b15610a035760009150610aed565b600360009054906101000a900473ffffffffffffffffffffffffffffffffffffffff1673ffffffffffffffffffffffffffffffffffffffff1663dcb8e50660466005546040518363ffffffff167c01000000000000000000000000000000000000000000000000000000000281526004018083815260200182815260200192505050602060405180830381600087803b158015610a9f57600080fd5b505af1158015610ab3573d6000803e3d6000fd5b505050506040513d6020811015610ac957600080fd5b810190808051906020019092919050505090508281811515610ae757fe5b04840291505b5092915050565b6000600160008473ffffffffffffffffffffffffffffffffffffffff1673ffffffffffffffffffffffffffffffffffffffff16815260200190815260200160002082815481101515610b4257fe5b906000526020600020906003020160010154905092915050565b6000809054906101000a900473ffffffffffffffffffffffffffffffffffffffff1673ffffffffffffffffffffffffffffffffffffffff163373ffffffffffffffffffffffffffffffffffffffff16141515610bb757600080fd5b60008273ffffffffffffffffffffffffffffffffffffffff1614158015610c1657506000600460009054906101000a900473ffffffffffffffffffffffffffffffffffffffff1673ffffffffffffffffffffffffffffffffffffffff16145b1515610c2157600080fd5b60008173ffffffffffffffffffffffffffffffffffffffff1614158015610c8057506000600360009054906101000a900473ffffffffffffffffffffffffffffffffffffffff1673ffffffffffffffffffffffffffffffffffffffff16145b1515610c8b57600080fd5b81600460006101000a81548173ffffffffffffffffffffffffffffffffffffffff021916908373ffffffffffffffffffffffffffffffffffffffff16021790555080600360006101000a81548173ffffffffffffffffffffffffffffffffffffffff021916908373ffffffffffffffffffffffffffffffffffffffff160217905550600360009054906101000a900473ffffffffffffffffffffffffffffffffffffffff1673ffffffffffffffffffffffffffffffffffffffff1663c03812226040518163ffffffff167c0100000000000000000000000000000000000000000000000000000000028152600401602060405180830381600087803b158015610d9357600080fd5b505af1158015610da7573d6000803e3d6000fd5b505050506040513d6020811015610dbd57600080fd5b81019080805190602001909291905050506005819055507f1bfd181e34d7e862e2d958a2a729ca8b993d2afd39bb61a2e8a6f944bebcbf5f60055483604051808381526020018273ffffffffffffffffffffffffffffffffffffffff1673ffffffffffffffffffffffffffffffffffffffff1681526020019250505060405180910390a15050565b6000809054906101000a900473ffffffffffffffffffffffffffffffffffffffff1673ffffffffffffffffffffffffffffffffffffffff163373ffffffffffffffffffffffffffffffffffffffff16141515610ea057600080fd5b610ea981610f81565b50565b6000806000600160008573ffffffffffffffffffffffffffffffffffffffff1673ffffffffffffffffffffffffffffffffffffffff1681526020019081526020016000209150600082805490501115610f5557600090505b8180549050811015610f545784600019168282815481101515610f2357fe5b906000526020600020906003020160000154600019161415610f4757809250610f79565b8080600101915050610f04565b5b7fffffffffffffffffffffffffffffffffffffffffffffffffffffffffffffffff92505b505092915050565b600073ffffffffffffffffffffffffffffffffffffffff168173ffffffffffffffffffffffffffffffffffffffff1614151515610fbd57600080fd5b8073ffffffffffffffffffffffffffffffffffffffff166000809054906101000a900473ffffffffffffffffffffffffffffffffffffffff1673ffffffffffffffffffffffffffffffffffffffff167f8be0079c531659141344cd1fd0a4f28419497f9722a3daafe3b4186f6b6457e060405160405180910390a3806000806101000a81548173ffffffffffffffffffffffffffffffffffffffff021916908373ffffffffffffffffffffffffffffffffffffffff160217905550505600a165627a7a7230582030fbdbaa3b24f99ad21514ad4dea8fafa11b05f64e7f160a5bce2757b96e69260029",
  "source": "pragma solidity ^0.4.24;\n\nimport \"./Deck.sol\";\nimport \"./Utility.sol\";\nimport \"openzeppelin-solidity/contracts/ownership/Ownable.sol\";\n\ncontract AuthorPool is Ownable {\n\n  event _InitializeAuthorPool(uint timestamp, address token);\n  event _RegisterNewUserDocument(bytes32 indexed docId, uint timestamp, address indexed applicant, uint count);\n\n  struct Asset {\n    bytes32 docId;\n    uint listedDate;\n    uint lastClaimedDate;\n  }\n\n  // maps address to the user's asset data\n  mapping (address => Asset[]) internal map;\n\n  // key list for iteration\n  address[] private keys;\n\n  // private variables\n  Utility private util;\n  Deck private token;\n\n  // public variables\n  uint public createTime;\n\n  function init(address _token, address _utility) public\n    onlyOwner()\n  {\n\n    require(_token != 0 && address(token) == 0);\n    require(_utility != 0 && address(util) == 0);\n\n    token = Deck(_token);\n    util = Utility(_utility);\n\n    createTime = util.getTimeMillis();\n    emit _InitializeAuthorPool(createTime, _token);\n  }\n\n  // -------------------------------\n  // For iteration\n  // -------------------------------\n\n  // author list for iteration\n  function getAuthors() public view returns (address[]) {\n    return keys;\n  }\n\n  // -------------------------------\n  // User Document Functions\n  // -------------------------------\n\n  // register a new document\n  function registerUserDocument(bytes32 _docId, address _author) public\n    onlyOwner()\n  {\n    require(getIndex(_docId, _author) < 0);\n\n    // adding to document registry\n    uint tMillis = util.getDateMillis();\n    if (map[_author].length == 0){\n      keys.push(_author);\n    }\n    uint index = map[_author].push(Asset(_docId, tMillis, 0));\n\n    emit _RegisterNewUserDocument(_docId, tMillis, _author, index);\n  }\n\n  function containsUserDocument(address _addr, bytes32 _docId) public view returns (bool) {\n    return getIndex(_docId, _addr) >= 0;\n  }\n\n  function getUserDocumentIndex(address _addr, bytes32 _docId) public view returns (int) {\n    return getIndex(_docId, _addr);\n  }\n\n  function getUserDocumentListedDate(address _addr, int _idx) public view returns (uint) {\n    return map[_addr][uint(_idx)].listedDate;\n  }\n\n  function getUserDocumentLastClaimedDate(address _addr, int _idx) public view returns (uint) {\n    return map[_addr][uint(_idx)].lastClaimedDate;\n  }\n\n  function determineReward(uint _pv, uint _tpv) public view returns (uint) {\n    if (_tpv == 0 || _pv == 0) {\n      return uint(0);\n    }\n\n    uint drp = util.getDailyRewardPool(uint(70), createTime);\n    return uint(_pv * uint(drp / _tpv));\n  }\n\n  function getIndex(bytes32 _docId, address _author) private view returns (int) {\n    Asset[] storage assetList = map[_author];\n    if (assetList.length > 0) {\n      for (int i=0; uint(i)<assetList.length; i++) {\n        if (assetList[uint(i)].docId == _docId) {\n          return i;\n        }\n      }\n    }\n    return -1;\n  }\n\n}\n",
  "sourcePath": "/Users/centroine/Documents/github/bluebottle/contracts/AuthorPool.sol",
  "compiler": {
    "name": "solc",
    "version": "0.4.24+commit.e67f0147.Emscripten.clang"
  },
  "schemaVersion": "2.0.1",
  "updatedAt": "2018-10-16T13:46:42.495Z"
}