{
  "contractName": "AuthorPool",
  "abi": [
    {
      "constant": true,
      "inputs": [],
      "name": "createTime",
      "outputs": [
        {
          "name": "",
          "type": "uint256"
        }
      ],
      "payable": false,
      "stateMutability": "view",
      "type": "function"
    },
    {
      "constant": false,
      "inputs": [],
      "name": "renounceOwnership",
      "outputs": [],
      "payable": false,
      "stateMutability": "nonpayable",
      "type": "function"
    },
    {
      "constant": true,
      "inputs": [],
      "name": "owner",
      "outputs": [
        {
          "name": "",
          "type": "address"
        }
      ],
      "payable": false,
      "stateMutability": "view",
      "type": "function"
    },
    {
      "constant": false,
      "inputs": [
        {
          "name": "_newOwner",
          "type": "address"
        }
      ],
      "name": "transferOwnership",
      "outputs": [],
      "payable": false,
      "stateMutability": "nonpayable",
      "type": "function"
    },
    {
      "anonymous": false,
      "inputs": [
        {
          "indexed": false,
          "name": "timestamp",
          "type": "uint256"
        },
        {
          "indexed": false,
          "name": "token",
          "type": "address"
        }
      ],
      "name": "_InitializeAuthorPool",
      "type": "event"
    },
    {
      "anonymous": false,
      "inputs": [
        {
          "indexed": true,
          "name": "docId",
          "type": "bytes32"
        },
        {
          "indexed": false,
          "name": "timestamp",
          "type": "uint256"
        },
        {
          "indexed": true,
          "name": "applicant",
          "type": "address"
        },
        {
          "indexed": false,
          "name": "count",
          "type": "uint256"
        }
      ],
      "name": "_RegisterNewUserDocument",
      "type": "event"
    },
    {
      "anonymous": false,
      "inputs": [
        {
          "indexed": true,
          "name": "previousOwner",
          "type": "address"
        }
      ],
      "name": "OwnershipRenounced",
      "type": "event"
    },
    {
      "anonymous": false,
      "inputs": [
        {
          "indexed": true,
          "name": "previousOwner",
          "type": "address"
        },
        {
          "indexed": true,
          "name": "newOwner",
          "type": "address"
        }
      ],
      "name": "OwnershipTransferred",
      "type": "event"
    },
    {
      "constant": false,
      "inputs": [
        {
          "name": "_token",
          "type": "address"
        },
        {
          "name": "_utility",
          "type": "address"
        }
      ],
      "name": "init",
      "outputs": [],
      "payable": false,
      "stateMutability": "nonpayable",
      "type": "function"
    },
    {
      "constant": true,
      "inputs": [],
      "name": "getAuthors",
      "outputs": [
        {
          "name": "",
          "type": "address[]"
        }
      ],
      "payable": false,
      "stateMutability": "view",
      "type": "function"
    },
    {
      "constant": false,
      "inputs": [
        {
          "name": "_docId",
          "type": "bytes32"
        },
        {
          "name": "_author",
          "type": "address"
        }
      ],
      "name": "registerUserDocument",
      "outputs": [],
      "payable": false,
      "stateMutability": "nonpayable",
      "type": "function"
    },
    {
      "constant": false,
      "inputs": [
        {
          "name": "_docId",
          "type": "bytes32"
        },
        {
          "name": "_author",
          "type": "address"
        },
        {
          "name": "_timestamp",
          "type": "uint256"
        }
      ],
      "name": "updateUserDocument",
      "outputs": [],
      "payable": false,
      "stateMutability": "nonpayable",
      "type": "function"
    },
    {
      "constant": true,
      "inputs": [
        {
          "name": "_addr",
          "type": "address"
        },
        {
          "name": "_docId",
          "type": "bytes32"
        }
      ],
      "name": "containsUserDocument",
      "outputs": [
        {
          "name": "",
          "type": "bool"
        }
      ],
      "payable": false,
      "stateMutability": "view",
      "type": "function"
    },
    {
      "constant": true,
      "inputs": [
        {
          "name": "_addr",
          "type": "address"
        },
        {
          "name": "_docId",
          "type": "bytes32"
        }
      ],
      "name": "getUserDocumentIndex",
      "outputs": [
        {
          "name": "",
          "type": "int256"
        }
      ],
      "payable": false,
      "stateMutability": "view",
      "type": "function"
    },
    {
      "constant": true,
      "inputs": [
        {
          "name": "_addr",
          "type": "address"
        },
        {
          "name": "_idx",
          "type": "int256"
        }
      ],
      "name": "getUserDocumentListedDate",
      "outputs": [
        {
          "name": "",
          "type": "uint256"
        }
      ],
      "payable": false,
      "stateMutability": "view",
      "type": "function"
    },
    {
      "constant": true,
      "inputs": [
        {
          "name": "_addr",
          "type": "address"
        },
        {
          "name": "_idx",
          "type": "int256"
        }
      ],
      "name": "getUserDocumentLastClaimedDate",
      "outputs": [
        {
          "name": "",
          "type": "uint256"
        }
      ],
      "payable": false,
      "stateMutability": "view",
      "type": "function"
    },
    {
      "constant": true,
      "inputs": [
        {
          "name": "_pv",
          "type": "uint256"
        },
        {
          "name": "_tpv",
          "type": "uint256"
        }
      ],
      "name": "determineReward",
      "outputs": [
        {
          "name": "",
          "type": "uint256"
        }
      ],
      "payable": false,
      "stateMutability": "view",
      "type": "function"
    }
  ],
  "bytecode": "0x6080604052336000806101000a81548173ffffffffffffffffffffffffffffffffffffffff021916908373ffffffffffffffffffffffffffffffffffffffff160217905550611463806100536000396000f3006080604052600436106100c5576000357c0100000000000000000000000000000000000000000000000000000000900463ffffffff16806361dcd7ab146100ca578063715018a6146100f55780637fc622f41461010c5780638938dfc6146101785780638da5cb5b146101d957806394e6f5b914610230578063be44d6f914610299578063bfb2290d146102ea578063c5b5f0a91461034f578063ddb358ef1461039a578063f09a4016146103fb578063f2fde38b1461045e578063fc2ce2af146104a1575b600080fd5b3480156100d657600080fd5b506100df6104fc565b6040518082815260200191505060405180910390f35b34801561010157600080fd5b5061010a610502565b005b34801561011857600080fd5b50610121610604565b6040518080602001828103825283818151815260200191508051906020019060200280838360005b83811015610164578082015181840152602081019050610149565b505050509050019250505060405180910390f35b34801561018457600080fd5b506101c3600480360381019080803573ffffffffffffffffffffffffffffffffffffffff16906020019092919080359060200190929190505050610692565b6040518082815260200191505060405180910390f35b3480156101e557600080fd5b506101ee6106fa565b604051808273ffffffffffffffffffffffffffffffffffffffff1673ffffffffffffffffffffffffffffffffffffffff16815260200191505060405180910390f35b34801561023c57600080fd5b5061027f600480360381019080803573ffffffffffffffffffffffffffffffffffffffff169060200190929190803560001916906020019092919050505061071f565b604051808215151515815260200191505060405180910390f35b3480156102a557600080fd5b506102e86004803603810190808035600019169060200190929190803573ffffffffffffffffffffffffffffffffffffffff169060200190929190505050610736565b005b3480156102f657600080fd5b50610339600480360381019080803573ffffffffffffffffffffffffffffffffffffffff1690602001909291908035600019169060200190929190505050610a35565b6040518082815260200191505060405180910390f35b34801561035b57600080fd5b506103846004803603810190808035906020019092919080359060200190929190505050610a49565b6040518082815260200191505060405180910390f35b3480156103a657600080fd5b506103e5600480360381019080803573ffffffffffffffffffffffffffffffffffffffff16906020019092919080359060200190929190505050610b5a565b6040518082815260200191505060405180910390f35b34801561040757600080fd5b5061045c600480360381019080803573ffffffffffffffffffffffffffffffffffffffff169060200190929190803573ffffffffffffffffffffffffffffffffffffffff169060200190929190505050610bc2565b005b34801561046a57600080fd5b5061049f600480360381019080803573ffffffffffffffffffffffffffffffffffffffff169060200190929190505050610eab565b005b3480156104ad57600080fd5b506104fa6004803603810190808035600019169060200190929190803573ffffffffffffffffffffffffffffffffffffffff16906020019092919080359060200190929190505050610f12565b005b60055481565b6000809054906101000a900473ffffffffffffffffffffffffffffffffffffffff1673ffffffffffffffffffffffffffffffffffffffff163373ffffffffffffffffffffffffffffffffffffffff1614151561055d57600080fd5b6000809054906101000a900473ffffffffffffffffffffffffffffffffffffffff1673ffffffffffffffffffffffffffffffffffffffff167ff8df31144d9c2f0f6b59d69b8b98abd5459d07f2742c4df920b25aae33c6482060405160405180910390a260008060006101000a81548173ffffffffffffffffffffffffffffffffffffffff021916908373ffffffffffffffffffffffffffffffffffffffff160217905550565b6060600280548060200260200160405190810160405280929190818152602001828054801561068857602002820191906000526020600020905b8160009054906101000a900473ffffffffffffffffffffffffffffffffffffffff1673ffffffffffffffffffffffffffffffffffffffff168152602001906001019080831161063e575b5050505050905090565b6000600160008473ffffffffffffffffffffffffffffffffffffffff1673ffffffffffffffffffffffffffffffffffffffff168152602001908152602001600020828154811015156106e057fe5b906000526020600020906003020160020154905092915050565b6000809054906101000a900473ffffffffffffffffffffffffffffffffffffffff1681565b60008061072c8385611268565b1215905092915050565b6000806000809054906101000a900473ffffffffffffffffffffffffffffffffffffffff1673ffffffffffffffffffffffffffffffffffffffff163373ffffffffffffffffffffffffffffffffffffffff1614151561079457600080fd5b60006107a08585611268565b1215156107ac57600080fd5b600360009054906101000a900473ffffffffffffffffffffffffffffffffffffffff1673ffffffffffffffffffffffffffffffffffffffff16637ff8b20e6040518163ffffffff167c0100000000000000000000000000000000000000000000000000000000028152600401602060405180830381600087803b15801561083257600080fd5b505af1158015610846573d6000803e3d6000fd5b505050506040513d602081101561085c57600080fd5b810190808051906020019092919050505091506000600160008573ffffffffffffffffffffffffffffffffffffffff1673ffffffffffffffffffffffffffffffffffffffff1681526020019081526020016000208054905014156109215760028390806001815401808255809150509060018203906000526020600020016000909192909190916101000a81548173ffffffffffffffffffffffffffffffffffffffff021916908373ffffffffffffffffffffffffffffffffffffffff160217905550505b600160008473ffffffffffffffffffffffffffffffffffffffff1673ffffffffffffffffffffffffffffffffffffffff16815260200190815260200160002060606040519081016040528086600019168152602001848152602001600081525090806001815401808255809150509060018203906000526020600020906003020160009091929091909150600082015181600001906000191690556020820151816001015560408201518160020155505090508273ffffffffffffffffffffffffffffffffffffffff1684600019167f314acf3bcc521b16f4ef5e9f84f5b543c65c96e1149dd279da6c5ba2cf6168658484604051808381526020018281526020019250505060405180910390a350505050565b6000610a418284611268565b905092915050565b6000806000831480610a5b5750600084145b15610a695760009150610b53565b600360009054906101000a900473ffffffffffffffffffffffffffffffffffffffff1673ffffffffffffffffffffffffffffffffffffffff1663dcb8e50660466005546040518363ffffffff167c01000000000000000000000000000000000000000000000000000000000281526004018083815260200182815260200192505050602060405180830381600087803b158015610b0557600080fd5b505af1158015610b19573d6000803e3d6000fd5b505050506040513d6020811015610b2f57600080fd5b810190808051906020019092919050505090508281811515610b4d57fe5b04840291505b5092915050565b6000600160008473ffffffffffffffffffffffffffffffffffffffff1673ffffffffffffffffffffffffffffffffffffffff16815260200190815260200160002082815481101515610ba857fe5b906000526020600020906003020160010154905092915050565b6000809054906101000a900473ffffffffffffffffffffffffffffffffffffffff1673ffffffffffffffffffffffffffffffffffffffff163373ffffffffffffffffffffffffffffffffffffffff16141515610c1d57600080fd5b60008273ffffffffffffffffffffffffffffffffffffffff1614158015610c7c57506000600460009054906101000a900473ffffffffffffffffffffffffffffffffffffffff1673ffffffffffffffffffffffffffffffffffffffff16145b1515610c8757600080fd5b60008173ffffffffffffffffffffffffffffffffffffffff1614158015610ce657506000600360009054906101000a900473ffffffffffffffffffffffffffffffffffffffff1673ffffffffffffffffffffffffffffffffffffffff16145b1515610cf157600080fd5b81600460006101000a81548173ffffffffffffffffffffffffffffffffffffffff021916908373ffffffffffffffffffffffffffffffffffffffff16021790555080600360006101000a81548173ffffffffffffffffffffffffffffffffffffffff021916908373ffffffffffffffffffffffffffffffffffffffff160217905550600360009054906101000a900473ffffffffffffffffffffffffffffffffffffffff1673ffffffffffffffffffffffffffffffffffffffff1663c03812226040518163ffffffff167c0100000000000000000000000000000000000000000000000000000000028152600401602060405180830381600087803b158015610df957600080fd5b505af1158015610e0d573d6000803e3d6000fd5b505050506040513d6020811015610e2357600080fd5b81019080805190602001909291905050506005819055507f1bfd181e34d7e862e2d958a2a729ca8b993d2afd39bb61a2e8a6f944bebcbf5f60055483604051808381526020018273ffffffffffffffffffffffffffffffffffffffff1673ffffffffffffffffffffffffffffffffffffffff1681526020019250505060405180910390a15050565b6000809054906101000a900473ffffffffffffffffffffffffffffffffffffffff1673ffffffffffffffffffffffffffffffffffffffff163373ffffffffffffffffffffffffffffffffffffffff16141515610f0657600080fd5b610f0f8161133d565b50565b6000806000809054906101000a900473ffffffffffffffffffffffffffffffffffffffff1673ffffffffffffffffffffffffffffffffffffffff163373ffffffffffffffffffffffffffffffffffffffff16141515610f7057600080fd5b6000600160008673ffffffffffffffffffffffffffffffffffffffff1673ffffffffffffffffffffffffffffffffffffffff1681526020019081526020016000208054905014156110225760028490806001815401808255809150509060018203906000526020600020016000909192909190916101000a81548173ffffffffffffffffffffffffffffffffffffffff021916908373ffffffffffffffffffffffffffffffffffffffff160217905550505b600091505b600160008573ffffffffffffffffffffffffffffffffffffffff1673ffffffffffffffffffffffffffffffffffffffff16815260200190815260200160002080549050821015611152578460001916600160008673ffffffffffffffffffffffffffffffffffffffff1673ffffffffffffffffffffffffffffffffffffffff168152602001908152602001600020838154811015156110c257fe5b9060005260206000209060030201600001546000191614156111455782600160008673ffffffffffffffffffffffffffffffffffffffff1673ffffffffffffffffffffffffffffffffffffffff1681526020019081526020016000208381548110151561112b57fe5b906000526020600020906003020160010181905550611261565b8180600101925050611027565b600160008573ffffffffffffffffffffffffffffffffffffffff1673ffffffffffffffffffffffffffffffffffffffff16815260200190815260200160002060606040519081016040528087600019168152602001858152602001600081525090806001815401808255809150509060018203906000526020600020906003020160009091929091909150600082015181600001906000191690556020820151816001015560408201518160020155505090508373ffffffffffffffffffffffffffffffffffffffff1685600019167f314acf3bcc521b16f4ef5e9f84f5b543c65c96e1149dd279da6c5ba2cf6168658584604051808381526020018281526020019250505060405180910390a35b5050505050565b6000806000600160008573ffffffffffffffffffffffffffffffffffffffff1673ffffffffffffffffffffffffffffffffffffffff168152602001908152602001600020915060008280549050111561131157600090505b818054905081101561131057846000191682828154811015156112df57fe5b90600052602060002090600302016000015460001916141561130357809250611335565b80806001019150506112c0565b5b7fffffffffffffffffffffffffffffffffffffffffffffffffffffffffffffffff92505b505092915050565b600073ffffffffffffffffffffffffffffffffffffffff168173ffffffffffffffffffffffffffffffffffffffff161415151561137957600080fd5b8073ffffffffffffffffffffffffffffffffffffffff166000809054906101000a900473ffffffffffffffffffffffffffffffffffffffff1673ffffffffffffffffffffffffffffffffffffffff167f8be0079c531659141344cd1fd0a4f28419497f9722a3daafe3b4186f6b6457e060405160405180910390a3806000806101000a81548173ffffffffffffffffffffffffffffffffffffffff021916908373ffffffffffffffffffffffffffffffffffffffff160217905550505600a165627a7a723058209fb15c13474ce77fd19d7d120a4a2a3aa104fb0723919c4f036891b52953c93d0029",
  "source": "pragma solidity ^0.4.24;\n\nimport \"./Deck.sol\";\nimport \"./Utility.sol\";\nimport \"openzeppelin-solidity/contracts/ownership/Ownable.sol\";\n\ncontract AuthorPool is Ownable {\n\n  event _InitializeAuthorPool(uint timestamp, address token);\n  event _RegisterNewUserDocument(bytes32 indexed docId, uint timestamp, address indexed applicant, uint count);\n\n  struct Asset {\n    bytes32 docId;\n    uint listedDate;\n    uint lastClaimedDate;\n  }\n\n  // maps address to the user's asset data\n  mapping (address => Asset[]) internal map;\n\n  // key list for iteration\n  address[] private keys;\n\n  // private variables\n  Utility private util;\n  Deck private token;\n\n  // public variables\n  uint public createTime;\n\n  function init(address _token, address _utility) public\n    onlyOwner()\n  {\n\n    require(_token != 0 && address(token) == 0);\n    require(_utility != 0 && address(util) == 0);\n\n    token = Deck(_token);\n    util = Utility(_utility);\n\n    createTime = util.getTimeMillis();\n    emit _InitializeAuthorPool(createTime, _token);\n  }\n\n  // -------------------------------\n  // For iteration\n  // -------------------------------\n\n  // author list for iteration\n  function getAuthors() public view returns (address[]) {\n    return keys;\n  }\n\n  // -------------------------------\n  // User Document Functions\n  // -------------------------------\n\n  // register a new document\n  function registerUserDocument(bytes32 _docId, address _author) public\n    onlyOwner()\n  {\n    require(getIndex(_docId, _author) < 0);\n\n    // adding to document registry\n    uint tMillis = util.getDateMillis();\n    if (map[_author].length == 0){\n      keys.push(_author);\n    }\n    uint index = map[_author].push(Asset(_docId, tMillis, 0));\n\n    emit _RegisterNewUserDocument(_docId, tMillis, _author, index);\n  }\n\n  function updateUserDocument(bytes32 _docId, address _author, uint _timestamp) public\n    onlyOwner()\n  {\n    if (map[_author].length == 0){\n      keys.push(_author);\n    }\n    for (uint i=0; i<map[_author].length; i++) {\n      if (map[_author][i].docId == _docId) {\n        map[_author][i].listedDate = _timestamp;\n        return;\n      }\n    }\n    uint index = map[_author].push(Asset(_docId, _timestamp, 0));\n\n    emit _RegisterNewUserDocument(_docId, _timestamp, _author, index);\n  }\n\n  function containsUserDocument(address _addr, bytes32 _docId) public view returns (bool) {\n    return getIndex(_docId, _addr) >= 0;\n  }\n\n  function getUserDocumentIndex(address _addr, bytes32 _docId) public view returns (int) {\n    return getIndex(_docId, _addr);\n  }\n\n  function getUserDocumentListedDate(address _addr, int _idx) public view returns (uint) {\n    return map[_addr][uint(_idx)].listedDate;\n  }\n\n  function getUserDocumentLastClaimedDate(address _addr, int _idx) public view returns (uint) {\n    return map[_addr][uint(_idx)].lastClaimedDate;\n  }\n\n  function determineReward(uint _pv, uint _tpv) public view returns (uint) {\n    if (_tpv == 0 || _pv == 0) {\n      return uint(0);\n    }\n\n    uint drp = util.getDailyRewardPool(uint(70), createTime);\n    return uint(_pv * uint(drp / _tpv));\n  }\n\n  function getIndex(bytes32 _docId, address _author) private view returns (int) {\n    Asset[] storage assetList = map[_author];\n    if (assetList.length > 0) {\n      for (uint i=0; i<assetList.length; i++) {\n        if (assetList[i].docId == _docId) {\n          return int(i);\n        }\n      }\n    }\n    return -1;\n  }\n\n}\n",
  "sourcePath": "/Users/centroine/Documents/github/bluebottle/contracts/AuthorPool.sol",
  "compiler": {
    "name": "solc",
    "version": "0.4.24+commit.e67f0147.Emscripten.clang"
  },
  "schemaVersion": "2.0.1",
  "updatedAt": "2018-10-17T12:02:53.715Z"
}