{
  "contractName": "AuthorPool",
  "abi": [
    {
      "constant": true,
      "inputs": [],
      "name": "createTime",
      "outputs": [
        {
          "name": "",
          "type": "uint256"
        }
      ],
      "payable": false,
      "stateMutability": "view",
      "type": "function"
    },
    {
      "constant": false,
      "inputs": [],
      "name": "renounceOwnership",
      "outputs": [],
      "payable": false,
      "stateMutability": "nonpayable",
      "type": "function"
    },
    {
      "constant": true,
      "inputs": [],
      "name": "owner",
      "outputs": [
        {
          "name": "",
          "type": "address"
        }
      ],
      "payable": false,
      "stateMutability": "view",
      "type": "function"
    },
    {
      "constant": false,
      "inputs": [
        {
          "name": "_newOwner",
          "type": "address"
        }
      ],
      "name": "transferOwnership",
      "outputs": [],
      "payable": false,
      "stateMutability": "nonpayable",
      "type": "function"
    },
    {
      "anonymous": false,
      "inputs": [
        {
          "indexed": false,
          "name": "timestamp",
          "type": "uint256"
        },
        {
          "indexed": false,
          "name": "token",
          "type": "address"
        }
      ],
      "name": "_InitializeAuthorPool",
      "type": "event"
    },
    {
      "anonymous": false,
      "inputs": [
        {
          "indexed": true,
          "name": "docId",
          "type": "bytes32"
        },
        {
          "indexed": false,
          "name": "timestamp",
          "type": "uint256"
        },
        {
          "indexed": true,
          "name": "applicant",
          "type": "address"
        },
        {
          "indexed": false,
          "name": "count",
          "type": "uint256"
        }
      ],
      "name": "_RegisterNewUserDocument",
      "type": "event"
    },
    {
      "anonymous": false,
      "inputs": [
        {
          "indexed": true,
          "name": "previousOwner",
          "type": "address"
        }
      ],
      "name": "OwnershipRenounced",
      "type": "event"
    },
    {
      "anonymous": false,
      "inputs": [
        {
          "indexed": true,
          "name": "previousOwner",
          "type": "address"
        },
        {
          "indexed": true,
          "name": "newOwner",
          "type": "address"
        }
      ],
      "name": "OwnershipTransferred",
      "type": "event"
    },
    {
      "constant": false,
      "inputs": [
        {
          "name": "_token",
          "type": "address"
        },
        {
          "name": "_utility",
          "type": "address"
        }
      ],
      "name": "init",
      "outputs": [],
      "payable": false,
      "stateMutability": "nonpayable",
      "type": "function"
    },
    {
      "constant": true,
      "inputs": [],
      "name": "getAuthors",
      "outputs": [
        {
          "name": "",
          "type": "address[]"
        }
      ],
      "payable": false,
      "stateMutability": "view",
      "type": "function"
    },
    {
      "constant": false,
      "inputs": [
        {
          "name": "_docId",
          "type": "bytes32"
        },
        {
          "name": "_author",
          "type": "address"
        }
      ],
      "name": "registerUserDocument",
      "outputs": [],
      "payable": false,
      "stateMutability": "nonpayable",
      "type": "function"
    },
    {
      "constant": true,
      "inputs": [
        {
          "name": "_addr",
          "type": "address"
        },
        {
          "name": "_docId",
          "type": "bytes32"
        }
      ],
      "name": "containsUserDocument",
      "outputs": [
        {
          "name": "",
          "type": "bool"
        }
      ],
      "payable": false,
      "stateMutability": "view",
      "type": "function"
    },
    {
      "constant": true,
      "inputs": [
        {
          "name": "_addr",
          "type": "address"
        },
        {
          "name": "_docId",
          "type": "bytes32"
        }
      ],
      "name": "getUserDocumentIndex",
      "outputs": [
        {
          "name": "",
          "type": "int256"
        }
      ],
      "payable": false,
      "stateMutability": "view",
      "type": "function"
    },
    {
      "constant": true,
      "inputs": [
        {
          "name": "_addr",
          "type": "address"
        },
        {
          "name": "_idx",
          "type": "int256"
        }
      ],
      "name": "getUserDocumentListedDate",
      "outputs": [
        {
          "name": "",
          "type": "uint256"
        }
      ],
      "payable": false,
      "stateMutability": "view",
      "type": "function"
    },
    {
      "constant": true,
      "inputs": [
        {
          "name": "_addr",
          "type": "address"
        },
        {
          "name": "_idx",
          "type": "int256"
        }
      ],
      "name": "getUserDocumentLastClaimedDate",
      "outputs": [
        {
          "name": "",
          "type": "uint256"
        }
      ],
      "payable": false,
      "stateMutability": "view",
      "type": "function"
    },
    {
      "constant": true,
      "inputs": [
        {
          "name": "_pv",
          "type": "uint256"
        },
        {
          "name": "_tpv",
          "type": "uint256"
        }
      ],
      "name": "determineUserDocumentDeco",
      "outputs": [
        {
          "name": "",
          "type": "uint256"
        }
      ],
      "payable": false,
      "stateMutability": "view",
      "type": "function"
    }
  ],
  "bytecode": "0x6080604052336000806101000a81548173ffffffffffffffffffffffffffffffffffffffff021916908373ffffffffffffffffffffffffffffffffffffffff1602179055506110f5806100536000396000f3006080604052600436106100ba576000357c0100000000000000000000000000000000000000000000000000000000900463ffffffff1680631a753940146100bf57806361dcd7ab1461010a578063715018a6146101355780637fc622f41461014c5780638938dfc6146101b85780638da5cb5b1461021957806394e6f5b914610270578063be44d6f9146102d9578063bfb2290d1461032a578063ddb358ef1461038f578063f09a4016146103f0578063f2fde38b14610453575b600080fd5b3480156100cb57600080fd5b506100f46004803603810190808035906020019092919080359060200190929190505050610496565b6040518082815260200191505060405180910390f35b34801561011657600080fd5b5061011f6104e7565b6040518082815260200191505060405180910390f35b34801561014157600080fd5b5061014a6104ed565b005b34801561015857600080fd5b506101616105ef565b6040518080602001828103825283818151815260200191508051906020019060200280838360005b838110156101a4578082015181840152602081019050610189565b505050509050019250505060405180910390f35b3480156101c457600080fd5b50610203600480360381019080803573ffffffffffffffffffffffffffffffffffffffff1690602001909291908035906020019092919050505061067d565b6040518082815260200191505060405180910390f35b34801561022557600080fd5b5061022e6106e5565b604051808273ffffffffffffffffffffffffffffffffffffffff1673ffffffffffffffffffffffffffffffffffffffff16815260200191505060405180910390f35b34801561027c57600080fd5b506102bf600480360381019080803573ffffffffffffffffffffffffffffffffffffffff169060200190929190803560001916906020019092919050505061070a565b604051808215151515815260200191505060405180910390f35b3480156102e557600080fd5b506103286004803603810190808035600019169060200190929190803573ffffffffffffffffffffffffffffffffffffffff169060200190929190505050610721565b005b34801561033657600080fd5b50610379600480360381019080803573ffffffffffffffffffffffffffffffffffffffff1690602001909291908035600019169060200190929190505050610a20565b6040518082815260200191505060405180910390f35b34801561039b57600080fd5b506103da600480360381019080803573ffffffffffffffffffffffffffffffffffffffff16906020019092919080359060200190929190505050610a34565b6040518082815260200191505060405180910390f35b3480156103fc57600080fd5b50610451600480360381019080803573ffffffffffffffffffffffffffffffffffffffff169060200190929190803573ffffffffffffffffffffffffffffffffffffffff169060200190929190505050610a9c565b005b34801561045f57600080fd5b50610494600480360381019080803573ffffffffffffffffffffffffffffffffffffffff169060200190929190505050610d85565b005b6000806000831115156104a857600080fd5b6000841115156104b757600080fd5b6104bf610dec565b90506000811115156104d057600080fd5b828185028115156104dd57fe5b0491505092915050565b60055481565b6000809054906101000a900473ffffffffffffffffffffffffffffffffffffffff1673ffffffffffffffffffffffffffffffffffffffff163373ffffffffffffffffffffffffffffffffffffffff1614151561054857600080fd5b6000809054906101000a900473ffffffffffffffffffffffffffffffffffffffff1673ffffffffffffffffffffffffffffffffffffffff167ff8df31144d9c2f0f6b59d69b8b98abd5459d07f2742c4df920b25aae33c6482060405160405180910390a260008060006101000a81548173ffffffffffffffffffffffffffffffffffffffff021916908373ffffffffffffffffffffffffffffffffffffffff160217905550565b6060600280548060200260200160405190810160405280929190818152602001828054801561067357602002820191906000526020600020905b8160009054906101000a900473ffffffffffffffffffffffffffffffffffffffff1673ffffffffffffffffffffffffffffffffffffffff1681526020019060010190808311610629575b5050505050905090565b6000600160008473ffffffffffffffffffffffffffffffffffffffff1673ffffffffffffffffffffffffffffffffffffffff168152602001908152602001600020828154811015156106cb57fe5b906000526020600020906003020160020154905092915050565b6000809054906101000a900473ffffffffffffffffffffffffffffffffffffffff1681565b6000806107178385610efa565b1215905092915050565b6000806000809054906101000a900473ffffffffffffffffffffffffffffffffffffffff1673ffffffffffffffffffffffffffffffffffffffff163373ffffffffffffffffffffffffffffffffffffffff1614151561077f57600080fd5b600061078b8585610efa565b12151561079757600080fd5b600360009054906101000a900473ffffffffffffffffffffffffffffffffffffffff1673ffffffffffffffffffffffffffffffffffffffff16637ff8b20e6040518163ffffffff167c0100000000000000000000000000000000000000000000000000000000028152600401602060405180830381600087803b15801561081d57600080fd5b505af1158015610831573d6000803e3d6000fd5b505050506040513d602081101561084757600080fd5b810190808051906020019092919050505091506000600160008573ffffffffffffffffffffffffffffffffffffffff1673ffffffffffffffffffffffffffffffffffffffff16815260200190815260200160002080549050141561090c5760028390806001815401808255809150509060018203906000526020600020016000909192909190916101000a81548173ffffffffffffffffffffffffffffffffffffffff021916908373ffffffffffffffffffffffffffffffffffffffff160217905550505b600160008473ffffffffffffffffffffffffffffffffffffffff1673ffffffffffffffffffffffffffffffffffffffff16815260200190815260200160002060606040519081016040528086600019168152602001848152602001600081525090806001815401808255809150509060018203906000526020600020906003020160009091929091909150600082015181600001906000191690556020820151816001015560408201518160020155505090508273ffffffffffffffffffffffffffffffffffffffff1684600019167f314acf3bcc521b16f4ef5e9f84f5b543c65c96e1149dd279da6c5ba2cf6168658484604051808381526020018281526020019250505060405180910390a350505050565b6000610a2c8284610efa565b905092915050565b6000600160008473ffffffffffffffffffffffffffffffffffffffff1673ffffffffffffffffffffffffffffffffffffffff16815260200190815260200160002082815481101515610a8257fe5b906000526020600020906003020160010154905092915050565b6000809054906101000a900473ffffffffffffffffffffffffffffffffffffffff1673ffffffffffffffffffffffffffffffffffffffff163373ffffffffffffffffffffffffffffffffffffffff16141515610af757600080fd5b60008273ffffffffffffffffffffffffffffffffffffffff1614158015610b5657506000600460009054906101000a900473ffffffffffffffffffffffffffffffffffffffff1673ffffffffffffffffffffffffffffffffffffffff16145b1515610b6157600080fd5b60008173ffffffffffffffffffffffffffffffffffffffff1614158015610bc057506000600360009054906101000a900473ffffffffffffffffffffffffffffffffffffffff1673ffffffffffffffffffffffffffffffffffffffff16145b1515610bcb57600080fd5b81600460006101000a81548173ffffffffffffffffffffffffffffffffffffffff021916908373ffffffffffffffffffffffffffffffffffffffff16021790555080600360006101000a81548173ffffffffffffffffffffffffffffffffffffffff021916908373ffffffffffffffffffffffffffffffffffffffff160217905550600360009054906101000a900473ffffffffffffffffffffffffffffffffffffffff1673ffffffffffffffffffffffffffffffffffffffff1663c03812226040518163ffffffff167c0100000000000000000000000000000000000000000000000000000000028152600401602060405180830381600087803b158015610cd357600080fd5b505af1158015610ce7573d6000803e3d6000fd5b505050506040513d6020811015610cfd57600080fd5b81019080805190602001909291905050506005819055507f1bfd181e34d7e862e2d958a2a729ca8b993d2afd39bb61a2e8a6f944bebcbf5f60055483604051808381526020018273ffffffffffffffffffffffffffffffffffffffff1673ffffffffffffffffffffffffffffffffffffffff1681526020019250505060405180910390a15050565b6000809054906101000a900473ffffffffffffffffffffffffffffffffffffffff1673ffffffffffffffffffffffffffffffffffffffff163373ffffffffffffffffffffffffffffffffffffffff16141515610de057600080fd5b610de981610fcf565b50565b6000806000806000600554111515610e0357600080fd5b600360009054906101000a900473ffffffffffffffffffffffffffffffffffffffff1673ffffffffffffffffffffffffffffffffffffffff1663bc27787e6005546040518263ffffffff167c010000000000000000000000000000000000000000000000000000000002815260040180828152602001915050602060405180830381600087803b158015610e9657600080fd5b505af1158015610eaa573d6000803e3d6000fd5b505050506040513d6020811015610ec057600080fd5b8101908080519060200190929190505050925061012c9150620aae6090508260020a6001811515610eed57fe5b0481830202935050505090565b6000806000600160008573ffffffffffffffffffffffffffffffffffffffff1673ffffffffffffffffffffffffffffffffffffffff1681526020019081526020016000209150600082805490501115610fa357600090505b8180549050811015610fa25784600019168282815481101515610f7157fe5b906000526020600020906003020160000154600019161415610f9557809250610fc7565b8080600101915050610f52565b5b7fffffffffffffffffffffffffffffffffffffffffffffffffffffffffffffffff92505b505092915050565b600073ffffffffffffffffffffffffffffffffffffffff168173ffffffffffffffffffffffffffffffffffffffff161415151561100b57600080fd5b8073ffffffffffffffffffffffffffffffffffffffff166000809054906101000a900473ffffffffffffffffffffffffffffffffffffffff1673ffffffffffffffffffffffffffffffffffffffff167f8be0079c531659141344cd1fd0a4f28419497f9722a3daafe3b4186f6b6457e060405160405180910390a3806000806101000a81548173ffffffffffffffffffffffffffffffffffffffff021916908373ffffffffffffffffffffffffffffffffffffffff160217905550505600a165627a7a723058205a05b05a29badebb4409ab31b5b32a7e4c465f49922242e14372db98eaab1cea0029",
  "source": "pragma solidity ^0.4.24;\n\nimport \"./Deck.sol\";\nimport \"./Utility.sol\";\nimport \"openzeppelin-solidity/contracts/ownership/Ownable.sol\";\n\ncontract AuthorPool is Ownable {\n\n  event _InitializeAuthorPool(uint timestamp, address token);\n  event _RegisterNewUserDocument(bytes32 indexed docId, uint timestamp, address indexed applicant, uint count);\n\n  struct Asset {\n    bytes32 docId;\n    uint listedDate;\n    uint lastClaimedDate;\n  }\n\n  // maps address to the user's asset data\n  mapping (address => Asset[]) internal map;\n\n  // key list for iteration\n  address[] private keys;\n\n  // private variables\n  Utility private util;\n  Deck private token;\n\n  // public variables\n  uint public createTime;\n\n  function init(address _token, address _utility) public\n    onlyOwner()\n  {\n\n    require(_token != 0 && address(token) == 0);\n    require(_utility != 0 && address(util) == 0);\n\n    token = Deck(_token);\n    util = Utility(_utility);\n\n    createTime = util.getTimeMillis();\n    emit _InitializeAuthorPool(createTime, _token);\n  }\n\n  // -------------------------------\n  // For iteration\n  // -------------------------------\n\n  // author list for iteration\n  function getAuthors() public view returns (address[]) {\n    return keys;\n  }\n\n  // -------------------------------\n  // User Document Functions\n  // -------------------------------\n\n  // register a new document\n  function registerUserDocument(bytes32 _docId, address _author) public\n    onlyOwner()\n  {\n    require(getIndex(_docId, _author) < 0);\n\n    // adding to document registry\n    uint tMillis = util.getDateMillis();\n    if (map[_author].length == 0){\n      keys.push(_author);\n    }\n    uint index = map[_author].push(Asset(_docId, tMillis, 0));\n\n    emit _RegisterNewUserDocument(_docId, tMillis, _author, index);\n  }\n\n  function containsUserDocument(address _addr, bytes32 _docId) public view returns (bool) {\n    return getIndex(_docId, _addr) >= 0;\n  }\n\n  function getUserDocumentIndex(address _addr, bytes32 _docId) public view returns (int) {\n    return getIndex(_docId, _addr);\n  }\n\n  function getUserDocumentListedDate(address _addr, int _idx) public view returns (uint) {\n    return map[_addr][uint(_idx)].listedDate;\n  }\n\n  function getUserDocumentLastClaimedDate(address _addr, int _idx) public view returns (uint) {\n    return map[_addr][uint(_idx)].lastClaimedDate;\n  }\n\n  function determineUserDocumentDeco(uint _pv, uint _tpv) public view returns (uint) {\n    require(_tpv > 0);\n    require(_pv > 0);\n\n    uint drp = getDailyRewardDeco();\n    require(drp > 0);\n\n    return uint(_pv * drp / _tpv);\n  }\n\n  function getIndex(bytes32 _docId, address _author) private view returns (int) {\n    Asset[] storage assetList = map[_author];\n    if (assetList.length > 0) {\n      for (int i=0; uint(i)<assetList.length; i++) {\n        if (assetList[uint(i)].docId == _docId) {\n          return i;\n        }\n      }\n    }\n    return -1;\n  }\n\n  function getDailyRewardDeco() private view returns (uint) {\n    require(createTime > 0);\n    uint offsetYears = util.getOffsetYears(createTime);\n    uint initialTokens = 300;\n    uint ratioDeco = 700 * 1000; // 70%\n    return initialTokens * ratioDeco * (1 / (2 ** offsetYears));\n  }\n\n}\n",
  "sourcePath": "/Users/centroine/Documents/github/bluebottle/contracts/AuthorPool.sol",
  "compiler": {
    "name": "solc",
    "version": "0.4.24+commit.e67f0147.Emscripten.clang"
  },
  "schemaVersion": "2.0.1",
  "updatedAt": "2018-10-16T05:33:39.630Z"
}