{
  "contractName": "AuthorPool",
  "abi": [
    {
      "constant": true,
      "inputs": [],
      "name": "createTime",
      "outputs": [
        {
          "name": "",
          "type": "uint256"
        }
      ],
      "payable": false,
      "stateMutability": "view",
      "type": "function"
    },
    {
      "anonymous": false,
      "inputs": [
        {
          "indexed": false,
          "name": "timestamp",
          "type": "uint256"
        },
        {
          "indexed": false,
          "name": "token",
          "type": "address"
        }
      ],
      "name": "_InitializeAuthorPool",
      "type": "event"
    },
    {
      "anonymous": false,
      "inputs": [
        {
          "indexed": true,
          "name": "docId",
          "type": "bytes32"
        },
        {
          "indexed": false,
          "name": "timestamp",
          "type": "uint256"
        },
        {
          "indexed": true,
          "name": "applicant",
          "type": "address"
        },
        {
          "indexed": false,
          "name": "count",
          "type": "uint256"
        }
      ],
      "name": "_RegisterNewUserDocument",
      "type": "event"
    },
    {
      "constant": false,
      "inputs": [
        {
          "name": "_token",
          "type": "address"
        },
        {
          "name": "_utility",
          "type": "address"
        }
      ],
      "name": "init",
      "outputs": [],
      "payable": false,
      "stateMutability": "nonpayable",
      "type": "function"
    },
    {
      "constant": true,
      "inputs": [],
      "name": "getAuthors",
      "outputs": [
        {
          "name": "",
          "type": "address[]"
        }
      ],
      "payable": false,
      "stateMutability": "view",
      "type": "function"
    },
    {
      "constant": false,
      "inputs": [
        {
          "name": "_docId",
          "type": "bytes32"
        }
      ],
      "name": "registerUserDocument",
      "outputs": [],
      "payable": false,
      "stateMutability": "nonpayable",
      "type": "function"
    },
    {
      "constant": true,
      "inputs": [
        {
          "name": "_addr",
          "type": "address"
        },
        {
          "name": "_docId",
          "type": "bytes32"
        }
      ],
      "name": "containsUserDocument",
      "outputs": [
        {
          "name": "",
          "type": "bool"
        }
      ],
      "payable": false,
      "stateMutability": "view",
      "type": "function"
    },
    {
      "constant": true,
      "inputs": [
        {
          "name": "_addr",
          "type": "address"
        },
        {
          "name": "_docId",
          "type": "bytes32"
        }
      ],
      "name": "getUserDocumentIndex",
      "outputs": [
        {
          "name": "",
          "type": "int256"
        }
      ],
      "payable": false,
      "stateMutability": "view",
      "type": "function"
    },
    {
      "constant": true,
      "inputs": [
        {
          "name": "_addr",
          "type": "address"
        },
        {
          "name": "_idx",
          "type": "int256"
        }
      ],
      "name": "getUserDocumentListedDate",
      "outputs": [
        {
          "name": "",
          "type": "uint256"
        }
      ],
      "payable": false,
      "stateMutability": "view",
      "type": "function"
    },
    {
      "constant": true,
      "inputs": [
        {
          "name": "_addr",
          "type": "address"
        },
        {
          "name": "_idx",
          "type": "int256"
        }
      ],
      "name": "getUserDocumentLastClaimedDate",
      "outputs": [
        {
          "name": "",
          "type": "uint256"
        }
      ],
      "payable": false,
      "stateMutability": "view",
      "type": "function"
    },
    {
      "constant": true,
      "inputs": [
        {
          "name": "_pv",
          "type": "uint256"
        },
        {
          "name": "_tpv",
          "type": "uint256"
        }
      ],
      "name": "determineUserDocumentDeco",
      "outputs": [
        {
          "name": "",
          "type": "uint256"
        }
      ],
      "payable": false,
      "stateMutability": "view",
      "type": "function"
    }
  ],
  "bytecode": "0x608060405234801561001057600080fd5b50610cbf806100206000396000f300608060405260043610610099576000357c0100000000000000000000000000000000000000000000000000000000900463ffffffff1680631a7539401461009e57806361dcd7ab146100e95780637fc622f4146101145780638938dfc61461018057806394e6f5b9146101e1578063bfb2290d1461024a578063ddb358ef146102af578063f09a401614610310578063fc2dd68c14610373575b600080fd5b3480156100aa57600080fd5b506100d360048036038101908080359060200190929190803590602001909291905050506103a4565b6040518082815260200191505060405180910390f35b3480156100f557600080fd5b506100fe6103f5565b6040518082815260200191505060405180910390f35b34801561012057600080fd5b506101296103fb565b6040518080602001828103825283818151815260200191508051906020019060200280838360005b8381101561016c578082015181840152602081019050610151565b505050509050019250505060405180910390f35b34801561018c57600080fd5b506101cb600480360381019080803573ffffffffffffffffffffffffffffffffffffffff16906020019092919080359060200190929190505050610489565b6040518082815260200191505060405180910390f35b3480156101ed57600080fd5b50610230600480360381019080803573ffffffffffffffffffffffffffffffffffffffff16906020019092919080356000191690602001909291905050506104f0565b604051808215151515815260200191505060405180910390f35b34801561025657600080fd5b50610299600480360381019080803573ffffffffffffffffffffffffffffffffffffffff1690602001909291908035600019169060200190929190505050610507565b6040518082815260200191505060405180910390f35b3480156102bb57600080fd5b506102fa600480360381019080803573ffffffffffffffffffffffffffffffffffffffff1690602001909291908035906020019092919050505061051b565b6040518082815260200191505060405180910390f35b34801561031c57600080fd5b50610371600480360381019080803573ffffffffffffffffffffffffffffffffffffffff169060200190929190803573ffffffffffffffffffffffffffffffffffffffff169060200190929190505050610582565b005b34801561037f57600080fd5b506103a26004803603810190808035600019169060200190929190505050610810565b005b6000806000831115156103b657600080fd5b6000841115156103c557600080fd5b6103cd610ab1565b90506000811115156103de57600080fd5b828185028115156103eb57fe5b0491505092915050565b60045481565b6060600180548060200260200160405190810160405280929190818152602001828054801561047f57602002820191906000526020600020905b8160009054906101000a900473ffffffffffffffffffffffffffffffffffffffff1673ffffffffffffffffffffffffffffffffffffffff1681526020019060010190808311610435575b5050505050905090565b60008060008473ffffffffffffffffffffffffffffffffffffffff1673ffffffffffffffffffffffffffffffffffffffff168152602001908152602001600020828154811015156104d657fe5b906000526020600020906003020160020154905092915050565b6000806104fd8385610bbf565b1215905092915050565b60006105138284610bbf565b905092915050565b60008060008473ffffffffffffffffffffffffffffffffffffffff1673ffffffffffffffffffffffffffffffffffffffff1681526020019081526020016000208281548110151561056857fe5b906000526020600020906003020160010154905092915050565b60008273ffffffffffffffffffffffffffffffffffffffff16141580156105e157506000600360009054906101000a900473ffffffffffffffffffffffffffffffffffffffff1673ffffffffffffffffffffffffffffffffffffffff16145b15156105ec57600080fd5b60008173ffffffffffffffffffffffffffffffffffffffff161415801561064b57506000600260009054906101000a900473ffffffffffffffffffffffffffffffffffffffff1673ffffffffffffffffffffffffffffffffffffffff16145b151561065657600080fd5b81600360006101000a81548173ffffffffffffffffffffffffffffffffffffffff021916908373ffffffffffffffffffffffffffffffffffffffff16021790555080600260006101000a81548173ffffffffffffffffffffffffffffffffffffffff021916908373ffffffffffffffffffffffffffffffffffffffff160217905550600260009054906101000a900473ffffffffffffffffffffffffffffffffffffffff1673ffffffffffffffffffffffffffffffffffffffff1663c03812226040518163ffffffff167c0100000000000000000000000000000000000000000000000000000000028152600401602060405180830381600087803b15801561075e57600080fd5b505af1158015610772573d6000803e3d6000fd5b505050506040513d602081101561078857600080fd5b81019080805190602001909291905050506004819055507f1bfd181e34d7e862e2d958a2a729ca8b993d2afd39bb61a2e8a6f944bebcbf5f60045483604051808381526020018273ffffffffffffffffffffffffffffffffffffffff1673ffffffffffffffffffffffffffffffffffffffff1681526020019250505060405180910390a15050565b600080600061081f8433610bbf565b12151561082b57600080fd5b600260009054906101000a900473ffffffffffffffffffffffffffffffffffffffff1673ffffffffffffffffffffffffffffffffffffffff16637ff8b20e6040518163ffffffff167c0100000000000000000000000000000000000000000000000000000000028152600401602060405180830381600087803b1580156108b157600080fd5b505af11580156108c5573d6000803e3d6000fd5b505050506040513d60208110156108db57600080fd5b8101908080519060200190929190505050915060008060003373ffffffffffffffffffffffffffffffffffffffff1673ffffffffffffffffffffffffffffffffffffffff16815260200190815260200160002080549050141561099f5760013390806001815401808255809150509060018203906000526020600020016000909192909190916101000a81548173ffffffffffffffffffffffffffffffffffffffff021916908373ffffffffffffffffffffffffffffffffffffffff160217905550505b6000803373ffffffffffffffffffffffffffffffffffffffff1673ffffffffffffffffffffffffffffffffffffffff16815260200190815260200160002060606040519081016040528085600019168152602001848152602001600081525090806001815401808255809150509060018203906000526020600020906003020160009091929091909150600082015181600001906000191690556020820151816001015560408201518160020155505090503373ffffffffffffffffffffffffffffffffffffffff1683600019167f314acf3bcc521b16f4ef5e9f84f5b543c65c96e1149dd279da6c5ba2cf6168658484604051808381526020018281526020019250505060405180910390a3505050565b6000806000806000600454111515610ac857600080fd5b600260009054906101000a900473ffffffffffffffffffffffffffffffffffffffff1673ffffffffffffffffffffffffffffffffffffffff1663bc27787e6004546040518263ffffffff167c010000000000000000000000000000000000000000000000000000000002815260040180828152602001915050602060405180830381600087803b158015610b5b57600080fd5b505af1158015610b6f573d6000803e3d6000fd5b505050506040513d6020811015610b8557600080fd5b8101908080519060200190929190505050925061012c9150620aae6090508260020a6001811515610bb257fe5b0481830202935050505090565b60008060008060008573ffffffffffffffffffffffffffffffffffffffff1673ffffffffffffffffffffffffffffffffffffffff1681526020019081526020016000209150600082805490501115610c6757600090505b8180549050811015610c665784600019168282815481101515610c3557fe5b906000526020600020906003020160000154600019161415610c5957809250610c8b565b8080600101915050610c16565b5b7fffffffffffffffffffffffffffffffffffffffffffffffffffffffffffffffff92505b5050929150505600a165627a7a72305820cc9c0d1a032189d439a777d499b77f28e278c02fa11731bf44ec2b0d902dc0a60029",
  "source": "pragma solidity ^0.4.24;\n\nimport \"./Deck.sol\";\nimport \"./Utility.sol\";\n\ncontract AuthorPool {\n\n  event _InitializeAuthorPool(uint timestamp, address token);\n  event _RegisterNewUserDocument(bytes32 indexed docId, uint timestamp, address indexed applicant, uint count);\n\n  struct Asset {\n    bytes32 docId;\n    uint listedDate;\n    uint lastClaimedDate;\n  }\n\n  // maps address to the user's asset data\n  mapping (address => Asset[]) internal map;\n\n  // key list for iteration\n  address[] private keys;\n\n  // private variables\n  Utility private util;\n  Deck private token;\n\n  // public variables\n  uint public createTime;\n\n  function init(address _token, address _utility) public {\n\n    require(_token != 0 && address(token) == 0);\n    require(_utility != 0 && address(util) == 0);\n\n    token = Deck(_token);\n    util = Utility(_utility);\n\n    createTime = util.getTimeMillis();\n    emit _InitializeAuthorPool(createTime, _token);\n  }\n\n  // -------------------------------\n  // For iteration\n  // -------------------------------\n\n  // author list for iteration\n  function getAuthors() public view returns (address[]) {\n    return keys;\n  }\n\n  // -------------------------------\n  // User Document Functions\n  // -------------------------------\n\n  // register a new document\n  function registerUserDocument(bytes32 _docId) public {\n\n    require(getIndex(_docId, msg.sender) < 0);\n\n    // adding to document registry\n    uint tMillis = util.getDateMillis();\n    if (map[msg.sender].length == 0){\n      keys.push(msg.sender);\n    }\n    uint index = map[msg.sender].push(Asset(_docId, tMillis, 0));\n\n    emit _RegisterNewUserDocument(_docId, tMillis, msg.sender, index);\n  }\n\n  function containsUserDocument(address _addr, bytes32 _docId) public view returns (bool) {\n    return getIndex(_docId, _addr) >= 0;\n  }\n\n  function getUserDocumentIndex(address _addr, bytes32 _docId) public view returns (int) {\n    return getIndex(_docId, _addr);\n  }\n\n  function getUserDocumentListedDate(address _addr, int _idx) public view returns (uint) {\n    return map[_addr][uint(_idx)].listedDate;\n  }\n\n  function getUserDocumentLastClaimedDate(address _addr, int _idx) public view returns (uint) {\n    return map[_addr][uint(_idx)].lastClaimedDate;\n  }\n\n  function determineUserDocumentDeco(uint _pv, uint _tpv) public view returns (uint) {\n    require(_tpv > 0);\n    require(_pv > 0);\n\n    uint drp = getDailyRewardDeco();\n    require(drp > 0);\n\n    return uint(_pv * drp / _tpv);\n  }\n\n  function getIndex(bytes32 _docId, address _author) private view returns (int) {\n    Asset[] storage assetList = map[_author];\n    if (assetList.length > 0) {\n      for (int i=0; uint(i)<assetList.length; i++) {\n        if (assetList[uint(i)].docId == _docId) {\n          return i;\n        }\n      }\n    }\n    return -1;\n  }\n\n  function getDailyRewardDeco() private view returns (uint) {\n    require(createTime > 0);\n    uint offsetYears = util.getOffsetYears(createTime);\n    uint initialTokens = 300;\n    uint ratioDeco = 700 * 1000; // 70%\n    return initialTokens * ratioDeco * (1 / (2 ** offsetYears));\n  }\n\n}\n",
  "sourcePath": "/Users/centroine/Documents/github/bluebottle/contracts/AuthorPool.sol",
  "compiler": {
    "name": "solc",
    "version": "0.4.24+commit.e67f0147.Emscripten.clang"
  },
  "schemaVersion": "2.0.1",
  "updatedAt": "2018-10-12T06:27:41.113Z"
}