{
  "contractName": "CuratorPool",
  "abi": [
    {
      "constant": true,
      "inputs": [],
      "name": "createTime",
      "outputs": [
        {
          "name": "",
          "type": "uint256"
        }
      ],
      "payable": false,
      "stateMutability": "view",
      "type": "function"
    },
    {
      "anonymous": false,
      "inputs": [
        {
          "indexed": false,
          "name": "timestamp",
          "type": "uint256"
        },
        {
          "indexed": false,
          "name": "token",
          "type": "address"
        }
      ],
      "name": "_InitializeCuratorPool",
      "type": "event"
    },
    {
      "anonymous": false,
      "inputs": [
        {
          "indexed": true,
          "name": "docId",
          "type": "bytes32"
        },
        {
          "indexed": false,
          "name": "timestamp",
          "type": "uint256"
        },
        {
          "indexed": false,
          "name": "deposit",
          "type": "uint256"
        },
        {
          "indexed": true,
          "name": "applicant",
          "type": "address"
        }
      ],
      "name": "_AddVote",
      "type": "event"
    },
    {
      "constant": false,
      "inputs": [
        {
          "name": "_token",
          "type": "address"
        },
        {
          "name": "_utility",
          "type": "address"
        }
      ],
      "name": "init",
      "outputs": [],
      "payable": false,
      "stateMutability": "nonpayable",
      "type": "function"
    },
    {
      "constant": true,
      "inputs": [],
      "name": "getCurators",
      "outputs": [
        {
          "name": "",
          "type": "address[]"
        }
      ],
      "payable": false,
      "stateMutability": "view",
      "type": "function"
    },
    {
      "constant": false,
      "inputs": [
        {
          "name": "_docId",
          "type": "bytes32"
        },
        {
          "name": "_deposit",
          "type": "uint256"
        }
      ],
      "name": "addVote",
      "outputs": [],
      "payable": false,
      "stateMutability": "nonpayable",
      "type": "function"
    },
    {
      "constant": true,
      "inputs": [
        {
          "name": "_addr",
          "type": "address"
        }
      ],
      "name": "getVoteCount",
      "outputs": [
        {
          "name": "",
          "type": "uint256"
        }
      ],
      "payable": false,
      "stateMutability": "view",
      "type": "function"
    },
    {
      "constant": true,
      "inputs": [
        {
          "name": "_addr",
          "type": "address"
        },
        {
          "name": "_idx",
          "type": "int256"
        }
      ],
      "name": "getDocId",
      "outputs": [
        {
          "name": "",
          "type": "bytes32"
        }
      ],
      "payable": false,
      "stateMutability": "view",
      "type": "function"
    },
    {
      "constant": true,
      "inputs": [
        {
          "name": "_addr",
          "type": "address"
        },
        {
          "name": "_idx",
          "type": "int256"
        }
      ],
      "name": "getStartDate",
      "outputs": [
        {
          "name": "",
          "type": "uint256"
        }
      ],
      "payable": false,
      "stateMutability": "view",
      "type": "function"
    },
    {
      "constant": true,
      "inputs": [
        {
          "name": "_addr",
          "type": "address"
        },
        {
          "name": "_idx",
          "type": "int256"
        }
      ],
      "name": "getDeposit",
      "outputs": [
        {
          "name": "",
          "type": "uint256"
        }
      ],
      "payable": false,
      "stateMutability": "view",
      "type": "function"
    },
    {
      "constant": true,
      "inputs": [
        {
          "name": "_addr",
          "type": "address"
        },
        {
          "name": "_idx",
          "type": "int256"
        }
      ],
      "name": "getWithdraw",
      "outputs": [
        {
          "name": "",
          "type": "uint256"
        }
      ],
      "payable": false,
      "stateMutability": "view",
      "type": "function"
    },
    {
      "constant": true,
      "inputs": [
        {
          "name": "_addr",
          "type": "address"
        },
        {
          "name": "_idx",
          "type": "int256"
        },
        {
          "name": "_dateMillis",
          "type": "uint256"
        },
        {
          "name": "_pv",
          "type": "uint256"
        },
        {
          "name": "_tpvs",
          "type": "uint256"
        }
      ],
      "name": "determineDeco",
      "outputs": [
        {
          "name": "",
          "type": "uint256"
        }
      ],
      "payable": false,
      "stateMutability": "view",
      "type": "function"
    }
  ],
  "bytecode": "0x608060405234801561001057600080fd5b50611124806100206000396000f3006080604052600436106100a4576000357c0100000000000000000000000000000000000000000000000000000000900463ffffffff168063414226d2146100a95780634a3759241461010a578063575ff8ec1461018957806361dcd7ab146101ea57806369d2096e14610215578063a3caa1d714610250578063acafb38c146102b1578063b3f6808f1461031a578063e652f4cc14610386578063f09a4016146103dd575b600080fd5b3480156100b557600080fd5b506100f4600480360381019080803573ffffffffffffffffffffffffffffffffffffffff16906020019092919080359060200190929190505050610440565b6040518082815260200191505060405180910390f35b34801561011657600080fd5b50610173600480360381019080803573ffffffffffffffffffffffffffffffffffffffff169060200190929190803590602001909291908035906020019092919080359060200190929190803590602001909291905050506104a7565b6040518082815260200191505060405180910390f35b34801561019557600080fd5b506101d4600480360381019080803573ffffffffffffffffffffffffffffffffffffffff169060200190929190803590602001909291905050506107c3565b6040518082815260200191505060405180910390f35b3480156101f657600080fd5b506101ff61082a565b6040518082815260200191505060405180910390f35b34801561022157600080fd5b5061024e600480360381019080803560001916906020019092919080359060200190929190505050610830565b005b34801561025c57600080fd5b5061029b600480360381019080803573ffffffffffffffffffffffffffffffffffffffff16906020019092919080359060200190929190505050610b82565b6040518082815260200191505060405180910390f35b3480156102bd57600080fd5b506102fc600480360381019080803573ffffffffffffffffffffffffffffffffffffffff16906020019092919080359060200190929190505050610be9565b60405180826000191660001916815260200191505060405180910390f35b34801561032657600080fd5b5061032f610c50565b6040518080602001828103825283818151815260200191508051906020019060200280838360005b83811015610372578082015181840152602081019050610357565b505050509050019250505060405180910390f35b34801561039257600080fd5b506103c7600480360381019080803573ffffffffffffffffffffffffffffffffffffffff169060200190929190505050610cde565b6040518082815260200191505060405180910390f35b3480156103e957600080fd5b5061043e600480360381019080803573ffffffffffffffffffffffffffffffffffffffff169060200190929190803573ffffffffffffffffffffffffffffffffffffffff169060200190929190505050610d29565b005b60008060008473ffffffffffffffffffffffffffffffffffffffff1673ffffffffffffffffffffffffffffffffffffffff1681526020019081526020016000208281548110151561048d57fe5b906000526020600020906005020160040154905092915050565b600080600080606060008060008c73ffffffffffffffffffffffffffffffffffffffff16141515156104d857600080fd5b60008a1115156104e757600080fd5b60008b121515156104f757600080fd5b60008811151561050657600080fd5b60008911151561051557600080fd5b600095506000808d73ffffffffffffffffffffffffffffffffffffffff1673ffffffffffffffffffffffffffffffffffffffff1681526020019081526020016000208b81548110151561056457fe5b90600052602060002090600502016002015494506000808d73ffffffffffffffffffffffffffffffffffffffff1673ffffffffffffffffffffffffffffffffffffffff1681526020019081526020016000208b8154811015156105c357fe5b9060005260206000209060050201600001549350600160008560001916600019168152602001908152602001600020805480602002602001604051908101604052809291908181526020016000905b8282101561067f578382906000526020600020906005020160a0604051908101604052908160008201546000191660001916815260200160018201548152602001600282015481526020016003820154815260200160048201548152505081526020019060010190610612565b505050509250600091505b825182101561076157836000191683838151811015156106a657fe5b9060200190602002015160000151600019161480156106e05750600083838151811015156106d057fe5b9060200190602002015160200151115b80156107075750600083838151811015156106f757fe5b9060200190602002015160400151115b801561072e57506000838381518110151561071e57fe5b9060200190602002015160800151145b1561075457828281518110151561074157fe5b9060200190602002015160400151860195505b818060010192505061068a565b610769610fb7565b9050600081148061077a5750600086145b806107855750600085145b1561079357600096506107b4565b84868960028c0a84028115156107a557fe5b048115156107af57fe5b040296505b50505050505095945050505050565b60008060008473ffffffffffffffffffffffffffffffffffffffff1673ffffffffffffffffffffffffffffffffffffffff1681526020019081526020016000208281548110151561081057fe5b906000526020600020906005020160020154905092915050565b60055481565b600061083a6110c5565b600360009054906101000a900473ffffffffffffffffffffffffffffffffffffffff1673ffffffffffffffffffffffffffffffffffffffff16637ff8b20e6040518163ffffffff167c0100000000000000000000000000000000000000000000000000000000028152600401602060405180830381600087803b1580156108c057600080fd5b505af11580156108d4573d6000803e3d6000fd5b505050506040513d60208110156108ea57600080fd5b8101908080519060200190929190505050915060a0604051908101604052808560001916815260200183815260200184815260200160008152602001600081525090506000803373ffffffffffffffffffffffffffffffffffffffff1673ffffffffffffffffffffffffffffffffffffffff168152602001908152602001600020819080600181540180825580915050906001820390600052602060002090600502016000909192909190915060008201518160000190600019169055602082015181600101556040820151816002015560608201518160030155608082015181600401555050506001600085600019166000191681526020019081526020016000208190806001815401808255809150509060018203906000526020600020906005020160009091929091909150600082015181600001906000191690556020820151816001015560408201518160020155606082015181600301556080820151816004015550505060008060003373ffffffffffffffffffffffffffffffffffffffff1673ffffffffffffffffffffffffffffffffffffffff1681526020019081526020016000206000815481101515610aa257fe5b9060005260206000209060050201600101541415610b215760023390806001815401808255809150509060018203906000526020600020016000909192909190916101000a81548173ffffffffffffffffffffffffffffffffffffffff021916908373ffffffffffffffffffffffffffffffffffffffff160217905550505b3373ffffffffffffffffffffffffffffffffffffffff1684600019167f879d4a2c015ee414e9d66796e6ac8c117c1fb47d9bb5e73eb0d2303f4e45ecd78486604051808381526020018281526020019250505060405180910390a350505050565b60008060008473ffffffffffffffffffffffffffffffffffffffff1673ffffffffffffffffffffffffffffffffffffffff16815260200190815260200160002082815481101515610bcf57fe5b906000526020600020906005020160010154905092915050565b60008060008473ffffffffffffffffffffffffffffffffffffffff1673ffffffffffffffffffffffffffffffffffffffff16815260200190815260200160002082815481101515610c3657fe5b906000526020600020906005020160000154905092915050565b60606002805480602002602001604051908101604052809291908181526020018280548015610cd457602002820191906000526020600020905b8160009054906101000a900473ffffffffffffffffffffffffffffffffffffffff1673ffffffffffffffffffffffffffffffffffffffff1681526020019060010190808311610c8a575b5050505050905090565b60008060008373ffffffffffffffffffffffffffffffffffffffff1673ffffffffffffffffffffffffffffffffffffffff168152602001908152602001600020805490509050919050565b60008273ffffffffffffffffffffffffffffffffffffffff1614158015610d8857506000600460009054906101000a900473ffffffffffffffffffffffffffffffffffffffff1673ffffffffffffffffffffffffffffffffffffffff16145b1515610d9357600080fd5b60008173ffffffffffffffffffffffffffffffffffffffff1614158015610df257506000600360009054906101000a900473ffffffffffffffffffffffffffffffffffffffff1673ffffffffffffffffffffffffffffffffffffffff16145b1515610dfd57600080fd5b81600460006101000a81548173ffffffffffffffffffffffffffffffffffffffff021916908373ffffffffffffffffffffffffffffffffffffffff16021790555080600360006101000a81548173ffffffffffffffffffffffffffffffffffffffff021916908373ffffffffffffffffffffffffffffffffffffffff160217905550600360009054906101000a900473ffffffffffffffffffffffffffffffffffffffff1673ffffffffffffffffffffffffffffffffffffffff1663c03812226040518163ffffffff167c0100000000000000000000000000000000000000000000000000000000028152600401602060405180830381600087803b158015610f0557600080fd5b505af1158015610f19573d6000803e3d6000fd5b505050506040513d6020811015610f2f57600080fd5b81019080805190602001909291905050506005819055507fe1aeefe9472a1e962f43c3127e6bfaffee0bb06ebab1b5bd3b2b3735e30d963a60055483604051808381526020018273ffffffffffffffffffffffffffffffffffffffff1673ffffffffffffffffffffffffffffffffffffffff1681526020019250505060405180910390a15050565b6000806000806000600554111515610fce57600080fd5b600360009054906101000a900473ffffffffffffffffffffffffffffffffffffffff1673ffffffffffffffffffffffffffffffffffffffff1663bc27787e6005546040518263ffffffff167c010000000000000000000000000000000000000000000000000000000002815260040180828152602001915050602060405180830381600087803b15801561106157600080fd5b505af1158015611075573d6000803e3d6000fd5b505050506040513d602081101561108b57600080fd5b8101908080519060200190929190505050925061012c9150620493e090508260020a60018115156110b857fe5b0481830202935050505090565b60a060405190810160405280600080191681526020016000815260200160008152602001600081526020016000815250905600a165627a7a72305820c366cbb9e26f6dafdd594a54093de2cc9db8b74cc7b198ff1d0d95dfcf5016d90029",
  "source": "pragma solidity ^0.4.24;\n\nimport \"./Deck.sol\";\nimport \"./Utility.sol\";\n\ncontract CuratorPool {\n\n  event _InitializeCuratorPool(uint timestamp, address token);\n  event _AddVote(bytes32 indexed docId, uint timestamp, uint deposit, address indexed applicant);\n  //event _DetermineDeco(bytes32 indexed docId, uint cvd, uint tvd, uint pv, uint tpvs, uint drp);\n\n  struct Vote {\n    bytes32 docId;\n    uint startDate;\n    uint deposit;\n    uint deco;\n    uint withdraw;\n  }\n\n  // maps address to the curator's vote data\n  mapping (address => Vote[]) internal mapByAddr;\n\n  // maps docId to the curator's vote data\n  mapping (bytes32 => Vote[]) internal mapByDoc;\n\n  // key list for iteration\n  address[] private keys;\n\n  // private variables\n  Utility private util;\n  Deck private token;\n\n  // public variables\n  uint public createTime;\n\n  function init(address _token, address _utility) public {\n\n    require(_token != 0 && address(token) == 0);\n    require(_utility != 0 && address(util) == 0);\n\n    token = Deck(_token);\n    util = Utility(_utility);\n\n    createTime = util.getTimeMillis();\n    emit _InitializeCuratorPool(createTime, _token);\n  }\n\n  // -------------------------------\n  // For iteration\n  // -------------------------------\n\n  // curator list for iteration\n  function getCurators() public view returns (address[]) {\n    return keys;\n  }\n\n  // -------------------------------\n  // Voting Information Functions\n  // -------------------------------\n\n  // adding a new vote\n  function addVote(bytes32 _docId, uint _deposit) public {\n\n    uint tMillis = util.getDateMillis();\n    Vote memory vote = Vote(_docId, tMillis, _deposit, 0, 0);\n\n    mapByAddr[msg.sender].push(vote);\n    mapByDoc[_docId].push(vote);\n\n    if (mapByAddr[msg.sender][0].startDate == 0) {\n      keys.push(msg.sender);\n    }\n\n    emit _AddVote(_docId, tMillis, _deposit, msg.sender);\n  }\n\n  function getVoteCount(address _addr) public view returns (uint) {\n    return uint(mapByAddr[_addr].length);\n  }\n\n  function getDocId(address _addr, int _idx) public view returns (bytes32) {\n    return mapByAddr[_addr][uint(_idx)].docId;\n  }\n\n  function getStartDate(address _addr, int _idx) public view returns (uint) {\n    return mapByAddr[_addr][uint(_idx)].startDate;\n  }\n\n  function getDeposit(address _addr, int _idx) public view returns (uint) {\n    return mapByAddr[_addr][uint(_idx)].deposit;\n  }\n\n  function getWithdraw(address _addr, int _idx) public view returns (uint) {\n    return mapByAddr[_addr][uint(_idx)].withdraw;\n  }\n\n  function determineDeco(address _addr, int _idx, uint _dateMillis, uint _pv, uint _tpvs) public view returns (uint) {\n\n    require(_addr != 0);\n    require(_dateMillis > 0);\n    require(_idx >= 0);\n    require(_tpvs > 0);\n    require(_pv > 0);\n\n    uint tvd = 0;\n    uint cvd = mapByAddr[_addr][uint(_idx)].deposit;\n    bytes32 docId = mapByAddr[_addr][uint(_idx)].docId;\n\n    Vote[] memory voteList = mapByDoc[docId];\n    for (uint i=0; i<voteList.length; i++) {\n      if ( voteList[i].docId == docId\n        && voteList[i].startDate > 0\n        && voteList[i].deposit > 0\n        && voteList[i].withdraw == 0) {\n          tvd += voteList[i].deposit;\n        }\n    }\n\n    uint drp = getDailyRewardDeco();\n\n    if (drp == 0 || tvd == 0 || cvd == 0) {\n      return uint(0);\n    }\n\n    //emit _DetermineDeco(docId, cvd, tvd, _pv, _tpvs, drp);\n\n    return (((drp * (_pv ** 2)) / _tpvs) / tvd) * cvd;\n  }\n\n  function getDailyRewardDeco() private view returns (uint) {\n    require(createTime > 0);\n    uint offsetYears = util.getOffsetYears(createTime);\n    uint initialTokens = 300;\n    uint ratioDeco = 300 * 1000; // 30%\n    return initialTokens * ratioDeco * (1 / (2 ** offsetYears));\n  }\n\n}\n",
  "sourcePath": "/Users/centroine/Documents/github/bluebottle/contracts/CuratorPool.sol",
  "compiler": {
    "name": "solc",
    "version": "0.4.24+commit.e67f0147.Emscripten.clang"
  },
  "schemaVersion": "2.0.1",
  "updatedAt": "2018-10-12T06:27:41.119Z"
}