{
  "contractName": "CuratorPool",
  "abi": [
    {
      "constant": true,
      "inputs": [],
      "name": "createTime",
      "outputs": [
        {
          "name": "",
          "type": "uint256"
        }
      ],
      "payable": false,
      "stateMutability": "view",
      "type": "function"
    },
    {
      "constant": false,
      "inputs": [],
      "name": "renounceOwnership",
      "outputs": [],
      "payable": false,
      "stateMutability": "nonpayable",
      "type": "function"
    },
    {
      "constant": true,
      "inputs": [],
      "name": "owner",
      "outputs": [
        {
          "name": "",
          "type": "address"
        }
      ],
      "payable": false,
      "stateMutability": "view",
      "type": "function"
    },
    {
      "constant": false,
      "inputs": [
        {
          "name": "_newOwner",
          "type": "address"
        }
      ],
      "name": "transferOwnership",
      "outputs": [],
      "payable": false,
      "stateMutability": "nonpayable",
      "type": "function"
    },
    {
      "anonymous": false,
      "inputs": [
        {
          "indexed": false,
          "name": "timestamp",
          "type": "uint256"
        },
        {
          "indexed": false,
          "name": "token",
          "type": "address"
        }
      ],
      "name": "_InitializeCuratorPool",
      "type": "event"
    },
    {
      "anonymous": false,
      "inputs": [
        {
          "indexed": true,
          "name": "docId",
          "type": "bytes32"
        },
        {
          "indexed": false,
          "name": "timestamp",
          "type": "uint256"
        },
        {
          "indexed": false,
          "name": "deposit",
          "type": "uint256"
        },
        {
          "indexed": true,
          "name": "applicant",
          "type": "address"
        }
      ],
      "name": "_AddVote",
      "type": "event"
    },
    {
      "anonymous": false,
      "inputs": [
        {
          "indexed": true,
          "name": "docId",
          "type": "bytes32"
        },
        {
          "indexed": false,
          "name": "timestamp",
          "type": "uint256"
        },
        {
          "indexed": false,
          "name": "deposit",
          "type": "uint256"
        },
        {
          "indexed": true,
          "name": "applicant",
          "type": "address"
        }
      ],
      "name": "_UpdateVote",
      "type": "event"
    },
    {
      "anonymous": false,
      "inputs": [
        {
          "indexed": true,
          "name": "applicant",
          "type": "address"
        },
        {
          "indexed": false,
          "name": "idx",
          "type": "uint256"
        },
        {
          "indexed": false,
          "name": "withdraw",
          "type": "uint256"
        }
      ],
      "name": "_Withdraw",
      "type": "event"
    },
    {
      "anonymous": false,
      "inputs": [
        {
          "indexed": true,
          "name": "previousOwner",
          "type": "address"
        }
      ],
      "name": "OwnershipRenounced",
      "type": "event"
    },
    {
      "anonymous": false,
      "inputs": [
        {
          "indexed": true,
          "name": "previousOwner",
          "type": "address"
        },
        {
          "indexed": true,
          "name": "newOwner",
          "type": "address"
        }
      ],
      "name": "OwnershipTransferred",
      "type": "event"
    },
    {
      "constant": false,
      "inputs": [
        {
          "name": "_token",
          "type": "address"
        },
        {
          "name": "_utility",
          "type": "address"
        }
      ],
      "name": "init",
      "outputs": [],
      "payable": false,
      "stateMutability": "nonpayable",
      "type": "function"
    },
    {
      "constant": false,
      "inputs": [
        {
          "name": "_curator",
          "type": "address"
        },
        {
          "name": "_docId",
          "type": "bytes32"
        },
        {
          "name": "_deposit",
          "type": "uint256"
        }
      ],
      "name": "addVote",
      "outputs": [],
      "payable": false,
      "stateMutability": "nonpayable",
      "type": "function"
    },
    {
      "constant": false,
      "inputs": [
        {
          "name": "_curator",
          "type": "address"
        },
        {
          "name": "_docId",
          "type": "bytes32"
        },
        {
          "name": "_deposit",
          "type": "uint256"
        },
        {
          "name": "_timestamp",
          "type": "uint256"
        }
      ],
      "name": "updateVote",
      "outputs": [],
      "payable": false,
      "stateMutability": "nonpayable",
      "type": "function"
    },
    {
      "constant": false,
      "inputs": [
        {
          "name": "_curator",
          "type": "address"
        },
        {
          "name": "_idx",
          "type": "uint256"
        },
        {
          "name": "_withdraw",
          "type": "uint256"
        }
      ],
      "name": "withdraw",
      "outputs": [],
      "payable": false,
      "stateMutability": "nonpayable",
      "type": "function"
    },
    {
      "constant": true,
      "inputs": [
        {
          "name": "_addr",
          "type": "address"
        }
      ],
      "name": "getVoteCount",
      "outputs": [
        {
          "name": "",
          "type": "uint256"
        }
      ],
      "payable": false,
      "stateMutability": "view",
      "type": "function"
    },
    {
      "constant": true,
      "inputs": [
        {
          "name": "_addr",
          "type": "address"
        },
        {
          "name": "_idx",
          "type": "uint256"
        }
      ],
      "name": "getDocId",
      "outputs": [
        {
          "name": "",
          "type": "bytes32"
        }
      ],
      "payable": false,
      "stateMutability": "view",
      "type": "function"
    },
    {
      "constant": true,
      "inputs": [
        {
          "name": "_addr",
          "type": "address"
        },
        {
          "name": "_idx",
          "type": "uint256"
        }
      ],
      "name": "getStartDate",
      "outputs": [
        {
          "name": "",
          "type": "uint256"
        }
      ],
      "payable": false,
      "stateMutability": "view",
      "type": "function"
    },
    {
      "constant": true,
      "inputs": [
        {
          "name": "_addr",
          "type": "address"
        },
        {
          "name": "_idx",
          "type": "uint256"
        }
      ],
      "name": "getDeposit",
      "outputs": [
        {
          "name": "",
          "type": "uint256"
        }
      ],
      "payable": false,
      "stateMutability": "view",
      "type": "function"
    },
    {
      "constant": true,
      "inputs": [
        {
          "name": "_addr",
          "type": "address"
        },
        {
          "name": "_idx",
          "type": "uint256"
        }
      ],
      "name": "getWithdraw",
      "outputs": [
        {
          "name": "",
          "type": "uint256"
        }
      ],
      "payable": false,
      "stateMutability": "view",
      "type": "function"
    },
    {
      "constant": true,
      "inputs": [
        {
          "name": "_addr",
          "type": "address"
        },
        {
          "name": "_docId",
          "type": "bytes32"
        },
        {
          "name": "_index",
          "type": "uint256"
        }
      ],
      "name": "indexOfNextVoteForClaim",
      "outputs": [
        {
          "name": "",
          "type": "int256"
        }
      ],
      "payable": false,
      "stateMutability": "view",
      "type": "function"
    },
    {
      "constant": true,
      "inputs": [
        {
          "name": "_addr",
          "type": "address"
        },
        {
          "name": "_idx",
          "type": "uint256"
        },
        {
          "name": "_dateMillis",
          "type": "uint256"
        },
        {
          "name": "_pv",
          "type": "uint256"
        },
        {
          "name": "_tpvs",
          "type": "uint256"
        }
      ],
      "name": "determineReward",
      "outputs": [
        {
          "name": "",
          "type": "uint256"
        }
      ],
      "payable": false,
      "stateMutability": "view",
      "type": "function"
    },
    {
      "constant": true,
      "inputs": [
        {
          "name": "_addr",
          "type": "address"
        },
        {
          "name": "_docId",
          "type": "bytes32"
        },
        {
          "name": "_dateMillis",
          "type": "uint256"
        }
      ],
      "name": "getDepositByAddr",
      "outputs": [
        {
          "name": "",
          "type": "uint256"
        }
      ],
      "payable": false,
      "stateMutability": "view",
      "type": "function"
    },
    {
      "constant": true,
      "inputs": [
        {
          "name": "_docId",
          "type": "bytes32"
        },
        {
          "name": "_dateMillis",
          "type": "uint256"
        }
      ],
      "name": "getDepositByDoc",
      "outputs": [
        {
          "name": "",
          "type": "uint256"
        }
      ],
      "payable": false,
      "stateMutability": "view",
      "type": "function"
    },
    {
      "constant": true,
      "inputs": [
        {
          "name": "_addr",
          "type": "address"
        },
        {
          "name": "_docId",
          "type": "bytes32"
        },
        {
          "name": "_dateMillis",
          "type": "uint256"
        }
      ],
      "name": "getWithdrawByAddr",
      "outputs": [
        {
          "name": "",
          "type": "uint256"
        }
      ],
      "payable": false,
      "stateMutability": "view",
      "type": "function"
    },
    {
      "constant": true,
      "inputs": [
        {
          "name": "_docId",
          "type": "bytes32"
        },
        {
          "name": "_dateMillis",
          "type": "uint256"
        }
      ],
      "name": "getWithdrawByDoc",
      "outputs": [
        {
          "name": "",
          "type": "uint256"
        }
      ],
      "payable": false,
      "stateMutability": "view",
      "type": "function"
    }
  ],
  "bytecode": "0x6080604052336000806101000a81548173ffffffffffffffffffffffffffffffffffffffff021916908373ffffffffffffffffffffffffffffffffffffffff160217905550612868806100536000396000f300608060405260043610610107576000357c0100000000000000000000000000000000000000000000000000000000900463ffffffff16806302096d831461010c5780632726b5061461016757806332c658b1146101c85780633aa4afd1146102315780633b7aecf7146102a05780633c8740d81461030f57806361dcd7ab1461038e5780636392eb8f146103b95780636a34a4cb14610428578063715018a6146104895780638da5cb5b146104a0578063a975a500146104f7578063b5c5f67214610546578063b8122eac1461059d578063d919eda314610602578063da36054114610651578063e652f4cc146106b2578063f09a401614610709578063f2fde38b1461076c575b600080fd5b34801561011857600080fd5b50610165600480360381019080803573ffffffffffffffffffffffffffffffffffffffff1690602001909291908035600019169060200190929190803590602001909291905050506107af565b005b34801561017357600080fd5b506101b2600480360381019080803573ffffffffffffffffffffffffffffffffffffffff16906020019092919080359060200190929190505050610a76565b6040518082815260200191505060405180910390f35b3480156101d457600080fd5b50610213600480360381019080803573ffffffffffffffffffffffffffffffffffffffff16906020019092919080359060200190929190505050610ade565b60405180826000191660001916815260200191505060405180910390f35b34801561023d57600080fd5b5061028a600480360381019080803573ffffffffffffffffffffffffffffffffffffffff169060200190929190803560001916906020019092919080359060200190929190505050610b46565b6040518082815260200191505060405180910390f35b3480156102ac57600080fd5b506102f9600480360381019080803573ffffffffffffffffffffffffffffffffffffffff169060200190929190803560001916906020019092919080359060200190929190505050610d9e565b6040518082815260200191505060405180910390f35b34801561031b57600080fd5b50610378600480360381019080803573ffffffffffffffffffffffffffffffffffffffff16906020019092919080359060200190929190803590602001909291908035906020019092919080359060200190929190505050611222565b6040518082815260200191505060405180910390f35b34801561039a57600080fd5b506103a361165d565b6040518082815260200191505060405180910390f35b3480156103c557600080fd5b50610412600480360381019080803573ffffffffffffffffffffffffffffffffffffffff169060200190929190803560001916906020019092919080359060200190929190505050611663565b6040518082815260200191505060405180910390f35b34801561043457600080fd5b50610473600480360381019080803573ffffffffffffffffffffffffffffffffffffffff16906020019092919080359060200190929190505050611891565b6040518082815260200191505060405180910390f35b34801561049557600080fd5b5061049e6118f9565b005b3480156104ac57600080fd5b506104b56119fb565b604051808273ffffffffffffffffffffffffffffffffffffffff1673ffffffffffffffffffffffffffffffffffffffff16815260200191505060405180910390f35b34801561050357600080fd5b50610530600480360381019080803560001916906020019092919080359060200190929190505050611a20565b6040518082815260200191505060405180910390f35b34801561055257600080fd5b5061059b600480360381019080803573ffffffffffffffffffffffffffffffffffffffff1690602001909291908035906020019092919080359060200190929190505050611bfb565b005b3480156105a957600080fd5b50610600600480360381019080803573ffffffffffffffffffffffffffffffffffffffff16906020019092919080356000191690602001909291908035906020019092919080359060200190929190505050611f0b565b005b34801561060e57600080fd5b5061063b60048036038101908080356000191690602001909291908035906020019092919050505061210d565b6040518082815260200191505060405180910390f35b34801561065d57600080fd5b5061069c600480360381019080803573ffffffffffffffffffffffffffffffffffffffff16906020019092919080359060200190929190505050612312565b6040518082815260200191505060405180910390f35b3480156106be57600080fd5b506106f3600480360381019080803573ffffffffffffffffffffffffffffffffffffffff16906020019092919050505061237a565b6040518082815260200191505060405180910390f35b34801561071557600080fd5b5061076a600480360381019080803573ffffffffffffffffffffffffffffffffffffffff169060200190929190803573ffffffffffffffffffffffffffffffffffffffff1690602001909291905050506123c6565b005b34801561077857600080fd5b506107ad600480360381019080803573ffffffffffffffffffffffffffffffffffffffff1690602001909291905050506126af565b005b60006107b9612810565b6000809054906101000a900473ffffffffffffffffffffffffffffffffffffffff1673ffffffffffffffffffffffffffffffffffffffff163373ffffffffffffffffffffffffffffffffffffffff1614151561081457600080fd5b600360009054906101000a900473ffffffffffffffffffffffffffffffffffffffff1673ffffffffffffffffffffffffffffffffffffffff16637ff8b20e6040518163ffffffff167c0100000000000000000000000000000000000000000000000000000000028152600401602060405180830381600087803b15801561089a57600080fd5b505af11580156108ae573d6000803e3d6000fd5b505050506040513d60208110156108c457600080fd5b810190808051906020019092919050505091506080604051908101604052808560001916815260200183815260200184815260200160008152509050600160008673ffffffffffffffffffffffffffffffffffffffff1673ffffffffffffffffffffffffffffffffffffffff1681526020019081526020016000208190806001815401808255809150509060018203906000526020600020906004020160009091929091909150600082015181600001906000191690556020820151816001015560408201518160020155606082015181600301555050506002600085600019166000191681526020019081526020016000208190806001815401808255809150509060018203906000526020600020906004020160009091929091909150600082015181600001906000191690556020820151816001015560408201518160020155606082015181600301555050508473ffffffffffffffffffffffffffffffffffffffff1684600019167f879d4a2c015ee414e9d66796e6ac8c117c1fb47d9bb5e73eb0d2303f4e45ecd78486604051808381526020018281526020019250505060405180910390a35050505050565b6000600160008473ffffffffffffffffffffffffffffffffffffffff1673ffffffffffffffffffffffffffffffffffffffff16815260200190815260200160002082815481101515610ac457fe5b906000526020600020906004020160020154905092915050565b6000600160008473ffffffffffffffffffffffffffffffffffffffff1673ffffffffffffffffffffffffffffffffffffffff16815260200190815260200160002082815481101515610b2c57fe5b906000526020600020906004020160000154905092915050565b60008060606000809250600160008873ffffffffffffffffffffffffffffffffffffffff1673ffffffffffffffffffffffffffffffffffffffff168152602001908152602001600020805480602002602001604051908101604052809291908181526020016000905b82821015610c12578382906000526020600020906004020160806040519081016040529081600082015460001916600019168152602001600182015481526020016002820154815260200160038201548152505081526020019060010190610baf565b505050509150600090505b8151811015610d915785600019168282815181101515610c3957fe5b906020019060200201516000015160001916148015610c76575060008282815181101515610c6357fe5b9060200190602002015160200151860310155b8015610d5e5750600360009054906101000a900473ffffffffffffffffffffffffffffffffffffffff1673ffffffffffffffffffffffffffffffffffffffff1663877211666040518163ffffffff167c0100000000000000000000000000000000000000000000000000000000028152600401602060405180830381600087803b158015610d0357600080fd5b505af1158015610d17573d6000803e3d6000fd5b505050506040513d6020811015610d2d57600080fd5b81019080805190602001909291905050508282815181101515610d4c57fe5b90602001906020020151602001518603105b15610d84578181815181101515610d7157fe5b9060200190602002015160400151830192505b8080600101915050610c1d565b8293505050509392505050565b600080600080600160008873ffffffffffffffffffffffffffffffffffffffff1673ffffffffffffffffffffffffffffffffffffffff168152602001908152602001600020805490501415610e15577fffffffffffffffffffffffffffffffffffffffffffffffffffffffffffffffff9250611219565b6000600260008760001916600019168152602001908152602001600020805490501415610e64577fffffffffffffffffffffffffffffffffffffffffffffffffffffffffffffffff9250611219565b600360009054906101000a900473ffffffffffffffffffffffffffffffffffffffff1673ffffffffffffffffffffffffffffffffffffffff16637ff8b20e6040518163ffffffff167c0100000000000000000000000000000000000000000000000000000000028152600401602060405180830381600087803b158015610eea57600080fd5b505af1158015610efe573d6000803e3d6000fd5b505050506040513d6020811015610f1457600080fd5b810190808051906020019092919050505091506001840190505b600160008773ffffffffffffffffffffffffffffffffffffffff1673ffffffffffffffffffffffffffffffffffffffff168152602001908152602001600020805490508110156111f5578460001916600160008873ffffffffffffffffffffffffffffffffffffffff1673ffffffffffffffffffffffffffffffffffffffff16815260200190815260200160002082815481101515610fc957fe5b9060005260206000209060040201600001546000191614801561104957506000600160008873ffffffffffffffffffffffffffffffffffffffff1673ffffffffffffffffffffffffffffffffffffffff1681526020019081526020016000208281548110151561103557fe5b906000526020600020906004020160030154145b80156110b15750600160008773ffffffffffffffffffffffffffffffffffffffff1673ffffffffffffffffffffffffffffffffffffffff1681526020019081526020016000208181548110151561109c57fe5b90600052602060002090600402016001015482115b80156111db5750600360009054906101000a900473ffffffffffffffffffffffffffffffffffffffff1673ffffffffffffffffffffffffffffffffffffffff1663877211666040518163ffffffff167c0100000000000000000000000000000000000000000000000000000000028152600401602060405180830381600087803b15801561113e57600080fd5b505af1158015611152573d6000803e3d6000fd5b505050506040513d602081101561116857600080fd5b8101908080519060200190929190505050600160008873ffffffffffffffffffffffffffffffffffffffff1673ffffffffffffffffffffffffffffffffffffffff168152602001908152602001600020828154811015156111c557fe5b9060005260206000209060040201600101548303115b156111e857809250611219565b8080600101915050610f2e565b7fffffffffffffffffffffffffffffffffffffffffffffffffffffffffffffffff92505b50509392505050565b600061122c612810565b600060606000808a73ffffffffffffffffffffffffffffffffffffffff161415151561125757600080fd5b60008811151561126657600080fd5b60008614806112755750600087145b156112835760009450611650565b600160008b73ffffffffffffffffffffffffffffffffffffffff1673ffffffffffffffffffffffffffffffffffffffff168152602001908152602001600020898154811015156112cf57fe5b906000526020600020906004020160806040519081016040529081600082015460001916600019168152602001600182015481526020016002820154815260200160038201548152505093508784602001511180611331575060008460600151115b80611340575060008460400151145b1561134e5760009450611650565b6000925060026000856000015160001916600019168152602001908152602001600020805480602002602001604051908101604052809291908181526020016000905b828210156113f4578382906000526020600020906004020160806040519081016040529081600082015460001916600019168152602001600182015481526020016002820154815260200160038201548152505081526020019060010190611391565b505050509150600090505b8151811015611545576000828281518110151561141857fe5b90602001906020020151602001518903101580156115125750600360009054906101000a900473ffffffffffffffffffffffffffffffffffffffff1673ffffffffffffffffffffffffffffffffffffffff1663877211666040518163ffffffff167c0100000000000000000000000000000000000000000000000000000000028152600401602060405180830381600087803b1580156114b757600080fd5b505af11580156114cb573d6000803e3d6000fd5b505050506040513d60208110156114e157600080fd5b8101908080519060200190929190505050828281518110151561150057fe5b90602001906020020151602001518903105b1561153857818181518110151561152557fe5b9060200190602002015160400151830192505b80806001019150506113ff565b60008314156115575760009450611650565b8284604001518760028a0a600360009054906101000a900473ffffffffffffffffffffffffffffffffffffffff1673ffffffffffffffffffffffffffffffffffffffff1663dcb8e506601e8e6040518363ffffffff167c01000000000000000000000000000000000000000000000000000000000281526004018083815260200182815260200192505050602060405180830381600087803b1580156115fc57600080fd5b505af1158015611610573d6000803e3d6000fd5b505050506040513d602081101561162657600080fd5b81019080805190602001909291905050500281151561164157fe5b040281151561164c57fe5b0494505b5050505095945050505050565b60055481565b60008060606000809250600160008873ffffffffffffffffffffffffffffffffffffffff1673ffffffffffffffffffffffffffffffffffffffff168152602001908152602001600020805480602002602001604051908101604052809291908181526020016000905b8282101561172f5783829060005260206000209060040201608060405190810160405290816000820154600019166000191681526020016001820154815260200160028201548152602001600382015481525050815260200190600101906116cc565b505050509150600090505b8151811015611884578560001916828281518110151561175657fe5b9060200190602002015160000151600019161480156118515750600360009054906101000a900473ffffffffffffffffffffffffffffffffffffffff1673ffffffffffffffffffffffffffffffffffffffff1663877211666040518163ffffffff167c0100000000000000000000000000000000000000000000000000000000028152600401602060405180830381600087803b1580156117f657600080fd5b505af115801561180a573d6000803e3d6000fd5b505050506040513d602081101561182057600080fd5b8101908080519060200190929190505050828281518110151561183f57fe5b90602001906020020151602001518603115b1561187757818181518110151561186457fe5b9060200190602002015160600151830192505b808060010191505061173a565b8293505050509392505050565b6000600160008473ffffffffffffffffffffffffffffffffffffffff1673ffffffffffffffffffffffffffffffffffffffff168152602001908152602001600020828154811015156118df57fe5b906000526020600020906004020160010154905092915050565b6000809054906101000a900473ffffffffffffffffffffffffffffffffffffffff1673ffffffffffffffffffffffffffffffffffffffff163373ffffffffffffffffffffffffffffffffffffffff1614151561195457600080fd5b6000809054906101000a900473ffffffffffffffffffffffffffffffffffffffff1673ffffffffffffffffffffffffffffffffffffffff167ff8df31144d9c2f0f6b59d69b8b98abd5459d07f2742c4df920b25aae33c6482060405160405180910390a260008060006101000a81548173ffffffffffffffffffffffffffffffffffffffff021916908373ffffffffffffffffffffffffffffffffffffffff160217905550565b6000809054906101000a900473ffffffffffffffffffffffffffffffffffffffff1681565b60008060606000809250600260008760001916600019168152602001908152602001600020805480602002602001604051908101604052809291908181526020016000905b82821015611ac8578382906000526020600020906004020160806040519081016040529081600082015460001916600019168152602001600182015481526020016002820154815260200160038201548152505081526020019060010190611a65565b505050509150600090505b8151811015611bef57600360009054906101000a900473ffffffffffffffffffffffffffffffffffffffff1673ffffffffffffffffffffffffffffffffffffffff1663877211666040518163ffffffff167c0100000000000000000000000000000000000000000000000000000000028152600401602060405180830381600087803b158015611b6257600080fd5b505af1158015611b76573d6000803e3d6000fd5b505050506040513d6020811015611b8c57600080fd5b81019080805190602001909291905050508282815181101515611bab57fe5b906020019060200201516020015186031115611be2578181815181101515611bcf57fe5b9060200190602002015160600151830192505b8080600101915050611ad3565b82935050505092915050565b6000806000809054906101000a900473ffffffffffffffffffffffffffffffffffffffff1673ffffffffffffffffffffffffffffffffffffffff163373ffffffffffffffffffffffffffffffffffffffff16141515611c5957600080fd5b82600160008773ffffffffffffffffffffffffffffffffffffffff1673ffffffffffffffffffffffffffffffffffffffff16815260200190815260200160002085815481101515611ca657fe5b90600052602060002090600402016003018190555060026000600160008873ffffffffffffffffffffffffffffffffffffffff1673ffffffffffffffffffffffffffffffffffffffff16815260200190815260200160002086815481101515611d0b57fe5b906000526020600020906004020160000154600019166000191681526020019081526020016000209150600090505b8180549050811015611eae57600160008673ffffffffffffffffffffffffffffffffffffffff1673ffffffffffffffffffffffffffffffffffffffff16815260200190815260200160002084815481101515611d9257fe5b9060005260206000209060040201600101548282815481101515611db257fe5b906000526020600020906004020160010154148015611e4c5750600160008673ffffffffffffffffffffffffffffffffffffffff1673ffffffffffffffffffffffffffffffffffffffff16815260200190815260200160002084815481101515611e1857fe5b9060005260206000209060040201600201548282815481101515611e3857fe5b906000526020600020906004020160020154145b8015611e77575060008282815481101515611e6357fe5b906000526020600020906004020160030154145b15611ea157828282815481101515611e8b57fe5b9060005260206000209060040201600301819055505b8080600101915050611d3a565b8473ffffffffffffffffffffffffffffffffffffffff167fe3a578db023c93c17a32f818b53100ba3479950e72d911afbee045639067f87f8585604051808381526020018281526020019250505060405180910390a25050505050565b611f13612810565b6000809054906101000a900473ffffffffffffffffffffffffffffffffffffffff1673ffffffffffffffffffffffffffffffffffffffff163373ffffffffffffffffffffffffffffffffffffffff16141515611f6e57600080fd5b6080604051908101604052808560001916815260200183815260200184815260200160008152509050600160008673ffffffffffffffffffffffffffffffffffffffff1673ffffffffffffffffffffffffffffffffffffffff1681526020019081526020016000208190806001815401808255809150509060018203906000526020600020906004020160009091929091909150600082015181600001906000191690556020820151816001015560408201518160020155606082015181600301555050506002600085600019166000191681526020019081526020016000208190806001815401808255809150509060018203906000526020600020906004020160009091929091909150600082015181600001906000191690556020820151816001015560408201518160020155606082015181600301555050508473ffffffffffffffffffffffffffffffffffffffff1684600019167f4c0ed8d7373691c3c3e6b0742d192e715f50c11b05949c729ed17e7af7fb6d2c8486604051808381526020018281526020019250505060405180910390a35050505050565b60008060606000809250600260008760001916600019168152602001908152602001600020805480602002602001604051908101604052809291908181526020016000905b828210156121b5578382906000526020600020906004020160806040519081016040529081600082015460001916600019168152602001600182015481526020016002820154815260200160038201548152505081526020019060010190612152565b505050509150600090505b815181101561230657600082828151811015156121d957fe5b90602001906020020151602001518603101580156122d35750600360009054906101000a900473ffffffffffffffffffffffffffffffffffffffff1673ffffffffffffffffffffffffffffffffffffffff1663877211666040518163ffffffff167c0100000000000000000000000000000000000000000000000000000000028152600401602060405180830381600087803b15801561227857600080fd5b505af115801561228c573d6000803e3d6000fd5b505050506040513d60208110156122a257600080fd5b810190808051906020019092919050505082828151811015156122c157fe5b90602001906020020151602001518603105b156122f95781818151811015156122e657fe5b9060200190602002015160400151830192505b80806001019150506121c0565b82935050505092915050565b6000600160008473ffffffffffffffffffffffffffffffffffffffff1673ffffffffffffffffffffffffffffffffffffffff1681526020019081526020016000208281548110151561236057fe5b906000526020600020906004020160030154905092915050565b6000600160008373ffffffffffffffffffffffffffffffffffffffff1673ffffffffffffffffffffffffffffffffffffffff168152602001908152602001600020805490509050919050565b6000809054906101000a900473ffffffffffffffffffffffffffffffffffffffff1673ffffffffffffffffffffffffffffffffffffffff163373ffffffffffffffffffffffffffffffffffffffff1614151561242157600080fd5b60008273ffffffffffffffffffffffffffffffffffffffff161415801561248057506000600460009054906101000a900473ffffffffffffffffffffffffffffffffffffffff1673ffffffffffffffffffffffffffffffffffffffff16145b151561248b57600080fd5b60008173ffffffffffffffffffffffffffffffffffffffff16141580156124ea57506000600360009054906101000a900473ffffffffffffffffffffffffffffffffffffffff1673ffffffffffffffffffffffffffffffffffffffff16145b15156124f557600080fd5b81600460006101000a81548173ffffffffffffffffffffffffffffffffffffffff021916908373ffffffffffffffffffffffffffffffffffffffff16021790555080600360006101000a81548173ffffffffffffffffffffffffffffffffffffffff021916908373ffffffffffffffffffffffffffffffffffffffff160217905550600360009054906101000a900473ffffffffffffffffffffffffffffffffffffffff1673ffffffffffffffffffffffffffffffffffffffff1663c03812226040518163ffffffff167c0100000000000000000000000000000000000000000000000000000000028152600401602060405180830381600087803b1580156125fd57600080fd5b505af1158015612611573d6000803e3d6000fd5b505050506040513d602081101561262757600080fd5b81019080805190602001909291905050506005819055507fe1aeefe9472a1e962f43c3127e6bfaffee0bb06ebab1b5bd3b2b3735e30d963a60055483604051808381526020018273ffffffffffffffffffffffffffffffffffffffff1673ffffffffffffffffffffffffffffffffffffffff1681526020019250505060405180910390a15050565b6000809054906101000a900473ffffffffffffffffffffffffffffffffffffffff1673ffffffffffffffffffffffffffffffffffffffff163373ffffffffffffffffffffffffffffffffffffffff1614151561270a57600080fd5b61271381612716565b50565b600073ffffffffffffffffffffffffffffffffffffffff168173ffffffffffffffffffffffffffffffffffffffff161415151561275257600080fd5b8073ffffffffffffffffffffffffffffffffffffffff166000809054906101000a900473ffffffffffffffffffffffffffffffffffffffff1673ffffffffffffffffffffffffffffffffffffffff167f8be0079c531659141344cd1fd0a4f28419497f9722a3daafe3b4186f6b6457e060405160405180910390a3806000806101000a81548173ffffffffffffffffffffffffffffffffffffffff021916908373ffffffffffffffffffffffffffffffffffffffff16021790555050565b6080604051908101604052806000801916815260200160008152602001600081526020016000815250905600a165627a7a723058206e731882f0433d40847ab3b35acd76e3abc9d59bc424cb49ace53a59fb04288a0029",
  "source": "pragma solidity ^0.4.24;\n\nimport \"./Deck.sol\";\nimport \"./Utility.sol\";\n\ncontract CuratorPool is Ownable {\n\n  event _InitializeCuratorPool(uint timestamp, address token);\n  event _AddVote(bytes32 indexed docId, uint timestamp, uint deposit, address indexed applicant);\n  event _UpdateVote(bytes32 indexed docId, uint timestamp, uint deposit, address indexed applicant);\n  event _Withdraw(address indexed applicant, uint idx, uint withdraw);\n  //event _DetermineReward(bytes32 indexed docId, uint cvd, uint tvd, uint pv, uint tpvs, uint drp);\n\n  struct Vote {\n    bytes32 docId;\n    uint startDate;\n    uint deposit;\n    uint withdraw;\n  }\n\n  // maps address to the curator's vote data\n  mapping (address => Vote[]) internal mapByAddr;\n\n  // maps docId to the curator's vote data\n  mapping (bytes32 => Vote[]) internal mapByDoc;\n\n  // key list for iteration\n  //address[] private keys;\n\n  // private variables\n  Utility private util;\n  Deck private token;\n\n  // public variables\n  uint public createTime;\n\n  function init(address _token, address _utility) public\n    onlyOwner()\n  {\n    require(_token != 0 && address(token) == 0);\n    require(_utility != 0 && address(util) == 0);\n\n    token = Deck(_token);\n    util = Utility(_utility);\n\n    createTime = util.getTimeMillis();\n    emit _InitializeCuratorPool(createTime, _token);\n  }\n\n  // -------------------------------\n  // For iteration\n  // -------------------------------\n\n  // curator list for iteration\n  //function getCurators() public view returns (address[]) {\n  //  return keys;\n  //}\n\n  // -------------------------------\n  // Voting Information Functions\n  // -------------------------------\n\n  // adding a new vote\n  function addVote(address _curator, bytes32 _docId, uint _deposit) public\n    onlyOwner()\n  {\n    uint dateMillis = util.getDateMillis();\n\n    Vote memory vote1 = Vote(_docId, dateMillis, _deposit, 0);\n    //Vote memory vote2 = Vote(_docId, dateMillis, _deposit, 0);\n\n    mapByAddr[_curator].push(vote1);\n    mapByDoc[_docId].push(vote1);\n\n    //if (mapByAddr[_curator].length == 1) {\n    //  keys.push(_curator);\n    //}\n\n    emit _AddVote(_docId, dateMillis, _deposit, _curator);\n  }\n\n  function updateVote(address _curator, bytes32 _docId, uint _deposit, uint _timestamp) public\n    onlyOwner()\n  {\n    Vote memory vote1 = Vote(_docId, _timestamp, _deposit, 0);\n    //Vote memory vote2 = Vote(_docId, _timestamp, _deposit, 0);\n\n    mapByAddr[_curator].push(vote1);\n    mapByDoc[_docId].push(vote1);\n\n    //if (idx == 1) {\n    //  keys.push(_curator);\n    //}\n\n    emit _UpdateVote(_docId, _timestamp, _deposit, _curator);\n  }\n\n  function withdraw(address _curator, uint _idx, uint _withdraw) public\n    onlyOwner()\n  {\n    mapByAddr[_curator][_idx].withdraw = _withdraw;\n    Vote[] storage voteList = mapByDoc[mapByAddr[_curator][_idx].docId];\n    for (uint i=0; i<voteList.length; i++) {\n      if (voteList[i].startDate == mapByAddr[_curator][_idx].startDate\n       && voteList[i].deposit == mapByAddr[_curator][_idx].deposit\n       && voteList[i].withdraw == 0) {\n         voteList[i].withdraw = _withdraw;\n      }\n    }\n    emit _Withdraw(_curator, _idx, _withdraw);\n  }\n\n  function getVoteCount(address _addr) public view returns (uint) {\n    return mapByAddr[_addr].length;\n  }\n\n  function getDocId(address _addr, uint _idx) public view returns (bytes32) {\n    return mapByAddr[_addr][uint(_idx)].docId;\n  }\n\n  function getStartDate(address _addr, uint _idx) public view returns (uint) {\n    return mapByAddr[_addr][uint(_idx)].startDate;\n  }\n\n  function getDeposit(address _addr, uint _idx) public view returns (uint) {\n    return mapByAddr[_addr][uint(_idx)].deposit;\n  }\n\n  function getWithdraw(address _addr, uint _idx) public view returns (uint) {\n    return mapByAddr[_addr][uint(_idx)].withdraw;\n  }\n\n  // --------------------------------\n  //      vote       \n  // --------------------------------\n  function indexOfNextVoteForClaim(address _addr, bytes32 _docId, uint _index) public view returns (int) {\n\n    if (mapByAddr[_addr].length == 0) {\n      return int(-1);\n    }\n\n    if (mapByDoc[_docId].length == 0) {\n      return int(-1);\n    }\n\n    // 1.    vote  \n    //  a.  docuemnt  vote \n    //  b.   Vote  \n    //  c.  util.getVoteDepositDays()   ( )\n    uint dateMillis = util.getDateMillis();\n    for (uint i=(_index+1); i<mapByAddr[_addr].length; i++) {\n      if ((mapByAddr[_addr][i].docId == _docId)\n       && (mapByAddr[_addr][i].withdraw == 0)\n       && (dateMillis > mapByAddr[_addr][i].startDate)\n       && (dateMillis - mapByAddr[_addr][i].startDate > util.getVoteDepositMillis())) {\n         return int(i);\n      }\n    }\n    return -1;\n  }\n\n  function determineReward(address _addr, uint _idx, uint _dateMillis, uint _pv, uint _tpvs) public view returns (uint) {\n\n    require(_addr != 0);\n    require(_dateMillis > 0);\n\n    if (_tpvs == 0 || _pv == 0) {\n      return uint(0);\n    }\n\n    Vote memory vote = mapByAddr[_addr][_idx];\n\n    if (vote.startDate > _dateMillis || vote.withdraw > 0 || vote.deposit == 0) {\n      return uint(0);\n    }\n\n    uint tvd = 0;\n    Vote[] memory voteTotalList = mapByDoc[vote.docId];\n    for (uint i=0; i<voteTotalList.length; i++) {\n      if ((_dateMillis - voteTotalList[i].startDate) >= 0\n       && (_dateMillis - voteTotalList[i].startDate) < util.getVoteDepositMillis()) {\n        tvd += voteTotalList[i].deposit;\n      }\n    }\n\n    if (tvd == 0) {\n      return uint(0);\n    }\n    return uint(uint((util.getDailyRewardPool(30, _dateMillis) * (_pv ** 2)) / _tpvs) * vote.deposit / tvd);\n  }\n\n  function getDepositByAddr(address _addr, bytes32 _docId, uint _dateMillis) public view returns (uint) {\n    uint sumDeposit = 0;\n    Vote[] memory voteList = mapByAddr[_addr];\n    for (uint i=0; i<voteList.length; i++) {\n      if (voteList[i].docId == _docId\n        && (_dateMillis - voteList[i].startDate) >= 0\n        && (_dateMillis - voteList[i].startDate) < util.getVoteDepositMillis()) {\n        sumDeposit += voteList[i].deposit;\n      }\n    }\n    return sumDeposit;\n  }\n\n  function getDepositByDoc(bytes32 _docId, uint _dateMillis) public view returns (uint) {\n    uint sumDeposit = 0;\n    Vote[] memory voteList = mapByDoc[_docId];\n    for (uint i=0; i<voteList.length; i++) {\n      if ((_dateMillis - voteList[i].startDate) >= 0\n       && (_dateMillis - voteList[i].startDate) < util.getVoteDepositMillis()) {\n        sumDeposit += voteList[i].deposit;\n      }\n    }\n    return sumDeposit;\n  }\n\n  function getWithdrawByAddr(address _addr, bytes32 _docId, uint _dateMillis) public view returns (uint) {\n    uint sumWithdraw = 0;\n    Vote[] memory voteList = mapByAddr[_addr];\n    for (uint i=0; i<voteList.length; i++) {\n      if (voteList[i].docId == _docId\n        && (_dateMillis - voteList[i].startDate) > util.getVoteDepositMillis()) {\n        sumWithdraw += voteList[i].withdraw;\n      }\n    }\n    return sumWithdraw;\n  }\n\n  function getWithdrawByDoc(bytes32 _docId, uint _dateMillis) public view returns (uint) {\n    uint sumWithdraw = 0;\n    Vote[] memory voteList = mapByDoc[_docId];\n    for (uint i=0; i<voteList.length; i++) {\n      if ((_dateMillis - voteList[i].startDate) > util.getVoteDepositMillis()) {\n        sumWithdraw += voteList[i].withdraw;\n      }\n    }\n    return sumWithdraw;\n  }\n\n}\n",
  "sourcePath": "/Users/centroine/Documents/github/bluebottle/contracts/CuratorPool.sol",
  "compiler": {
    "name": "solc",
    "version": "0.4.24+commit.e67f0147.Emscripten.clang"
  },
  "schemaVersion": "2.0.1",
  "updatedAt": "2018-10-22T03:47:26.109Z"
}