{
  "contractName": "CuratorPool",
  "abi": [
    {
      "constant": true,
      "inputs": [],
      "name": "createTime",
      "outputs": [
        {
          "name": "",
          "type": "uint256"
        }
      ],
      "payable": false,
      "stateMutability": "view",
      "type": "function"
    },
    {
      "constant": false,
      "inputs": [],
      "name": "renounceOwnership",
      "outputs": [],
      "payable": false,
      "stateMutability": "nonpayable",
      "type": "function"
    },
    {
      "constant": true,
      "inputs": [],
      "name": "owner",
      "outputs": [
        {
          "name": "",
          "type": "address"
        }
      ],
      "payable": false,
      "stateMutability": "view",
      "type": "function"
    },
    {
      "constant": false,
      "inputs": [
        {
          "name": "_newOwner",
          "type": "address"
        }
      ],
      "name": "transferOwnership",
      "outputs": [],
      "payable": false,
      "stateMutability": "nonpayable",
      "type": "function"
    },
    {
      "anonymous": false,
      "inputs": [
        {
          "indexed": false,
          "name": "timestamp",
          "type": "uint256"
        },
        {
          "indexed": false,
          "name": "token",
          "type": "address"
        }
      ],
      "name": "_InitializeCuratorPool",
      "type": "event"
    },
    {
      "anonymous": false,
      "inputs": [
        {
          "indexed": true,
          "name": "docId",
          "type": "bytes32"
        },
        {
          "indexed": false,
          "name": "timestamp",
          "type": "uint256"
        },
        {
          "indexed": false,
          "name": "deposit",
          "type": "uint256"
        },
        {
          "indexed": true,
          "name": "applicant",
          "type": "address"
        },
        {
          "indexed": false,
          "name": "idx",
          "type": "uint256"
        }
      ],
      "name": "_AddVote",
      "type": "event"
    },
    {
      "anonymous": false,
      "inputs": [
        {
          "indexed": true,
          "name": "applicant",
          "type": "address"
        },
        {
          "indexed": false,
          "name": "idx",
          "type": "uint256"
        },
        {
          "indexed": false,
          "name": "withdraw",
          "type": "uint256"
        }
      ],
      "name": "_Withdraw",
      "type": "event"
    },
    {
      "anonymous": false,
      "inputs": [
        {
          "indexed": true,
          "name": "previousOwner",
          "type": "address"
        }
      ],
      "name": "OwnershipRenounced",
      "type": "event"
    },
    {
      "anonymous": false,
      "inputs": [
        {
          "indexed": true,
          "name": "previousOwner",
          "type": "address"
        },
        {
          "indexed": true,
          "name": "newOwner",
          "type": "address"
        }
      ],
      "name": "OwnershipTransferred",
      "type": "event"
    },
    {
      "constant": false,
      "inputs": [
        {
          "name": "_token",
          "type": "address"
        },
        {
          "name": "_utility",
          "type": "address"
        }
      ],
      "name": "init",
      "outputs": [],
      "payable": false,
      "stateMutability": "nonpayable",
      "type": "function"
    },
    {
      "constant": true,
      "inputs": [],
      "name": "getCurators",
      "outputs": [
        {
          "name": "",
          "type": "address[]"
        }
      ],
      "payable": false,
      "stateMutability": "view",
      "type": "function"
    },
    {
      "constant": false,
      "inputs": [
        {
          "name": "_curator",
          "type": "address"
        },
        {
          "name": "_docId",
          "type": "bytes32"
        },
        {
          "name": "_deposit",
          "type": "uint256"
        }
      ],
      "name": "addVote",
      "outputs": [],
      "payable": false,
      "stateMutability": "nonpayable",
      "type": "function"
    },
    {
      "constant": false,
      "inputs": [
        {
          "name": "_curator",
          "type": "address"
        },
        {
          "name": "_idx",
          "type": "uint256"
        },
        {
          "name": "_withdraw",
          "type": "uint256"
        }
      ],
      "name": "withdraw",
      "outputs": [],
      "payable": false,
      "stateMutability": "nonpayable",
      "type": "function"
    },
    {
      "constant": true,
      "inputs": [
        {
          "name": "_addr",
          "type": "address"
        }
      ],
      "name": "getVoteCount",
      "outputs": [
        {
          "name": "",
          "type": "uint256"
        }
      ],
      "payable": false,
      "stateMutability": "view",
      "type": "function"
    },
    {
      "constant": true,
      "inputs": [
        {
          "name": "_addr",
          "type": "address"
        },
        {
          "name": "_idx",
          "type": "uint256"
        }
      ],
      "name": "getDocId",
      "outputs": [
        {
          "name": "",
          "type": "bytes32"
        }
      ],
      "payable": false,
      "stateMutability": "view",
      "type": "function"
    },
    {
      "constant": true,
      "inputs": [
        {
          "name": "_addr",
          "type": "address"
        },
        {
          "name": "_idx",
          "type": "uint256"
        }
      ],
      "name": "getStartDate",
      "outputs": [
        {
          "name": "",
          "type": "uint256"
        }
      ],
      "payable": false,
      "stateMutability": "view",
      "type": "function"
    },
    {
      "constant": true,
      "inputs": [
        {
          "name": "_addr",
          "type": "address"
        },
        {
          "name": "_idx",
          "type": "uint256"
        }
      ],
      "name": "getDeposit",
      "outputs": [
        {
          "name": "",
          "type": "uint256"
        }
      ],
      "payable": false,
      "stateMutability": "view",
      "type": "function"
    },
    {
      "constant": true,
      "inputs": [
        {
          "name": "_addr",
          "type": "address"
        },
        {
          "name": "_idx",
          "type": "uint256"
        }
      ],
      "name": "getWithdraw",
      "outputs": [
        {
          "name": "",
          "type": "uint256"
        }
      ],
      "payable": false,
      "stateMutability": "view",
      "type": "function"
    },
    {
      "constant": true,
      "inputs": [
        {
          "name": "_addr",
          "type": "address"
        },
        {
          "name": "_docId",
          "type": "bytes32"
        },
        {
          "name": "_index",
          "type": "uint256"
        }
      ],
      "name": "indexOfNextVoteForClaim",
      "outputs": [
        {
          "name": "",
          "type": "int256"
        }
      ],
      "payable": false,
      "stateMutability": "view",
      "type": "function"
    },
    {
      "constant": true,
      "inputs": [
        {
          "name": "_addr",
          "type": "address"
        },
        {
          "name": "_idx",
          "type": "uint256"
        },
        {
          "name": "_dateMillis",
          "type": "uint256"
        },
        {
          "name": "_pv",
          "type": "uint256"
        },
        {
          "name": "_tpvs",
          "type": "uint256"
        }
      ],
      "name": "determineDeco",
      "outputs": [
        {
          "name": "",
          "type": "uint256"
        }
      ],
      "payable": false,
      "stateMutability": "view",
      "type": "function"
    }
  ],
  "bytecode": "0x6080604052336000806101000a81548173ffffffffffffffffffffffffffffffffffffffff021916908373ffffffffffffffffffffffffffffffffffffffff160217905550611af2806100536000396000f3006080604052600436106100db576000357c0100000000000000000000000000000000000000000000000000000000900463ffffffff16806302096d83146100e05780632726b5061461013b57806332c658b11461019c5780633b7aecf71461020557806361dcd7ab146102745780636a34a4cb1461029f578063715018a6146103005780638da5cb5b14610317578063b3f6808f1461036e578063b5895b05146103da578063b5c5f67214610459578063da360541146104b0578063e652f4cc14610511578063f09a401614610568578063f2fde38b146105cb575b600080fd5b3480156100ec57600080fd5b50610139600480360381019080803573ffffffffffffffffffffffffffffffffffffffff16906020019092919080356000191690602001909291908035906020019092919050505061060e565b005b34801561014757600080fd5b50610186600480360381019080803573ffffffffffffffffffffffffffffffffffffffff16906020019092919080359060200190929190505050610951565b6040518082815260200191505060405180910390f35b3480156101a857600080fd5b506101e7600480360381019080803573ffffffffffffffffffffffffffffffffffffffff169060200190929190803590602001909291905050506109b9565b60405180826000191660001916815260200191505060405180910390f35b34801561021157600080fd5b5061025e600480360381019080803573ffffffffffffffffffffffffffffffffffffffff169060200190929190803560001916906020019092919080359060200190929190505050610a21565b6040518082815260200191505060405180910390f35b34801561028057600080fd5b50610289610ea8565b6040518082815260200191505060405180910390f35b3480156102ab57600080fd5b506102ea600480360381019080803573ffffffffffffffffffffffffffffffffffffffff16906020019092919080359060200190929190505050610eae565b6040518082815260200191505060405180910390f35b34801561030c57600080fd5b50610315610f16565b005b34801561032357600080fd5b5061032c611018565b604051808273ffffffffffffffffffffffffffffffffffffffff1673ffffffffffffffffffffffffffffffffffffffff16815260200191505060405180910390f35b34801561037a57600080fd5b5061038361103d565b6040518080602001828103825283818151815260200191508051906020019060200280838360005b838110156103c65780820151818401526020810190506103ab565b505050509050019250505060405180910390f35b3480156103e657600080fd5b50610443600480360381019080803573ffffffffffffffffffffffffffffffffffffffff169060200190929190803590602001909291908035906020019092919080359060200190929190803590602001909291905050506110cb565b6040518082815260200191505060405180910390f35b34801561046557600080fd5b506104ae600480360381019080803573ffffffffffffffffffffffffffffffffffffffff1690602001909291908035906020019092919080359060200190929190505050611376565b005b3480156104bc57600080fd5b506104fb600480360381019080803573ffffffffffffffffffffffffffffffffffffffff1690602001909291908035906020019092919050505061148e565b6040518082815260200191505060405180910390f35b34801561051d57600080fd5b50610552600480360381019080803573ffffffffffffffffffffffffffffffffffffffff1690602001909291905050506114f6565b6040518082815260200191505060405180910390f35b34801561057457600080fd5b506105c9600480360381019080803573ffffffffffffffffffffffffffffffffffffffff169060200190929190803573ffffffffffffffffffffffffffffffffffffffff169060200190929190505050611542565b005b3480156105d757600080fd5b5061060c600480360381019080803573ffffffffffffffffffffffffffffffffffffffff16906020019092919050505061182b565b005b6000610618611a9a565b60008060009054906101000a900473ffffffffffffffffffffffffffffffffffffffff1673ffffffffffffffffffffffffffffffffffffffff163373ffffffffffffffffffffffffffffffffffffffff1614151561067557600080fd5b600460009054906101000a900473ffffffffffffffffffffffffffffffffffffffff1673ffffffffffffffffffffffffffffffffffffffff16637ff8b20e6040518163ffffffff167c0100000000000000000000000000000000000000000000000000000000028152600401602060405180830381600087803b1580156106fb57600080fd5b505af115801561070f573d6000803e3d6000fd5b505050506040513d602081101561072557600080fd5b810190808051906020019092919050505092506080604051908101604052808660001916815260200184815260200185815260200160008152509150600160008773ffffffffffffffffffffffffffffffffffffffff1673ffffffffffffffffffffffffffffffffffffffff1681526020019081526020016000208290806001815401808255809150509060018203906000526020600020906004020160009091929091909150600082015181600001906000191690556020820151816001015560408201518160020155606082015181600301555050905060026000866000191660001916815260200190815260200160002082908060018154018082558091505090600182039060005260206000209060040201600090919290919091506000820151816000019060001916905560208201518160010155604082015181600201556060820151816003015550505060018114156108e65760038690806001815401808255809150509060018203906000526020600020016000909192909190916101000a81548173ffffffffffffffffffffffffffffffffffffffff021916908373ffffffffffffffffffffffffffffffffffffffff160217905550505b8573ffffffffffffffffffffffffffffffffffffffff1685600019167f01d820b55d34c62131ed207079cdaf293ed17d95188e668bdf5adb757375ee9885878560405180848152602001838152602001828152602001935050505060405180910390a3505050505050565b6000600160008473ffffffffffffffffffffffffffffffffffffffff1673ffffffffffffffffffffffffffffffffffffffff1681526020019081526020016000208281548110151561099f57fe5b906000526020600020906004020160020154905092915050565b6000600160008473ffffffffffffffffffffffffffffffffffffffff1673ffffffffffffffffffffffffffffffffffffffff16815260200190815260200160002082815481101515610a0757fe5b906000526020600020906004020160000154905092915050565b600080600080600160008873ffffffffffffffffffffffffffffffffffffffff1673ffffffffffffffffffffffffffffffffffffffff168152602001908152602001600020805490501415610a98577fffffffffffffffffffffffffffffffffffffffffffffffffffffffffffffffff9250610e9f565b6000600260008760001916600019168152602001908152602001600020805490501415610ae7577fffffffffffffffffffffffffffffffffffffffffffffffffffffffffffffffff9250610e9f565b600460009054906101000a900473ffffffffffffffffffffffffffffffffffffffff1673ffffffffffffffffffffffffffffffffffffffff16637ff8b20e6040518163ffffffff167c0100000000000000000000000000000000000000000000000000000000028152600401602060405180830381600087803b158015610b6d57600080fd5b505af1158015610b81573d6000803e3d6000fd5b505050506040513d6020811015610b9757600080fd5b810190808051906020019092919050505091506001840190505b600160008773ffffffffffffffffffffffffffffffffffffffff1673ffffffffffffffffffffffffffffffffffffffff16815260200190815260200160002080549050811015610e7b578460001916600160008873ffffffffffffffffffffffffffffffffffffffff1673ffffffffffffffffffffffffffffffffffffffff16815260200190815260200160002082815481101515610c4c57fe5b90600052602060002090600402016000015460001916148015610ccc57506000600160008873ffffffffffffffffffffffffffffffffffffffff1673ffffffffffffffffffffffffffffffffffffffff16815260200190815260200160002082815481101515610cb857fe5b906000526020600020906004020160030154145b8015610d345750600160008773ffffffffffffffffffffffffffffffffffffffff1673ffffffffffffffffffffffffffffffffffffffff16815260200190815260200160002081815481101515610d1f57fe5b90600052602060002090600402016001015482115b8015610e615750600460009054906101000a900473ffffffffffffffffffffffffffffffffffffffff1673ffffffffffffffffffffffffffffffffffffffff1663f733ad956040518163ffffffff167c0100000000000000000000000000000000000000000000000000000000028152600401602060405180830381600087803b158015610dc157600080fd5b505af1158015610dd5573d6000803e3d6000fd5b505050506040513d6020811015610deb57600080fd5b8101908080519060200190929190505050601e02600160008873ffffffffffffffffffffffffffffffffffffffff1673ffffffffffffffffffffffffffffffffffffffff16815260200190815260200160002082815481101515610e4b57fe5b9060005260206000209060040201600101548303115b15610e6e57809250610e9f565b8080600101915050610bb1565b7fffffffffffffffffffffffffffffffffffffffffffffffffffffffffffffffff92505b50509392505050565b60065481565b6000600160008473ffffffffffffffffffffffffffffffffffffffff1673ffffffffffffffffffffffffffffffffffffffff16815260200190815260200160002082815481101515610efc57fe5b906000526020600020906004020160010154905092915050565b6000809054906101000a900473ffffffffffffffffffffffffffffffffffffffff1673ffffffffffffffffffffffffffffffffffffffff163373ffffffffffffffffffffffffffffffffffffffff16141515610f7157600080fd5b6000809054906101000a900473ffffffffffffffffffffffffffffffffffffffff1673ffffffffffffffffffffffffffffffffffffffff167ff8df31144d9c2f0f6b59d69b8b98abd5459d07f2742c4df920b25aae33c6482060405160405180910390a260008060006101000a81548173ffffffffffffffffffffffffffffffffffffffff021916908373ffffffffffffffffffffffffffffffffffffffff160217905550565b6000809054906101000a900473ffffffffffffffffffffffffffffffffffffffff1681565b606060038054806020026020016040519081016040528092919081815260200182805480156110c157602002820191906000526020600020905b8160009054906101000a900473ffffffffffffffffffffffffffffffffffffffff1673ffffffffffffffffffffffffffffffffffffffff1681526020019060010190808311611077575b5050505050905090565b60006110d5611a9a565b600060606000806000808c73ffffffffffffffffffffffffffffffffffffffff161415151561110357600080fd5b60008a11151561111257600080fd5b60008811151561112157600080fd5b60008911151561113057600080fd5b600160008d73ffffffffffffffffffffffffffffffffffffffff1673ffffffffffffffffffffffffffffffffffffffff1681526020019081526020016000208b81548110151561117c57fe5b9060005260206000209060040201608060405190810160405290816000820154600019166000191681526020016001820154815260200160028201548152602001600382015481525050955089866020015111806111de575060008660600151115b156111ec5760009650611367565b6000945060026000876000015160001916600019168152602001908152602001600020805480602002602001604051908101604052809291908181526020016000905b8282101561129257838290600052602060002090600402016080604051908101604052908160008201546000191660001916815260200160018201548152602001600282015481526020016003820154815250508152602001906001019061122f565b505050509350600092505b835183101561130c5783838151811015156112b457fe5b9060200190602002015160200151915060008a8303101580156112d95750601e8a8303105b156112ff5783838151811015156112ec57fe5b9060200190602002015160400151850194505b828060010193505061129d565b611314611892565b905060008114806113255750600085145b80611334575060008660400151145b156113425760009650611367565b8560400151858960028c0a840281151561135857fe5b0481151561136257fe5b040296505b50505050505095945050505050565b6000809054906101000a900473ffffffffffffffffffffffffffffffffffffffff1673ffffffffffffffffffffffffffffffffffffffff163373ffffffffffffffffffffffffffffffffffffffff161415156113d157600080fd5b80600160008573ffffffffffffffffffffffffffffffffffffffff1673ffffffffffffffffffffffffffffffffffffffff1681526020019081526020016000208381548110151561141e57fe5b9060005260206000209060040201600301819055508273ffffffffffffffffffffffffffffffffffffffff167fe3a578db023c93c17a32f818b53100ba3479950e72d911afbee045639067f87f8383604051808381526020018281526020019250505060405180910390a2505050565b6000600160008473ffffffffffffffffffffffffffffffffffffffff1673ffffffffffffffffffffffffffffffffffffffff168152602001908152602001600020828154811015156114dc57fe5b906000526020600020906004020160030154905092915050565b6000600160008373ffffffffffffffffffffffffffffffffffffffff1673ffffffffffffffffffffffffffffffffffffffff168152602001908152602001600020805490509050919050565b6000809054906101000a900473ffffffffffffffffffffffffffffffffffffffff1673ffffffffffffffffffffffffffffffffffffffff163373ffffffffffffffffffffffffffffffffffffffff1614151561159d57600080fd5b60008273ffffffffffffffffffffffffffffffffffffffff16141580156115fc57506000600560009054906101000a900473ffffffffffffffffffffffffffffffffffffffff1673ffffffffffffffffffffffffffffffffffffffff16145b151561160757600080fd5b60008173ffffffffffffffffffffffffffffffffffffffff161415801561166657506000600460009054906101000a900473ffffffffffffffffffffffffffffffffffffffff1673ffffffffffffffffffffffffffffffffffffffff16145b151561167157600080fd5b81600560006101000a81548173ffffffffffffffffffffffffffffffffffffffff021916908373ffffffffffffffffffffffffffffffffffffffff16021790555080600460006101000a81548173ffffffffffffffffffffffffffffffffffffffff021916908373ffffffffffffffffffffffffffffffffffffffff160217905550600460009054906101000a900473ffffffffffffffffffffffffffffffffffffffff1673ffffffffffffffffffffffffffffffffffffffff1663c03812226040518163ffffffff167c0100000000000000000000000000000000000000000000000000000000028152600401602060405180830381600087803b15801561177957600080fd5b505af115801561178d573d6000803e3d6000fd5b505050506040513d60208110156117a357600080fd5b81019080805190602001909291905050506006819055507fe1aeefe9472a1e962f43c3127e6bfaffee0bb06ebab1b5bd3b2b3735e30d963a60065483604051808381526020018273ffffffffffffffffffffffffffffffffffffffff1673ffffffffffffffffffffffffffffffffffffffff1681526020019250505060405180910390a15050565b6000809054906101000a900473ffffffffffffffffffffffffffffffffffffffff1673ffffffffffffffffffffffffffffffffffffffff163373ffffffffffffffffffffffffffffffffffffffff1614151561188657600080fd5b61188f816119a0565b50565b60008060008060006006541115156118a957600080fd5b600460009054906101000a900473ffffffffffffffffffffffffffffffffffffffff1673ffffffffffffffffffffffffffffffffffffffff1663bc27787e6006546040518263ffffffff167c010000000000000000000000000000000000000000000000000000000002815260040180828152602001915050602060405180830381600087803b15801561193c57600080fd5b505af1158015611950573d6000803e3d6000fd5b505050506040513d602081101561196657600080fd5b8101908080519060200190929190505050925061012c9150620493e090508260020a600181151561199357fe5b0481830202935050505090565b600073ffffffffffffffffffffffffffffffffffffffff168173ffffffffffffffffffffffffffffffffffffffff16141515156119dc57600080fd5b8073ffffffffffffffffffffffffffffffffffffffff166000809054906101000a900473ffffffffffffffffffffffffffffffffffffffff1673ffffffffffffffffffffffffffffffffffffffff167f8be0079c531659141344cd1fd0a4f28419497f9722a3daafe3b4186f6b6457e060405160405180910390a3806000806101000a81548173ffffffffffffffffffffffffffffffffffffffff021916908373ffffffffffffffffffffffffffffffffffffffff16021790555050565b6080604051908101604052806000801916815260200160008152602001600081526020016000815250905600a165627a7a72305820f9053994eb43f56bbca7e4b04257507e279a290a4f3ed509a674c42d23d64b990029",
  "source": "pragma solidity ^0.4.24;\n\nimport \"./Deck.sol\";\nimport \"./Utility.sol\";\n\ncontract CuratorPool is Ownable {\n\n  event _InitializeCuratorPool(uint timestamp, address token);\n  event _AddVote(bytes32 indexed docId, uint timestamp, uint deposit, address indexed applicant, uint idx);\n  event _Withdraw(address indexed applicant, uint idx, uint withdraw);\n  //event _DetermineDeco(bytes32 indexed docId, uint cvd, uint tvd, uint pv, uint tpvs, uint drp);\n\n  struct Vote {\n    bytes32 docId;\n    uint startDate;\n    uint deposit;\n    uint withdraw;\n  }\n\n  // maps address to the curator's vote data\n  mapping (address => Vote[]) internal mapByAddr;\n\n  // maps docId to the curator's vote data\n  mapping (bytes32 => Vote[]) internal mapByDoc;\n\n  // key list for iteration\n  address[] private keys;\n\n  // private variables\n  Utility private util;\n  Deck private token;\n\n  // public variables\n  uint public createTime;\n\n  function init(address _token, address _utility) public\n    onlyOwner()\n  {\n    require(_token != 0 && address(token) == 0);\n    require(_utility != 0 && address(util) == 0);\n\n    token = Deck(_token);\n    util = Utility(_utility);\n\n    createTime = util.getTimeMillis();\n    emit _InitializeCuratorPool(createTime, _token);\n  }\n\n  // -------------------------------\n  // For iteration\n  // -------------------------------\n\n  // curator list for iteration\n  function getCurators() public view returns (address[]) {\n    return keys;\n  }\n\n  // -------------------------------\n  // Voting Information Functions\n  // -------------------------------\n\n  // adding a new vote\n  function addVote(address _curator, bytes32 _docId, uint _deposit) public\n    onlyOwner()\n  {\n    uint tMillis = util.getDateMillis();\n    Vote memory vote = Vote(_docId, tMillis, _deposit, 0);\n\n    uint idx = mapByAddr[_curator].push(vote);\n    mapByDoc[_docId].push(vote);\n\n    if (idx == 1) {\n      keys.push(_curator);\n    }\n\n    emit _AddVote(_docId, tMillis, _deposit, _curator, idx);\n  }\n\n  function withdraw(address _curator, uint _idx, uint _withdraw) public\n    onlyOwner()\n  {\n    mapByAddr[_curator][_idx].withdraw = _withdraw;\n    emit _Withdraw(_curator, _idx, _withdraw);\n  }\n\n  function getVoteCount(address _addr) public view returns (uint) {\n    return uint(mapByAddr[_addr].length);\n  }\n\n  function getDocId(address _addr, uint _idx) public view returns (bytes32) {\n    return mapByAddr[_addr][uint(_idx)].docId;\n  }\n\n  function getStartDate(address _addr, uint _idx) public view returns (uint) {\n    return mapByAddr[_addr][uint(_idx)].startDate;\n  }\n\n  function getDeposit(address _addr, uint _idx) public view returns (uint) {\n    return mapByAddr[_addr][uint(_idx)].deposit;\n  }\n\n  function getWithdraw(address _addr, uint _idx) public view returns (uint) {\n    return mapByAddr[_addr][uint(_idx)].withdraw;\n  }\n\n  // --------------------------------\n  // 특정 큐레이터가 명시된 문서에 투표한 vote 중에서 인출 가능한 항목을 찾아서 목록을 리턴하기\n  // --------------------------------\n  function indexOfNextVoteForClaim(address _addr, bytes32 _docId, uint _index) public view returns (int) {\n\n    if (mapByAddr[_addr].length == 0) {\n      return int(-1);\n    }\n\n    if (mapByDoc[_docId].length == 0) {\n      return int(-1);\n    }\n\n    // 1. 해당 큐레이터의 전체 vote 목록을 돌면서\n    //  a. 명시된 docuemnt에 대한 vote만 필터링\n    //  b. 이미 인출한 Vote 인지 검사\n    //  c. 시작한지 30일이 지났는지 검사 (인출 가능한지)\n    uint dateMillis = util.getDateMillis();\n    for (uint i=(_index+1); i<mapByAddr[_addr].length; i++) {\n      if ((mapByAddr[_addr][i].docId == _docId)\n       && (mapByAddr[_addr][i].withdraw == 0)\n       && (dateMillis > mapByAddr[_addr][i].startDate)\n       && (dateMillis - mapByAddr[_addr][i].startDate > 30 * util.getOneDayMillis())) {\n         return int(i);\n      }\n    }\n    return -1;\n  }\n\n  function determineDeco(address _addr, uint _idx, uint _dateMillis, uint _pv, uint _tpvs) public view returns (uint) {\n\n    require(_addr != 0);\n    require(_dateMillis > 0);\n    require(_tpvs > 0);\n    require(_pv > 0);\n\n    Vote memory vote = mapByAddr[_addr][_idx];\n\n    if (vote.startDate > _dateMillis || vote.withdraw > 0) {\n      return uint(0);\n    }\n\n    uint tvd = 0;\n    Vote[] memory voteTotalList = mapByDoc[vote.docId];\n    for (uint i=0; i<voteTotalList.length; i++) {\n      uint tmpStartDate = voteTotalList[i].startDate;\n      if (tmpStartDate - _dateMillis >= 0\n        && tmpStartDate - _dateMillis < 30) {\n        tvd += voteTotalList[i].deposit;\n      }\n    }\n\n    uint drp = getDailyRewardDeco();\n    if (drp == 0 || tvd == 0 || vote.deposit == 0) {\n      return uint(0);\n    }\n\n    //emit _DetermineDeco(vote.docId, vote.deposit, tvd, _pv, _tpvs, drp);\n\n    return (((drp * (_pv ** 2)) / _tpvs) / tvd) * vote.deposit;\n  }\n\n  function getDailyRewardDeco() private view returns (uint) {\n    require(createTime > 0);\n    uint offsetYears = util.getOffsetYears(createTime);\n    uint initialTokens = 300;\n    uint ratioDeco = 300 * 1000; // 30%\n    return initialTokens * ratioDeco * (1 / (2 ** offsetYears));\n  }\n\n}\n",
  "sourcePath": "/Users/centroine/Documents/github/bluebottle/contracts/CuratorPool.sol",
  "compiler": {
    "name": "solc",
    "version": "0.4.24+commit.e67f0147.Emscripten.clang"
  },
  "schemaVersion": "2.0.1",
  "updatedAt": "2018-10-16T08:55:33.675Z"
}