{
  "contractName": "CuratorPool",
  "abi": [
    {
      "constant": true,
      "inputs": [],
      "name": "createTime",
      "outputs": [
        {
          "name": "",
          "type": "uint256"
        }
      ],
      "payable": false,
      "stateMutability": "view",
      "type": "function"
    },
    {
      "constant": false,
      "inputs": [],
      "name": "renounceOwnership",
      "outputs": [],
      "payable": false,
      "stateMutability": "nonpayable",
      "type": "function"
    },
    {
      "constant": true,
      "inputs": [],
      "name": "owner",
      "outputs": [
        {
          "name": "",
          "type": "address"
        }
      ],
      "payable": false,
      "stateMutability": "view",
      "type": "function"
    },
    {
      "constant": false,
      "inputs": [
        {
          "name": "_newOwner",
          "type": "address"
        }
      ],
      "name": "transferOwnership",
      "outputs": [],
      "payable": false,
      "stateMutability": "nonpayable",
      "type": "function"
    },
    {
      "anonymous": false,
      "inputs": [
        {
          "indexed": false,
          "name": "timestamp",
          "type": "uint256"
        },
        {
          "indexed": false,
          "name": "token",
          "type": "address"
        }
      ],
      "name": "_InitializeCuratorPool",
      "type": "event"
    },
    {
      "anonymous": false,
      "inputs": [
        {
          "indexed": true,
          "name": "docId",
          "type": "bytes32"
        },
        {
          "indexed": false,
          "name": "timestamp",
          "type": "uint256"
        },
        {
          "indexed": false,
          "name": "deposit",
          "type": "uint256"
        },
        {
          "indexed": true,
          "name": "applicant",
          "type": "address"
        }
      ],
      "name": "_AddVote",
      "type": "event"
    },
    {
      "anonymous": false,
      "inputs": [
        {
          "indexed": true,
          "name": "docId",
          "type": "bytes32"
        },
        {
          "indexed": false,
          "name": "timestamp",
          "type": "uint256"
        },
        {
          "indexed": false,
          "name": "deposit",
          "type": "uint256"
        },
        {
          "indexed": true,
          "name": "applicant",
          "type": "address"
        }
      ],
      "name": "_UpdateVote",
      "type": "event"
    },
    {
      "anonymous": false,
      "inputs": [
        {
          "indexed": true,
          "name": "applicant",
          "type": "address"
        },
        {
          "indexed": false,
          "name": "idx",
          "type": "uint256"
        },
        {
          "indexed": false,
          "name": "withdraw",
          "type": "uint256"
        }
      ],
      "name": "_Withdraw",
      "type": "event"
    },
    {
      "anonymous": false,
      "inputs": [
        {
          "indexed": true,
          "name": "previousOwner",
          "type": "address"
        }
      ],
      "name": "OwnershipRenounced",
      "type": "event"
    },
    {
      "anonymous": false,
      "inputs": [
        {
          "indexed": true,
          "name": "previousOwner",
          "type": "address"
        },
        {
          "indexed": true,
          "name": "newOwner",
          "type": "address"
        }
      ],
      "name": "OwnershipTransferred",
      "type": "event"
    },
    {
      "constant": false,
      "inputs": [
        {
          "name": "_token",
          "type": "address"
        },
        {
          "name": "_utility",
          "type": "address"
        }
      ],
      "name": "init",
      "outputs": [],
      "payable": false,
      "stateMutability": "nonpayable",
      "type": "function"
    },
    {
      "constant": false,
      "inputs": [
        {
          "name": "_curator",
          "type": "address"
        },
        {
          "name": "_docId",
          "type": "bytes32"
        },
        {
          "name": "_deposit",
          "type": "uint256"
        }
      ],
      "name": "addVote",
      "outputs": [],
      "payable": false,
      "stateMutability": "nonpayable",
      "type": "function"
    },
    {
      "constant": false,
      "inputs": [
        {
          "name": "_curator",
          "type": "address"
        },
        {
          "name": "_docId",
          "type": "bytes32"
        },
        {
          "name": "_deposit",
          "type": "uint256"
        },
        {
          "name": "_timestamp",
          "type": "uint256"
        }
      ],
      "name": "updateVote",
      "outputs": [],
      "payable": false,
      "stateMutability": "nonpayable",
      "type": "function"
    },
    {
      "constant": false,
      "inputs": [
        {
          "name": "_curator",
          "type": "address"
        },
        {
          "name": "_idx",
          "type": "uint256"
        },
        {
          "name": "_withdraw",
          "type": "uint256"
        }
      ],
      "name": "withdraw",
      "outputs": [],
      "payable": false,
      "stateMutability": "nonpayable",
      "type": "function"
    },
    {
      "constant": true,
      "inputs": [
        {
          "name": "_addr",
          "type": "address"
        }
      ],
      "name": "getVoteCount",
      "outputs": [
        {
          "name": "",
          "type": "uint256"
        }
      ],
      "payable": false,
      "stateMutability": "view",
      "type": "function"
    },
    {
      "constant": true,
      "inputs": [
        {
          "name": "_addr",
          "type": "address"
        },
        {
          "name": "_idx",
          "type": "uint256"
        }
      ],
      "name": "getDocId",
      "outputs": [
        {
          "name": "",
          "type": "bytes32"
        }
      ],
      "payable": false,
      "stateMutability": "view",
      "type": "function"
    },
    {
      "constant": true,
      "inputs": [
        {
          "name": "_addr",
          "type": "address"
        },
        {
          "name": "_idx",
          "type": "uint256"
        }
      ],
      "name": "getStartDate",
      "outputs": [
        {
          "name": "",
          "type": "uint256"
        }
      ],
      "payable": false,
      "stateMutability": "view",
      "type": "function"
    },
    {
      "constant": true,
      "inputs": [
        {
          "name": "_addr",
          "type": "address"
        },
        {
          "name": "_idx",
          "type": "uint256"
        }
      ],
      "name": "getDeposit",
      "outputs": [
        {
          "name": "",
          "type": "uint256"
        }
      ],
      "payable": false,
      "stateMutability": "view",
      "type": "function"
    },
    {
      "constant": true,
      "inputs": [
        {
          "name": "_addr",
          "type": "address"
        },
        {
          "name": "_idx",
          "type": "uint256"
        }
      ],
      "name": "getWithdraw",
      "outputs": [
        {
          "name": "",
          "type": "uint256"
        }
      ],
      "payable": false,
      "stateMutability": "view",
      "type": "function"
    },
    {
      "constant": true,
      "inputs": [
        {
          "name": "_addr",
          "type": "address"
        },
        {
          "name": "_docId",
          "type": "bytes32"
        },
        {
          "name": "_index",
          "type": "uint256"
        }
      ],
      "name": "indexOfNextVoteForClaim",
      "outputs": [
        {
          "name": "",
          "type": "int256"
        }
      ],
      "payable": false,
      "stateMutability": "view",
      "type": "function"
    },
    {
      "constant": true,
      "inputs": [
        {
          "name": "_addr",
          "type": "address"
        },
        {
          "name": "_idx",
          "type": "uint256"
        },
        {
          "name": "_dateMillis",
          "type": "uint256"
        },
        {
          "name": "_pv",
          "type": "uint256"
        },
        {
          "name": "_tpvs",
          "type": "uint256"
        }
      ],
      "name": "determineReward",
      "outputs": [
        {
          "name": "",
          "type": "uint256"
        }
      ],
      "payable": false,
      "stateMutability": "view",
      "type": "function"
    }
  ],
  "bytecode": "0x6080604052336000806101000a81548173ffffffffffffffffffffffffffffffffffffffff021916908373ffffffffffffffffffffffffffffffffffffffff160217905550611ba4806100536000396000f3006080604052600436106100db576000357c0100000000000000000000000000000000000000000000000000000000900463ffffffff16806302096d83146100e05780632726b5061461013b57806332c658b11461019c5780633b7aecf7146102055780633c8740d81461027457806361dcd7ab146102f35780636a34a4cb1461031e578063715018a61461037f5780638da5cb5b14610396578063b5c5f672146103ed578063b8122eac14610444578063da360541146104a9578063e652f4cc1461050a578063f09a401614610561578063f2fde38b146105c4575b600080fd5b3480156100ec57600080fd5b50610139600480360381019080803573ffffffffffffffffffffffffffffffffffffffff169060200190929190803560001916906020019092919080359060200190929190505050610607565b005b34801561014757600080fd5b50610186600480360381019080803573ffffffffffffffffffffffffffffffffffffffff169060200190929190803590602001909291905050506108ce565b6040518082815260200191505060405180910390f35b3480156101a857600080fd5b506101e7600480360381019080803573ffffffffffffffffffffffffffffffffffffffff16906020019092919080359060200190929190505050610936565b60405180826000191660001916815260200191505060405180910390f35b34801561021157600080fd5b5061025e600480360381019080803573ffffffffffffffffffffffffffffffffffffffff16906020019092919080356000191690602001909291908035906020019092919050505061099e565b6040518082815260200191505060405180910390f35b34801561028057600080fd5b506102dd600480360381019080803573ffffffffffffffffffffffffffffffffffffffff16906020019092919080359060200190929190803590602001909291908035906020019092919080359060200190929190505050610e25565b6040518082815260200191505060405180910390f35b3480156102ff57600080fd5b5061030861119f565b6040518082815260200191505060405180910390f35b34801561032a57600080fd5b50610369600480360381019080803573ffffffffffffffffffffffffffffffffffffffff169060200190929190803590602001909291905050506111a5565b6040518082815260200191505060405180910390f35b34801561038b57600080fd5b5061039461120d565b005b3480156103a257600080fd5b506103ab61130f565b604051808273ffffffffffffffffffffffffffffffffffffffff1673ffffffffffffffffffffffffffffffffffffffff16815260200191505060405180910390f35b3480156103f957600080fd5b50610442600480360381019080803573ffffffffffffffffffffffffffffffffffffffff1690602001909291908035906020019092919080359060200190929190505050611334565b005b34801561045057600080fd5b506104a7600480360381019080803573ffffffffffffffffffffffffffffffffffffffff1690602001909291908035600019169060200190929190803590602001909291908035906020019092919050505061144c565b005b3480156104b557600080fd5b506104f4600480360381019080803573ffffffffffffffffffffffffffffffffffffffff1690602001909291908035906020019092919050505061164e565b6040518082815260200191505060405180910390f35b34801561051657600080fd5b5061054b600480360381019080803573ffffffffffffffffffffffffffffffffffffffff1690602001909291905050506116b6565b6040518082815260200191505060405180910390f35b34801561056d57600080fd5b506105c2600480360381019080803573ffffffffffffffffffffffffffffffffffffffff169060200190929190803573ffffffffffffffffffffffffffffffffffffffff169060200190929190505050611702565b005b3480156105d057600080fd5b50610605600480360381019080803573ffffffffffffffffffffffffffffffffffffffff1690602001909291905050506119eb565b005b6000610611611b4c565b6000809054906101000a900473ffffffffffffffffffffffffffffffffffffffff1673ffffffffffffffffffffffffffffffffffffffff163373ffffffffffffffffffffffffffffffffffffffff1614151561066c57600080fd5b600360009054906101000a900473ffffffffffffffffffffffffffffffffffffffff1673ffffffffffffffffffffffffffffffffffffffff16637ff8b20e6040518163ffffffff167c0100000000000000000000000000000000000000000000000000000000028152600401602060405180830381600087803b1580156106f257600080fd5b505af1158015610706573d6000803e3d6000fd5b505050506040513d602081101561071c57600080fd5b810190808051906020019092919050505091506080604051908101604052808560001916815260200183815260200184815260200160008152509050600160008673ffffffffffffffffffffffffffffffffffffffff1673ffffffffffffffffffffffffffffffffffffffff1681526020019081526020016000208190806001815401808255809150509060018203906000526020600020906004020160009091929091909150600082015181600001906000191690556020820151816001015560408201518160020155606082015181600301555050506002600085600019166000191681526020019081526020016000208190806001815401808255809150509060018203906000526020600020906004020160009091929091909150600082015181600001906000191690556020820151816001015560408201518160020155606082015181600301555050508473ffffffffffffffffffffffffffffffffffffffff1684600019167f879d4a2c015ee414e9d66796e6ac8c117c1fb47d9bb5e73eb0d2303f4e45ecd78486604051808381526020018281526020019250505060405180910390a35050505050565b6000600160008473ffffffffffffffffffffffffffffffffffffffff1673ffffffffffffffffffffffffffffffffffffffff1681526020019081526020016000208281548110151561091c57fe5b906000526020600020906004020160020154905092915050565b6000600160008473ffffffffffffffffffffffffffffffffffffffff1673ffffffffffffffffffffffffffffffffffffffff1681526020019081526020016000208281548110151561098457fe5b906000526020600020906004020160000154905092915050565b600080600080600160008873ffffffffffffffffffffffffffffffffffffffff1673ffffffffffffffffffffffffffffffffffffffff168152602001908152602001600020805490501415610a15577fffffffffffffffffffffffffffffffffffffffffffffffffffffffffffffffff9250610e1c565b6000600260008760001916600019168152602001908152602001600020805490501415610a64577fffffffffffffffffffffffffffffffffffffffffffffffffffffffffffffffff9250610e1c565b600360009054906101000a900473ffffffffffffffffffffffffffffffffffffffff1673ffffffffffffffffffffffffffffffffffffffff16637ff8b20e6040518163ffffffff167c0100000000000000000000000000000000000000000000000000000000028152600401602060405180830381600087803b158015610aea57600080fd5b505af1158015610afe573d6000803e3d6000fd5b505050506040513d6020811015610b1457600080fd5b810190808051906020019092919050505091506001840190505b600160008773ffffffffffffffffffffffffffffffffffffffff1673ffffffffffffffffffffffffffffffffffffffff16815260200190815260200160002080549050811015610df8578460001916600160008873ffffffffffffffffffffffffffffffffffffffff1673ffffffffffffffffffffffffffffffffffffffff16815260200190815260200160002082815481101515610bc957fe5b90600052602060002090600402016000015460001916148015610c4957506000600160008873ffffffffffffffffffffffffffffffffffffffff1673ffffffffffffffffffffffffffffffffffffffff16815260200190815260200160002082815481101515610c3557fe5b906000526020600020906004020160030154145b8015610cb15750600160008773ffffffffffffffffffffffffffffffffffffffff1673ffffffffffffffffffffffffffffffffffffffff16815260200190815260200160002081815481101515610c9c57fe5b90600052602060002090600402016001015482115b8015610dde5750600360009054906101000a900473ffffffffffffffffffffffffffffffffffffffff1673ffffffffffffffffffffffffffffffffffffffff1663f733ad956040518163ffffffff167c0100000000000000000000000000000000000000000000000000000000028152600401602060405180830381600087803b158015610d3e57600080fd5b505af1158015610d52573d6000803e3d6000fd5b505050506040513d6020811015610d6857600080fd5b8101908080519060200190929190505050601e02600160008873ffffffffffffffffffffffffffffffffffffffff1673ffffffffffffffffffffffffffffffffffffffff16815260200190815260200160002082815481101515610dc857fe5b9060005260206000209060040201600101548303115b15610deb57809250610e1c565b8080600101915050610b2e565b7fffffffffffffffffffffffffffffffffffffffffffffffffffffffffffffffff92505b50509392505050565b6000610e2f611b4c565b600060606000806000808c73ffffffffffffffffffffffffffffffffffffffff1614151515610e5d57600080fd5b60008a111515610e6c57600080fd5b600088111515610e7b57600080fd5b600089111515610e8a57600080fd5b600160008d73ffffffffffffffffffffffffffffffffffffffff1673ffffffffffffffffffffffffffffffffffffffff1681526020019081526020016000208b815481101515610ed657fe5b906000526020600020906004020160806040519081016040529081600082015460001916600019168152602001600182015481526020016002820154815260200160038201548152505095508986602001511180610f38575060008660600151115b15610f465760009650611190565b6000945060026000876000015160001916600019168152602001908152602001600020805480602002602001604051908101604052809291908181526020016000905b82821015610fec578382906000526020600020906004020160806040519081016040529081600082015460001916600019168152602001600182015481526020016002820154815260200160038201548152505081526020019060010190610f89565b505050509350600092505b835183101561106657838381518110151561100e57fe5b9060200190602002015160200151915060008a8303101580156110335750601e8a8303105b1561105957838381518110151561104657fe5b9060200190602002015160400151850194505b8280600101935050610ff7565b600360009054906101000a900473ffffffffffffffffffffffffffffffffffffffff1673ffffffffffffffffffffffffffffffffffffffff1663dcb8e506601e6005546040518363ffffffff167c01000000000000000000000000000000000000000000000000000000000281526004018083815260200182815260200192505050602060405180830381600087803b15801561110257600080fd5b505af1158015611116573d6000803e3d6000fd5b505050506040513d602081101561112c57600080fd5b81019080805190602001909291905050509050600081148061114e5750600085145b8061115d575060008660400151145b1561116b5760009650611190565b8560400151858960028c0a840281151561118157fe5b0481151561118b57fe5b040296505b50505050505095945050505050565b60055481565b6000600160008473ffffffffffffffffffffffffffffffffffffffff1673ffffffffffffffffffffffffffffffffffffffff168152602001908152602001600020828154811015156111f357fe5b906000526020600020906004020160010154905092915050565b6000809054906101000a900473ffffffffffffffffffffffffffffffffffffffff1673ffffffffffffffffffffffffffffffffffffffff163373ffffffffffffffffffffffffffffffffffffffff1614151561126857600080fd5b6000809054906101000a900473ffffffffffffffffffffffffffffffffffffffff1673ffffffffffffffffffffffffffffffffffffffff167ff8df31144d9c2f0f6b59d69b8b98abd5459d07f2742c4df920b25aae33c6482060405160405180910390a260008060006101000a81548173ffffffffffffffffffffffffffffffffffffffff021916908373ffffffffffffffffffffffffffffffffffffffff160217905550565b6000809054906101000a900473ffffffffffffffffffffffffffffffffffffffff1681565b6000809054906101000a900473ffffffffffffffffffffffffffffffffffffffff1673ffffffffffffffffffffffffffffffffffffffff163373ffffffffffffffffffffffffffffffffffffffff1614151561138f57600080fd5b80600160008573ffffffffffffffffffffffffffffffffffffffff1673ffffffffffffffffffffffffffffffffffffffff168152602001908152602001600020838154811015156113dc57fe5b9060005260206000209060040201600301819055508273ffffffffffffffffffffffffffffffffffffffff167fe3a578db023c93c17a32f818b53100ba3479950e72d911afbee045639067f87f8383604051808381526020018281526020019250505060405180910390a2505050565b611454611b4c565b6000809054906101000a900473ffffffffffffffffffffffffffffffffffffffff1673ffffffffffffffffffffffffffffffffffffffff163373ffffffffffffffffffffffffffffffffffffffff161415156114af57600080fd5b6080604051908101604052808560001916815260200183815260200184815260200160008152509050600160008673ffffffffffffffffffffffffffffffffffffffff1673ffffffffffffffffffffffffffffffffffffffff1681526020019081526020016000208190806001815401808255809150509060018203906000526020600020906004020160009091929091909150600082015181600001906000191690556020820151816001015560408201518160020155606082015181600301555050506002600085600019166000191681526020019081526020016000208190806001815401808255809150509060018203906000526020600020906004020160009091929091909150600082015181600001906000191690556020820151816001015560408201518160020155606082015181600301555050508473ffffffffffffffffffffffffffffffffffffffff1684600019167f4c0ed8d7373691c3c3e6b0742d192e715f50c11b05949c729ed17e7af7fb6d2c8486604051808381526020018281526020019250505060405180910390a35050505050565b6000600160008473ffffffffffffffffffffffffffffffffffffffff1673ffffffffffffffffffffffffffffffffffffffff1681526020019081526020016000208281548110151561169c57fe5b906000526020600020906004020160030154905092915050565b6000600160008373ffffffffffffffffffffffffffffffffffffffff1673ffffffffffffffffffffffffffffffffffffffff168152602001908152602001600020805490509050919050565b6000809054906101000a900473ffffffffffffffffffffffffffffffffffffffff1673ffffffffffffffffffffffffffffffffffffffff163373ffffffffffffffffffffffffffffffffffffffff1614151561175d57600080fd5b60008273ffffffffffffffffffffffffffffffffffffffff16141580156117bc57506000600460009054906101000a900473ffffffffffffffffffffffffffffffffffffffff1673ffffffffffffffffffffffffffffffffffffffff16145b15156117c757600080fd5b60008173ffffffffffffffffffffffffffffffffffffffff161415801561182657506000600360009054906101000a900473ffffffffffffffffffffffffffffffffffffffff1673ffffffffffffffffffffffffffffffffffffffff16145b151561183157600080fd5b81600460006101000a81548173ffffffffffffffffffffffffffffffffffffffff021916908373ffffffffffffffffffffffffffffffffffffffff16021790555080600360006101000a81548173ffffffffffffffffffffffffffffffffffffffff021916908373ffffffffffffffffffffffffffffffffffffffff160217905550600360009054906101000a900473ffffffffffffffffffffffffffffffffffffffff1673ffffffffffffffffffffffffffffffffffffffff1663c03812226040518163ffffffff167c0100000000000000000000000000000000000000000000000000000000028152600401602060405180830381600087803b15801561193957600080fd5b505af115801561194d573d6000803e3d6000fd5b505050506040513d602081101561196357600080fd5b81019080805190602001909291905050506005819055507fe1aeefe9472a1e962f43c3127e6bfaffee0bb06ebab1b5bd3b2b3735e30d963a60055483604051808381526020018273ffffffffffffffffffffffffffffffffffffffff1673ffffffffffffffffffffffffffffffffffffffff1681526020019250505060405180910390a15050565b6000809054906101000a900473ffffffffffffffffffffffffffffffffffffffff1673ffffffffffffffffffffffffffffffffffffffff163373ffffffffffffffffffffffffffffffffffffffff16141515611a4657600080fd5b611a4f81611a52565b50565b600073ffffffffffffffffffffffffffffffffffffffff168173ffffffffffffffffffffffffffffffffffffffff1614151515611a8e57600080fd5b8073ffffffffffffffffffffffffffffffffffffffff166000809054906101000a900473ffffffffffffffffffffffffffffffffffffffff1673ffffffffffffffffffffffffffffffffffffffff167f8be0079c531659141344cd1fd0a4f28419497f9722a3daafe3b4186f6b6457e060405160405180910390a3806000806101000a81548173ffffffffffffffffffffffffffffffffffffffff021916908373ffffffffffffffffffffffffffffffffffffffff16021790555050565b6080604051908101604052806000801916815260200160008152602001600081526020016000815250905600a165627a7a723058209555161ca5a13a51a3e6589c0f6617ae65e1b9c6e36609402ba8dbc3e170c1110029",
  "source": "pragma solidity ^0.4.24;\n\nimport \"./Deck.sol\";\nimport \"./Utility.sol\";\n\ncontract CuratorPool is Ownable {\n\n  event _InitializeCuratorPool(uint timestamp, address token);\n  event _AddVote(bytes32 indexed docId, uint timestamp, uint deposit, address indexed applicant);\n  event _UpdateVote(bytes32 indexed docId, uint timestamp, uint deposit, address indexed applicant);\n  event _Withdraw(address indexed applicant, uint idx, uint withdraw);\n  //event _DetermineReward(bytes32 indexed docId, uint cvd, uint tvd, uint pv, uint tpvs, uint drp);\n\n  struct Vote {\n    bytes32 docId;\n    uint startDate;\n    uint deposit;\n    uint withdraw;\n  }\n\n  // maps address to the curator's vote data\n  mapping (address => Vote[]) internal mapByAddr;\n\n  // maps docId to the curator's vote data\n  mapping (bytes32 => Vote[]) internal mapByDoc;\n\n  // key list for iteration\n  //address[] private keys;\n\n  // private variables\n  Utility private util;\n  Deck private token;\n\n  // public variables\n  uint public createTime;\n\n  function init(address _token, address _utility) public\n    onlyOwner()\n  {\n    require(_token != 0 && address(token) == 0);\n    require(_utility != 0 && address(util) == 0);\n\n    token = Deck(_token);\n    util = Utility(_utility);\n\n    createTime = util.getTimeMillis();\n    emit _InitializeCuratorPool(createTime, _token);\n  }\n\n  // -------------------------------\n  // For iteration\n  // -------------------------------\n\n  // curator list for iteration\n  //function getCurators() public view returns (address[]) {\n  //  return keys;\n  //}\n\n  // -------------------------------\n  // Voting Information Functions\n  // -------------------------------\n\n  // adding a new vote\n  function addVote(address _curator, bytes32 _docId, uint _deposit) public\n    onlyOwner()\n  {\n    uint dateMillis = util.getDateMillis();\n    Vote memory vote = Vote(_docId, dateMillis, _deposit, 0);\n\n    mapByAddr[_curator].push(vote);\n    mapByDoc[_docId].push(vote);\n\n    //if (mapByAddr[_curator].length == 1) {\n    //  keys.push(_curator);\n    //}\n\n    emit _AddVote(_docId, dateMillis, _deposit, _curator);\n  }\n\n  function updateVote(address _curator, bytes32 _docId, uint _deposit, uint _timestamp) public\n    onlyOwner()\n  {\n    Vote memory vote = Vote(_docId, _timestamp, _deposit, 0);\n\n    mapByAddr[_curator].push(vote);\n    mapByDoc[_docId].push(vote);\n\n    //if (idx == 1) {\n    //  keys.push(_curator);\n    //}\n\n    emit _UpdateVote(_docId, _timestamp, _deposit, _curator);\n  }\n\n  function withdraw(address _curator, uint _idx, uint _withdraw) public\n    onlyOwner()\n  {\n    mapByAddr[_curator][_idx].withdraw = _withdraw;\n    emit _Withdraw(_curator, _idx, _withdraw);\n  }\n\n  function getVoteCount(address _addr) public view returns (uint) {\n    return uint(mapByAddr[_addr].length);\n  }\n\n  function getDocId(address _addr, uint _idx) public view returns (bytes32) {\n    return mapByAddr[_addr][uint(_idx)].docId;\n  }\n\n  function getStartDate(address _addr, uint _idx) public view returns (uint) {\n    return mapByAddr[_addr][uint(_idx)].startDate;\n  }\n\n  function getDeposit(address _addr, uint _idx) public view returns (uint) {\n    return mapByAddr[_addr][uint(_idx)].deposit;\n  }\n\n  function getWithdraw(address _addr, uint _idx) public view returns (uint) {\n    return mapByAddr[_addr][uint(_idx)].withdraw;\n  }\n\n  // --------------------------------\n  // 특정 큐레이터가 명시된 문서에 투표한 vote 중에서 인출 가능한 항목을 찾아서 목록을 리턴하기\n  // --------------------------------\n  function indexOfNextVoteForClaim(address _addr, bytes32 _docId, uint _index) public view returns (int) {\n\n    if (mapByAddr[_addr].length == 0) {\n      return int(-1);\n    }\n\n    if (mapByDoc[_docId].length == 0) {\n      return int(-1);\n    }\n\n    // 1. 해당 큐레이터의 전체 vote 목록을 돌면서\n    //  a. 명시된 docuemnt에 대한 vote만 필터링\n    //  b. 이미 인출한 Vote 인지 검사\n    //  c. 시작한지 30일이 지났는지 검사 (인출 가능한지)\n    uint dateMillis = util.getDateMillis();\n    for (uint i=(_index+1); i<mapByAddr[_addr].length; i++) {\n      if ((mapByAddr[_addr][i].docId == _docId)\n       && (mapByAddr[_addr][i].withdraw == 0)\n       && (dateMillis > mapByAddr[_addr][i].startDate)\n       && (dateMillis - mapByAddr[_addr][i].startDate > 30 * util.getOneDayMillis())) {\n         return int(i);\n      }\n    }\n    return -1;\n  }\n\n  function determineReward(address _addr, uint _idx, uint _dateMillis, uint _pv, uint _tpvs) public view returns (uint) {\n\n    require(_addr != 0);\n    require(_dateMillis > 0);\n    require(_tpvs > 0);\n    require(_pv > 0);\n\n    Vote memory vote = mapByAddr[_addr][_idx];\n\n    if (vote.startDate > _dateMillis || vote.withdraw > 0) {\n      return uint(0);\n    }\n\n    uint tvd = 0;\n    Vote[] memory voteTotalList = mapByDoc[vote.docId];\n    for (uint i=0; i<voteTotalList.length; i++) {\n      uint tmpStartDate = voteTotalList[i].startDate;\n      if (tmpStartDate - _dateMillis >= 0\n        && tmpStartDate - _dateMillis < 30) {\n        tvd += voteTotalList[i].deposit;\n      }\n    }\n\n    uint drp = util.getDailyRewardPool(uint(30), createTime);\n    if (drp == 0 || tvd == 0 || vote.deposit == 0) {\n      return uint(0);\n    }\n\n    //emit _DetermineReward(vote.docId, vote.deposit, tvd, _pv, _tpvs, drp);\n\n    return uint(uint((drp * (_pv ** 2)) / _tpvs) / tvd) * vote.deposit;\n  }\n\n}\n",
  "sourcePath": "/Users/centroine/Documents/github/bluebottle/contracts/CuratorPool.sol",
  "compiler": {
    "name": "solc",
    "version": "0.4.24+commit.e67f0147.Emscripten.clang"
  },
  "schemaVersion": "2.0.1",
  "updatedAt": "2018-10-17T12:02:53.736Z"
}