{
  "contractName": "DocumentReg",
  "abi": [
    {
      "constant": true,
      "inputs": [],
      "name": "createTime",
      "outputs": [
        {
          "name": "",
          "type": "uint256"
        }
      ],
      "payable": false,
      "stateMutability": "view",
      "type": "function"
    },
    {
      "constant": false,
      "inputs": [],
      "name": "renounceOwnership",
      "outputs": [],
      "payable": false,
      "stateMutability": "nonpayable",
      "type": "function"
    },
    {
      "constant": true,
      "inputs": [],
      "name": "owner",
      "outputs": [
        {
          "name": "",
          "type": "address"
        }
      ],
      "payable": false,
      "stateMutability": "view",
      "type": "function"
    },
    {
      "constant": false,
      "inputs": [
        {
          "name": "_newOwner",
          "type": "address"
        }
      ],
      "name": "transferOwnership",
      "outputs": [],
      "payable": false,
      "stateMutability": "nonpayable",
      "type": "function"
    },
    {
      "anonymous": false,
      "inputs": [
        {
          "indexed": false,
          "name": "timestamp",
          "type": "uint256"
        },
        {
          "indexed": false,
          "name": "token",
          "type": "address"
        }
      ],
      "name": "_InitializeDocumentReg",
      "type": "event"
    },
    {
      "anonymous": false,
      "inputs": [
        {
          "indexed": true,
          "name": "docId",
          "type": "bytes32"
        },
        {
          "indexed": false,
          "name": "timestamp",
          "type": "uint256"
        },
        {
          "indexed": true,
          "name": "applicant",
          "type": "address"
        },
        {
          "indexed": false,
          "name": "count",
          "type": "uint256"
        }
      ],
      "name": "_RegisterNewDocument",
      "type": "event"
    },
    {
      "anonymous": false,
      "inputs": [
        {
          "indexed": true,
          "name": "docId",
          "type": "bytes32"
        },
        {
          "indexed": false,
          "name": "timestamp",
          "type": "uint256"
        },
        {
          "indexed": false,
          "name": "pageView",
          "type": "uint256"
        }
      ],
      "name": "_ConfirmPageView",
      "type": "event"
    },
    {
      "anonymous": false,
      "inputs": [
        {
          "indexed": false,
          "name": "timestamp",
          "type": "uint256"
        },
        {
          "indexed": false,
          "name": "pageView",
          "type": "uint256"
        },
        {
          "indexed": false,
          "name": "pageViewSquare",
          "type": "uint256"
        }
      ],
      "name": "_ConfirmTotalPageView",
      "type": "event"
    },
    {
      "anonymous": false,
      "inputs": [
        {
          "indexed": true,
          "name": "docId",
          "type": "bytes32"
        },
        {
          "indexed": false,
          "name": "deposit",
          "type": "uint256"
        },
        {
          "indexed": true,
          "name": "applicant",
          "type": "address"
        }
      ],
      "name": "_VoteOnDocument",
      "type": "event"
    },
    {
      "anonymous": false,
      "inputs": [
        {
          "indexed": true,
          "name": "docId",
          "type": "bytes32"
        },
        {
          "indexed": false,
          "name": "deco",
          "type": "uint256"
        },
        {
          "indexed": true,
          "name": "applicant",
          "type": "address"
        }
      ],
      "name": "_ClaimAuthorDeco",
      "type": "event"
    },
    {
      "anonymous": false,
      "inputs": [
        {
          "indexed": true,
          "name": "docId",
          "type": "bytes32"
        },
        {
          "indexed": false,
          "name": "deco",
          "type": "uint256"
        },
        {
          "indexed": true,
          "name": "applicant",
          "type": "address"
        }
      ],
      "name": "_ClaimCuratorDeco",
      "type": "event"
    },
    {
      "anonymous": false,
      "inputs": [
        {
          "indexed": true,
          "name": "previousOwner",
          "type": "address"
        }
      ],
      "name": "OwnershipRenounced",
      "type": "event"
    },
    {
      "anonymous": false,
      "inputs": [
        {
          "indexed": true,
          "name": "previousOwner",
          "type": "address"
        },
        {
          "indexed": true,
          "name": "newOwner",
          "type": "address"
        }
      ],
      "name": "OwnershipTransferred",
      "type": "event"
    },
    {
      "constant": false,
      "inputs": [
        {
          "name": "_token",
          "type": "address"
        },
        {
          "name": "_author",
          "type": "address"
        },
        {
          "name": "_curator",
          "type": "address"
        },
        {
          "name": "_utility",
          "type": "address"
        }
      ],
      "name": "init",
      "outputs": [],
      "payable": false,
      "stateMutability": "nonpayable",
      "type": "function"
    },
    {
      "constant": false,
      "inputs": [
        {
          "name": "_docId",
          "type": "bytes32"
        }
      ],
      "name": "register",
      "outputs": [],
      "payable": false,
      "stateMutability": "nonpayable",
      "type": "function"
    },
    {
      "constant": true,
      "inputs": [
        {
          "name": "_docId",
          "type": "bytes32"
        }
      ],
      "name": "contains",
      "outputs": [
        {
          "name": "",
          "type": "bool"
        }
      ],
      "payable": false,
      "stateMutability": "view",
      "type": "function"
    },
    {
      "constant": true,
      "inputs": [
        {
          "name": "_docId",
          "type": "bytes32"
        }
      ],
      "name": "getAuthorByKey",
      "outputs": [
        {
          "name": "",
          "type": "address"
        }
      ],
      "payable": false,
      "stateMutability": "view",
      "type": "function"
    },
    {
      "constant": true,
      "inputs": [
        {
          "name": "_docId",
          "type": "bytes32"
        }
      ],
      "name": "getCreateTimeByKey",
      "outputs": [
        {
          "name": "",
          "type": "uint256"
        }
      ],
      "payable": false,
      "stateMutability": "view",
      "type": "function"
    },
    {
      "constant": true,
      "inputs": [],
      "name": "count",
      "outputs": [
        {
          "name": "",
          "type": "uint256"
        }
      ],
      "payable": false,
      "stateMutability": "view",
      "type": "function"
    },
    {
      "constant": true,
      "inputs": [],
      "name": "getDocuments",
      "outputs": [
        {
          "name": "",
          "type": "bytes32[]"
        }
      ],
      "payable": false,
      "stateMutability": "view",
      "type": "function"
    },
    {
      "constant": false,
      "inputs": [
        {
          "name": "_date",
          "type": "uint256"
        },
        {
          "name": "_totalPageView",
          "type": "uint256"
        },
        {
          "name": "_totalPageViewSquare",
          "type": "uint256"
        }
      ],
      "name": "confirmTotalPageView",
      "outputs": [],
      "payable": false,
      "stateMutability": "nonpayable",
      "type": "function"
    },
    {
      "constant": true,
      "inputs": [
        {
          "name": "_date",
          "type": "uint256"
        }
      ],
      "name": "getTotalPageView",
      "outputs": [
        {
          "name": "",
          "type": "uint256"
        }
      ],
      "payable": false,
      "stateMutability": "view",
      "type": "function"
    },
    {
      "constant": true,
      "inputs": [
        {
          "name": "_date",
          "type": "uint256"
        }
      ],
      "name": "getTotalPageViewSquare",
      "outputs": [
        {
          "name": "",
          "type": "uint256"
        }
      ],
      "payable": false,
      "stateMutability": "view",
      "type": "function"
    },
    {
      "constant": false,
      "inputs": [
        {
          "name": "_docId",
          "type": "bytes32"
        },
        {
          "name": "_date",
          "type": "uint256"
        },
        {
          "name": "_pageView",
          "type": "uint256"
        }
      ],
      "name": "confirmPageView",
      "outputs": [],
      "payable": false,
      "stateMutability": "nonpayable",
      "type": "function"
    },
    {
      "constant": true,
      "inputs": [
        {
          "name": "_docId",
          "type": "bytes32"
        },
        {
          "name": "_date",
          "type": "uint256"
        }
      ],
      "name": "getPageView",
      "outputs": [
        {
          "name": "",
          "type": "uint256"
        }
      ],
      "payable": false,
      "stateMutability": "view",
      "type": "function"
    },
    {
      "constant": true,
      "inputs": [
        {
          "name": "_docId",
          "type": "bytes32"
        }
      ],
      "name": "determineAuthorDeco",
      "outputs": [
        {
          "name": "",
          "type": "uint256"
        }
      ],
      "payable": false,
      "stateMutability": "view",
      "type": "function"
    },
    {
      "constant": true,
      "inputs": [
        {
          "name": "_addr",
          "type": "address"
        },
        {
          "name": "_docId",
          "type": "bytes32"
        }
      ],
      "name": "determineAuthorDeco",
      "outputs": [
        {
          "name": "",
          "type": "uint256"
        }
      ],
      "payable": false,
      "stateMutability": "view",
      "type": "function"
    },
    {
      "constant": false,
      "inputs": [
        {
          "name": "_docId",
          "type": "bytes32"
        }
      ],
      "name": "claimAuthorDeco",
      "outputs": [],
      "payable": false,
      "stateMutability": "nonpayable",
      "type": "function"
    },
    {
      "constant": true,
      "inputs": [
        {
          "name": "_docId",
          "type": "bytes32"
        }
      ],
      "name": "estimateCuratorDeco",
      "outputs": [
        {
          "name": "",
          "type": "uint256"
        }
      ],
      "payable": false,
      "stateMutability": "view",
      "type": "function"
    },
    {
      "constant": true,
      "inputs": [
        {
          "name": "_addr",
          "type": "address"
        },
        {
          "name": "_docId",
          "type": "bytes32"
        }
      ],
      "name": "estimateCuratorDeco",
      "outputs": [
        {
          "name": "",
          "type": "uint256"
        }
      ],
      "payable": false,
      "stateMutability": "view",
      "type": "function"
    },
    {
      "constant": true,
      "inputs": [
        {
          "name": "_addr",
          "type": "address"
        },
        {
          "name": "_docId",
          "type": "bytes32"
        }
      ],
      "name": "determineCuratorDeco",
      "outputs": [
        {
          "name": "",
          "type": "uint256"
        }
      ],
      "payable": false,
      "stateMutability": "view",
      "type": "function"
    },
    {
      "constant": true,
      "inputs": [
        {
          "name": "_docId",
          "type": "bytes32"
        }
      ],
      "name": "determineCuratorDeco",
      "outputs": [
        {
          "name": "",
          "type": "uint256"
        }
      ],
      "payable": false,
      "stateMutability": "view",
      "type": "function"
    },
    {
      "constant": false,
      "inputs": [
        {
          "name": "_docId",
          "type": "bytes32"
        }
      ],
      "name": "claimCuratorDeco",
      "outputs": [],
      "payable": false,
      "stateMutability": "nonpayable",
      "type": "function"
    },
    {
      "constant": false,
      "inputs": [
        {
          "name": "_docId",
          "type": "bytes32"
        },
        {
          "name": "_deposit",
          "type": "uint256"
        }
      ],
      "name": "voteOnDocument",
      "outputs": [],
      "payable": false,
      "stateMutability": "nonpayable",
      "type": "function"
    }
  ],
  "bytecode": "0x6080604052336000806101000a81548173ffffffffffffffffffffffffffffffffffffffff021916908373ffffffffffffffffffffffffffffffffffffffff1602179055506141c3806100536000396000f300608060405260043610610149576000357c0100000000000000000000000000000000000000000000000000000000900463ffffffff168063063580081461014e57806306552ff31461019357806306661abd146102365780630af9d50c146102615780631448692c146102c657806314766128146102f75780631d1a696d146103325780632f50b02c1461037b5780634c9d31ca146103c057806361dcd7ab1461040f5780637006f10c1461043a578063715018a61461049f5780637ca36b94146104b65780638da5cb5b146104f757806391275d411461054e578063999d6bf414610593578063a84637f3146105d8578063a8a2939e14610609578063caac83e41461066e578063e1fa8e84146106b3578063ef2d8700146106e4578063f26b448214610750578063f2cf475414610791578063f2fde38b14610802578063f93eab3314610845575b600080fd5b34801561015a57600080fd5b5061017d6004803603810190808035600019169060200190929190505050610886565b6040518082815260200191505060405180910390f35b34801561019f57600080fd5b50610234600480360381019080803573ffffffffffffffffffffffffffffffffffffffff169060200190929190803573ffffffffffffffffffffffffffffffffffffffff169060200190929190803573ffffffffffffffffffffffffffffffffffffffff169060200190929190803573ffffffffffffffffffffffffffffffffffffffff169060200190929190505050610899565b005b34801561024257600080fd5b5061024b610f74565b6040518082815260200191505060405180910390f35b34801561026d57600080fd5b506102b0600480360381019080803573ffffffffffffffffffffffffffffffffffffffff1690602001909291908035600019169060200190929190505050610f81565b6040518082815260200191505060405180910390f35b3480156102d257600080fd5b506102f560048036038101908080356000191690602001909291905050506111a7565b005b34801561030357600080fd5b50610330600480360381019080803560001916906020019092919080359060200190929190505050611d99565b005b34801561033e57600080fd5b506103616004803603810190808035600019169060200190929190505050612145565b604051808215151515815260200191505060405180910390f35b34801561038757600080fd5b506103aa6004803603810190808035600019169060200190929190505050612170565b6040518082815260200191505060405180910390f35b3480156103cc57600080fd5b506103f9600480360381019080803560001916906020019092919080359060200190929190505050612183565b6040518082815260200191505060405180910390f35b34801561041b57600080fd5b506104246121ea565b6040518082815260200191505060405180910390f35b34801561044657600080fd5b50610489600480360381019080803573ffffffffffffffffffffffffffffffffffffffff16906020019092919080356000191690602001909291905050506121f0565b6040518082815260200191505060405180910390f35b3480156104ab57600080fd5b506104b46127fe565b005b3480156104c257600080fd5b506104e160048036038101908080359060200190929190505050612900565b6040518082815260200191505060405180910390f35b34801561050357600080fd5b5061050c61292c565b604051808273ffffffffffffffffffffffffffffffffffffffff1673ffffffffffffffffffffffffffffffffffffffff16815260200191505060405180910390f35b34801561055a57600080fd5b5061057d6004803603810190808035600019169060200190929190505050612951565b6040518082815260200191505060405180910390f35b34801561059f57600080fd5b506105c26004803603810190808035600019169060200190929190505050612964565b6040518082815260200191505060405180910390f35b3480156105e457600080fd5b5061060760048036038101908080356000191690602001909291905050506129b9565b005b34801561061557600080fd5b50610658600480360381019080803573ffffffffffffffffffffffffffffffffffffffff16906020019092919080356000191690602001909291905050506131e1565b6040518082815260200191505060405180910390f35b34801561067a57600080fd5b506106b160048036038101908080356000191690602001909291908035906020019092919080359060200190929190505050613911565b005b3480156106bf57600080fd5b506106e26004803603810190808035600019169060200190929190505050613a1d565b005b3480156106f057600080fd5b506106f9613e32565b6040518080602001828103825283818151815260200191508051906020019060200280838360005b8381101561073c578082015181840152602081019050610721565b505050509050019250505060405180910390f35b34801561075c57600080fd5b5061077b60048036038101908080359060200190929190505050613e8e565b6040518082815260200191505060405180910390f35b34801561079d57600080fd5b506107c06004803603810190808035600019169060200190929190505050613eba565b604051808273ffffffffffffffffffffffffffffffffffffffff1673ffffffffffffffffffffffffffffffffffffffff16815260200191505060405180910390f35b34801561080e57600080fd5b50610843600480360381019080803573ffffffffffffffffffffffffffffffffffffffff169060200190929190505050613f2f565b005b34801561085157600080fd5b50610884600480360381019080803590602001909291908035906020019092919080359060200190929190505050613f96565b005b60006108923383610f81565b9050919050565b6000809054906101000a900473ffffffffffffffffffffffffffffffffffffffff1673ffffffffffffffffffffffffffffffffffffffff163373ffffffffffffffffffffffffffffffffffffffff161415156108f457600080fd5b60008473ffffffffffffffffffffffffffffffffffffffff161415801561095357506000600560009054906101000a900473ffffffffffffffffffffffffffffffffffffffff1673ffffffffffffffffffffffffffffffffffffffff16145b151561095e57600080fd5b60008373ffffffffffffffffffffffffffffffffffffffff16141580156109bd57506000600760009054906101000a900473ffffffffffffffffffffffffffffffffffffffff1673ffffffffffffffffffffffffffffffffffffffff16145b15156109c857600080fd5b60008273ffffffffffffffffffffffffffffffffffffffff1614158015610a2757506000600860009054906101000a900473ffffffffffffffffffffffffffffffffffffffff1673ffffffffffffffffffffffffffffffffffffffff16145b1515610a3257600080fd5b60008173ffffffffffffffffffffffffffffffffffffffff1614158015610a9157506000600660009054906101000a900473ffffffffffffffffffffffffffffffffffffffff1673ffffffffffffffffffffffffffffffffffffffff16145b1515610a9c57600080fd5b83600560006101000a81548173ffffffffffffffffffffffffffffffffffffffff021916908373ffffffffffffffffffffffffffffffffffffffff16021790555080600660006101000a81548173ffffffffffffffffffffffffffffffffffffffff021916908373ffffffffffffffffffffffffffffffffffffffff16021790555082600760006101000a81548173ffffffffffffffffffffffffffffffffffffffff021916908373ffffffffffffffffffffffffffffffffffffffff160217905550600760009054906101000a900473ffffffffffffffffffffffffffffffffffffffff1673ffffffffffffffffffffffffffffffffffffffff1663f09a4016600560009054906101000a900473ffffffffffffffffffffffffffffffffffffffff16600660009054906101000a900473ffffffffffffffffffffffffffffffffffffffff166040518363ffffffff167c0100000000000000000000000000000000000000000000000000000000028152600401808373ffffffffffffffffffffffffffffffffffffffff1673ffffffffffffffffffffffffffffffffffffffff1681526020018273ffffffffffffffffffffffffffffffffffffffff1673ffffffffffffffffffffffffffffffffffffffff16815260200192505050600060405180830381600087803b158015610c9457600080fd5b505af1158015610ca8573d6000803e3d6000fd5b5050505081600860006101000a81548173ffffffffffffffffffffffffffffffffffffffff021916908373ffffffffffffffffffffffffffffffffffffffff160217905550600860009054906101000a900473ffffffffffffffffffffffffffffffffffffffff1673ffffffffffffffffffffffffffffffffffffffff1663f09a4016600560009054906101000a900473ffffffffffffffffffffffffffffffffffffffff16600660009054906101000a900473ffffffffffffffffffffffffffffffffffffffff166040518363ffffffff167c0100000000000000000000000000000000000000000000000000000000028152600401808373ffffffffffffffffffffffffffffffffffffffff1673ffffffffffffffffffffffffffffffffffffffff1681526020018273ffffffffffffffffffffffffffffffffffffffff1673ffffffffffffffffffffffffffffffffffffffff16815260200192505050600060405180830381600087803b158015610e2257600080fd5b505af1158015610e36573d6000803e3d6000fd5b50505050600660009054906101000a900473ffffffffffffffffffffffffffffffffffffffff1673ffffffffffffffffffffffffffffffffffffffff1663c03812226040518163ffffffff167c0100000000000000000000000000000000000000000000000000000000028152600401602060405180830381600087803b158015610ec057600080fd5b505af1158015610ed4573d6000803e3d6000fd5b505050506040513d6020811015610eea57600080fd5b81019080805190602001909291905050506009819055507f8742e3e96e789a57b576070034c2cdb8980c6be1567aabcac37dbe7130db927960095485604051808381526020018273ffffffffffffffffffffffffffffffffffffffff1673ffffffffffffffffffffffffffffffffffffffff1681526020019250505060405180910390a150505050565b6000600280549050905090565b6000806000808573ffffffffffffffffffffffffffffffffffffffff1614151515610fab57600080fd5b6000600760009054906101000a900473ffffffffffffffffffffffffffffffffffffffff1673ffffffffffffffffffffffffffffffffffffffff166361dcd7ab6040518163ffffffff167c0100000000000000000000000000000000000000000000000000000000028152600401602060405180830381600087803b15801561103357600080fd5b505af1158015611047573d6000803e3d6000fd5b505050506040513d602081101561105d57600080fd5b81019080805190602001909291905050501415151561107b57600080fd5b600760009054906101000a900473ffffffffffffffffffffffffffffffffffffffff1673ffffffffffffffffffffffffffffffffffffffff1663bfb2290d86866040518363ffffffff167c0100000000000000000000000000000000000000000000000000000000028152600401808373ffffffffffffffffffffffffffffffffffffffff1673ffffffffffffffffffffffffffffffffffffffff168152602001826000191660001916815260200192505050602060405180830381600087803b15801561114857600080fd5b505af115801561115c573d6000803e3d6000fd5b505050506040513d602081101561117257600080fd5b810190808051906020019092919050505091506000821215611197576000925061119f565b600090508092505b505092915050565b60008060006060806000806000806000806000803373ffffffffffffffffffffffffffffffffffffffff16141515156111df57600080fd5b6000600860009054906101000a900473ffffffffffffffffffffffffffffffffffffffff1673ffffffffffffffffffffffffffffffffffffffff166361dcd7ab6040518163ffffffff167c0100000000000000000000000000000000000000000000000000000000028152600401602060405180830381600087803b15801561126757600080fd5b505af115801561127b573d6000803e3d6000fd5b505050506040513d602081101561129157600080fd5b8101908080519060200190929190505050141515156112af57600080fd5b60009b50600860009054906101000a900473ffffffffffffffffffffffffffffffffffffffff1673ffffffffffffffffffffffffffffffffffffffff16633b7aecf7338f60006040518463ffffffff167c0100000000000000000000000000000000000000000000000000000000028152600401808473ffffffffffffffffffffffffffffffffffffffff1673ffffffffffffffffffffffffffffffffffffffff16815260200183600019166000191681526020018281526020019350505050602060405180830381600087803b15801561138957600080fd5b505af115801561139d573d6000803e3d6000fd5b505050506040513d60208110156113b357600080fd5b81019080805190602001909291905050509a505b60008b1215156114f0578b806001019c5050600860009054906101000a900473ffffffffffffffffffffffffffffffffffffffff1673ffffffffffffffffffffffffffffffffffffffff16633b7aecf7338f8e6040518463ffffffff167c0100000000000000000000000000000000000000000000000000000000028152600401808473ffffffffffffffffffffffffffffffffffffffff1673ffffffffffffffffffffffffffffffffffffffff16815260200183600019166000191681526020018281526020019350505050602060405180830381600087803b1580156114ae57600080fd5b505af11580156114c2573d6000803e3d6000fd5b505050506040513d60208110156114d857600080fd5b81019080805190602001909291905050509a506113c7565b600099508b6040519080825280602002602001820160405280156115235781602001602082028038833980820191505090505b5098508b6040519080825280602002602001820160405280156115555781602001602082028038833980820191505090505b509750600860009054906101000a900473ffffffffffffffffffffffffffffffffffffffff1673ffffffffffffffffffffffffffffffffffffffff16633b7aecf7338f60006040518463ffffffff167c0100000000000000000000000000000000000000000000000000000000028152600401808473ffffffffffffffffffffffffffffffffffffffff1673ffffffffffffffffffffffffffffffffffffffff16815260200183600019166000191681526020018281526020019350505050602060405180830381600087803b15801561162e57600080fd5b505af1158015611642573d6000803e3d6000fd5b505050506040513d602081101561165857600080fd5b81019080805190602001909291905050509a50600096505b8b871015611b085760009550600860009054906101000a900473ffffffffffffffffffffffffffffffffffffffff1673ffffffffffffffffffffffffffffffffffffffff16636a34a4cb338b8a8151811015156116c957fe5b906020019060200201516040518363ffffffff167c0100000000000000000000000000000000000000000000000000000000028152600401808373ffffffffffffffffffffffffffffffffffffffff1673ffffffffffffffffffffffffffffffffffffffff16815260200182815260200192505050602060405180830381600087803b15801561175857600080fd5b505af115801561176c573d6000803e3d6000fd5b505050506040513d602081101561178257600080fd5b81019080805190602001909291905050509450600093505b601e8410156119aa57600660009054906101000a900473ffffffffffffffffffffffffffffffffffffffff1673ffffffffffffffffffffffffffffffffffffffff1663f733ad956040518163ffffffff167c0100000000000000000000000000000000000000000000000000000000028152600401602060405180830381600087803b15801561182957600080fd5b505af115801561183d573d6000803e3d6000fd5b505050506040513d602081101561185357600080fd5b81019080805190602001909291905050508402850192506118748d84612183565b915061187f83612900565b9050600860009054906101000a900473ffffffffffffffffffffffffffffffffffffffff1673ffffffffffffffffffffffffffffffffffffffff1663b5895b0533898686866040518663ffffffff167c0100000000000000000000000000000000000000000000000000000000028152600401808673ffffffffffffffffffffffffffffffffffffffff1673ffffffffffffffffffffffffffffffffffffffff16815260200185815260200184815260200183815260200182815260200195505050505050602060405180830381600087803b15801561195e57600080fd5b505af1158015611972573d6000803e3d6000fd5b505050506040513d602081101561198857600080fd5b810190808051906020019092919050505086019550838060010194505061179a565b858a0199508a89888151811015156119be57fe5b90602001906020020181815250508588888151811015156119db57fe5b9060200190602002018181525050600860009054906101000a900473ffffffffffffffffffffffffffffffffffffffff1673ffffffffffffffffffffffffffffffffffffffff16633b7aecf7338f8e6040518463ffffffff167c0100000000000000000000000000000000000000000000000000000000028152600401808473ffffffffffffffffffffffffffffffffffffffff1673ffffffffffffffffffffffffffffffffffffffff16815260200183600019166000191681526020018281526020019350505050602060405180830381600087803b158015611abe57600080fd5b505af1158015611ad2573d6000803e3d6000fd5b505050506040513d6020811015611ae857600080fd5b81019080805190602001909291905050509a508680600101975050611670565b600560009054906101000a900473ffffffffffffffffffffffffffffffffffffffff1673ffffffffffffffffffffffffffffffffffffffff1663a9059cbb338c6040518363ffffffff167c0100000000000000000000000000000000000000000000000000000000028152600401808373ffffffffffffffffffffffffffffffffffffffff1673ffffffffffffffffffffffffffffffffffffffff16815260200182815260200192505050602060405180830381600087803b158015611bcd57600080fd5b505af1158015611be1573d6000803e3d6000fd5b505050506040513d6020811015611bf757600080fd5b810190808051906020019092919050505050600096505b8851871015611d3757600860009054906101000a900473ffffffffffffffffffffffffffffffffffffffff1673ffffffffffffffffffffffffffffffffffffffff1663b5c5f672338b8a815181101515611c6457fe5b906020019060200201518b8b815181101515611c7c57fe5b906020019060200201516040518463ffffffff167c0100000000000000000000000000000000000000000000000000000000028152600401808473ffffffffffffffffffffffffffffffffffffffff1673ffffffffffffffffffffffffffffffffffffffff1681526020018381526020018281526020019350505050600060405180830381600087803b158015611d1257600080fd5b505af1158015611d26573d6000803e3d6000fd5b505050508680600101975050611c0e565b3373ffffffffffffffffffffffffffffffffffffffff168d600019167f0d05cf332bede1c308ea206b19098f1ffea617c145707a91a4ec213b7c547e928c6040518082815260200191505060405180910390a350505050505050505050505050565b60003373ffffffffffffffffffffffffffffffffffffffff1614151515611dbf57600080fd5b600081111515611dce57600080fd5b6000600860009054906101000a900473ffffffffffffffffffffffffffffffffffffffff1673ffffffffffffffffffffffffffffffffffffffff166361dcd7ab6040518163ffffffff167c0100000000000000000000000000000000000000000000000000000000028152600401602060405180830381600087803b158015611e5657600080fd5b505af1158015611e6a573d6000803e3d6000fd5b505050506040513d6020811015611e8057600080fd5b810190808051906020019092919050505014151515611e9e57600080fd5b60006001600084600019166000191681526020019081526020016000206001015414151515611ecc57600080fd5b600560009054906101000a900473ffffffffffffffffffffffffffffffffffffffff1673ffffffffffffffffffffffffffffffffffffffff166323b872dd3330846040518463ffffffff167c0100000000000000000000000000000000000000000000000000000000028152600401808473ffffffffffffffffffffffffffffffffffffffff1673ffffffffffffffffffffffffffffffffffffffff1681526020018373ffffffffffffffffffffffffffffffffffffffff1673ffffffffffffffffffffffffffffffffffffffff1681526020018281526020019350505050602060405180830381600087803b158015611fc557600080fd5b505af1158015611fd9573d6000803e3d6000fd5b505050506040513d6020811015611fef57600080fd5b810190808051906020019092919050505050600860009054906101000a900473ffffffffffffffffffffffffffffffffffffffff1673ffffffffffffffffffffffffffffffffffffffff166302096d833384846040518463ffffffff167c0100000000000000000000000000000000000000000000000000000000028152600401808473ffffffffffffffffffffffffffffffffffffffff1673ffffffffffffffffffffffffffffffffffffffff16815260200183600019166000191681526020018281526020019350505050600060405180830381600087803b1580156120d657600080fd5b505af11580156120ea573d6000803e3d6000fd5b505050503373ffffffffffffffffffffffffffffffffffffffff1682600019167f0c75c6a0cc6b6403ea7acee71d8aa1556e09a34e8560c6f9ab5b6152bfcd8ef1836040518082815260200191505060405180910390a35050565b6000806001600084600019166000191681526020019081526020016000206001015414159050919050565b600061217c33836131e1565b9050919050565b60008060016000856000191660001916815260200190815260200160002060010154141515156121b257600080fd5b600160008460001916600019168152602001908152602001600020600201600083815260200190815260200160002054905092915050565b60095481565b6000806000806000806000806000808b73ffffffffffffffffffffffffffffffffffffffff161415151561222357600080fd5b6000600860009054906101000a900473ffffffffffffffffffffffffffffffffffffffff1673ffffffffffffffffffffffffffffffffffffffff166361dcd7ab6040518163ffffffff167c0100000000000000000000000000000000000000000000000000000000028152600401602060405180830381600087803b1580156122ab57600080fd5b505af11580156122bf573d6000803e3d6000fd5b505050506040513d60208110156122d557600080fd5b8101908080519060200190929190505050141515156122f357600080fd5b600660009054906101000a900473ffffffffffffffffffffffffffffffffffffffff1673ffffffffffffffffffffffffffffffffffffffff16637ff8b20e6040518163ffffffff167c0100000000000000000000000000000000000000000000000000000000028152600401602060405180830381600087803b15801561237957600080fd5b505af115801561238d573d6000803e3d6000fd5b505050506040513d60208110156123a357600080fd5b81019080805190602001909291905050509750600860009054906101000a900473ffffffffffffffffffffffffffffffffffffffff1673ffffffffffffffffffffffffffffffffffffffff1663e652f4cc8c6040518263ffffffff167c0100000000000000000000000000000000000000000000000000000000028152600401808273ffffffffffffffffffffffffffffffffffffffff1673ffffffffffffffffffffffffffffffffffffffff168152602001915050602060405180830381600087803b15801561247357600080fd5b505af1158015612487573d6000803e3d6000fd5b505050506040513d602081101561249d57600080fd5b8101908080519060200190929190505050965060008714156124c257600098506127f0565b60009550600094505b868510156127ec57600860009054906101000a900473ffffffffffffffffffffffffffffffffffffffff1673ffffffffffffffffffffffffffffffffffffffff16636a34a4cb8c876040518363ffffffff167c0100000000000000000000000000000000000000000000000000000000028152600401808373ffffffffffffffffffffffffffffffffffffffff1673ffffffffffffffffffffffffffffffffffffffff16815260200182815260200192505050602060405180830381600087803b15801561259857600080fd5b505af11580156125ac573d6000803e3d6000fd5b505050506040513d60208110156125c257600080fd5b810190808051906020019092919050505093508392505b87831115156127df576125ec8a84612183565b91506125f783612900565b9050600860009054906101000a900473ffffffffffffffffffffffffffffffffffffffff1673ffffffffffffffffffffffffffffffffffffffff1663b5895b058c878686866040518663ffffffff167c0100000000000000000000000000000000000000000000000000000000028152600401808673ffffffffffffffffffffffffffffffffffffffff1673ffffffffffffffffffffffffffffffffffffffff16815260200185815260200184815260200183815260200182815260200195505050505050602060405180830381600087803b1580156126d657600080fd5b505af11580156126ea573d6000803e3d6000fd5b505050506040513d602081101561270057600080fd5b810190808051906020019092919050505086019550600660009054906101000a900473ffffffffffffffffffffffffffffffffffffffff1673ffffffffffffffffffffffffffffffffffffffff1663f733ad956040518163ffffffff167c0100000000000000000000000000000000000000000000000000000000028152600401602060405180830381600087803b15801561279b57600080fd5b505af11580156127af573d6000803e3d6000fd5b505050506040513d60208110156127c557600080fd5b8101908080519060200190929190505050830192506125d9565b84806001019550506124cb565b8598505b505050505050505092915050565b6000809054906101000a900473ffffffffffffffffffffffffffffffffffffffff1673ffffffffffffffffffffffffffffffffffffffff163373ffffffffffffffffffffffffffffffffffffffff1614151561285957600080fd5b6000809054906101000a900473ffffffffffffffffffffffffffffffffffffffff1673ffffffffffffffffffffffffffffffffffffffff167ff8df31144d9c2f0f6b59d69b8b98abd5459d07f2742c4df920b25aae33c6482060405160405180910390a260008060006101000a81548173ffffffffffffffffffffffffffffffffffffffff021916908373ffffffffffffffffffffffffffffffffffffffff160217905550565b600080821415151561291157600080fd5b60046000838152602001908152602001600020549050919050565b6000809054906101000a900473ffffffffffffffffffffffffffffffffffffffff1681565b600061295d33836121f0565b9050919050565b600080600160008460001916600019168152602001908152602001600020600101541415151561299357600080fd5b600160008360001916600019168152602001908152602001600020600101549050919050565b6000806000806000806000803373ffffffffffffffffffffffffffffffffffffffff16141515156129e957600080fd5b6000600760009054906101000a900473ffffffffffffffffffffffffffffffffffffffff1673ffffffffffffffffffffffffffffffffffffffff166361dcd7ab6040518163ffffffff167c0100000000000000000000000000000000000000000000000000000000028152600401602060405180830381600087803b158015612a7157600080fd5b505af1158015612a85573d6000803e3d6000fd5b505050506040513d6020811015612a9b57600080fd5b810190808051906020019092919050505014151515612ab957600080fd5b600760009054906101000a900473ffffffffffffffffffffffffffffffffffffffff1673ffffffffffffffffffffffffffffffffffffffff1663bfb2290d338a6040518363ffffffff167c0100000000000000000000000000000000000000000000000000000000028152600401808373ffffffffffffffffffffffffffffffffffffffff1673ffffffffffffffffffffffffffffffffffffffff168152602001826000191660001916815260200192505050602060405180830381600087803b158015612b8657600080fd5b505af1158015612b9a573d6000803e3d6000fd5b505050506040513d6020811015612bb057600080fd5b810190808051906020019092919050505096506000871215612bd1576131d7565b600760009054906101000a900473ffffffffffffffffffffffffffffffffffffffff1673ffffffffffffffffffffffffffffffffffffffff16638938dfc633896040518363ffffffff167c0100000000000000000000000000000000000000000000000000000000028152600401808373ffffffffffffffffffffffffffffffffffffffff1673ffffffffffffffffffffffffffffffffffffffff16815260200182815260200192505050602060405180830381600087803b158015612c9657600080fd5b505af1158015612caa573d6000803e3d6000fd5b505050506040513d6020811015612cc057600080fd5b81019080805190602001909291905050509550600660009054906101000a900473ffffffffffffffffffffffffffffffffffffffff1673ffffffffffffffffffffffffffffffffffffffff16637ff8b20e6040518163ffffffff167c0100000000000000000000000000000000000000000000000000000000028152600401602060405180830381600087803b158015612d5957600080fd5b505af1158015612d6d573d6000803e3d6000fd5b505050506040513d6020811015612d8357600080fd5b81019080805190602001909291905050509450600093505b84861015613082576000861415612eaf57600760009054906101000a900473ffffffffffffffffffffffffffffffffffffffff1673ffffffffffffffffffffffffffffffffffffffff1663ddb358ef33896040518363ffffffff167c0100000000000000000000000000000000000000000000000000000000028152600401808373ffffffffffffffffffffffffffffffffffffffff1673ffffffffffffffffffffffffffffffffffffffff16815260200182815260200192505050602060405180830381600087803b158015612e7157600080fd5b505af1158015612e85573d6000803e3d6000fd5b505050506040513d6020811015612e9b57600080fd5b810190808051906020019092919050505095505b848611151515612ebb57fe5b612ec486613e8e565b9250612ed08887612183565b9150600760009054906101000a900473ffffffffffffffffffffffffffffffffffffffff1673ffffffffffffffffffffffffffffffffffffffff16631a75394083856040518363ffffffff167c01000000000000000000000000000000000000000000000000000000000281526004018083815260200182815260200192505050602060405180830381600087803b158015612f6b57600080fd5b505af1158015612f7f573d6000803e3d6000fd5b505050506040513d6020811015612f9557600080fd5b810190808051906020019092919050505084019350600660009054906101000a900473ffffffffffffffffffffffffffffffffffffffff1673ffffffffffffffffffffffffffffffffffffffff1663f733ad956040518163ffffffff167c0100000000000000000000000000000000000000000000000000000000028152600401602060405180830381600087803b15801561303057600080fd5b505af1158015613044573d6000803e3d6000fd5b505050506040513d602081101561305a57600080fd5b810190808051906020019092919050505086019050808610151561307a57fe5b809550612d9b565b600560009054906101000a900473ffffffffffffffffffffffffffffffffffffffff1673ffffffffffffffffffffffffffffffffffffffff1663a9059cbb33866040518363ffffffff167c0100000000000000000000000000000000000000000000000000000000028152600401808373ffffffffffffffffffffffffffffffffffffffff1673ffffffffffffffffffffffffffffffffffffffff16815260200182815260200192505050602060405180830381600087803b15801561314757600080fd5b505af115801561315b573d6000803e3d6000fd5b505050506040513d602081101561317157600080fd5b8101908080519060200190929190505050503373ffffffffffffffffffffffffffffffffffffffff1688600019167f1e19d15a571203b2e654bb50b66257cd7b41fadb41508f490724427e2c35e88b866040518082815260200191505060405180910390a35b5050505050505050565b60008060008060008060008060008060008c73ffffffffffffffffffffffffffffffffffffffff161415151561321657600080fd5b6000600860009054906101000a900473ffffffffffffffffffffffffffffffffffffffff1673ffffffffffffffffffffffffffffffffffffffff166361dcd7ab6040518163ffffffff167c0100000000000000000000000000000000000000000000000000000000028152600401602060405180830381600087803b15801561329e57600080fd5b505af11580156132b2573d6000803e3d6000fd5b505050506040513d60208110156132c857600080fd5b8101908080519060200190929190505050141515156132e657600080fd5b600660009054906101000a900473ffffffffffffffffffffffffffffffffffffffff1673ffffffffffffffffffffffffffffffffffffffff16637ff8b20e6040518163ffffffff167c0100000000000000000000000000000000000000000000000000000000028152600401602060405180830381600087803b15801561336c57600080fd5b505af1158015613380573d6000803e3d6000fd5b505050506040513d602081101561339657600080fd5b81019080805190602001909291905050509850600860009054906101000a900473ffffffffffffffffffffffffffffffffffffffff1673ffffffffffffffffffffffffffffffffffffffff1663e652f4cc336040518263ffffffff167c0100000000000000000000000000000000000000000000000000000000028152600401808273ffffffffffffffffffffffffffffffffffffffff1673ffffffffffffffffffffffffffffffffffffffff168152602001915050602060405180830381600087803b15801561346657600080fd5b505af115801561347a573d6000803e3d6000fd5b505050506040513d602081101561349057600080fd5b8101908080519060200190929190505050975060008814156134b157613902565b60009650600095505b878610156138fe578a60001916600860009054906101000a900473ffffffffffffffffffffffffffffffffffffffff1673ffffffffffffffffffffffffffffffffffffffff166332c658b133896040518363ffffffff167c0100000000000000000000000000000000000000000000000000000000028152600401808373ffffffffffffffffffffffffffffffffffffffff1673ffffffffffffffffffffffffffffffffffffffff16815260200182815260200192505050602060405180830381600087803b15801561358c57600080fd5b505af11580156135a0573d6000803e3d6000fd5b505050506040513d60208110156135b657600080fd5b81019080805190602001909291905050506000191614156138f157600860009054906101000a900473ffffffffffffffffffffffffffffffffffffffff1673ffffffffffffffffffffffffffffffffffffffff16636a34a4cb33886040518363ffffffff167c0100000000000000000000000000000000000000000000000000000000028152600401808373ffffffffffffffffffffffffffffffffffffffff1673ffffffffffffffffffffffffffffffffffffffff16815260200182815260200192505050602060405180830381600087803b15801561369657600080fd5b505af11580156136aa573d6000803e3d6000fd5b505050506040513d60208110156136c057600080fd5b81019080805190602001909291905050509450600093508492505b88831115156138e1576136ee8b84612183565b91506136f983612900565b9050600860009054906101000a900473ffffffffffffffffffffffffffffffffffffffff1673ffffffffffffffffffffffffffffffffffffffff1663b5895b0533888686866040518663ffffffff167c0100000000000000000000000000000000000000000000000000000000028152600401808673ffffffffffffffffffffffffffffffffffffffff1673ffffffffffffffffffffffffffffffffffffffff16815260200185815260200184815260200183815260200182815260200195505050505050602060405180830381600087803b1580156137d857600080fd5b505af11580156137ec573d6000803e3d6000fd5b505050506040513d602081101561380257600080fd5b810190808051906020019092919050505084019350600660009054906101000a900473ffffffffffffffffffffffffffffffffffffffff1673ffffffffffffffffffffffffffffffffffffffff1663f733ad956040518163ffffffff167c0100000000000000000000000000000000000000000000000000000000028152600401602060405180830381600087803b15801561389d57600080fd5b505af11580156138b1573d6000803e3d6000fd5b505050506040513d60208110156138c757600080fd5b8101908080519060200190929190505050830192506136db565b60008411156138f05783870196505b5b85806001019650506134ba565b8699505b50505050505050505092915050565b60008060009054906101000a900473ffffffffffffffffffffffffffffffffffffffff1673ffffffffffffffffffffffffffffffffffffffff163373ffffffffffffffffffffffffffffffffffffffff1614151561396e57600080fd5b6000600160008660001916600019168152602001908152602001600020600101541415151561399c57600080fd5b6001600085600019166000191681526020019081526020016000209050818160020160008581526020019081526020016000208190555083600019167f591abb51ea6c697839be33fbd705609f83fa02d3112a5cc20595ca3b4592d6758484604051808381526020018281526020019250505060405180910390a250505050565b600080600060016000856000191660001916815260200190815260200160002060010154141515613a4d57600080fd5b600660009054906101000a900473ffffffffffffffffffffffffffffffffffffffff1673ffffffffffffffffffffffffffffffffffffffff16637ff8b20e6040518163ffffffff167c0100000000000000000000000000000000000000000000000000000000028152600401602060405180830381600087803b158015613ad357600080fd5b505af1158015613ae7573d6000803e3d6000fd5b505050506040513d6020811015613afd57600080fd5b8101908080519060200190929190505050915060408051908101604052803373ffffffffffffffffffffffffffffffffffffffff1681526020018381525060016000856000191660001916815260200190815260200160002060008201518160000160006101000a81548173ffffffffffffffffffffffffffffffffffffffff021916908373ffffffffffffffffffffffffffffffffffffffff16021790555060208201518160010155905050600283908060018154018082558091505090600182039060005260206000200160009091929091909150906000191690559050600760009054906101000a900473ffffffffffffffffffffffffffffffffffffffff1673ffffffffffffffffffffffffffffffffffffffff1663be44d6f984336040518363ffffffff167c01000000000000000000000000000000000000000000000000000000000281526004018083600019166000191681526020018273ffffffffffffffffffffffffffffffffffffffff1673ffffffffffffffffffffffffffffffffffffffff16815260200192505050600060405180830381600087803b158015613caa57600080fd5b505af1158015613cbe573d6000803e3d6000fd5b50505050600760009054906101000a900473ffffffffffffffffffffffffffffffffffffffff1673ffffffffffffffffffffffffffffffffffffffff166394e6f5b933856040518363ffffffff167c0100000000000000000000000000000000000000000000000000000000028152600401808373ffffffffffffffffffffffffffffffffffffffff1673ffffffffffffffffffffffffffffffffffffffff168152602001826000191660001916815260200192505050602060405180830381600087803b158015613d8f57600080fd5b505af1158015613da3573d6000803e3d6000fd5b505050506040513d6020811015613db957600080fd5b81019080805190602001909291905050501515613dd257fe5b3373ffffffffffffffffffffffffffffffffffffffff1683600019167f6bffea36ac098b5dc12e6277eb4ebcc6aa8baa9c1f4534aa3594ab56844a1acb8484604051808381526020018281526020019250505060405180910390a3505050565b60606002805480602002602001604051908101604052809291908181526020018280548015613e8457602002820191906000526020600020905b81546000191681526020019060010190808311613e6c575b5050505050905090565b6000808214151515613e9f57600080fd5b60036000838152602001908152602001600020549050919050565b6000806001600084600019166000191681526020019081526020016000206001015414151515613ee957600080fd5b60016000836000191660001916815260200190815260200160002060000160009054906101000a900473ffffffffffffffffffffffffffffffffffffffff169050919050565b6000809054906101000a900473ffffffffffffffffffffffffffffffffffffffff1673ffffffffffffffffffffffffffffffffffffffff163373ffffffffffffffffffffffffffffffffffffffff16141515613f8a57600080fd5b613f938161409d565b50565b6000809054906101000a900473ffffffffffffffffffffffffffffffffffffffff1673ffffffffffffffffffffffffffffffffffffffff163373ffffffffffffffffffffffffffffffffffffffff16141515613ff157600080fd5b6000831415151561400157600080fd5b6000821415151561401157600080fd5b6000811415151561402157600080fd5b8160036000858152602001908152602001600020819055508060046000858152602001908152602001600020819055507f01e21700b429ba33287c59ef71ead1370b1049e0f9137ed26b930e45590cf8b383838360405180848152602001838152602001828152602001935050505060405180910390a1505050565b600073ffffffffffffffffffffffffffffffffffffffff168173ffffffffffffffffffffffffffffffffffffffff16141515156140d957600080fd5b8073ffffffffffffffffffffffffffffffffffffffff166000809054906101000a900473ffffffffffffffffffffffffffffffffffffffff1673ffffffffffffffffffffffffffffffffffffffff167f8be0079c531659141344cd1fd0a4f28419497f9722a3daafe3b4186f6b6457e060405160405180910390a3806000806101000a81548173ffffffffffffffffffffffffffffffffffffffff021916908373ffffffffffffffffffffffffffffffffffffffff160217905550505600a165627a7a7230582041123591b43b52028115cf4b3097f3ae9beca2cdb238957cce1f599ae009509e0029",
  "source": "pragma solidity ^0.4.24;\n\nimport \"./Deck.sol\";\nimport \"./Utility.sol\";\nimport \"./AuthorPool.sol\";\nimport \"./CuratorPool.sol\";\nimport \"openzeppelin-solidity/contracts/ownership/Ownable.sol\";\n\ncontract DocumentReg is Ownable{\n\n  event _InitializeDocumentReg(uint timestamp, address token);\n  event _RegisterNewDocument(bytes32 indexed docId, uint timestamp, address indexed applicant, uint count);\n  event _ConfirmPageView(bytes32 indexed docId, uint timestamp, uint pageView);\n  event _ConfirmTotalPageView(uint timestamp, uint pageView, uint pageViewSquare);\n  event _VoteOnDocument(bytes32 indexed docId, uint deposit, address indexed applicant);\n  event _ClaimAuthorDeco(bytes32 indexed docId, uint deco, address indexed applicant);\n  event _ClaimCuratorDeco(bytes32 indexed docId, uint deco, address indexed applicant);\n  //event _DetermineReward(bytes32 indexed docId, uint timestamp, uint pageView, uint totalPageView, uint dailyReward);\n\n  struct Document {\n    address author;\n    uint createTime;\n    mapping (uint => uint) pageViews; // date => page views\n  }\n\n  // maps document id to associated document data\n  mapping (bytes32 => Document) internal map;\n\n  // key list for iteration\n  bytes32[] private docList;\n\n  // store total page view square for reward calculation\n  //  : timestamp(yyyy-mm-dd) => daily total page view square\n  mapping (uint => uint) private totalPageView;\n  mapping (uint => uint) private totalPageViewSquare;\n\n  // private variables\n  Deck private token;\n  Utility private util;\n  AuthorPool private authorPool;\n  CuratorPool private curatorPool;\n\n  // public variables\n  uint public createTime;\n\n  function init(address _token, address _author, address _curator, address _utility) public\n    onlyOwner()\n  {\n\n    require(_token != 0 && address(token) == 0);\n    require(_author != 0 && address(authorPool) == 0);\n    require(_curator != 0 && address(curatorPool) == 0);\n    require(_utility != 0 && address(util) == 0);\n\n    token = Deck(_token);\n    util = Utility(_utility);\n\n    // init author pool\n    authorPool = AuthorPool(_author);\n    authorPool.init(token, util);\n\n    // init curator pool\n    curatorPool = CuratorPool(_curator);\n    curatorPool.init(token, util);\n\n    createTime = util.getTimeMillis();\n    emit _InitializeDocumentReg(createTime, _token);\n  }\n\n  // -------------------------------\n  // Document Registry Functions\n  // -------------------------------\n\n  // register a new document\n  function register(bytes32 _docId) public {\n\n    require(map[_docId].createTime == 0); // register once\n\n    uint tMillis = util.getDateMillis();\n\n    // adding to document registry\n    map[_docId] = Document(msg.sender, tMillis);\n    uint index = docList.push(_docId);\n\n    // creating user document mapping\n    authorPool.registerUserDocument(_docId, msg.sender);\n    assert(authorPool.containsUserDocument(msg.sender, _docId));\n\n    emit _RegisterNewDocument(_docId, tMillis, msg.sender, index);\n  }\n\n  function contains(bytes32 _docId) public view returns (bool) {\n    return map[_docId].createTime != 0;\n  }\n\n  function getAuthorByKey(bytes32 _docId) public view returns (address) {\n    require(map[_docId].createTime != 0);\n    return map[_docId].author;\n  }\n\n  function getCreateTimeByKey(bytes32 _docId) public view returns (uint) {\n    require(map[_docId].createTime != 0);\n    return map[_docId].createTime;\n  }\n\n  function count() public view returns (uint) {\n    return uint(docList.length);\n  }\n\n  // document list for iteration\n  function getDocuments() public view returns (bytes32[]) {\n    return docList;\n  }\n\n  // -------------------------------\n  // Total Page View Square Functions\n  // -------------------------------\n\n  function confirmTotalPageView(uint _date, uint _totalPageView, uint _totalPageViewSquare) public\n    onlyOwner()\n  {\n    require(_date != 0);\n    require(_totalPageView != 0);\n    require(_totalPageViewSquare != 0);\n    totalPageView[_date] = _totalPageView;\n    totalPageViewSquare[_date] = _totalPageViewSquare;\n    emit _ConfirmTotalPageView(_date, _totalPageView, _totalPageViewSquare);\n  }\n\n  function getTotalPageView(uint _date) public view returns (uint) {\n    require(_date != 0);\n    return totalPageView[_date];\n  }\n\n  function getTotalPageViewSquare(uint _date) public view returns (uint) {\n    require(_date != 0);\n    return totalPageViewSquare[_date];\n  }\n\n  // -------------------------------\n  // Daily Page View Functions\n  // -------------------------------\n\n  function confirmPageView(bytes32 _docId, uint _date, uint _pageView) public\n    onlyOwner()\n  {\n    require(map[_docId].createTime != 0);\n    Document storage doc = map[_docId];\n    doc.pageViews[_date] = _pageView;\n    emit _ConfirmPageView(_docId, _date, _pageView);\n  }\n\n  function getPageView(bytes32 _docId, uint _date) public view returns (uint) {\n    require(map[_docId].createTime != 0);\n    return map[_docId].pageViews[_date];\n  }\n\n  // -------------------------------\n  // Determine author reward after last claim\n  // -------------------------------\n\n  function determineAuthorDeco(bytes32 _docId) public view returns (uint) {\n    return determineAuthorDeco(msg.sender, _docId);\n  }\n\n  function determineAuthorDeco(address _addr, bytes32 _docId) public view returns (uint) {\n    require(_addr != 0);\n    require(authorPool.createTime() != 0);\n    int idx = authorPool.getUserDocumentIndex(_addr, _docId);\n    if (idx < 0) {\n      return uint(0);\n    }\n/*\n    uint claimDate = authorPool.getUserDocumentLastClaimedDate(_addr, idx);\n    uint dateMillis = util.getDateMillis();\n*/\n    uint sumDeco = 0;\n/*\n    while (claimDate < dateMillis) {\n      if (claimDate == 0) {\n        claimDate = authorPool.getUserDocumentListedDate(_addr, idx);\n      }\n      assert(claimDate <= dateMillis);\n\n      uint tpv = getTotalPageView(claimDate);\n      uint pv = getPageView(_docId, claimDate);\n      sumDeco += authorPool.determineUserDocumentDeco(pv, tpv);\n\n      uint nextDate = claimDate + util.getOneDayMillis();\n      assert(claimDate < nextDate);\n      claimDate = nextDate;\n\n      //emit _DetermineReward(_docId, lastClaimedDate, pv, tpv, dailyRewardPool);\n    }\n*/    \n    return sumDeco;\n  }\n\n  function claimAuthorDeco(bytes32 _docId) public {\n    require(msg.sender != 0);\n    require(authorPool.createTime() != 0);\n    int idx = authorPool.getUserDocumentIndex(msg.sender, _docId);\n    if (idx < 0) {\n      return;\n    }\n\n    uint claimDate = authorPool.getUserDocumentLastClaimedDate(msg.sender, idx);\n    uint dateMillis = util.getDateMillis();\n\n    uint sumDeco = 0;\n    while (claimDate < dateMillis) {\n      if (claimDate == 0) {\n        claimDate = authorPool.getUserDocumentListedDate(msg.sender, idx);\n      }\n      assert(claimDate <= dateMillis);\n\n      uint tpv = getTotalPageView(claimDate);\n      uint pv = getPageView(_docId, claimDate);\n      sumDeco += authorPool.determineUserDocumentDeco(pv, tpv);\n\n      uint nextDate = claimDate + util.getOneDayMillis();\n      assert(claimDate < nextDate);\n      claimDate = nextDate;\n    }\n\n    token.transfer(msg.sender, sumDeco);\n    emit _ClaimAuthorDeco(_docId, sumDeco, msg.sender);\n  }\n\n  // -------------------------------\n  // Estimate curator reward after last claim\n  // -------------------------------\n\n  function estimateCuratorDeco(bytes32 _docId) public view returns (uint) {\n    return estimateCuratorDeco(msg.sender, _docId);\n  }\n\n  function estimateCuratorDeco(address _addr, bytes32 _docId) public view returns (uint) {\n    require(_addr != 0);\n    require(curatorPool.createTime() != 0);\n\n    uint dateMillis = util.getDateMillis();\n    uint numVotes = curatorPool.getVoteCount(_addr);\n    if (numVotes == 0) {\n      return uint(0);\n    }\n\n    uint deco = 0;\n    for (uint i=0; i<numVotes; i++) {\n      uint startDate = curatorPool.getStartDate(_addr, i);\n      for (uint dt=startDate; dt<=dateMillis; dt+=util.getOneDayMillis()) {\n        uint pv = getPageView(_docId, dt);\n        uint tpvs = getTotalPageViewSquare(dt);\n        deco += curatorPool.determineDeco(_addr, i, dt, pv, tpvs);\n      }\n    }\n\n    return deco;\n  }\n\n  // -------------------------------\n  // Determine curator reward after last claim\n  // -------------------------------\n\n  function determineCuratorDeco(bytes32 _docId) public view returns (uint) {\n    return determineCuratorDeco(msg.sender, _docId);\n  }\n\n  function determineCuratorDeco(address _addr, bytes32 _docId) public view returns (uint) {\n    require(_addr != 0);\n    require(curatorPool.createTime() != 0);\n\n    uint dateMillis = util.getDateMillis();\n    uint numVotes = curatorPool.getVoteCount(msg.sender);\n    if (numVotes == 0) {\n      return;\n    }\n\n    uint deco = 0;\n    for (uint i=0; i<numVotes; i++) {\n      if (curatorPool.getDocId(msg.sender, i) == _docId) {\n        uint startDate = curatorPool.getStartDate(msg.sender, i);\n        uint delta = 0;\n        for (uint dt=startDate; dt<=dateMillis; dt+=util.getOneDayMillis()) {\n          uint pv = getPageView(_docId, dt);\n          uint tpvs = getTotalPageViewSquare(dt);\n          delta += curatorPool.determineDeco(msg.sender, i, dt, pv, tpvs);\n        }\n        if (delta > 0) {\n          //uint deposit = curatorPool.getDeposit(msg.sender, i);\n          deco += delta;\n        }\n      }\n    }\n\n    return deco;\n  }\n\n  function claimCuratorDeco(bytes32 _docId) public {\n\n    // validation check\n    require(msg.sender != 0);\n    require(curatorPool.createTime() != 0);\n\n    //       vote    \n    // 1.    vote  \n    //  a.  docuemnt  vote \n    //  b.   Vote  \n    //  c.  30   ( )\n    uint numVotes = 0;\n    int idx = curatorPool.indexOfNextVoteForClaim(msg.sender, _docId, uint(0));\n    while(idx >= 0)\n    {\n      numVotes++;\n      idx = curatorPool.indexOfNextVoteForClaim(msg.sender, _docId, uint(idx));\n    }\n\n    // 2. 1      \n    //  a.    18 decimals \n    //  b.  30 page view     \n    //  c.      \n    uint deco = 0;\n    uint[] memory voteList = new uint[](numVotes);\n    uint[] memory deltaList = new uint[](numVotes);\n    idx = curatorPool.indexOfNextVoteForClaim(msg.sender, _docId, uint(0));\n    for(uint i=0; i<numVotes; i++)\n    {\n      uint delta = 0;\n      uint startDate = curatorPool.getStartDate(msg.sender, voteList[i]);\n      for (uint j=0; j<30; j++) {\n        uint dt=startDate + j * util.getOneDayMillis();\n        uint pv = getPageView(_docId, dt);\n        uint tpvs = getTotalPageViewSquare(dt);\n        delta += curatorPool.determineDeco(msg.sender, i, dt, pv, tpvs);\n      }\n      deco += delta;\n      voteList[i] = uint(idx);\n      deltaList[i] = delta;\n      idx = curatorPool.indexOfNextVoteForClaim(msg.sender, _docId, uint(idx));\n    }\n\n    // 3.   document registry contract   \n    token.transfer(msg.sender, deco);\n\n    // 4.   vote withdraw  \n    for (i=0; i<voteList.length; i++) {\n      curatorPool.withdraw(msg.sender, voteList[i], deltaList[i]);\n    }\n\n    emit _ClaimCuratorDeco(_docId, deco, msg.sender);\n  }\n\n  function voteOnDocument(bytes32 _docId, uint _deposit) public {\n\n    require(msg.sender != 0);\n    require(_deposit > 0);\n    require(curatorPool.createTime() != 0);\n    require(map[_docId].createTime != 0);\n\n    token.transferFrom(msg.sender, address(this), _deposit);\n    curatorPool.addVote(msg.sender, _docId, _deposit);\n\n    emit _VoteOnDocument(_docId, _deposit, msg.sender);\n  }\n}\n",
  "sourcePath": "/Users/centroine/Documents/github/bluebottle/contracts/DocumentReg.sol",
  "compiler": {
    "name": "solc",
    "version": "0.4.24+commit.e67f0147.Emscripten.clang"
  },
  "schemaVersion": "2.0.1",
  "updatedAt": "2018-10-16T05:33:39.688Z"
}