{
  "contractName": "DocumentReg",
  "abi": [
    {
      "constant": true,
      "inputs": [],
      "name": "createTime",
      "outputs": [
        {
          "name": "",
          "type": "uint256"
        }
      ],
      "payable": false,
      "stateMutability": "view",
      "type": "function"
    },
    {
      "constant": false,
      "inputs": [],
      "name": "renounceOwnership",
      "outputs": [],
      "payable": false,
      "stateMutability": "nonpayable",
      "type": "function"
    },
    {
      "constant": true,
      "inputs": [],
      "name": "owner",
      "outputs": [
        {
          "name": "",
          "type": "address"
        }
      ],
      "payable": false,
      "stateMutability": "view",
      "type": "function"
    },
    {
      "constant": false,
      "inputs": [
        {
          "name": "_newOwner",
          "type": "address"
        }
      ],
      "name": "transferOwnership",
      "outputs": [],
      "payable": false,
      "stateMutability": "nonpayable",
      "type": "function"
    },
    {
      "anonymous": false,
      "inputs": [
        {
          "indexed": false,
          "name": "timestamp",
          "type": "uint256"
        },
        {
          "indexed": false,
          "name": "token",
          "type": "address"
        }
      ],
      "name": "_InitializeDocumentReg",
      "type": "event"
    },
    {
      "anonymous": false,
      "inputs": [
        {
          "indexed": true,
          "name": "docId",
          "type": "bytes32"
        },
        {
          "indexed": false,
          "name": "timestamp",
          "type": "uint256"
        },
        {
          "indexed": true,
          "name": "applicant",
          "type": "address"
        },
        {
          "indexed": false,
          "name": "count",
          "type": "uint256"
        }
      ],
      "name": "_RegisterNewDocument",
      "type": "event"
    },
    {
      "anonymous": false,
      "inputs": [
        {
          "indexed": true,
          "name": "docId",
          "type": "bytes32"
        },
        {
          "indexed": false,
          "name": "timestamp",
          "type": "uint256"
        },
        {
          "indexed": false,
          "name": "pageView",
          "type": "uint256"
        }
      ],
      "name": "_ConfirmPageView",
      "type": "event"
    },
    {
      "anonymous": false,
      "inputs": [
        {
          "indexed": false,
          "name": "timestamp",
          "type": "uint256"
        },
        {
          "indexed": false,
          "name": "pageView",
          "type": "uint256"
        },
        {
          "indexed": false,
          "name": "pageViewSquare",
          "type": "uint256"
        }
      ],
      "name": "_ConfirmTotalPageView",
      "type": "event"
    },
    {
      "anonymous": false,
      "inputs": [
        {
          "indexed": true,
          "name": "docId",
          "type": "bytes32"
        },
        {
          "indexed": false,
          "name": "deposit",
          "type": "uint256"
        },
        {
          "indexed": true,
          "name": "applicant",
          "type": "address"
        }
      ],
      "name": "_VoteOnDocument",
      "type": "event"
    },
    {
      "anonymous": false,
      "inputs": [
        {
          "indexed": true,
          "name": "docId",
          "type": "bytes32"
        },
        {
          "indexed": false,
          "name": "deco",
          "type": "uint256"
        },
        {
          "indexed": true,
          "name": "applicant",
          "type": "address"
        }
      ],
      "name": "_ClaimAuthorDeco",
      "type": "event"
    },
    {
      "anonymous": false,
      "inputs": [
        {
          "indexed": true,
          "name": "docId",
          "type": "bytes32"
        },
        {
          "indexed": false,
          "name": "deco",
          "type": "uint256"
        },
        {
          "indexed": true,
          "name": "applicant",
          "type": "address"
        }
      ],
      "name": "_ClaimCuratorDeco",
      "type": "event"
    },
    {
      "anonymous": false,
      "inputs": [
        {
          "indexed": true,
          "name": "previousOwner",
          "type": "address"
        }
      ],
      "name": "OwnershipRenounced",
      "type": "event"
    },
    {
      "anonymous": false,
      "inputs": [
        {
          "indexed": true,
          "name": "previousOwner",
          "type": "address"
        },
        {
          "indexed": true,
          "name": "newOwner",
          "type": "address"
        }
      ],
      "name": "OwnershipTransferred",
      "type": "event"
    },
    {
      "constant": false,
      "inputs": [
        {
          "name": "_token",
          "type": "address"
        },
        {
          "name": "_author",
          "type": "address"
        },
        {
          "name": "_curator",
          "type": "address"
        },
        {
          "name": "_utility",
          "type": "address"
        }
      ],
      "name": "init",
      "outputs": [],
      "payable": false,
      "stateMutability": "nonpayable",
      "type": "function"
    },
    {
      "constant": false,
      "inputs": [
        {
          "name": "_docId",
          "type": "bytes32"
        }
      ],
      "name": "register",
      "outputs": [],
      "payable": false,
      "stateMutability": "nonpayable",
      "type": "function"
    },
    {
      "constant": true,
      "inputs": [
        {
          "name": "_docId",
          "type": "bytes32"
        }
      ],
      "name": "contains",
      "outputs": [
        {
          "name": "",
          "type": "bool"
        }
      ],
      "payable": false,
      "stateMutability": "view",
      "type": "function"
    },
    {
      "constant": true,
      "inputs": [
        {
          "name": "_docId",
          "type": "bytes32"
        }
      ],
      "name": "getAuthorByKey",
      "outputs": [
        {
          "name": "",
          "type": "address"
        }
      ],
      "payable": false,
      "stateMutability": "view",
      "type": "function"
    },
    {
      "constant": true,
      "inputs": [
        {
          "name": "_docId",
          "type": "bytes32"
        }
      ],
      "name": "getCreateTimeByKey",
      "outputs": [
        {
          "name": "",
          "type": "uint256"
        }
      ],
      "payable": false,
      "stateMutability": "view",
      "type": "function"
    },
    {
      "constant": true,
      "inputs": [],
      "name": "count",
      "outputs": [
        {
          "name": "",
          "type": "uint256"
        }
      ],
      "payable": false,
      "stateMutability": "view",
      "type": "function"
    },
    {
      "constant": true,
      "inputs": [],
      "name": "getDocuments",
      "outputs": [
        {
          "name": "",
          "type": "bytes32[]"
        }
      ],
      "payable": false,
      "stateMutability": "view",
      "type": "function"
    },
    {
      "constant": false,
      "inputs": [
        {
          "name": "_date",
          "type": "uint256"
        },
        {
          "name": "_totalPageView",
          "type": "uint256"
        },
        {
          "name": "_totalPageViewSquare",
          "type": "uint256"
        }
      ],
      "name": "confirmTotalPageView",
      "outputs": [],
      "payable": false,
      "stateMutability": "nonpayable",
      "type": "function"
    },
    {
      "constant": true,
      "inputs": [
        {
          "name": "_date",
          "type": "uint256"
        }
      ],
      "name": "getTotalPageView",
      "outputs": [
        {
          "name": "",
          "type": "uint256"
        }
      ],
      "payable": false,
      "stateMutability": "view",
      "type": "function"
    },
    {
      "constant": true,
      "inputs": [
        {
          "name": "_date",
          "type": "uint256"
        }
      ],
      "name": "getTotalPageViewSquare",
      "outputs": [
        {
          "name": "",
          "type": "uint256"
        }
      ],
      "payable": false,
      "stateMutability": "view",
      "type": "function"
    },
    {
      "constant": false,
      "inputs": [
        {
          "name": "_docId",
          "type": "bytes32"
        },
        {
          "name": "_date",
          "type": "uint256"
        },
        {
          "name": "_pageView",
          "type": "uint256"
        }
      ],
      "name": "confirmPageView",
      "outputs": [],
      "payable": false,
      "stateMutability": "nonpayable",
      "type": "function"
    },
    {
      "constant": true,
      "inputs": [
        {
          "name": "_docId",
          "type": "bytes32"
        },
        {
          "name": "_date",
          "type": "uint256"
        }
      ],
      "name": "getPageView",
      "outputs": [
        {
          "name": "",
          "type": "uint256"
        }
      ],
      "payable": false,
      "stateMutability": "view",
      "type": "function"
    },
    {
      "constant": true,
      "inputs": [
        {
          "name": "_addr",
          "type": "address"
        },
        {
          "name": "_docId",
          "type": "bytes32"
        }
      ],
      "name": "determineAuthorDeco",
      "outputs": [
        {
          "name": "",
          "type": "uint256"
        }
      ],
      "payable": false,
      "stateMutability": "view",
      "type": "function"
    },
    {
      "constant": true,
      "inputs": [
        {
          "name": "_docId",
          "type": "bytes32"
        }
      ],
      "name": "determineAuthorDeco",
      "outputs": [
        {
          "name": "",
          "type": "uint256"
        }
      ],
      "payable": false,
      "stateMutability": "view",
      "type": "function"
    },
    {
      "constant": false,
      "inputs": [
        {
          "name": "_docId",
          "type": "bytes32"
        }
      ],
      "name": "claimAuthorDeco",
      "outputs": [],
      "payable": false,
      "stateMutability": "nonpayable",
      "type": "function"
    },
    {
      "constant": true,
      "inputs": [
        {
          "name": "_addr",
          "type": "address"
        },
        {
          "name": "_docId",
          "type": "bytes32"
        }
      ],
      "name": "estimateCuratorDeco",
      "outputs": [
        {
          "name": "",
          "type": "uint256"
        }
      ],
      "payable": false,
      "stateMutability": "view",
      "type": "function"
    },
    {
      "constant": true,
      "inputs": [
        {
          "name": "_docId",
          "type": "bytes32"
        }
      ],
      "name": "estimateCuratorDeco",
      "outputs": [
        {
          "name": "",
          "type": "uint256"
        }
      ],
      "payable": false,
      "stateMutability": "view",
      "type": "function"
    },
    {
      "constant": true,
      "inputs": [
        {
          "name": "_docId",
          "type": "bytes32"
        }
      ],
      "name": "determineCuratorDeco",
      "outputs": [
        {
          "name": "",
          "type": "uint256"
        }
      ],
      "payable": false,
      "stateMutability": "view",
      "type": "function"
    },
    {
      "constant": false,
      "inputs": [
        {
          "name": "_docId",
          "type": "bytes32"
        }
      ],
      "name": "claimCuratorDeco",
      "outputs": [],
      "payable": false,
      "stateMutability": "nonpayable",
      "type": "function"
    },
    {
      "constant": false,
      "inputs": [
        {
          "name": "_docId",
          "type": "bytes32"
        },
        {
          "name": "_deposit",
          "type": "uint256"
        }
      ],
      "name": "voteOnDocument",
      "outputs": [],
      "payable": false,
      "stateMutability": "nonpayable",
      "type": "function"
    }
  ],
  "bytecode": "0x6080604052336000806101000a81548173ffffffffffffffffffffffffffffffffffffffff021916908373ffffffffffffffffffffffffffffffffffffffff160217905550614939806100536000396000f30060806040526004361061013e576000357c0100000000000000000000000000000000000000000000000000000000900463ffffffff168063063580081461014357806306552ff31461018857806306661abd1461022b5780630af9d50c146102565780631448692c146102bb57806314766128146102ec5780631d1a696d146103275780632f50b02c146103705780634c9d31ca146103b557806361dcd7ab146104045780637006f10c1461042f578063715018a6146104945780637ca36b94146104ab5780638da5cb5b146104ec57806391275d4114610543578063999d6bf414610588578063a84637f3146105cd578063caac83e4146105fe578063e1fa8e8414610643578063ef2d870014610674578063f26b4482146106e0578063f2cf475414610721578063f2fde38b14610792578063f93eab33146107d5575b600080fd5b34801561014f57600080fd5b506101726004803603810190808035600019169060200190929190505050610816565b6040518082815260200191505060405180910390f35b34801561019457600080fd5b50610229600480360381019080803573ffffffffffffffffffffffffffffffffffffffff169060200190929190803573ffffffffffffffffffffffffffffffffffffffff169060200190929190803573ffffffffffffffffffffffffffffffffffffffff169060200190929190803573ffffffffffffffffffffffffffffffffffffffff169060200190929190505050610829565b005b34801561023757600080fd5b50610240610f04565b6040518082815260200191505060405180910390f35b34801561026257600080fd5b506102a5600480360381019080803573ffffffffffffffffffffffffffffffffffffffff1690602001909291908035600019169060200190929190505050610f11565b6040518082815260200191505060405180910390f35b3480156102c757600080fd5b506102ea60048036038101908080356000191690602001909291905050506115f1565b005b3480156102f857600080fd5b506103256004803603810190808035600019169060200190929190803590602001909291905050506121b1565b005b34801561033357600080fd5b50610356600480360381019080803560001916906020019092919050505061255d565b604051808215151515815260200191505060405180910390f35b34801561037c57600080fd5b5061039f6004803603810190808035600019169060200190929190505050612588565b6040518082815260200191505060405180910390f35b3480156103c157600080fd5b506103ee600480360381019080803560001916906020019092919080359060200190929190505050612e0e565b6040518082815260200191505060405180910390f35b34801561041057600080fd5b50610419612e75565b6040518082815260200191505060405180910390f35b34801561043b57600080fd5b5061047e600480360381019080803573ffffffffffffffffffffffffffffffffffffffff1690602001909291908035600019169060200190929190505050612e7b565b6040518082815260200191505060405180910390f35b3480156104a057600080fd5b506104a96136a4565b005b3480156104b757600080fd5b506104d6600480360381019080803590602001909291905050506137a6565b6040518082815260200191505060405180910390f35b3480156104f857600080fd5b506105016137d2565b604051808273ffffffffffffffffffffffffffffffffffffffff1673ffffffffffffffffffffffffffffffffffffffff16815260200191505060405180910390f35b34801561054f57600080fd5b5061057260048036038101908080356000191690602001909291905050506137f7565b6040518082815260200191505060405180910390f35b34801561059457600080fd5b506105b7600480360381019080803560001916906020019092919050505061380a565b6040518082815260200191505060405180910390f35b3480156105d957600080fd5b506105fc600480360381019080803560001916906020019092919050505061385f565b005b34801561060a57600080fd5b5061064160048036038101908080356000191690602001909291908035906020019092919080359060200190929190505050614087565b005b34801561064f57600080fd5b506106726004803603810190808035600019169060200190929190505050614193565b005b34801561068057600080fd5b506106896145a8565b6040518080602001828103825283818151815260200191508051906020019060200280838360005b838110156106cc5780820151818401526020810190506106b1565b505050509050019250505060405180910390f35b3480156106ec57600080fd5b5061070b60048036038101908080359060200190929190505050614604565b6040518082815260200191505060405180910390f35b34801561072d57600080fd5b506107506004803603810190808035600019169060200190929190505050614630565b604051808273ffffffffffffffffffffffffffffffffffffffff1673ffffffffffffffffffffffffffffffffffffffff16815260200191505060405180910390f35b34801561079e57600080fd5b506107d3600480360381019080803573ffffffffffffffffffffffffffffffffffffffff1690602001909291905050506146a5565b005b3480156107e157600080fd5b5061081460048036038101908080359060200190929190803590602001909291908035906020019092919050505061470c565b005b60006108223383610f11565b9050919050565b6000809054906101000a900473ffffffffffffffffffffffffffffffffffffffff1673ffffffffffffffffffffffffffffffffffffffff163373ffffffffffffffffffffffffffffffffffffffff1614151561088457600080fd5b60008473ffffffffffffffffffffffffffffffffffffffff16141580156108e357506000600560009054906101000a900473ffffffffffffffffffffffffffffffffffffffff1673ffffffffffffffffffffffffffffffffffffffff16145b15156108ee57600080fd5b60008373ffffffffffffffffffffffffffffffffffffffff161415801561094d57506000600760009054906101000a900473ffffffffffffffffffffffffffffffffffffffff1673ffffffffffffffffffffffffffffffffffffffff16145b151561095857600080fd5b60008273ffffffffffffffffffffffffffffffffffffffff16141580156109b757506000600860009054906101000a900473ffffffffffffffffffffffffffffffffffffffff1673ffffffffffffffffffffffffffffffffffffffff16145b15156109c257600080fd5b60008173ffffffffffffffffffffffffffffffffffffffff1614158015610a2157506000600660009054906101000a900473ffffffffffffffffffffffffffffffffffffffff1673ffffffffffffffffffffffffffffffffffffffff16145b1515610a2c57600080fd5b83600560006101000a81548173ffffffffffffffffffffffffffffffffffffffff021916908373ffffffffffffffffffffffffffffffffffffffff16021790555080600660006101000a81548173ffffffffffffffffffffffffffffffffffffffff021916908373ffffffffffffffffffffffffffffffffffffffff16021790555082600760006101000a81548173ffffffffffffffffffffffffffffffffffffffff021916908373ffffffffffffffffffffffffffffffffffffffff160217905550600760009054906101000a900473ffffffffffffffffffffffffffffffffffffffff1673ffffffffffffffffffffffffffffffffffffffff1663f09a4016600560009054906101000a900473ffffffffffffffffffffffffffffffffffffffff16600660009054906101000a900473ffffffffffffffffffffffffffffffffffffffff166040518363ffffffff167c0100000000000000000000000000000000000000000000000000000000028152600401808373ffffffffffffffffffffffffffffffffffffffff1673ffffffffffffffffffffffffffffffffffffffff1681526020018273ffffffffffffffffffffffffffffffffffffffff1673ffffffffffffffffffffffffffffffffffffffff16815260200192505050600060405180830381600087803b158015610c2457600080fd5b505af1158015610c38573d6000803e3d6000fd5b5050505081600860006101000a81548173ffffffffffffffffffffffffffffffffffffffff021916908373ffffffffffffffffffffffffffffffffffffffff160217905550600860009054906101000a900473ffffffffffffffffffffffffffffffffffffffff1673ffffffffffffffffffffffffffffffffffffffff1663f09a4016600560009054906101000a900473ffffffffffffffffffffffffffffffffffffffff16600660009054906101000a900473ffffffffffffffffffffffffffffffffffffffff166040518363ffffffff167c0100000000000000000000000000000000000000000000000000000000028152600401808373ffffffffffffffffffffffffffffffffffffffff1673ffffffffffffffffffffffffffffffffffffffff1681526020018273ffffffffffffffffffffffffffffffffffffffff1673ffffffffffffffffffffffffffffffffffffffff16815260200192505050600060405180830381600087803b158015610db257600080fd5b505af1158015610dc6573d6000803e3d6000fd5b50505050600660009054906101000a900473ffffffffffffffffffffffffffffffffffffffff1673ffffffffffffffffffffffffffffffffffffffff1663c03812226040518163ffffffff167c0100000000000000000000000000000000000000000000000000000000028152600401602060405180830381600087803b158015610e5057600080fd5b505af1158015610e64573d6000803e3d6000fd5b505050506040513d6020811015610e7a57600080fd5b81019080805190602001909291905050506009819055507f8742e3e96e789a57b576070034c2cdb8980c6be1567aabcac37dbe7130db927960095485604051808381526020018273ffffffffffffffffffffffffffffffffffffffff1673ffffffffffffffffffffffffffffffffffffffff1681526020019250505060405180910390a150505050565b6000600280549050905090565b60008060008060008060008060008a73ffffffffffffffffffffffffffffffffffffffff1614151515610f4357600080fd5b6000600760009054906101000a900473ffffffffffffffffffffffffffffffffffffffff1673ffffffffffffffffffffffffffffffffffffffff166361dcd7ab6040518163ffffffff167c0100000000000000000000000000000000000000000000000000000000028152600401602060405180830381600087803b158015610fcb57600080fd5b505af1158015610fdf573d6000803e3d6000fd5b505050506040513d6020811015610ff557600080fd5b81019080805190602001909291905050501415151561101357600080fd5b600760009054906101000a900473ffffffffffffffffffffffffffffffffffffffff1673ffffffffffffffffffffffffffffffffffffffff1663bfb2290d8b8b6040518363ffffffff167c0100000000000000000000000000000000000000000000000000000000028152600401808373ffffffffffffffffffffffffffffffffffffffff1673ffffffffffffffffffffffffffffffffffffffff168152602001826000191660001916815260200192505050602060405180830381600087803b1580156110e057600080fd5b505af11580156110f4573d6000803e3d6000fd5b505050506040513d602081101561110a57600080fd5b81019080805190602001909291905050509650600087121561112f57600097506115e4565b600760009054906101000a900473ffffffffffffffffffffffffffffffffffffffff1673ffffffffffffffffffffffffffffffffffffffff16638938dfc68b896040518363ffffffff167c0100000000000000000000000000000000000000000000000000000000028152600401808373ffffffffffffffffffffffffffffffffffffffff1673ffffffffffffffffffffffffffffffffffffffff16815260200182815260200192505050602060405180830381600087803b1580156111f457600080fd5b505af1158015611208573d6000803e3d6000fd5b505050506040513d602081101561121e57600080fd5b81019080805190602001909291905050509550600660009054906101000a900473ffffffffffffffffffffffffffffffffffffffff1673ffffffffffffffffffffffffffffffffffffffff16637ff8b20e6040518163ffffffff167c0100000000000000000000000000000000000000000000000000000000028152600401602060405180830381600087803b1580156112b757600080fd5b505af11580156112cb573d6000803e3d6000fd5b505050506040513d60208110156112e157600080fd5b81019080805190602001909291905050509450600093505b848610156115e057600086141561140d57600760009054906101000a900473ffffffffffffffffffffffffffffffffffffffff1673ffffffffffffffffffffffffffffffffffffffff1663ddb358ef8b896040518363ffffffff167c0100000000000000000000000000000000000000000000000000000000028152600401808373ffffffffffffffffffffffffffffffffffffffff1673ffffffffffffffffffffffffffffffffffffffff16815260200182815260200192505050602060405180830381600087803b1580156113cf57600080fd5b505af11580156113e3573d6000803e3d6000fd5b505050506040513d60208110156113f957600080fd5b810190808051906020019092919050505095505b84861115151561141957fe5b61142286614604565b925061142e8987612e0e565b9150600760009054906101000a900473ffffffffffffffffffffffffffffffffffffffff1673ffffffffffffffffffffffffffffffffffffffff16631a75394083856040518363ffffffff167c01000000000000000000000000000000000000000000000000000000000281526004018083815260200182815260200192505050602060405180830381600087803b1580156114c957600080fd5b505af11580156114dd573d6000803e3d6000fd5b505050506040513d60208110156114f357600080fd5b810190808051906020019092919050505084019350600660009054906101000a900473ffffffffffffffffffffffffffffffffffffffff1673ffffffffffffffffffffffffffffffffffffffff1663f733ad956040518163ffffffff167c0100000000000000000000000000000000000000000000000000000000028152600401602060405180830381600087803b15801561158e57600080fd5b505af11580156115a2573d6000803e3d6000fd5b505050506040513d60208110156115b857600080fd5b81019080805190602001909291905050508601905080861015156115d857fe5b8095506112f9565b8397505b5050505050505092915050565b60008060006060806000806000806000806000600860009054906101000a900473ffffffffffffffffffffffffffffffffffffffff1673ffffffffffffffffffffffffffffffffffffffff166361dcd7ab6040518163ffffffff167c0100000000000000000000000000000000000000000000000000000000028152600401602060405180830381600087803b15801561168a57600080fd5b505af115801561169e573d6000803e3d6000fd5b505050506040513d60208110156116b457600080fd5b8101908080519060200190929190505050141515156116d257600080fd5b60009a50600860009054906101000a900473ffffffffffffffffffffffffffffffffffffffff1673ffffffffffffffffffffffffffffffffffffffff16633b7aecf7338e60006040518463ffffffff167c0100000000000000000000000000000000000000000000000000000000028152600401808473ffffffffffffffffffffffffffffffffffffffff1673ffffffffffffffffffffffffffffffffffffffff16815260200183600019166000191681526020018281526020019350505050602060405180830381600087803b1580156117ac57600080fd5b505af11580156117c0573d6000803e3d6000fd5b505050506040513d60208110156117d657600080fd5b810190808051906020019092919050505099505b60008a121515611913578a806001019b5050600860009054906101000a900473ffffffffffffffffffffffffffffffffffffffff1673ffffffffffffffffffffffffffffffffffffffff16633b7aecf7338e8d6040518463ffffffff167c0100000000000000000000000000000000000000000000000000000000028152600401808473ffffffffffffffffffffffffffffffffffffffff1673ffffffffffffffffffffffffffffffffffffffff16815260200183600019166000191681526020018281526020019350505050602060405180830381600087803b1580156118d157600080fd5b505af11580156118e5573d6000803e3d6000fd5b505050506040513d60208110156118fb57600080fd5b810190808051906020019092919050505099506117ea565b60008b1415611921576121a3565b600098508a6040519080825280602002602001820160405280156119545781602001602082028038833980820191505090505b5097508a6040519080825280602002602001820160405280156119865781602001602082028038833980820191505090505b509650600860009054906101000a900473ffffffffffffffffffffffffffffffffffffffff1673ffffffffffffffffffffffffffffffffffffffff16633b7aecf7338e60006040518463ffffffff167c0100000000000000000000000000000000000000000000000000000000028152600401808473ffffffffffffffffffffffffffffffffffffffff1673ffffffffffffffffffffffffffffffffffffffff16815260200183600019166000191681526020018281526020019350505050602060405180830381600087803b158015611a5f57600080fd5b505af1158015611a73573d6000803e3d6000fd5b505050506040513d6020811015611a8957600080fd5b81019080805190602001909291905050509950600095505b8a861015611f205760009450600860009054906101000a900473ffffffffffffffffffffffffffffffffffffffff1673ffffffffffffffffffffffffffffffffffffffff16636a34a4cb338c6040518363ffffffff167c0100000000000000000000000000000000000000000000000000000000028152600401808373ffffffffffffffffffffffffffffffffffffffff1673ffffffffffffffffffffffffffffffffffffffff16815260200182815260200192505050602060405180830381600087803b158015611b7257600080fd5b505af1158015611b86573d6000803e3d6000fd5b505050506040513d6020811015611b9c57600080fd5b81019080805190602001909291905050509350600092505b601e831015611dc257611bc78c85612e0e565b9150611bd2846137a6565b9050600860009054906101000a900473ffffffffffffffffffffffffffffffffffffffff1673ffffffffffffffffffffffffffffffffffffffff1663b5895b0533888786866040518663ffffffff167c0100000000000000000000000000000000000000000000000000000000028152600401808673ffffffffffffffffffffffffffffffffffffffff1673ffffffffffffffffffffffffffffffffffffffff16815260200185815260200184815260200183815260200182815260200195505050505050602060405180830381600087803b158015611cb157600080fd5b505af1158015611cc5573d6000803e3d6000fd5b505050506040513d6020811015611cdb57600080fd5b810190808051906020019092919050505085019450600660009054906101000a900473ffffffffffffffffffffffffffffffffffffffff1673ffffffffffffffffffffffffffffffffffffffff1663f733ad956040518163ffffffff167c0100000000000000000000000000000000000000000000000000000000028152600401602060405180830381600087803b158015611d7657600080fd5b505af1158015611d8a573d6000803e3d6000fd5b505050506040513d6020811015611da057600080fd5b8101908080519060200190929190505050840193508280600101935050611bb4565b8489019850898887815181101515611dd657fe5b9060200190602002018181525050848787815181101515611df357fe5b9060200190602002018181525050600860009054906101000a900473ffffffffffffffffffffffffffffffffffffffff1673ffffffffffffffffffffffffffffffffffffffff16633b7aecf7338e8d6040518463ffffffff167c0100000000000000000000000000000000000000000000000000000000028152600401808473ffffffffffffffffffffffffffffffffffffffff1673ffffffffffffffffffffffffffffffffffffffff16815260200183600019166000191681526020018281526020019350505050602060405180830381600087803b158015611ed657600080fd5b505af1158015611eea573d6000803e3d6000fd5b505050506040513d6020811015611f0057600080fd5b810190808051906020019092919050505099508580600101965050611aa1565b600560009054906101000a900473ffffffffffffffffffffffffffffffffffffffff1673ffffffffffffffffffffffffffffffffffffffff1663a9059cbb338b6040518363ffffffff167c0100000000000000000000000000000000000000000000000000000000028152600401808373ffffffffffffffffffffffffffffffffffffffff1673ffffffffffffffffffffffffffffffffffffffff16815260200182815260200192505050602060405180830381600087803b158015611fe557600080fd5b505af1158015611ff9573d6000803e3d6000fd5b505050506040513d602081101561200f57600080fd5b810190808051906020019092919050505050600095505b875186101561214f57600860009054906101000a900473ffffffffffffffffffffffffffffffffffffffff1673ffffffffffffffffffffffffffffffffffffffff1663b5c5f672338a8981518110151561207c57fe5b906020019060200201518a8a81518110151561209457fe5b906020019060200201516040518463ffffffff167c0100000000000000000000000000000000000000000000000000000000028152600401808473ffffffffffffffffffffffffffffffffffffffff1673ffffffffffffffffffffffffffffffffffffffff1681526020018381526020018281526020019350505050600060405180830381600087803b15801561212a57600080fd5b505af115801561213e573d6000803e3d6000fd5b505050508580600101965050612026565b3373ffffffffffffffffffffffffffffffffffffffff168c600019167f0d05cf332bede1c308ea206b19098f1ffea617c145707a91a4ec213b7c547e928b6040518082815260200191505060405180910390a35b505050505050505050505050565b60003373ffffffffffffffffffffffffffffffffffffffff16141515156121d757600080fd5b6000811115156121e657600080fd5b6000600860009054906101000a900473ffffffffffffffffffffffffffffffffffffffff1673ffffffffffffffffffffffffffffffffffffffff166361dcd7ab6040518163ffffffff167c0100000000000000000000000000000000000000000000000000000000028152600401602060405180830381600087803b15801561226e57600080fd5b505af1158015612282573d6000803e3d6000fd5b505050506040513d602081101561229857600080fd5b8101908080519060200190929190505050141515156122b657600080fd5b600060016000846000191660001916815260200190815260200160002060010154141515156122e457600080fd5b600560009054906101000a900473ffffffffffffffffffffffffffffffffffffffff1673ffffffffffffffffffffffffffffffffffffffff166323b872dd3330846040518463ffffffff167c0100000000000000000000000000000000000000000000000000000000028152600401808473ffffffffffffffffffffffffffffffffffffffff1673ffffffffffffffffffffffffffffffffffffffff1681526020018373ffffffffffffffffffffffffffffffffffffffff1673ffffffffffffffffffffffffffffffffffffffff1681526020018281526020019350505050602060405180830381600087803b1580156123dd57600080fd5b505af11580156123f1573d6000803e3d6000fd5b505050506040513d602081101561240757600080fd5b810190808051906020019092919050505050600860009054906101000a900473ffffffffffffffffffffffffffffffffffffffff1673ffffffffffffffffffffffffffffffffffffffff166302096d833384846040518463ffffffff167c0100000000000000000000000000000000000000000000000000000000028152600401808473ffffffffffffffffffffffffffffffffffffffff1673ffffffffffffffffffffffffffffffffffffffff16815260200183600019166000191681526020018281526020019350505050600060405180830381600087803b1580156124ee57600080fd5b505af1158015612502573d6000803e3d6000fd5b505050503373ffffffffffffffffffffffffffffffffffffffff1682600019167f0c75c6a0cc6b6403ea7acee71d8aa1556e09a34e8560c6f9ab5b6152bfcd8ef1836040518082815260200191505060405180910390a35050565b6000806001600084600019166000191681526020019081526020016000206001015414159050919050565b600080600080600080600080600080600860009054906101000a900473ffffffffffffffffffffffffffffffffffffffff1673ffffffffffffffffffffffffffffffffffffffff166361dcd7ab6040518163ffffffff167c0100000000000000000000000000000000000000000000000000000000028152600401602060405180830381600087803b15801561261d57600080fd5b505af1158015612631573d6000803e3d6000fd5b505050506040513d602081101561264757600080fd5b81019080805190602001909291905050501415151561266557600080fd5b60009750600860009054906101000a900473ffffffffffffffffffffffffffffffffffffffff1673ffffffffffffffffffffffffffffffffffffffff16633b7aecf7338c60006040518463ffffffff167c0100000000000000000000000000000000000000000000000000000000028152600401808473ffffffffffffffffffffffffffffffffffffffff1673ffffffffffffffffffffffffffffffffffffffff16815260200183600019166000191681526020018281526020019350505050602060405180830381600087803b15801561273f57600080fd5b505af1158015612753573d6000803e3d6000fd5b505050506040513d602081101561276957600080fd5b810190808051906020019092919050505096505b6000871215156128a6578780600101985050600860009054906101000a900473ffffffffffffffffffffffffffffffffffffffff1673ffffffffffffffffffffffffffffffffffffffff16633b7aecf7338c8a6040518463ffffffff167c0100000000000000000000000000000000000000000000000000000000028152600401808473ffffffffffffffffffffffffffffffffffffffff1673ffffffffffffffffffffffffffffffffffffffff16815260200183600019166000191681526020018281526020019350505050602060405180830381600087803b15801561286457600080fd5b505af1158015612878573d6000803e3d6000fd5b505050506040513d602081101561288e57600080fd5b8101908080519060200190929190505050965061277d565b60009550600860009054906101000a900473ffffffffffffffffffffffffffffffffffffffff1673ffffffffffffffffffffffffffffffffffffffff16633b7aecf7338c60006040518463ffffffff167c0100000000000000000000000000000000000000000000000000000000028152600401808473ffffffffffffffffffffffffffffffffffffffff1673ffffffffffffffffffffffffffffffffffffffff16815260200183600019166000191681526020018281526020019350505050602060405180830381600087803b15801561298057600080fd5b505af1158015612994573d6000803e3d6000fd5b505050506040513d60208110156129aa57600080fd5b81019080805190602001909291905050509650600094505b87851015612dfe57600860009054906101000a900473ffffffffffffffffffffffffffffffffffffffff1673ffffffffffffffffffffffffffffffffffffffff16636a34a4cb33896040518363ffffffff167c0100000000000000000000000000000000000000000000000000000000028152600401808373ffffffffffffffffffffffffffffffffffffffff1673ffffffffffffffffffffffffffffffffffffffff16815260200182815260200192505050602060405180830381600087803b158015612a8f57600080fd5b505af1158015612aa3573d6000803e3d6000fd5b505050506040513d6020811015612ab957600080fd5b81019080805190602001909291905050509350600092505b601e831015612cdf57612ae48a85612e0e565b9150612aef846137a6565b9050600860009054906101000a900473ffffffffffffffffffffffffffffffffffffffff1673ffffffffffffffffffffffffffffffffffffffff1663b5895b0533878786866040518663ffffffff167c0100000000000000000000000000000000000000000000000000000000028152600401808673ffffffffffffffffffffffffffffffffffffffff1673ffffffffffffffffffffffffffffffffffffffff16815260200185815260200184815260200183815260200182815260200195505050505050602060405180830381600087803b158015612bce57600080fd5b505af1158015612be2573d6000803e3d6000fd5b505050506040513d6020811015612bf857600080fd5b810190808051906020019092919050505086019550600660009054906101000a900473ffffffffffffffffffffffffffffffffffffffff1673ffffffffffffffffffffffffffffffffffffffff1663f733ad956040518163ffffffff167c0100000000000000000000000000000000000000000000000000000000028152600401602060405180830381600087803b158015612c9357600080fd5b505af1158015612ca7573d6000803e3d6000fd5b505050506040513d6020811015612cbd57600080fd5b8101908080519060200190929190505050840193508280600101935050612ad1565b600860009054906101000a900473ffffffffffffffffffffffffffffffffffffffff1673ffffffffffffffffffffffffffffffffffffffff16633b7aecf7338c8a6040518463ffffffff167c0100000000000000000000000000000000000000000000000000000000028152600401808473ffffffffffffffffffffffffffffffffffffffff1673ffffffffffffffffffffffffffffffffffffffff16815260200183600019166000191681526020018281526020019350505050602060405180830381600087803b158015612db457600080fd5b505af1158015612dc8573d6000803e3d6000fd5b505050506040513d6020811015612dde57600080fd5b8101908080519060200190929190505050965084806001019550506129c2565b8598505050505050505050919050565b6000806001600085600019166000191681526020019081526020016000206001015414151515612e3d57600080fd5b600160008460001916600019168152602001908152602001600020600201600083815260200190815260200160002054905092915050565b60095481565b6000806000806000806000806000808b73ffffffffffffffffffffffffffffffffffffffff1614151515612eae57600080fd5b6000600860009054906101000a900473ffffffffffffffffffffffffffffffffffffffff1673ffffffffffffffffffffffffffffffffffffffff166361dcd7ab6040518163ffffffff167c0100000000000000000000000000000000000000000000000000000000028152600401602060405180830381600087803b158015612f3657600080fd5b505af1158015612f4a573d6000803e3d6000fd5b505050506040513d6020811015612f6057600080fd5b810190808051906020019092919050505014151515612f7e57600080fd5b600660009054906101000a900473ffffffffffffffffffffffffffffffffffffffff1673ffffffffffffffffffffffffffffffffffffffff16637ff8b20e6040518163ffffffff167c0100000000000000000000000000000000000000000000000000000000028152600401602060405180830381600087803b15801561300457600080fd5b505af1158015613018573d6000803e3d6000fd5b505050506040513d602081101561302e57600080fd5b81019080805190602001909291905050509750600860009054906101000a900473ffffffffffffffffffffffffffffffffffffffff1673ffffffffffffffffffffffffffffffffffffffff1663e652f4cc8c6040518263ffffffff167c0100000000000000000000000000000000000000000000000000000000028152600401808273ffffffffffffffffffffffffffffffffffffffff1673ffffffffffffffffffffffffffffffffffffffff168152602001915050602060405180830381600087803b1580156130fe57600080fd5b505af1158015613112573d6000803e3d6000fd5b505050506040513d602081101561312857600080fd5b81019080805190602001909291905050509650600087141561314d5760009850613696565b60009550600094505b8685101561369257600860009054906101000a900473ffffffffffffffffffffffffffffffffffffffff1673ffffffffffffffffffffffffffffffffffffffff16636a34a4cb8c876040518363ffffffff167c0100000000000000000000000000000000000000000000000000000000028152600401808373ffffffffffffffffffffffffffffffffffffffff1673ffffffffffffffffffffffffffffffffffffffff16815260200182815260200192505050602060405180830381600087803b15801561322357600080fd5b505af1158015613237573d6000803e3d6000fd5b505050506040513d602081101561324d57600080fd5b810190808051906020019092919050505093508960001916600860009054906101000a900473ffffffffffffffffffffffffffffffffffffffff1673ffffffffffffffffffffffffffffffffffffffff166332c658b18d886040518363ffffffff167c0100000000000000000000000000000000000000000000000000000000028152600401808373ffffffffffffffffffffffffffffffffffffffff1673ffffffffffffffffffffffffffffffffffffffff16815260200182815260200192505050602060405180830381600087803b15801561332a57600080fd5b505af115801561333e573d6000803e3d6000fd5b505050506040513d602081101561335457600080fd5b81019080805190602001909291905050506000191614801561347557506000600860009054906101000a900473ffffffffffffffffffffffffffffffffffffffff1673ffffffffffffffffffffffffffffffffffffffff1663da3605418d886040518363ffffffff167c0100000000000000000000000000000000000000000000000000000000028152600401808373ffffffffffffffffffffffffffffffffffffffff1673ffffffffffffffffffffffffffffffffffffffff16815260200182815260200192505050602060405180830381600087803b15801561343857600080fd5b505af115801561344c573d6000803e3d6000fd5b505050506040513d602081101561346257600080fd5b8101908080519060200190929190505050145b15613685578392505b8783111515613684576134918a84612e0e565b915061349c836137a6565b9050600860009054906101000a900473ffffffffffffffffffffffffffffffffffffffff1673ffffffffffffffffffffffffffffffffffffffff1663b5895b058c878686866040518663ffffffff167c0100000000000000000000000000000000000000000000000000000000028152600401808673ffffffffffffffffffffffffffffffffffffffff1673ffffffffffffffffffffffffffffffffffffffff16815260200185815260200184815260200183815260200182815260200195505050505050602060405180830381600087803b15801561357b57600080fd5b505af115801561358f573d6000803e3d6000fd5b505050506040513d60208110156135a557600080fd5b810190808051906020019092919050505086019550600660009054906101000a900473ffffffffffffffffffffffffffffffffffffffff1673ffffffffffffffffffffffffffffffffffffffff1663f733ad956040518163ffffffff167c0100000000000000000000000000000000000000000000000000000000028152600401602060405180830381600087803b15801561364057600080fd5b505af1158015613654573d6000803e3d6000fd5b505050506040513d602081101561366a57600080fd5b81019080805190602001909291905050508301925061347e565b5b8480600101955050613156565b8598505b505050505050505092915050565b6000809054906101000a900473ffffffffffffffffffffffffffffffffffffffff1673ffffffffffffffffffffffffffffffffffffffff163373ffffffffffffffffffffffffffffffffffffffff161415156136ff57600080fd5b6000809054906101000a900473ffffffffffffffffffffffffffffffffffffffff1673ffffffffffffffffffffffffffffffffffffffff167ff8df31144d9c2f0f6b59d69b8b98abd5459d07f2742c4df920b25aae33c6482060405160405180910390a260008060006101000a81548173ffffffffffffffffffffffffffffffffffffffff021916908373ffffffffffffffffffffffffffffffffffffffff160217905550565b60008082141515156137b757600080fd5b60046000838152602001908152602001600020549050919050565b6000809054906101000a900473ffffffffffffffffffffffffffffffffffffffff1681565b60006138033383612e7b565b9050919050565b600080600160008460001916600019168152602001908152602001600020600101541415151561383957600080fd5b600160008360001916600019168152602001908152602001600020600101549050919050565b6000806000806000806000803373ffffffffffffffffffffffffffffffffffffffff161415151561388f57600080fd5b6000600760009054906101000a900473ffffffffffffffffffffffffffffffffffffffff1673ffffffffffffffffffffffffffffffffffffffff166361dcd7ab6040518163ffffffff167c0100000000000000000000000000000000000000000000000000000000028152600401602060405180830381600087803b15801561391757600080fd5b505af115801561392b573d6000803e3d6000fd5b505050506040513d602081101561394157600080fd5b81019080805190602001909291905050501415151561395f57600080fd5b600760009054906101000a900473ffffffffffffffffffffffffffffffffffffffff1673ffffffffffffffffffffffffffffffffffffffff1663bfb2290d338a6040518363ffffffff167c0100000000000000000000000000000000000000000000000000000000028152600401808373ffffffffffffffffffffffffffffffffffffffff1673ffffffffffffffffffffffffffffffffffffffff168152602001826000191660001916815260200192505050602060405180830381600087803b158015613a2c57600080fd5b505af1158015613a40573d6000803e3d6000fd5b505050506040513d6020811015613a5657600080fd5b810190808051906020019092919050505096506000871215613a775761407d565b600760009054906101000a900473ffffffffffffffffffffffffffffffffffffffff1673ffffffffffffffffffffffffffffffffffffffff16638938dfc633896040518363ffffffff167c0100000000000000000000000000000000000000000000000000000000028152600401808373ffffffffffffffffffffffffffffffffffffffff1673ffffffffffffffffffffffffffffffffffffffff16815260200182815260200192505050602060405180830381600087803b158015613b3c57600080fd5b505af1158015613b50573d6000803e3d6000fd5b505050506040513d6020811015613b6657600080fd5b81019080805190602001909291905050509550600660009054906101000a900473ffffffffffffffffffffffffffffffffffffffff1673ffffffffffffffffffffffffffffffffffffffff16637ff8b20e6040518163ffffffff167c0100000000000000000000000000000000000000000000000000000000028152600401602060405180830381600087803b158015613bff57600080fd5b505af1158015613c13573d6000803e3d6000fd5b505050506040513d6020811015613c2957600080fd5b81019080805190602001909291905050509450600093505b84861015613f28576000861415613d5557600760009054906101000a900473ffffffffffffffffffffffffffffffffffffffff1673ffffffffffffffffffffffffffffffffffffffff1663ddb358ef33896040518363ffffffff167c0100000000000000000000000000000000000000000000000000000000028152600401808373ffffffffffffffffffffffffffffffffffffffff1673ffffffffffffffffffffffffffffffffffffffff16815260200182815260200192505050602060405180830381600087803b158015613d1757600080fd5b505af1158015613d2b573d6000803e3d6000fd5b505050506040513d6020811015613d4157600080fd5b810190808051906020019092919050505095505b848611151515613d6157fe5b613d6a86614604565b9250613d768887612e0e565b9150600760009054906101000a900473ffffffffffffffffffffffffffffffffffffffff1673ffffffffffffffffffffffffffffffffffffffff16631a75394083856040518363ffffffff167c01000000000000000000000000000000000000000000000000000000000281526004018083815260200182815260200192505050602060405180830381600087803b158015613e1157600080fd5b505af1158015613e25573d6000803e3d6000fd5b505050506040513d6020811015613e3b57600080fd5b810190808051906020019092919050505084019350600660009054906101000a900473ffffffffffffffffffffffffffffffffffffffff1673ffffffffffffffffffffffffffffffffffffffff1663f733ad956040518163ffffffff167c0100000000000000000000000000000000000000000000000000000000028152600401602060405180830381600087803b158015613ed657600080fd5b505af1158015613eea573d6000803e3d6000fd5b505050506040513d6020811015613f0057600080fd5b8101908080519060200190929190505050860190508086101515613f2057fe5b809550613c41565b600560009054906101000a900473ffffffffffffffffffffffffffffffffffffffff1673ffffffffffffffffffffffffffffffffffffffff1663a9059cbb33866040518363ffffffff167c0100000000000000000000000000000000000000000000000000000000028152600401808373ffffffffffffffffffffffffffffffffffffffff1673ffffffffffffffffffffffffffffffffffffffff16815260200182815260200192505050602060405180830381600087803b158015613fed57600080fd5b505af1158015614001573d6000803e3d6000fd5b505050506040513d602081101561401757600080fd5b8101908080519060200190929190505050503373ffffffffffffffffffffffffffffffffffffffff1688600019167f1e19d15a571203b2e654bb50b66257cd7b41fadb41508f490724427e2c35e88b866040518082815260200191505060405180910390a35b5050505050505050565b60008060009054906101000a900473ffffffffffffffffffffffffffffffffffffffff1673ffffffffffffffffffffffffffffffffffffffff163373ffffffffffffffffffffffffffffffffffffffff161415156140e457600080fd5b6000600160008660001916600019168152602001908152602001600020600101541415151561411257600080fd5b6001600085600019166000191681526020019081526020016000209050818160020160008581526020019081526020016000208190555083600019167f591abb51ea6c697839be33fbd705609f83fa02d3112a5cc20595ca3b4592d6758484604051808381526020018281526020019250505060405180910390a250505050565b6000806000600160008560001916600019168152602001908152602001600020600101541415156141c357600080fd5b600660009054906101000a900473ffffffffffffffffffffffffffffffffffffffff1673ffffffffffffffffffffffffffffffffffffffff16637ff8b20e6040518163ffffffff167c0100000000000000000000000000000000000000000000000000000000028152600401602060405180830381600087803b15801561424957600080fd5b505af115801561425d573d6000803e3d6000fd5b505050506040513d602081101561427357600080fd5b8101908080519060200190929190505050915060408051908101604052803373ffffffffffffffffffffffffffffffffffffffff1681526020018381525060016000856000191660001916815260200190815260200160002060008201518160000160006101000a81548173ffffffffffffffffffffffffffffffffffffffff021916908373ffffffffffffffffffffffffffffffffffffffff16021790555060208201518160010155905050600283908060018154018082558091505090600182039060005260206000200160009091929091909150906000191690559050600760009054906101000a900473ffffffffffffffffffffffffffffffffffffffff1673ffffffffffffffffffffffffffffffffffffffff1663be44d6f984336040518363ffffffff167c01000000000000000000000000000000000000000000000000000000000281526004018083600019166000191681526020018273ffffffffffffffffffffffffffffffffffffffff1673ffffffffffffffffffffffffffffffffffffffff16815260200192505050600060405180830381600087803b15801561442057600080fd5b505af1158015614434573d6000803e3d6000fd5b50505050600760009054906101000a900473ffffffffffffffffffffffffffffffffffffffff1673ffffffffffffffffffffffffffffffffffffffff166394e6f5b933856040518363ffffffff167c0100000000000000000000000000000000000000000000000000000000028152600401808373ffffffffffffffffffffffffffffffffffffffff1673ffffffffffffffffffffffffffffffffffffffff168152602001826000191660001916815260200192505050602060405180830381600087803b15801561450557600080fd5b505af1158015614519573d6000803e3d6000fd5b505050506040513d602081101561452f57600080fd5b8101908080519060200190929190505050151561454857fe5b3373ffffffffffffffffffffffffffffffffffffffff1683600019167f6bffea36ac098b5dc12e6277eb4ebcc6aa8baa9c1f4534aa3594ab56844a1acb8484604051808381526020018281526020019250505060405180910390a3505050565b606060028054806020026020016040519081016040528092919081815260200182805480156145fa57602002820191906000526020600020905b815460001916815260200190600101908083116145e2575b5050505050905090565b600080821415151561461557600080fd5b60036000838152602001908152602001600020549050919050565b600080600160008460001916600019168152602001908152602001600020600101541415151561465f57600080fd5b60016000836000191660001916815260200190815260200160002060000160009054906101000a900473ffffffffffffffffffffffffffffffffffffffff169050919050565b6000809054906101000a900473ffffffffffffffffffffffffffffffffffffffff1673ffffffffffffffffffffffffffffffffffffffff163373ffffffffffffffffffffffffffffffffffffffff1614151561470057600080fd5b61470981614813565b50565b6000809054906101000a900473ffffffffffffffffffffffffffffffffffffffff1673ffffffffffffffffffffffffffffffffffffffff163373ffffffffffffffffffffffffffffffffffffffff1614151561476757600080fd5b6000831415151561477757600080fd5b6000821415151561478757600080fd5b6000811415151561479757600080fd5b8160036000858152602001908152602001600020819055508060046000858152602001908152602001600020819055507f01e21700b429ba33287c59ef71ead1370b1049e0f9137ed26b930e45590cf8b383838360405180848152602001838152602001828152602001935050505060405180910390a1505050565b600073ffffffffffffffffffffffffffffffffffffffff168173ffffffffffffffffffffffffffffffffffffffff161415151561484f57600080fd5b8073ffffffffffffffffffffffffffffffffffffffff166000809054906101000a900473ffffffffffffffffffffffffffffffffffffffff1673ffffffffffffffffffffffffffffffffffffffff167f8be0079c531659141344cd1fd0a4f28419497f9722a3daafe3b4186f6b6457e060405160405180910390a3806000806101000a81548173ffffffffffffffffffffffffffffffffffffffff021916908373ffffffffffffffffffffffffffffffffffffffff160217905550505600a165627a7a723058204c70f1f01c10f69c0433b4d1e285fdc60083ba2508933e1e712c56a5e7b683040029",
  "source": "pragma solidity ^0.4.24;\n\nimport \"./Deck.sol\";\nimport \"./Utility.sol\";\nimport \"./AuthorPool.sol\";\nimport \"./CuratorPool.sol\";\nimport \"openzeppelin-solidity/contracts/ownership/Ownable.sol\";\n\ncontract DocumentReg is Ownable {\n\n  event _InitializeDocumentReg(uint timestamp, address token);\n  event _RegisterNewDocument(bytes32 indexed docId, uint timestamp, address indexed applicant, uint count);\n  event _ConfirmPageView(bytes32 indexed docId, uint timestamp, uint pageView);\n  event _ConfirmTotalPageView(uint timestamp, uint pageView, uint pageViewSquare);\n  event _VoteOnDocument(bytes32 indexed docId, uint deposit, address indexed applicant);\n  event _ClaimAuthorDeco(bytes32 indexed docId, uint deco, address indexed applicant);\n  event _ClaimCuratorDeco(bytes32 indexed docId, uint deco, address indexed applicant);\n  //event _DetermineReward(bytes32 indexed docId, uint timestamp, uint pageView, uint totalPageView, uint dailyReward);\n\n  struct Document {\n    address author;\n    uint createTime;\n    mapping (uint => uint) pageViews; // date => page views\n  }\n\n  // maps document id to associated document data\n  mapping (bytes32 => Document) internal map;\n\n  // key list for iteration\n  bytes32[] private docList;\n\n  // store total page view square for reward calculation\n  //  : timestamp(yyyy-mm-dd) => daily total page view square\n  mapping (uint => uint) private totalPageView;\n  mapping (uint => uint) private totalPageViewSquare;\n\n  // private variables\n  Deck private token;\n  Utility private util;\n  AuthorPool private authorPool;\n  CuratorPool private curatorPool;\n\n  // public variables\n  uint public createTime;\n\n  function init(address _token, address _author, address _curator, address _utility) public\n    onlyOwner()\n  {\n\n    require(_token != 0 && address(token) == 0);\n    require(_author != 0 && address(authorPool) == 0);\n    require(_curator != 0 && address(curatorPool) == 0);\n    require(_utility != 0 && address(util) == 0);\n\n    token = Deck(_token);\n    util = Utility(_utility);\n\n    // init author pool\n    authorPool = AuthorPool(_author);\n    authorPool.init(token, util);\n\n    // init curator pool\n    curatorPool = CuratorPool(_curator);\n    curatorPool.init(token, util);\n\n    createTime = util.getTimeMillis();\n    emit _InitializeDocumentReg(createTime, _token);\n  }\n\n  // -------------------------------\n  // Document Registry Functions\n  // -------------------------------\n\n  // register a new document\n  function register(bytes32 _docId) public {\n\n    require(map[_docId].createTime == 0); // register once\n\n    uint tMillis = util.getDateMillis();\n\n    // adding to document registry\n    map[_docId] = Document(msg.sender, tMillis);\n    uint index = docList.push(_docId);\n\n    // creating user document mapping\n    authorPool.registerUserDocument(_docId, msg.sender);\n    assert(authorPool.containsUserDocument(msg.sender, _docId));\n\n    emit _RegisterNewDocument(_docId, tMillis, msg.sender, index);\n  }\n\n  function contains(bytes32 _docId) public view returns (bool) {\n    return map[_docId].createTime != 0;\n  }\n\n  function getAuthorByKey(bytes32 _docId) public view returns (address) {\n    require(map[_docId].createTime != 0);\n    return map[_docId].author;\n  }\n\n  function getCreateTimeByKey(bytes32 _docId) public view returns (uint) {\n    require(map[_docId].createTime != 0);\n    return map[_docId].createTime;\n  }\n\n  function count() public view returns (uint) {\n    return uint(docList.length);\n  }\n\n  // document list for iteration\n  function getDocuments() public view returns (bytes32[]) {\n    return docList;\n  }\n\n  // -------------------------------\n  // Total Page View Square Functions\n  // -------------------------------\n\n  function confirmTotalPageView(uint _date, uint _totalPageView, uint _totalPageViewSquare) public\n    onlyOwner()\n  {\n    require(_date != 0);\n    require(_totalPageView != 0);\n    require(_totalPageViewSquare != 0);\n    totalPageView[_date] = _totalPageView;\n    totalPageViewSquare[_date] = _totalPageViewSquare;\n    emit _ConfirmTotalPageView(_date, _totalPageView, _totalPageViewSquare);\n  }\n\n  function getTotalPageView(uint _date) public view returns (uint) {\n    require(_date != 0);\n    return totalPageView[_date];\n  }\n\n  function getTotalPageViewSquare(uint _date) public view returns (uint) {\n    require(_date != 0);\n    return totalPageViewSquare[_date];\n  }\n\n  // -------------------------------\n  // Daily Page View Functions\n  // -------------------------------\n\n  function confirmPageView(bytes32 _docId, uint _date, uint _pageView) public\n    onlyOwner()\n  {\n    require(map[_docId].createTime != 0);\n    Document storage doc = map[_docId];\n    doc.pageViews[_date] = _pageView;\n    emit _ConfirmPageView(_docId, _date, _pageView);\n  }\n\n  function getPageView(bytes32 _docId, uint _date) public view returns (uint) {\n    require(map[_docId].createTime != 0);\n    return map[_docId].pageViews[_date];\n  }\n\n  // -------------------------------\n  // Determine author reward after last claim\n  // -------------------------------\n\n  function determineAuthorDeco(bytes32 _docId) public view returns (uint) {\n    return determineAuthorDeco(msg.sender, _docId);\n  }\n\n  function determineAuthorDeco(address _addr, bytes32 _docId) public view returns (uint) {\n    require(_addr != 0);\n    require(authorPool.createTime() != 0);\n    int idx = authorPool.getUserDocumentIndex(_addr, _docId);\n    if (idx < 0) {\n      return uint(0);\n    }\n\n    uint claimDate = authorPool.getUserDocumentLastClaimedDate(_addr, idx);\n    uint dateMillis = util.getDateMillis();\n\n    uint sumDeco = 0;\n\n    while (claimDate < dateMillis) {\n      if (claimDate == 0) {\n        claimDate = authorPool.getUserDocumentListedDate(_addr, idx);\n      }\n      assert(claimDate <= dateMillis);\n\n      uint tpv = getTotalPageView(claimDate);\n      uint pv = getPageView(_docId, claimDate);\n      sumDeco += authorPool.determineUserDocumentDeco(pv, tpv);\n\n      uint nextDate = claimDate + util.getOneDayMillis();\n      assert(claimDate < nextDate);\n      claimDate = nextDate;\n\n      //emit _DetermineReward(_docId, lastClaimedDate, pv, tpv, dailyRewardPool);\n    }\n\n    return sumDeco;\n  }\n\n  function claimAuthorDeco(bytes32 _docId) public {\n    require(msg.sender != 0);\n    require(authorPool.createTime() != 0);\n    int idx = authorPool.getUserDocumentIndex(msg.sender, _docId);\n    if (idx < 0) {\n      return;\n    }\n\n    uint claimDate = authorPool.getUserDocumentLastClaimedDate(msg.sender, idx);\n    uint dateMillis = util.getDateMillis();\n\n    uint sumDeco = 0;\n    while (claimDate < dateMillis) {\n      if (claimDate == 0) {\n        claimDate = authorPool.getUserDocumentListedDate(msg.sender, idx);\n      }\n      assert(claimDate <= dateMillis);\n\n      uint tpv = getTotalPageView(claimDate);\n      uint pv = getPageView(_docId, claimDate);\n      sumDeco += authorPool.determineUserDocumentDeco(pv, tpv);\n\n      uint nextDate = claimDate + util.getOneDayMillis();\n      assert(claimDate < nextDate);\n      claimDate = nextDate;\n    }\n\n    token.transfer(msg.sender, sumDeco);\n    emit _ClaimAuthorDeco(_docId, sumDeco, msg.sender);\n  }\n\n  // -------------------------------\n  // Estimate curator reward after last claim\n  // -------------------------------\n\n  function estimateCuratorDeco(bytes32 _docId) public view returns (uint) {\n    return estimateCuratorDeco(msg.sender, _docId);\n  }\n\n  function estimateCuratorDeco(address _addr, bytes32 _docId) public view returns (uint) {\n    require(_addr != 0);\n    require(curatorPool.createTime() != 0);\n\n    uint dateMillis = util.getDateMillis();\n    uint numVotes = curatorPool.getVoteCount(_addr);\n    if (numVotes == 0) {\n      return uint(0);\n    }\n\n    uint deco = 0;\n    for (uint i=0; i<numVotes; i++) {\n      uint startDate = curatorPool.getStartDate(_addr, i);\n      if (curatorPool.getDocId(_addr, i) == _docId\n       && curatorPool.getWithdraw(_addr, i) == 0) {\n        for (uint dt=startDate; dt<=dateMillis; dt+=util.getOneDayMillis()) {\n          uint pv = getPageView(_docId, dt);\n          uint tpvs = getTotalPageViewSquare(dt);\n          deco += curatorPool.determineDeco(_addr, i, dt, pv, tpvs);\n        }\n      }\n    }\n    return deco;\n  }\n\n  // -------------------------------\n  // Determine curator reward after last claim\n  // -------------------------------\n  function determineCuratorDeco(bytes32 _docId) public view returns (uint) {\n\n    // validation check\n    require(curatorPool.createTime() != 0);\n\n    uint numVotes = 0;\n    int idx = curatorPool.indexOfNextVoteForClaim(msg.sender, _docId, uint(0));\n    while(idx >= 0)\n    {\n      numVotes++;\n      idx = curatorPool.indexOfNextVoteForClaim(msg.sender, _docId, uint(idx));\n    }\n\n    uint deco = 0;\n    idx = curatorPool.indexOfNextVoteForClaim(msg.sender, _docId, uint(0));\n    for(uint i=0; i<numVotes; i++)\n    {\n      uint dt = curatorPool.getStartDate(msg.sender, uint(idx));\n      for (uint j=0; j<30; j++) {\n        uint pv = getPageView(_docId, dt);\n        uint tpvs = getTotalPageViewSquare(dt);\n        deco += curatorPool.determineDeco(msg.sender, i, dt, pv, tpvs);\n        dt += util.getOneDayMillis();\n      }\n      idx = curatorPool.indexOfNextVoteForClaim(msg.sender, _docId, uint(idx));\n    }\n\n    return deco;\n  }\n\n  function claimCuratorDeco(bytes32 _docId) public {\n\n    // validation check\n    require(curatorPool.createTime() != 0);\n\n    //       vote    \n    // 1.    vote  \n    //  a.  docuemnt  vote \n    //  b.   Vote  \n    //  c.  30   ( )\n    uint numVotes = 0;\n    int idx = curatorPool.indexOfNextVoteForClaim(msg.sender, _docId, uint(0));\n    while(idx >= 0)\n    {\n      numVotes++;\n      idx = curatorPool.indexOfNextVoteForClaim(msg.sender, _docId, uint(idx));\n    }\n    if (numVotes == 0) {\n      return;\n    }\n\n    // 2. 1      \n    //  a.    18 decimals \n    //  b.  30 page view     \n    //  c.      \n    uint deco = 0;\n    uint[] memory voteList = new uint[](numVotes);\n    uint[] memory deltaList = new uint[](numVotes);\n    idx = curatorPool.indexOfNextVoteForClaim(msg.sender, _docId, uint(0));\n    for(uint i=0; i<numVotes; i++)\n    {\n      uint delta = 0;\n      uint dt = curatorPool.getStartDate(msg.sender, uint(idx));\n      for (uint j=0; j<30; j++) {\n        uint pv = getPageView(_docId, dt);\n        uint tpvs = getTotalPageViewSquare(dt);\n        delta += curatorPool.determineDeco(msg.sender, i, dt, pv, tpvs);\n        dt += util.getOneDayMillis();\n      }\n      deco += delta;\n      voteList[i] = uint(idx);\n      deltaList[i] = delta;\n      idx = curatorPool.indexOfNextVoteForClaim(msg.sender, _docId, uint(idx));\n    }\n\n    // 3.   document registry contract   \n    token.transfer(msg.sender, deco);\n\n    // 4.   vote withdraw  \n    for (i=0; i<voteList.length; i++) {\n      curatorPool.withdraw(msg.sender, voteList[i], deltaList[i]);\n    }\n\n    emit _ClaimCuratorDeco(_docId, deco, msg.sender);\n  }\n\n  function voteOnDocument(bytes32 _docId, uint _deposit) public {\n\n    require(msg.sender != 0);\n    require(_deposit > 0);\n    require(curatorPool.createTime() != 0);\n    require(map[_docId].createTime != 0);\n\n    token.transferFrom(msg.sender, address(this), _deposit);\n    curatorPool.addVote(msg.sender, _docId, _deposit);\n\n    emit _VoteOnDocument(_docId, _deposit, msg.sender);\n  }\n}\n",
  "sourcePath": "/Users/centroine/Documents/github/bluebottle/contracts/DocumentReg.sol",
  "compiler": {
    "name": "solc",
    "version": "0.4.24+commit.e67f0147.Emscripten.clang"
  },
  "schemaVersion": "2.0.1",
  "updatedAt": "2018-10-16T08:55:33.714Z"
}