{
  "contractName": "DocumentRegistry",
  "abi": [
    {
      "constant": true,
      "inputs": [],
      "name": "foundation",
      "outputs": [
        {
          "name": "",
          "type": "address"
        }
      ],
      "payable": false,
      "stateMutability": "view",
      "type": "function"
    },
    {
      "constant": true,
      "inputs": [
        {
          "name": "",
          "type": "bytes32"
        }
      ],
      "name": "documentRegistry",
      "outputs": [
        {
          "name": "timestamp",
          "type": "uint256"
        },
        {
          "name": "owner",
          "type": "address"
        }
      ],
      "payable": false,
      "stateMutability": "view",
      "type": "function"
    },
    {
      "anonymous": false,
      "inputs": [
        {
          "indexed": true,
          "name": "docId",
          "type": "bytes32"
        },
        {
          "indexed": true,
          "name": "applicant",
          "type": "address"
        }
      ],
      "name": "_RegisterNewDocument",
      "type": "event"
    },
    {
      "anonymous": false,
      "inputs": [
        {
          "indexed": true,
          "name": "docId",
          "type": "bytes32"
        },
        {
          "indexed": false,
          "name": "timestamp",
          "type": "uint256"
        },
        {
          "indexed": false,
          "name": "pageView",
          "type": "uint256"
        }
      ],
      "name": "_ConfirmPageView",
      "type": "event"
    },
    {
      "constant": false,
      "inputs": [],
      "name": "init",
      "outputs": [],
      "payable": false,
      "stateMutability": "nonpayable",
      "type": "function"
    },
    {
      "constant": false,
      "inputs": [
        {
          "name": "_docId",
          "type": "bytes32"
        }
      ],
      "name": "registerDocument",
      "outputs": [],
      "payable": false,
      "stateMutability": "nonpayable",
      "type": "function"
    },
    {
      "constant": true,
      "inputs": [
        {
          "name": "_docId",
          "type": "bytes32"
        }
      ],
      "name": "isExist",
      "outputs": [
        {
          "name": "",
          "type": "bool"
        }
      ],
      "payable": false,
      "stateMutability": "view",
      "type": "function"
    },
    {
      "constant": false,
      "inputs": [
        {
          "name": "_docId",
          "type": "bytes32"
        },
        {
          "name": "_timestamp",
          "type": "uint256"
        },
        {
          "name": "_pageView",
          "type": "uint256"
        }
      ],
      "name": "confirmPageView",
      "outputs": [],
      "payable": false,
      "stateMutability": "nonpayable",
      "type": "function"
    },
    {
      "constant": true,
      "inputs": [
        {
          "name": "_docId",
          "type": "bytes32"
        },
        {
          "name": "_timestamp",
          "type": "uint256"
        }
      ],
      "name": "getPageView",
      "outputs": [
        {
          "name": "",
          "type": "uint256"
        }
      ],
      "payable": false,
      "stateMutability": "view",
      "type": "function"
    }
  ],
  "bytecode": "0x608060405234801561001057600080fd5b50610784806100206000396000f300608060405260043610610083576000357c0100000000000000000000000000000000000000000000000000000000900463ffffffff16806341fbb050146100885780634c9d31ca146100df578063762fee181461012e5780639b13197414610177578063a437a40d146101a8578063caac83e414610220578063e1c7392a14610265575b600080fd5b34801561009457600080fd5b5061009d61027c565b604051808273ffffffffffffffffffffffffffffffffffffffff1673ffffffffffffffffffffffffffffffffffffffff16815260200191505060405180910390f35b3480156100eb57600080fd5b506101186004803603810190808035600019169060200190929190803590602001909291905050506102a2565b6040518082815260200191505060405180910390f35b34801561013a57600080fd5b5061015d60048036038101908080356000191690602001909291905050506103c7565b604051808215151515815260200191505060405180910390f35b34801561018357600080fd5b506101a66004803603810190808035600019169060200190929190505050610437565b005b3480156101b457600080fd5b506101d76004803603810190808035600019169060200190929190505050610547565b604051808381526020018273ffffffffffffffffffffffffffffffffffffffff1673ffffffffffffffffffffffffffffffffffffffff1681526020019250505060405180910390f35b34801561022c57600080fd5b506102636004803603810190808035600019169060200190929190803590602001909291908035906020019092919050505061058b565b005b34801561027157600080fd5b5061027a6106ab565b005b600160009054906101000a900473ffffffffffffffffffffffffffffffffffffffff1681565b60003373ffffffffffffffffffffffffffffffffffffffff16600160009054906101000a900473ffffffffffffffffffffffffffffffffffffffff1673ffffffffffffffffffffffffffffffffffffffff1614151561030057600080fd5b6000806000856000191660001916815260200190815260200160002060010160009054906101000a900473ffffffffffffffffffffffffffffffffffffffff1673ffffffffffffffffffffffffffffffffffffffff161415151561036357600080fd5b60008060008560001916600019168152602001908152602001600020600001541415151561039057600080fd5b6000808460001916600019168152602001908152602001600020600201600083815260200190815260200160002054905092915050565b600080600080846000191660001916815260200190815260200160002060010160009054906101000a900473ffffffffffffffffffffffffffffffffffffffff1673ffffffffffffffffffffffffffffffffffffffff16141561042d5760009050610432565b600190505b919050565b600080600083600019166000191681526020019081526020016000206000015414151561046357600080fd5b60408051908101604052804281526020013373ffffffffffffffffffffffffffffffffffffffff1681525060008083600019166000191681526020019081526020016000206000820151816000015560208201518160010160006101000a81548173ffffffffffffffffffffffffffffffffffffffff021916908373ffffffffffffffffffffffffffffffffffffffff1602179055509050503373ffffffffffffffffffffffffffffffffffffffff1681600019167f9657cad6fa478e47766d5587766719a0d499486a6105435c880a66911d3b30ee60405160405180910390a350565b60006020528060005260406000206000915090508060000154908060010160009054906101000a900473ffffffffffffffffffffffffffffffffffffffff16905082565b60003373ffffffffffffffffffffffffffffffffffffffff16600160009054906101000a900473ffffffffffffffffffffffffffffffffffffffff1673ffffffffffffffffffffffffffffffffffffffff161415156105e957600080fd5b60008060008660001916600019168152602001908152602001600020600001541415151561061657600080fd5b60008085600019166000191681526020019081526020016000209050818160020160008581526020019081526020016000208190555083600019167f591abb51ea6c697839be33fbd705609f83fa02d3112a5cc20595ca3b4592d6758483600201600087815260200190815260200160002054604051808381526020018281526020019250505060405180910390a250505050565b60003373ffffffffffffffffffffffffffffffffffffffff161415801561070a57506000600160009054906101000a900473ffffffffffffffffffffffffffffffffffffffff1673ffffffffffffffffffffffffffffffffffffffff16145b151561071557600080fd5b33600160006101000a81548173ffffffffffffffffffffffffffffffffffffffff021916908373ffffffffffffffffffffffffffffffffffffffff1602179055505600a165627a7a723058207dbfcf494be5fc1ca2448bb5942f9e17e894b5b10bda84ec56befc75014571a20029",
  "source": "pragma solidity ^0.4.24;\n\nimport \"openzeppelin-solidity/contracts/math/SafeMath.sol\";\n\ncontract DocumentRegistry {\n\n  event _RegisterNewDocument(bytes32 indexed docId, address indexed applicant);\n  event _ConfirmPageView(bytes32 indexed docId, uint timestamp, uint pageView);\n\n  using SafeMath for uint;\n\n  struct Document {\n    uint timestamp;\n    address owner;\n    mapping (uint => uint) pageViews;\n  }\n\n  mapping (bytes32 => Document) public documentRegistry;\n\n  // foundation info\n  address public foundation;\n\n  function init() public {\n    require(msg.sender != 0 && address(foundation) == 0);\n    foundation = msg.sender;\n  }\n\n  function registerDocument(bytes32 _docId) external {\n    require(documentRegistry[_docId].timestamp == 0); // register only\n    documentRegistry[_docId] = Document(block.timestamp, msg.sender);\n    emit _RegisterNewDocument(_docId, msg.sender);\n  }\n\n  function isExist(bytes32 _docId) external view returns (bool) {\n    if(documentRegistry[_docId].owner == 0) return false;\n    return true;\n  }\n\n  function confirmPageView(bytes32 _docId, uint _timestamp, uint _pageView) external {\n    require(foundation == msg.sender); // foundation only\n    require(documentRegistry[_docId].timestamp != 0);\n    Document storage document = documentRegistry[_docId];\n    document.pageViews[_timestamp] = _pageView;\n    emit _ConfirmPageView(_docId, _timestamp, document.pageViews[_timestamp]);\n  }\n\n  function getPageView(bytes32 _docId, uint _timestamp) external view returns (uint) {\n    require(foundation == msg.sender); // foundation only\n    require(documentRegistry[_docId].owner != 0);\n    require(documentRegistry[_docId].timestamp != 0);\n    return documentRegistry[_docId].pageViews[_timestamp];\n  }\n\n}\n",
  "sourcePath": "/Users/macdev/Documents/decompany/workspace/blue-bottle/contracts/DocumentRegistry.sol",
  "compiler": {
    "name": "solc",
    "version": "0.4.24+commit.e67f0147.Emscripten.clang"
  },
  "schemaVersion": "2.0.1",
  "updatedAt": "2018-10-05T13:28:29.999Z"
}