{
  "contractName": "DocumentRegistry",
  "abi": [
    {
      "anonymous": false,
      "inputs": [
        {
          "indexed": true,
          "name": "docId",
          "type": "bytes32"
        },
        {
          "indexed": false,
          "name": "timestamp",
          "type": "uint256"
        },
        {
          "indexed": true,
          "name": "applicant",
          "type": "address"
        }
      ],
      "name": "_RegisterNewDocument",
      "type": "event"
    },
    {
      "anonymous": false,
      "inputs": [
        {
          "indexed": true,
          "name": "docId",
          "type": "bytes32"
        },
        {
          "indexed": false,
          "name": "timestamp",
          "type": "uint256"
        },
        {
          "indexed": false,
          "name": "pageView",
          "type": "uint256"
        }
      ],
      "name": "_ConfirmPageView",
      "type": "event"
    },
    {
      "constant": false,
      "inputs": [
        {
          "name": "_timestamp",
          "type": "uint256"
        },
        {
          "name": "_rewardPool",
          "type": "uint256"
        }
      ],
      "name": "init",
      "outputs": [],
      "payable": false,
      "stateMutability": "nonpayable",
      "type": "function"
    },
    {
      "constant": true,
      "inputs": [],
      "name": "isInitialized",
      "outputs": [
        {
          "name": "",
          "type": "bool"
        }
      ],
      "payable": false,
      "stateMutability": "view",
      "type": "function"
    },
    {
      "constant": false,
      "inputs": [
        {
          "name": "_docId",
          "type": "bytes32"
        }
      ],
      "name": "registerDocument",
      "outputs": [],
      "payable": false,
      "stateMutability": "nonpayable",
      "type": "function"
    },
    {
      "constant": true,
      "inputs": [
        {
          "name": "i",
          "type": "uint256"
        }
      ],
      "name": "getUserDocument",
      "outputs": [
        {
          "name": "",
          "type": "string"
        }
      ],
      "payable": false,
      "stateMutability": "view",
      "type": "function"
    },
    {
      "constant": true,
      "inputs": [],
      "name": "getUserDocumentsCount",
      "outputs": [
        {
          "name": "",
          "type": "uint256"
        }
      ],
      "payable": false,
      "stateMutability": "view",
      "type": "function"
    },
    {
      "constant": true,
      "inputs": [
        {
          "name": "_docId",
          "type": "bytes32"
        }
      ],
      "name": "isExist",
      "outputs": [
        {
          "name": "",
          "type": "bool"
        }
      ],
      "payable": false,
      "stateMutability": "view",
      "type": "function"
    },
    {
      "constant": false,
      "inputs": [
        {
          "name": "_docId",
          "type": "bytes32"
        },
        {
          "name": "_timestamp",
          "type": "uint256"
        },
        {
          "name": "_pageView",
          "type": "uint256"
        }
      ],
      "name": "confirmPageView",
      "outputs": [],
      "payable": false,
      "stateMutability": "nonpayable",
      "type": "function"
    },
    {
      "constant": true,
      "inputs": [
        {
          "name": "_docId",
          "type": "bytes32"
        },
        {
          "name": "_timestamp",
          "type": "uint256"
        }
      ],
      "name": "getPageView",
      "outputs": [
        {
          "name": "",
          "type": "uint256"
        }
      ],
      "payable": false,
      "stateMutability": "view",
      "type": "function"
    },
    {
      "constant": false,
      "inputs": [
        {
          "name": "_timestamp",
          "type": "uint256"
        },
        {
          "name": "_totalPageView",
          "type": "uint256"
        }
      ],
      "name": "confirmTotalPageView",
      "outputs": [],
      "payable": false,
      "stateMutability": "nonpayable",
      "type": "function"
    },
    {
      "constant": true,
      "inputs": [
        {
          "name": "_timestamp",
          "type": "uint256"
        }
      ],
      "name": "getTotalPageView",
      "outputs": [
        {
          "name": "",
          "type": "uint256"
        }
      ],
      "payable": false,
      "stateMutability": "view",
      "type": "function"
    },
    {
      "constant": true,
      "inputs": [
        {
          "name": "_docId",
          "type": "bytes32"
        },
        {
          "name": "_timestamp",
          "type": "uint256"
        }
      ],
      "name": "getRewardAmount",
      "outputs": [
        {
          "name": "",
          "type": "uint256"
        }
      ],
      "payable": false,
      "stateMutability": "view",
      "type": "function"
    }
  ],
  "bytecode": "0x60806040526305265c0060035534801561001857600080fd5b50610dd0806100286000396000f3006080604052600436106100af576000357c0100000000000000000000000000000000000000000000000000000000900463ffffffff168063392e53cd146100b45780634c9d31ca146100e35780636cfa40c114610132578063762fee18146101815780639b131974146101ca578063a5843f08146101fb578063ac73e1e614610232578063bf8a1aaa1461025d578063caac83e414610303578063f26b448214610348578063f28a07ee14610389575b600080fd5b3480156100c057600080fd5b506100c96103c0565b604051808215151515815260200191505060405180910390f35b3480156100ef57600080fd5b5061011c600480360381019080803560001916906020019092919080359060200190929190505050610413565b6040518082815260200191505060405180910390f35b34801561013e57600080fd5b5061016b6004803603810190808035600019169060200190929190803590602001909291905050506104db565b6040518082815260200191505060405180910390f35b34801561018d57600080fd5b506101b060048036038101908080356000191690602001909291905050506106a2565b604051808215151515815260200191505060405180910390f35b3480156101d657600080fd5b506101f96004803603810190808035600019169060200190929190505050610712565b005b34801561020757600080fd5b5061023060048036038101908080359060200190929190803590602001909291905050506108d7565b005b34801561023e57600080fd5b50610247610994565b6040518082815260200191505060405180910390f35b34801561026957600080fd5b50610288600480360381019080803590602001909291905050506109de565b6040518080602001828103825283818151815260200191508051906020019080838360005b838110156102c85780820151818401526020810190506102ad565b50505050905090810190601f1680156102f55780820380516001836020036101000a031916815260200191505b509250505060405180910390f35b34801561030f57600080fd5b5061034660048036038101908080356000191690602001909291908035906020019092919080359060200190929190505050610a96565b005b34801561035457600080fd5b5061037360048036038101908080359060200190929190505050610bb6565b6040518082815260200191505060405180910390f35b34801561039557600080fd5b506103be6004803603810190808035906020019092919080359060200190929190505050610be2565b005b600080600660009054906101000a900473ffffffffffffffffffffffffffffffffffffffff1673ffffffffffffffffffffffffffffffffffffffff16141561040b5760009050610410565b600190505b90565b600080600080856000191660001916815260200190815260200160002060000160009054906101000a900473ffffffffffffffffffffffffffffffffffffffff1673ffffffffffffffffffffffffffffffffffffffff161415151561047757600080fd5b6000806000856000191660001916815260200190815260200160002060010154141515156104a457600080fd5b6000808460001916600019168152602001908152602001600020600301600083815260200190815260200160002054905092915050565b600080600080600080600087141515156104f457600080fd5b60008060008a6000191660001916815260200190815260200160002060000160009054906101000a900473ffffffffffffffffffffffffffffffffffffffff1673ffffffffffffffffffffffffffffffffffffffff161415151561055757600080fd5b60008060008a60001916600019168152602001908152602001600020600101541415151561058457600080fd5b60008089600019166000191681526020019081526020016000206002015494506105ac610c6a565b9350600092506000841115156105c157600080fd5b6000851115156105d057600080fd5b5b868510156106945760008514156106035760008089600019166000191681526020019081526020016000206001015494505b600260008681526020019081526020016000205491506000808960001916600019168152602001908152602001600020600301600086815260200190815260200160002054905060008211801561065a5750600081115b1561067657816102bc8583020281151561067057fe5b04830192505b60035485018510151561068857600080fd5b600354850194506105d1565b829550505050505092915050565b600080600080846000191660001916815260200190815260200160002060000160009054906101000a900473ffffffffffffffffffffffffffffffffffffffff1673ffffffffffffffffffffffffffffffffffffffff161415610708576000905061070d565b600190505b919050565b600080600080600085600019166000191681526020019081526020016000206001015414151561074157600080fd5b6103e860035481151561075057fe5b044281151561075b57fe5b049150600354820290506060604051908101604052803373ffffffffffffffffffffffffffffffffffffffff1681526020018281526020016000815250600080856000191660001916815260200190815260200160002060008201518160000160006101000a81548173ffffffffffffffffffffffffffffffffffffffff021916908373ffffffffffffffffffffffffffffffffffffffff1602179055506020820151816001015560408201518160020155905050600160003373ffffffffffffffffffffffffffffffffffffffff1673ffffffffffffffffffffffffffffffffffffffff1681526020019081526020016000208390806001815401808255809150509060018203906000526020600020016000909192909190915090600019169055503373ffffffffffffffffffffffffffffffffffffffff1683600019167fea5c4e8f33627fb52f20c3883ddbb6e8fa6ab88c64b2897fdf005903ae975e1d836040518082815260200191505060405180910390a3505050565b60003373ffffffffffffffffffffffffffffffffffffffff161415801561093657506000600660009054906101000a900473ffffffffffffffffffffffffffffffffffffffff1673ffffffffffffffffffffffffffffffffffffffff16145b151561094157600080fd5b33600660006101000a81548173ffffffffffffffffffffffffffffffffffffffff021916908373ffffffffffffffffffffffffffffffffffffffff16021790555081600481905550806005819055505050565b6000600160003373ffffffffffffffffffffffffffffffffffffffff1673ffffffffffffffffffffffffffffffffffffffff16815260200190815260200160002080549050905090565b606081600160003373ffffffffffffffffffffffffffffffffffffffff1673ffffffffffffffffffffffffffffffffffffffff16815260200190815260200160002080549050111515610a3057600080fd5b610a8f600160003373ffffffffffffffffffffffffffffffffffffffff1673ffffffffffffffffffffffffffffffffffffffff16815260200190815260200160002083815481101515610a7f57fe5b9060005260206000200154610cd8565b9050919050565b60003373ffffffffffffffffffffffffffffffffffffffff16600660009054906101000a900473ffffffffffffffffffffffffffffffffffffffff1673ffffffffffffffffffffffffffffffffffffffff16141515610af457600080fd5b600080600086600019166000191681526020019081526020016000206001015414151515610b2157600080fd5b60008085600019166000191681526020019081526020016000209050818160030160008581526020019081526020016000208190555083600019167f591abb51ea6c697839be33fbd705609f83fa02d3112a5cc20595ca3b4592d6758483600301600087815260200190815260200160002054604051808381526020018281526020019250505060405180910390a250505050565b6000808214151515610bc757600080fd5b60026000838152602001908152602001600020549050919050565b3373ffffffffffffffffffffffffffffffffffffffff16600660009054906101000a900473ffffffffffffffffffffffffffffffffffffffff1673ffffffffffffffffffffffffffffffffffffffff16141515610c3e57600080fd5b60008214151515610c4e57600080fd5b8060026000848152602001908152602001600020819055505050565b6000806000806000804294506103e8600454811515610c8557fe5b04935083850392506103e8600354811515610c9c57fe5b0483811515610ca757fe5b04915061016d82811515610cb757fe5b0490508060020a6001811515610cc957fe5b04600554029550505050505090565b606080600060206040519080825280601f01601f191660200182016040528015610d115781602001602082028038833980820191505090505b5091505b6020811015610d9a578381602081101515610d2c57fe5b1a7f0100000000000000000000000000000000000000000000000000000000000000028282815181101515610d5d57fe5b9060200101907effffffffffffffffffffffffffffffffffffffffffffffffffffffffffffff1916908160001a9053508080600101915050610d15565b81925050509190505600a165627a7a723058202f76f67ae9a9628579e43e90572f91726159b9b15855160c694bfda2d722e79a0029",
  "source": "pragma solidity ^0.4.24;\n\ncontract DocumentRegistry {\n\n  event _RegisterNewDocument(bytes32 indexed docId, uint timestamp, address indexed applicant);\n  event _ConfirmPageView(bytes32 indexed docId, uint timestamp, uint pageView);\n  //event _GetRewardAmount(bytes32 indexed docId, uint timestamp, uint lastClaimed, uint dailyReward, uint sumReward);\n\n  struct Document {\n    address owner;\n    uint timestamp;\n    uint claimedDate;\n    mapping (uint => uint) dailyPageViews; // timestamp => page views\n  }\n\n  // whole document registry\n  mapping (bytes32 => Document) private documentRegistry;\n\n  // user to document mappings\n  mapping (address => bytes32[]) private userDocuments;\n\n  // store total page views for reward calculation\n  //  : timestamp(yyyy-mm-dd) => daily total page view\n  mapping (uint => uint) private totalPageViews;\n\n  uint private ONE_DAY_MILLIS = 86400000;\n  uint private createDate;\n  uint private initialDailyRewardPool;\n  address private foundation;\n\n  function init(uint _timestamp, uint _rewardPool) public {\n    require(msg.sender != 0 && address(foundation) == 0);\n    foundation = msg.sender;\n    createDate = _timestamp;\n    initialDailyRewardPool = _rewardPool;\n  }\n\n  function isInitialized() external view returns (bool) {\n    if(foundation == 0) return false;\n    return true;\n  }\n\n  function registerDocument(bytes32 _docId) public {\n\n    require(documentRegistry[_docId].timestamp == 0); // register once\n\n    uint tDay = block.timestamp / (ONE_DAY_MILLIS / 1000);\n    uint tMillis = tDay * ONE_DAY_MILLIS;\n\n    // adding to document registry\n    documentRegistry[_docId] = Document(msg.sender, tMillis, 0);\n    // creating user document mapping\n    userDocuments[msg.sender].push(_docId);\n\n    emit _RegisterNewDocument(_docId, tMillis, msg.sender);\n  }\n\n  function getUserDocument(uint i) external view returns (string) {\n    require(userDocuments[msg.sender].length > i); // check if exist\n    return bytes32ToStr(userDocuments[msg.sender][i]);\n  }\n\n  function getUserDocumentsCount() external view returns (uint) {\n    return userDocuments[msg.sender].length;\n  }\n\n  function isExist(bytes32 _docId) external view returns (bool) {\n    if(documentRegistry[_docId].owner == 0) return false;\n    return true;\n  }\n\n  function confirmPageView(bytes32 _docId, uint _timestamp, uint _pageView) external {\n    require(foundation == msg.sender); // foundation only\n    require(documentRegistry[_docId].timestamp != 0);\n    Document storage document = documentRegistry[_docId];\n    document.dailyPageViews[_timestamp] = _pageView;\n    emit _ConfirmPageView(_docId, _timestamp, document.dailyPageViews[_timestamp]);\n  }\n\n  function getPageView(bytes32 _docId, uint _timestamp) external view returns (uint) {\n    require(documentRegistry[_docId].owner != 0);\n    require(documentRegistry[_docId].timestamp != 0);\n    return documentRegistry[_docId].dailyPageViews[_timestamp];\n  }\n\n  function confirmTotalPageView(uint _timestamp, uint _totalPageView) external {\n    require(foundation == msg.sender); // foundation only\n    require(_timestamp != 0);\n    totalPageViews[_timestamp] = _totalPageView;\n  }\n\n  function getTotalPageView(uint _timestamp) external view returns (uint) {\n    require(_timestamp != 0);\n    return totalPageViews[_timestamp];\n  }\n\n  function getRewardAmount(bytes32 _docId, uint _timestamp) external view returns (uint) {\n\n    require(_timestamp != 0);\n    require(documentRegistry[_docId].owner != 0);\n    require(documentRegistry[_docId].timestamp != 0);\n\n    uint lastClaimedDate = documentRegistry[_docId].claimedDate;\n    uint drp = getDailyRewardPool();\n    uint sumReward = 0;\n\n    require(drp > 0);\n    require(lastClaimedDate > 0);\n\n    while (lastClaimedDate < _timestamp) {\n\n      if (lastClaimedDate == 0) {\n        lastClaimedDate = documentRegistry[_docId].timestamp;\n      }\n\n      uint tpv = totalPageViews[lastClaimedDate];\n      uint pv = documentRegistry[_docId].dailyPageViews[lastClaimedDate];\n      if (tpv > 0 && pv > 0) {\n        sumReward = sumReward + (pv * drp * 700) / tpv;\n      }\n\n      require(lastClaimedDate < lastClaimedDate + ONE_DAY_MILLIS);\n      lastClaimedDate = lastClaimedDate + ONE_DAY_MILLIS;\n    }\n    return sumReward;\n  }\n\n  /////////////////////////////////////////\n  // UTILITY FUNCTIONS\n  function bytes32ToStr(bytes32 _bytes32) private pure returns (string) {\n    bytes memory bytesArray = new bytes(32);\n    for (uint256 i; i < 32; i++) {\n      bytesArray[i] = _bytes32[i];\n    }\n    return string(bytesArray);\n  }\n\n  function getDailyRewardPool() private view returns (uint) {\n    uint curTimeSec = block.timestamp;\n    uint createTimeSec = createDate / 1000;\n    uint offsetSec = curTimeSec - createTimeSec;\n    uint offsetDays = offsetSec / (ONE_DAY_MILLIS / 1000);\n    uint offsetYears = offsetDays / 365;\n    return initialDailyRewardPool * (1/2 ** offsetYears);\n  }\n}\n",
  "sourcePath": "/Users/macdev/Documents/decompany/workspace/blue-bottle/contracts/DocumentRegistry.sol",
  "compiler": {
    "name": "solc",
    "version": "0.4.24+commit.e67f0147.Emscripten.clang"
  },
  "schemaVersion": "2.0.1",
  "updatedAt": "2018-10-06T13:14:20.288Z"
}