{
  "contractName": "RewardPool",
  "abi": [
    {
      "constant": true,
      "inputs": [],
      "name": "myString",
      "outputs": [
        {
          "name": "",
          "type": "string"
        }
      ],
      "payable": false,
      "stateMutability": "view",
      "type": "function"
    },
    {
      "constant": true,
      "inputs": [],
      "name": "offset",
      "outputs": [
        {
          "name": "",
          "type": "uint256"
        }
      ],
      "payable": false,
      "stateMutability": "view",
      "type": "function"
    },
    {
      "constant": false,
      "inputs": [
        {
          "name": "_x",
          "type": "string"
        }
      ],
      "name": "set",
      "outputs": [],
      "payable": false,
      "stateMutability": "nonpayable",
      "type": "function"
    },
    {
      "constant": false,
      "inputs": [
        {
          "name": "_offset",
          "type": "uint256"
        }
      ],
      "name": "setOffset",
      "outputs": [],
      "payable": false,
      "stateMutability": "nonpayable",
      "type": "function"
    }
  ],
  "bytecode": "0x60806040526040805190810160405280600b81526020017f48656c6c6f20576f726c640000000000000000000000000000000000000000008152506000908051906020019061004f929190610066565b506001805534801561006057600080fd5b5061010b565b828054600181600116156101000203166002900490600052602060002090601f016020900481019282601f106100a757805160ff19168380011785556100d5565b828001600101855582156100d5579182015b828111156100d45782518255916020019190600101906100b9565b5b5090506100e291906100e6565b5090565b61010891905b808211156101045760008160009055506001016100ec565b5090565b90565b6103518061011a6000396000f300608060405260043610610062576000357c0100000000000000000000000000000000000000000000000000000000900463ffffffff16806301e343db14610067578063492bfa18146100945780634ed3885e14610124578063d55565441461018d575b600080fd5b34801561007357600080fd5b50610092600480360381019080803590602001909291905050506101b8565b005b3480156100a057600080fd5b506100a96101c2565b6040518080602001828103825283818151815260200191508051906020019080838360005b838110156100e95780820151818401526020810190506100ce565b50505050905090810190601f1680156101165780820380516001836020036101000a031916815260200191505b509250505060405180910390f35b34801561013057600080fd5b5061018b600480360381019080803590602001908201803590602001908080601f0160208091040260200160405190810160405280939291908181526020018383808284378201915050505050509192919290505050610260565b005b34801561019957600080fd5b506101a261027a565b6040518082815260200191505060405180910390f35b8060018190555050565b60008054600181600116156101000203166002900480601f0160208091040260200160405190810160405280929190818152602001828054600181600116156101000203166002900480156102585780601f1061022d57610100808354040283529160200191610258565b820191906000526020600020905b81548152906001019060200180831161023b57829003601f168201915b505050505081565b8060009080519060200190610276929190610280565b5050565b60015481565b828054600181600116156101000203166002900490600052602060002090601f016020900481019282601f106102c157805160ff19168380011785556102ef565b828001600101855582156102ef579182015b828111156102ee5782518255916020019190600101906102d3565b5b5090506102fc9190610300565b5090565b61032291905b8082111561031e576000816000905550600101610306565b5090565b905600a165627a7a72305820d02ecb266d510e95cdd7c165ce498fcc3f605815a652249ff38034395b9cd8720029",
  "source": "pragma solidity ^0.4.24;\n\nimport \"openzeppelin-solidity/contracts/math/SafeMath.sol\";\n\ncontract RewardPool {\n\n  using SafeMath for uint;\n\n  string public myString = \"Hello World\";\n  uint public offset = 1;\n\n  function set(string _x) public {\n    myString = _x;\n  }\n\n  function setOffset(uint _offset) external {\n    offset = _offset;\n  }\n}\n",
  "sourcePath": "/Users/macdev/Documents/decompany/workspace/blue-bottle/contracts/RewardPool.sol",
  "compiler": {
    "name": "solc",
    "version": "0.4.24+commit.e67f0147.Emscripten.clang"
  },
  "schemaVersion": "2.0.1",
  "updatedAt": "2018-10-05T13:28:29.995Z"
}