{
  "contractName": "Utility",
  "abi": [
    {
      "constant": true,
      "inputs": [],
      "name": "getTimeMillis",
      "outputs": [
        {
          "name": "",
          "type": "uint256"
        }
      ],
      "payable": false,
      "stateMutability": "view",
      "type": "function"
    },
    {
      "constant": true,
      "inputs": [],
      "name": "getDateMillis",
      "outputs": [
        {
          "name": "",
          "type": "uint256"
        }
      ],
      "payable": false,
      "stateMutability": "view",
      "type": "function"
    },
    {
      "constant": true,
      "inputs": [
        {
          "name": "_from",
          "type": "uint256"
        }
      ],
      "name": "getOffsetYears",
      "outputs": [
        {
          "name": "",
          "type": "uint256"
        }
      ],
      "payable": false,
      "stateMutability": "view",
      "type": "function"
    },
    {
      "constant": true,
      "inputs": [],
      "name": "getOneDayMillis",
      "outputs": [
        {
          "name": "",
          "type": "uint256"
        }
      ],
      "payable": false,
      "stateMutability": "view",
      "type": "function"
    },
    {
      "constant": true,
      "inputs": [],
      "name": "getVoteDepositMillis",
      "outputs": [
        {
          "name": "",
          "type": "uint256"
        }
      ],
      "payable": false,
      "stateMutability": "view",
      "type": "function"
    },
    {
      "constant": true,
      "inputs": [],
      "name": "getVoteDepositDays",
      "outputs": [
        {
          "name": "",
          "type": "uint256"
        }
      ],
      "payable": false,
      "stateMutability": "view",
      "type": "function"
    },
    {
      "constant": true,
      "inputs": [
        {
          "name": "_percent",
          "type": "uint256"
        },
        {
          "name": "_createTime",
          "type": "uint256"
        }
      ],
      "name": "getDailyRewardPool",
      "outputs": [
        {
          "name": "",
          "type": "uint256"
        }
      ],
      "payable": false,
      "stateMutability": "view",
      "type": "function"
    }
  ],
  "bytecode": "0x60806040526305265c00600055600360015534801561001d57600080fd5b506103028061002d6000396000f300608060405260043610610083576000357c0100000000000000000000000000000000000000000000000000000000900463ffffffff1680637ff8b20e1461008857806387721166146100b3578063bc27787e146100de578063c03812221461011f578063cb41501e1461014a578063dcb8e50614610175578063f733ad95146101c0575b600080fd5b34801561009457600080fd5b5061009d6101eb565b6040518082815260200191505060405180910390f35b3480156100bf57600080fd5b506100c861021c565b6040518082815260200191505060405180910390f35b3480156100ea57600080fd5b5061010960048036038101908080359060200190929190505050610229565b6040518082815260200191505060405180910390f35b34801561012b57600080fd5b5061013461027f565b6040518082815260200191505060405180910390f35b34801561015657600080fd5b5061015f61028b565b6040518082815260200191505060405180910390f35b34801561018157600080fd5b506101aa6004803603810190808035906020019092919080359060200190929190505050610295565b6040518082815260200191505060405180910390f35b3480156101cc57600080fd5b506101d56102cd565b6040518082815260200191505060405180910390f35b60008060006103e86000548115156101ff57fe5b044281151561020a57fe5b04915060005482029050809250505090565b6000805460015402905090565b60008060008060004293506103e88681151561024157fe5b04925082840391506103e860005481151561025857fe5b048281151561026357fe5b04905061016d8181151561027357fe5b04945050505050919050565b60006103e84202905090565b6000600154905090565b60008060006102a384610229565b91506901290aac44759a3ea00090508160020a8582028115156102c257fe5b049250505092915050565b600080549050905600a165627a7a72305820ce5ebefc6813e0d256472d439701c0ca210bbc609ddb62587c1f04fe60f22bb80029",
  "source": "pragma solidity ^0.4.24;\n\ncontract Utility {\n\n  uint private ONE_DAY_MILLIS = 86400000;\n  uint private DEPOSIT_DAYS = 3;\n\n  function bytes32ToStr(bytes32 _bytes32) private pure returns (string) {\n    bytes memory bytesArray = new bytes(32);\n    for (uint256 i; i < 32; i++) {\n      bytesArray[i] = _bytes32[i];\n    }\n    return string(bytesArray);\n  }\n\n  function getTimeMillis() public view returns (uint) {\n    return block.timestamp * 1000;\n  }\n\n  function getDateMillis() public view returns (uint) {\n    uint tDay = uint(block.timestamp / uint(ONE_DAY_MILLIS / 1000));\n    uint tMillis = tDay * ONE_DAY_MILLIS;\n    return tMillis;\n  }\n\n  function getOffsetYears(uint _from) public view returns (uint) {\n    uint curTimeSec = block.timestamp;\n    uint createTimeSec = uint(_from / 1000);\n    uint offsetSec = curTimeSec - createTimeSec;\n    uint offsetDays = uint(offsetSec / uint(ONE_DAY_MILLIS / 1000));\n    return uint(offsetDays / 365);\n  }\n\n  function getOneDayMillis() public view returns (uint) {\n    return ONE_DAY_MILLIS;\n  }\n\n  function getVoteDepositMillis() public view returns (uint) {\n    return DEPOSIT_DAYS * ONE_DAY_MILLIS;\n  }\n\n  function getVoteDepositDays() public view returns (uint) {\n    return DEPOSIT_DAYS;\n  }\n\n  function getDailyRewardPool(uint _percent, uint _createTime) public view returns (uint) {\n    uint offsetYears = getOffsetYears(_createTime);\n    // initial daily reward pool tokens : (200000000 / 365) * decimals(10 ** 18) / percent(100)\n    uint initialTokens = 54794520548 * (10 ** 11);\n    return uint((initialTokens * _percent) / (2 ** offsetYears));\n  }\n}\n",
  "sourcePath": "/Users/centroine/Documents/github/bluebottle/contracts/Utility.sol",
  "compiler": {
    "name": "solc",
    "version": "0.4.24+commit.e67f0147.Emscripten.clang"
  },
  "schemaVersion": "2.0.1",
  "updatedAt": "2018-10-22T03:47:26.072Z"
}