{
  "contractName": "Utility",
  "abi": [
    {
      "constant": true,
      "inputs": [],
      "name": "getTimeMillis",
      "outputs": [
        {
          "name": "",
          "type": "uint256"
        }
      ],
      "payable": false,
      "stateMutability": "view",
      "type": "function"
    },
    {
      "constant": true,
      "inputs": [],
      "name": "getDateMillis",
      "outputs": [
        {
          "name": "",
          "type": "uint256"
        }
      ],
      "payable": false,
      "stateMutability": "view",
      "type": "function"
    },
    {
      "constant": true,
      "inputs": [
        {
          "name": "_from",
          "type": "uint256"
        }
      ],
      "name": "getOffsetYears",
      "outputs": [
        {
          "name": "",
          "type": "uint256"
        }
      ],
      "payable": false,
      "stateMutability": "view",
      "type": "function"
    },
    {
      "constant": true,
      "inputs": [],
      "name": "getOneDayMillis",
      "outputs": [
        {
          "name": "",
          "type": "uint256"
        }
      ],
      "payable": false,
      "stateMutability": "view",
      "type": "function"
    }
  ],
  "bytecode": "0x60806040526305265c0060005534801561001857600080fd5b506101f1806100286000396000f300608060405260043610610062576000357c0100000000000000000000000000000000000000000000000000000000900463ffffffff1680637ff8b20e14610067578063bc27787e14610092578063c0381222146100d3578063f733ad95146100fe575b600080fd5b34801561007357600080fd5b5061007c610129565b6040518082815260200191505060405180910390f35b34801561009e57600080fd5b506100bd6004803603810190808035906020019092919050505061015a565b6040518082815260200191505060405180910390f35b3480156100df57600080fd5b506100e86101b0565b6040518082815260200191505060405180910390f35b34801561010a57600080fd5b506101136101bc565b6040518082815260200191505060405180910390f35b60008060006103e860005481151561013d57fe5b044281151561014857fe5b04915060005482029050809250505090565b60008060008060004293506103e88681151561017257fe5b04925082840391506103e860005481151561018957fe5b048281151561019457fe5b04905061016d818115156101a457fe5b04945050505050919050565b60006103e84202905090565b600080549050905600a165627a7a72305820314f18f2c3ae4e14e172de6d4345a732eccedb9adbd94ea743ab51e3266861580029",
  "source": "pragma solidity ^0.4.24;\n\ncontract Utility {\n\n  uint private ONE_DAY_MILLIS = 86400000;\n\n  function bytes32ToStr(bytes32 _bytes32) private pure returns (string) {\n    bytes memory bytesArray = new bytes(32);\n    for (uint256 i; i < 32; i++) {\n      bytesArray[i] = _bytes32[i];\n    }\n    return string(bytesArray);\n  }\n\n  function getTimeMillis() public view returns (uint) {\n    return block.timestamp * 1000;\n  }\n\n  function getDateMillis() public view returns (uint) {\n    uint tDay = block.timestamp / (ONE_DAY_MILLIS / 1000);\n    uint tMillis = tDay * ONE_DAY_MILLIS;\n    return tMillis;\n  }\n\n  function getOffsetYears(uint _from) public view returns (uint) {\n    uint curTimeSec = block.timestamp;\n    uint createTimeSec = _from / 1000;\n    uint offsetSec = curTimeSec - createTimeSec;\n    uint offsetDays = offsetSec / (ONE_DAY_MILLIS / 1000);\n    return offsetDays / 365;\n  }\n\n  function getOneDayMillis() public view returns (uint) {\n    return ONE_DAY_MILLIS;\n  }\n}\n",
  "sourcePath": "/Users/centroine/Documents/github/bluebottle/contracts/Utility.sol",
  "compiler": {
    "name": "solc",
    "version": "0.4.24+commit.e67f0147.Emscripten.clang"
  },
  "schemaVersion": "2.0.1",
  "updatedAt": "2018-10-12T06:27:41.107Z"
}