{
  "contractName": "Utility",
  "abi": [
    {
      "constant": true,
      "inputs": [],
      "name": "getTimeMillis",
      "outputs": [
        {
          "name": "",
          "type": "uint256"
        }
      ],
      "payable": false,
      "stateMutability": "view",
      "type": "function"
    },
    {
      "constant": true,
      "inputs": [],
      "name": "getDateMillis",
      "outputs": [
        {
          "name": "",
          "type": "uint256"
        }
      ],
      "payable": false,
      "stateMutability": "view",
      "type": "function"
    },
    {
      "constant": true,
      "inputs": [
        {
          "name": "_from",
          "type": "uint256"
        }
      ],
      "name": "getOffsetYears",
      "outputs": [
        {
          "name": "",
          "type": "uint256"
        }
      ],
      "payable": false,
      "stateMutability": "view",
      "type": "function"
    },
    {
      "constant": true,
      "inputs": [],
      "name": "getOneDayMillis",
      "outputs": [
        {
          "name": "",
          "type": "uint256"
        }
      ],
      "payable": false,
      "stateMutability": "view",
      "type": "function"
    },
    {
      "constant": true,
      "inputs": [
        {
          "name": "_percent",
          "type": "uint256"
        },
        {
          "name": "_createTime",
          "type": "uint256"
        }
      ],
      "name": "getDailyRewardPool",
      "outputs": [
        {
          "name": "",
          "type": "uint256"
        }
      ],
      "payable": false,
      "stateMutability": "view",
      "type": "function"
    }
  ],
  "bytecode": "0x60806040526305265c0060005534801561001857600080fd5b5061027f806100286000396000f30060806040526004361061006d576000357c0100000000000000000000000000000000000000000000000000000000900463ffffffff1680637ff8b20e14610072578063bc27787e1461009d578063c0381222146100de578063dcb8e50614610109578063f733ad9514610154575b600080fd5b34801561007e57600080fd5b5061008761017f565b6040518082815260200191505060405180910390f35b3480156100a957600080fd5b506100c8600480360381019080803590602001909291905050506101b0565b6040518082815260200191505060405180910390f35b3480156100ea57600080fd5b506100f3610206565b6040518082815260200191505060405180910390f35b34801561011557600080fd5b5061013e6004803603810190808035906020019092919080359060200190929190505050610212565b6040518082815260200191505060405180910390f35b34801561016057600080fd5b5061016961024a565b6040518082815260200191505060405180910390f35b60008060006103e860005481151561019357fe5b044281151561019e57fe5b04915060005482029050809250505090565b60008060008060004293506103e8868115156101c857fe5b04925082840391506103e86000548115156101df57fe5b04828115156101ea57fe5b04905061016d818115156101fa57fe5b04945050505050919050565b60006103e84202905090565b6000806000610220846101b0565b91506901290aac44759a3ea00090508160020a85820281151561023f57fe5b049250505092915050565b600080549050905600a165627a7a72305820adab6bc91e53bdb9d961699094ba8696dce9a817d3ca1e01424ad0d3a8331bcd0029",
  "source": "pragma solidity ^0.4.24;\n\ncontract Utility {\n\n  uint private ONE_DAY_MILLIS = 86400000;\n\n  function bytes32ToStr(bytes32 _bytes32) private pure returns (string) {\n    bytes memory bytesArray = new bytes(32);\n    for (uint256 i; i < 32; i++) {\n      bytesArray[i] = _bytes32[i];\n    }\n    return string(bytesArray);\n  }\n\n  function getTimeMillis() public view returns (uint) {\n    return block.timestamp * 1000;\n  }\n\n  function getDateMillis() public view returns (uint) {\n    uint tDay = uint(block.timestamp / uint(ONE_DAY_MILLIS / 1000));\n    uint tMillis = tDay * ONE_DAY_MILLIS;\n    return tMillis;\n  }\n\n  function getOffsetYears(uint _from) public view returns (uint) {\n    uint curTimeSec = block.timestamp;\n    uint createTimeSec = uint(_from / 1000);\n    uint offsetSec = curTimeSec - createTimeSec;\n    uint offsetDays = uint(offsetSec / uint(ONE_DAY_MILLIS / 1000));\n    return uint(offsetDays / 365);\n  }\n\n  function getOneDayMillis() public view returns (uint) {\n    return ONE_DAY_MILLIS;\n  }\n\n  function getDailyRewardPool(uint _percent, uint _createTime) public view returns (uint) {\n    uint offsetYears = getOffsetYears(_createTime);\n    // initial daily reward pool tokens : (200000000 / 365) * decimals(10 ** 18) / percent(100)\n    uint initialTokens = 54794520548 * (10 ** 11);\n    return uint((initialTokens * _percent) / (2 ** offsetYears));\n  }\n}\n",
  "sourcePath": "/Users/centroine/Documents/github/bluebottle/contracts/Utility.sol",
  "compiler": {
    "name": "solc",
    "version": "0.4.24+commit.e67f0147.Emscripten.clang"
  },
  "schemaVersion": "2.0.1",
  "updatedAt": "2018-10-17T12:02:53.705Z"
}